:100000000C94A60D0C94CE0D0C94CE0D0C94CE0D2C
:100010000C94CE0D0C94CE0D0C94CE0D0C94CE0DF4
:100020000C94CE0D0C94CE0D0C94A9100C94E97286
:100030000C9400770C9416730C94CE0D0C94331220
:100040000C9497100C94CE0D0C94CE0D0C94CE0DF8
:100050000C94CE0D0C94CE0D0C94CE0D0C94CE0DB4
:100060000C94A9760C9409110C947D730C946F7602
:100070000C94CE0D0C94CE0D0C94CE0D0C94CE0D94
:100080000C94CE0D0C94CE0D0C94CE0DA978AD78B9
:10009000B178B778CA78DE78F078FC780F79217972
:1000A0002779417947794C79527958795E79647921
:1000B000717975797B79817985798A79927998795D
:1000C0009D79A279A779AC79B279B879BE79C479EA
:1000D000CA791B1E272D36394B4E636C7278878D7B
:1000E000939CB1B4C6C9D2D8E1E4035448525255E6
:1000F00044454C4549443049443149443241494CD6
:1001000047454154524E4C31204C32204C33204C08
:1001100034204C35204C36204C37204C38204C397C
:10012000204C41204C42204C4320004F4646004F7B
:100130004E20000452756420456C6520546872207E
:1001400041696C2000000102030002010303010267
:1001500000030201004C4F4144494E4700454550C1
:10016000524F4D206C6F77206D656D00416C617250
:100170006D732044697361626C656400204F6C6428
:100180002056657273696F6E20454550524F4D2061
:100190002020434845434B2053455454494E475330
:1001A0002F43414C49420000006428100703016DB1
:1001B000537461636B206F666C6F77006D5374616D
:1001C000636B2075666C6F770020414C455254007C
:1001D0004D45535341474500707265737320616EFE
:1001E00079204B657900506C6561736520526573A9
:1001F0006574205377697463686573005377697415
:100200006368205761726E696E670052657365742A
:10021000207468726F74746C65005468726F7474C3
:100220006C65206E6F742069646C65005072657334
:100230007320616E79206B657920746F20736B6910
:1002400070004F46464F4E20544873544825002DA9
:100250002D2D002D2D2D2D0000000000010101028B
:1002600002020201010300564552533A2056312E34
:10027000323433392D4D696B651F444154453A2062
:1002800031302E30312E323031351F54494D453A00
:100290002032303A30393A31371F2053564E3A2007
:1002A000657239782D723831361F204D4F443A200F
:1002B000202000537769746368205761726E696EFD
:1002C0006700045031202050322020503320204835
:1002D000414C4646554C4C435943314359433243B4
:1002E00059433350504D3150504D3250504D335092
:1002F000504D3450504D3550504D3650504D375074
:10030000504D38434831204348322043483320433E
:10031000483420434835204348362043483720435B
:10032000483820434839204348313043483131432D
:1003300048313243483133434831344348313543FF
:1003400048313653574348475631204756322047A5
:1003500056332047563420475635204756362047D7
:100360005637205448495300032D2D2D783E3078C0
:100370003C307C787C663E30663C307C667C633109
:1003800020633220633320633420633520633620BA
:100390006337206338206339206331306331316340
:1003A00031326331336331346331356331360004C4
:1003B0002D2D2D2D54494D3154494D324241545427
:1003C00047767231477672324776723347767234A7
:1003D00047767235477672364776723700FEFFFDF4
:1003E000F6F7F8F9FAFBFC4D6F64656C2053656C09
:1003F000656374004D6F64656C205365747570009F
:100400004C617374204D656E7500526164696F2094
:1004100053657475700053746174697374696373A0
:100420000047656E6572616C0000020304060954A2
:10043000524530313241470054696D65720048655C
:100440006C69205365747570004578706F2F447225
:100450000050726F746F636F6C0003416D654A6189
:100460007045757200034431364438204C525000B8
:1004700020547970651F20436F756E7472791F4226
:10048000696E641F52616E676500094C50342F4CD1
:100490005035202044534D326F6E6C792044534DBB
:1004A000322F44534D580044534D20547970650009
:1004B00003504F534E454700536869667420536597
:1004C0006C0050504D2046724C656E0D6D53656347
:1004D000000B52784E756D00043443482036434873
:1004E0002038434820313043483132434831344387
:1004F000483136434800137553000650504D2020B4
:100500002050585820202044534D32202050504D28
:100510003136204E524620202050504D53494D0038
:10052000317374204368616E1F50726F746F0002E4
:100530004578706F1F1F015765696768741F1F44F6
:10054000725377311F4472537732000704445220AC
:10055000486920044452204D6964044452204C6F81
:100560007700042D2D2D2D3132302031323058318D
:10057000343020393020200053776173682054795B
:1005800070651F436F6C6C6563746976651F537784
:100590006173682052696E671F454C45204469723B
:1005A000656374696F6E1F41494C204469726563CD
:1005B00074696F6E1F434F4C2044697265637469A0
:1005C0006F6E0052455441313233005472696D20D0
:1005D00053771F48692E52657320536C6F772F44F1
:1005E000656C61791F4265657020436E7400064535
:1005F0007870202020457846696E6546696E6520D2
:10060000204D656469756D436F6172736500032DDC
:100610002D2D50312050322050332047563447562C
:100620003547563647563700566F6C756D65204313
:100630006F6E74726F6C1F452E204C696D697473F8
:100640001F547261696E65721F542D5472696D1F5B
:10065000542D4578706F1F5472696D20496E630088
:10066000052D31303025202020302500446566617D
:10067000756C742053771F437573746F6D53746B6F
:100680004E616D65731F4175746F204C696D69749F
:10069000731F5468726F74746C652044656661756D
:1006A0006C7400566F69636520496E646578114DFE
:1006B000454E5500BB103E04CE064904D506DB0668
:1006C000C110CC10E206D7103804210451044C6943
:1006D0006D697473004D6F64657300437572766560
:1006E0007300476C6F62616C56617273000A436FEE
:1006F000756E7420446F776E436F756E74205570FD
:1007000020200054696D65721F54726967676572B5
:10071000411F54726967676572421F54696D657243
:100720001F52657365742053776974636800072DE1
:100730002D2D2D202020763E76616C2020763C7673
:10074000616C20207C767C3E76616C7C767C3C768D
:10075000616C414E44202020204F52202020202038
:10076000584F522020202076313D3D763220763180
:10077000213D76322076313E7632202076313C762D
:100780003220204C617463682020462D466C6F70C7
:100790002054696D654F66667631603D76616C0008
:1007A0000D4F6E004C4F474943414C20535749541D
:1007B0004348455300434F5059205452494D205B04
:1007C0004D454E555D00065761726E31205761727E
:1007D0006E322043686561702052696E6720205335
:1007E0006369466920526F626F7420436869727052
:1007F00020546164612020437269636B7453697291
:10080000656E20416C6D436C6B5261746174615410
:1008100069636B2020486170746331486170746350
:100820003248617074633300064F4E202020204F01
:100830004646202020424F544820203135536563DE
:100840007333305365637336305365637356617227
:1008500069626C005653000720382053656373317A
:10086000322053656373313620536563730001533F
:10087000415658004E756D62657220566F6963650A
:1008800020537700536166657479205377697463E8
:10089000686573000420204F4E204F4646424F5457
:1008A0004800564100566F69636520416C61726D66
:1008B00073004D454E55204C4F4E470044656C65C6
:1008C000746500566F6963652046696C6500062D86
:1008D0002D2D2D2D2D4E756D62657220417564692B
:1008E0006F0004506C61794D75746500064E6F2081
:1008F0002020204265666F72654166746572200033
:10090000072D2D2D2D2D2D2D4861707469633148D3
:10091000617074696332486170746963330007768B
:10092000603D76616C20763D76616C202000072862
:100930000D2900506C617920536F757263651F4FEC
:100940006E206E6F2054656C656D657472791F46FC
:10095000696C655479706500536F757263651F46E5
:10096000756E6374696F6E1F56616C75651F537782
:10097000697463681F526174651F486170746963AC
:1009800000566F69636520416C61726D0044697344
:10099000706C617900417564696F48617074696356
:1009A000004D696E757465206265657000436F6EF9
:1009B00074726F6C730001524554410012081200AA
:1009C000081C0808081C080000082200490022082A
:1009D0000000000000227F220000000822004900E1
:1009E0002208000008220049002208000000227F9F
:1009F0002200000000000822004900220800000830
:100A00001C0808081C0800416C61726D7300426587
:100A1000657020636F756E74646F776E00566572D3
:100A200073696F6E00547261696E6572004861721D
:100A300064776172650043616C6962726174696FA9
:100A40006E005B4D454E555D205748454E20444F46
:100A50004E4500034D4F564520535449434B532FA9
:100A6000504F54530005534554204D4944504F496D
:100A70004E5400035B4D454E555D20544F2053545A
:100A80004152540042616E644761700043616C00E2
:100A90004D756C7469706C69657200036F666620D1
:100AA0002B3D203A3D00036D6F64650A252073726B
:100AB00063202073770007536C617665001242470C
:100AC00000414E41005472696D2D202B00204C6571
:100AD00066741F52696768741F0355701F20446F46
:100AE000776E1F20457869741F204D656E75004430
:100AF00049414700537469636B5363726F6C6C00B8
:100B0000506F745363726F6C6C0053706C617368D8
:100B1000204E616D650053706C6173682073637261
:100B200065656E00416C61726D205761726E696E11
:100B300067004D656D6F7279205761726E696E67DF
:100B4000005468726F74746C65205761726E696EC0
:100B5000670042617474657279207761726E696EA4
:100B6000671F496E616374697669747920616C618D
:100B7000726D136D00014368616E6E656C204F727B
:100B80006465721F4D6F646500456E61626C65201F
:100B900050504D53494D005468726F74746C652009
:100BA000726576657273650043726F737354726910
:100BB0006D002048617074696320537472656E67BC
:100BC0007468000A426565706572202020205069B3
:100BD00053706B72202020204265657072566F69D9
:100BE0006365506953706B566F6963654D656761E6
:100BF000536F756E642000065175696574204E6FE1
:100C00004B6579207853686F727453686F727420E3
:100C10004E6F726D20204C6F6E672020784C6F6E87
:100C2000672000566F6C756D651F42656570657253
:100C30001F536F756E64204D6F64651F2053706580
:100C4000616B657220506974636800466C617368FB
:100C5000206F6E2062656570004261636B6C69672E
:100C6000687420696E76657274004C6967687420D8
:100C70007377697463681F1F4C69676874206F66B7
:100C80006620616674657213731F4C69676874200F
:100C90006F6E2053746B204D76137300436F6E7428
:100CA00072617374008D099509070A2104AD092D3D
:100CB0000A360A250A1D0ADD10E71022047C5E545C
:100CC000546D0003457870457846466E654D656401
:100CD0004372730011544F541F01544D4511545326
:100CE000571F0153544B1153542500035B4D454E80
:100CF000555D20746F207265667265736800746D4F
:100D000072314C6174206D61781275731F746D724D
:100D1000314C6174206D696E1275731F746D723180
:100D2000204A69747465721275731F746D61696EFF
:100D3000126D7300535441540045444954005345C7
:100D40004C4543540053454C2F4544495400434FB0
:100D50005059004D4F56450044454C4554450009F7
:100D600066726565004D4F44454C53454C00204626
:100D70004D300A524554410020464D005377697466
:100D800063681F5472696D731F4661646520496E04
:100D90001F46616465204F757400464C204D4F44DA
:100DA000450000030052414E474520434845434B10
:100DB00020525353493A000642494E44494E470097
:100DC0004475706C69636174696E67206D6F6465EA
:100DD0006C0044454C455445204D4F44454C00441F
:100DE00055504C4943415445204D4F44454C0020FB
:100DF0004142434445464748494A4B4C4D4E4F506B
:100E00005152535455565758595A61626364656636
:100E10006768696A6B6C6D6E6F70717273747576EA
:100E20007778797A303132333435363738395F2D47
:100E30002E00012B2A52004D495845520045444985
:100E40005400494E5345525400434F5059004D4FA2
:100E500056450044454C4554450020202020202084
:100E600020202020202020200044454C45544520AF
:100E70004D49583F00035945530B4E4F1F035B4DDF
:100E8000454E555D0B5B455849545D004D617820DA
:100E90006D69786572732072656163683A203332D8
:100EA0001F1F5072657373205B455849545D207451
:100EB0006F2061626F7274000841646420202020FA
:100EC000204D756C7469706C795265706C616365E6
:100ED0002000437572766500084469666600114516
:100EE00078706F0001557365204F757470757420AC
:100EF00020200001536F757263651F015765696794
:100F000068741F014F66667365741F014669782017
:100F10004F66667365741F01456E61626C65457846
:100F2000706F44521F015472696D1F1F1F01537768
:100F3000697463681F014D4F4445531F0157617227
:100F40006E696E671F014D756C7470781F01446582
:100F50006C617920446F776E1F0144656C61792064
:100F600055701F01536C6F772020446F776E1F01FF
:100F7000536C6F77202055701F5357434820537789
:100F8000697463680045444954204D495820000461
:100F900073494478735448527352554473454C45D1
:100FA0007341494C734745417354524E004F5000B2
:100FB000434C454152204D49584553205B4D454EC9
:100FC000555D0054454D504C415445530047560023
:100FD0005343092B0D2A122F00032D2D2D52746D12
:100FE00045746D54746D41746D52454E527564452F
:100FF0006C6554687241696C503120503220503316
:101000002000010101010101010005466565742010
:10101000566F6C74734465675F434465675F466DE4
:1010200041682020416D7073204D65747265576171
:10103000747473000546697273744C617374200094
:10104000536F757263651F1F4F66667365741F4D1E
:10105000756C7469706C6965721F44697669736F29
:10106000721F556E69741F5369676E1F446563690B
:101070006D616C731F4F6666736574204174005315
:1010800043005B4D6F72655D0043560050524553FF
:10109000455400435552564500032D2D2D494E56BB
:1010A000004E616D6500465643466D416D571824EC
:1010B0002F2F0033383B53575220004D697865720B
:1010C000004C2E53776974636865730053616665DD
:1010D00074792053777300566F69636500446961C2
:1010E0006753777463680044696167416E610045C6
:1010F0004550524F4D206F766572666C6F77006772
:10110000656E7772697465206572726F720045450D
:1011100050524F4D20466F726D617474696E670056
:1011200042616420454570726F6D204461746100B6
:10113000434845434B204D4F44454C2054494D4571
:10114000525300434845434B204D49582F445220A9
:10115000534F5552434553004D4F44454C2020209A
:101160002020004D45202020202020202000E2AE1D
:10117000A1A6A4A2C02F25AF010204081020408020
:1011800000000000000000006F00000700070014CE
:101190007F147F14242A7F2A12231308646236499D
:1011A0005522500005030000001C2241000041228E
:1011B0001C0014083E081408083E080800503000BF
:1011C00000080808080800606000002010080402F9
:1011D000003E49453E0000427F40006251494600C2
:1011E00041494936001814127F0027454539003E11
:1011F000494932000179050300364949360006495C
:10120000291E000036360000005636000008142261
:101210004114141414144122140800020151090647
:1012200000060909067E0909097E7F494949363EBB
:10123000414141227F4141221C7F494949417F0967
:101240000909013E4149497A7F0808087F00417F2A
:1012500041002040413F017F081422417F4040402F
:10126000407F020C027F7F0408107F3E4141413ED7
:101270007F090909063E4151215E7F091929462649
:101280004949493201017F01013F4040403F1F2051
:1012900040201F3F4030403F63140814630708702C
:1012A00008076151494543007F414100020408108D
:1012B000200041417F0004020102044040404040C0
:1012C000080408100820545454787F48444438389F
:1012D00044444420384444487F3854545418087EC9
:1012E0000901020C5252523E7F0804047800447DEA
:1012F00040002040443D007F1028440000417F40D2
:10130000007C041804787C08040478384444443889
:101310007C14141408081414187C7C08040408486D
:1013200054545420043F4440203C4040207C1C2026
:1013300040201C3C4020403C44281028440C505085
:10134000503C4464544C44000836410000007F0087
:101350000000413608000808221C08081C22080862
:10136000000000000000000000000000000000007D
:10137000000000000000000000000000000000006D
:10138000333B1F0F00000000C0C0C0C0C0C0C0C0C1
:10139000C0C00000000000000000000000000000CD
:1013A0000000000000000000183C3C180000000095
:1013B00000000080C0E070381C0C0C0E0703010018
:1013C000000000000000FCFE87C3E377FEFC000085
:1013D0000F1F3B3130381F0F00000C0EFFFF0000C5
:1013E0000000000030303F3F3030000000000C0EA5
:1013F0000783C3E77E3C00003C3E3733313030305A
:1014000000000303C3C3C3E7FE3C000030303030AC
:1014100030391F0F0000C0E070381C0EFFFF0000C5
:101420000303030303033F3F00003F3F33333373A2
:10143000E3C300000C1C383030381F0F0000FCFEE6
:10144000C7C3C3C78E0C00000F1F383030391F0FC1
:1014500000000303C3E3733B1F0F000000003F3F86
:101460000000000000003CFEE7C3C3E7FE3C0000B4
:101470000F1F393030391F0F00003C7EE7C3C3E730
:10148000FEFC0000000030381C0E07030000183C72
:101490003C18000000000000060F0F0600000000CE
:1014A000F0F8DCCEC7C7CEDCF8F03F3F000000000C
:1014B00000003F3FFFFFC3C3C3C3C3E7FE3C3F3F42
:1014C0003030303030391F0FFCFE070303030307B1
:1014D0000E0C0F1F3830303030381C0CFFFF030368
:1014E00003070E1CF8F03F3F303030381C0E070366
:1014F000FFFFC3C3C3C3C3C303033F3F3030303018
:1015000030303030FFFFC3C3C3C3C3C303033F3F07
:101510000000000000000000FCFE0703C3C3C3C7B7
:10152000CECC0F1F3830303030303F3FFFFFC0C0CF
:10153000C0C0C0C0FFFF3F3F0000000000003F3FB1
:1015400000000303FFFF03030000000030303F3FB3
:1015500030300000000000000303FFFF03030C1CF9
:10156000383030381F0F0000FFFFC0E0F0381C0E8D
:1015700007033F3F000103070E1C3830FFFF000048
:101580000000000000003F3F30303030303030305D
:10159000FFFF0E1CF8F81C0EFFFF3F3F000000008D
:1015A00000003F3FFFFF3870E0C08000FFFF3F3F7B
:1015B0000000000103033F3FFCFE07030303030792
:1015C000FEFC0F1F3830303030381F0FFFFFC3C311
:1015D000C3C3C3E77E3C3F3F0000000000000000A3
:1015E000FCFE070303030307FEFC0F1F38303337ED
:1015F0001E1C3F33FFFFC3C3C3C3C3E77E3C3F3F53
:10160000000003070E1C38303C7EE7C3C3C3C3C7CA
:101610008E0C0C1C3830303030391F0F030303039D
:10162000FFFF03030303000000003F3F0000000032
:10163000FFFF000000000000FFFF0F1F38303030B8
:1016400030381F0FFFFF000000000000FFFF0307FE
:101650000E1C38381C0E0703FFFF000000000000BE
:10166000FFFF0F1F38381F1F38381F0F0F1F38F0AC
:10167000E0E0F0381F0F3C3E0703010103073E3C4A
:101680003F7FE0C08080C0E07F3F000000013F3F1F
:101690000100000003030383C3E3733B1F0F3C3EC1
:1016A00037333130303030300000000000000000AF
:1016B00000003030303030303030303000003030EA
:1016C00030303070E0C00C1E3F33333333333F3F94
:1016D000FFFFC0E070303070E0C03F3F303030304E
:1016E00030381F0FC0E070303030303000000F1F36
:1016F0003830303030381C0CC0E070303070E0C012
:10170000FFFF0F1F3830303030303F3FC0E07030C7
:1017100030303070E0C00F1F3B33333333330303BB
:10172000C0C0FCFEC7C303070E0C00003F3F000013
:1017300000000000F0F89C0C0C0C0C0CFCFC0001F0
:1017400033333333333B1F0FFFFFC0E07030307053
:10175000E0C03F3F0000000000003F3F000030308D
:10176000F3F300000000000030303F3F3030000055
:10177000000000003030F3F300000C1C383030382B
:101780001F0F0000FFFF0080C0E0703000003F3FEF
:1017900003070F1C3830000000000303FFFF0000A8
:1017A0000000000030303F3F30300000F0F030707B
:1017B000E0E07070E0C03F3F0000030300003F3FE7
:1017C000F0F0C0E070303070E0C03F3F000000003B
:1017D00000003F3FC0E0703030303070E0C00F1F7D
:1017E0003830303030381F0FF0F03030303030F0DB
:1017F000E0C03F3F0303030303030100C0E0F030F8
:101800003030E0C0F0F000010303030303033F3F67
:10181000F0F0C0E070303070E0C03F3F00000000EA
:1018200000000000C0E0F0303030303000003031D7
:1018300033333333333F1E0C3030FFFF3030000082
:10184000000000000F1F383030381C0CF0F0000092
:1018500000000000F0F00F1F383030381C0C3F3F04
:10186000F0F0000000000000F0F003070E1C383814
:101870001C0E0703F0F0000000000000F0F00F1F46
:1018800038381C1C38381F0F3070E0C08080C0E032
:10189000703030381C0F07070F1C3830F0F0800014
:1018A00000000000F0F0000133333333333B1F0FEF
:1018B0003030303030B0F0F0703030383C3E3733BC
:1018C000313030304080080420100201F518011931
:1018D000071914191B19281933193E199C141E468F
:1018E0005A50463C4664645A505A64E2F1003264ED
:1018F0009CCE00326453696D706C6520342D434872
:1019000000542D43757400537469636B7920542D12
:1019100043757400562D5461696C00456C65766F93
:101920006E5C44656C74610048656C692053657435
:101930007570004779726F20536574757000536538
:1019400072766F2054657374000000891112239B16
:10195000322446AD573665BF74488CC19D5AAFD30B
:10196000BE6CCAE5DB7EE9F7F88110080193331AF3
:1019700022A5562C47B7753E64C99C408DDBBF52EB
:10198000AEEDDA64CBFFF976E802218B30100299D4
:10199000132667AF763444BD554AADC3BC588ED1CB
:1019A0009F6EEBE7FA7CC8F5D983310A20911218B3
:1019B00003A7772E66B5543C45CBBD42ACD99E50AB
:1019C0008FEFFB66EAFDD874C904428D5316619F00
:1019D000702004A9153227BB364CCEC5DF5EEDD78B
:1019E000FC6888E1997AABF3BA85520C4397711E73
:1019F00060A1142805B3373A26CDDE44CFDFFD566B
:101A0000ECE9986089FBBB72AA06638F7214409D53
:101A1000512225AB343006B9174EEFC7FE5CCCD54A
:101A2000DD6AA9E3B8788AF19B87730E6295501C32
:101A300041A3352A24B1163807CFFF46EEDDDC542A
:101A4000CDEBB962A8F99A708B088481951AA79397
:101A5000B62CC2A5D33EE1B7F04008C919522BDB22
:101A60003A644EED5F766DFF7C899400859BB712DA
:101A7000A6ADD224C3BFF136E0C1184809D33B5A02
:101A80002AE55E6C4FF77D7E6C0AA583B4188691BB
:101A9000972EE3A7F23CC0B5D14229CB38500AD9E2
:101AA0001B666FEF7E744CFD5D8BB502A49996109A
:101AB00087AFF326E2BDD034C1C3394A28D11A58C2
:101AC0000BE77F6E6EF55C7C4D0CC685D71EE597E7
:101AD000F42880A1913AA3B3B2444ACD5B5669DFA2
:101AE00078600CE91D722FFB3E8DD604C79FF5165A
:101AF000E4A9902081BBB332A2C55A4C4BD7795E82
:101B000068E11C680DF33F7A2E0EE787F61CC4953A
:101B1000D52AA1A3B03882B193466BCF7A5448DD61
:101B200059622DEB3C700EF91F8FF706E69DD41419
:101B3000C5ABB122A0B9923083C77B4E6AD5585C41
:101B400049E33D6A2CF11E780F00E51111241FBEF8
:101B5000CFEFD0E1DEBFCDBF11E0A0E0B1E0E4E423
:101B6000FEEF02C005900D92AC32B107D9F71EE02E
:101B7000ACE2B1E001C01D92A736B107E1F71BE16D
:101B8000CCE4DBE104C02297FE010E94EA7ECA3465
:101B9000D107C9F70E94DE1E0C94207F0C94000030
:101BA000FC0184818823B9F08091870190E09C0139
:101BB0002170307080FF0BC02130310569F48281C3
:101BC0009091660E890F8093660E87FF02C01B9A64
:101BD00008951B9808951B980895E0917C01F0E00A
:101BE000EE0FFF1FEE0FFF1FE80FF11DEB5BFE4F27
:101BF000E4918E2F8F5F0895F8942091770D3091A6
:101C0000780D7894C9010895E82FF0E0E95AFD4F66
:101C1000E4918E2F08959AE0899F900111242C530E
:101C20003E4FC901089595E0899F900111242C5FD2
:101C30003C4FC90108959C0180911B05807689F075
:101C400070E0E62FF0E0EE0FFF1FE85CFE4F8181B1
:101C50009281281B390B215F3F4F2F31310530F422
:101C600004C070E0421753070CF071E0872F08950D
:101C7000A62FB0E08823A1F090E00197FC01EE0FC1
:101C8000FF1FEE0FFF1FE80FF91FEA0FFB1FEE0FFC
:101C9000FF1FE159FB4F608171816B507E4F07C080
:101CA000A457BC4F8C91682F772767FD7095CB01A7
:101CB0000895282F30E070E0222319F1822F90E060
:101CC0000197FC01EE0FFF1FEE0FFF1FE80FF91F3A
:101CD000E60FF71FEE0FFF1FE159FB4F0190F08158
:101CE000E02DEB50FE4F81E0E53FF80754F08E2FDA
:101CF000855F821708F08F5F3F5F282F3430E1F651
:101D000020E0822F08951F93162F0E94590EA12FB5
:101D1000B0E08823A9F090E00197FC01EE0FFF1FCF
:101D2000EE0FFF1FE80FF91FEA0FFB1FEE0FFF1F5B
:101D3000E159FB4F0190F081E02DEB50FE4F07C0C1
:101D4000A457BC4F8C91E82FFF27E7FDF095CF01FA
:101D50001F9108959C0183589F4F8B3F910540F040
:101D6000121613061CF023E83FEF02C02DE730E007
:101D7000C9010895E0911206F0E0EE0FFF1FE65F43
:101D8000F94F808191810895E0911206F0E0EE0F05
:101D9000FF1FE85FF94F918380838FEB80931306D9
:101DA0000895909180018AEF989F90011124220F4D
:101DB000331F80912106909122068217930720F409
:101DC000309322062093210608959C01ABE1BEE0EA
:101DD00097968C9197978031D0F498968C9198979C
:101DE000E82FF0E0EE0FFF1FEA0FFB1F3183208387
:101DF0008F5F98968C939897803118F098961C92E4
:101E0000989797968C9197978F5F97968C93089554
:101E100080939F0590E040970E94E50E089590E022
:101E20000E94E50E089590E08C5F9E4F0E94E50EA3
:101E30000895DC018091870190969C91909781FF95
:101E4000B7C091968C919197992311F0846001C04D
:101E50008B7F91968C93919796969C9196979130C3
:101E600009F056C0C79A97968C919797882309F4E2
:101E70004BC099968C919997E82FF0E0EE0FFF1FD9
:101E8000EA0FFB1F2081318195963C932E93949706
:101E90008F5F99968C939997803118F099961C9240
:101EA000999797968C919797815097968C9397973F
:101EB00081E193968C93939794968D919C919597AD
:101EC00097FF04C088E293968C93939791962C91F8
:101ED00091972C7F91962C93919794968D919C91AC
:101EE000959797FF04C0226091962C9391979196B5
:101EF0008C9191978BBBC7988FE192968C93929718
:101F000082E096968C93089591968C918BBB4EC0EF
:101F1000992381F4C79A91968C91919783609196B9
:101F20008C9391978BBB8091790D8D3308F43EC0D3
:101F300086E03AC0923009F446C091968C91919710
:101F40008BBBC79ABF9800C0000000C086B38078E2
:101F5000BF9A933069F4882349F093968C919397B4
:101F6000815093968C939397882301F584E01CC04D
:101F7000943021F48823D1F083E012C0953059F4D5
:101F800093968C919397815093968C9393978823F3
:101F900069F481E009C0963049F4882339F084E17E
:101FA00093968C93939785E096968C93C798089513
:101FB000809184018295869586958170981711F09D
:101FC000C79A0895C79808951BBA8FE18ABB00C0CD
:101FD00029B38FEF8ABB207EE1EAF5E08781882371
:101FE00019F080E2848301C02483322F3F7D9081E9
:101FF000391759F09074990F20788181921711F058
:10200000815001C08F5F81833083928183819817D3
:1020100011F0938391830895E82F80917C0180FDD6
:1020200002C083E0E827F0E0EE54F94F808187FD9D
:10203000895F859585958595181614F490E803C0F9
:102040008111819590E0883008F087E0E82FF0E07A
:10205000E955FE4FE491EE2319F089E080930706DD
:10206000892F8E2B0895282F833011F4E0E005C0CE
:10207000882311F4E3E001C0E82FF0E0EE0FFF1F2A
:10208000EB5CF94F0190F081E02D243080F48091D9
:10209000990190E002C0959587952A95E2F780FF17
:1020A00006C080E098E09C012E1B3F0BF901CF0198
:1020B00008950E9433109C0180917E0180FF03C02F
:1020C000309521953F4FC9010895FF920F931F93BB
:1020D000CF93DF9300E010E0FF248F2D0E94331098
:1020E000C92FD0E00C0F1D1FF39484E0F816A9F758
:1020F000C801DF91CF911F910F91FF900895E5E303
:10210000F6E040E0842F806487B9369A3699FECF96
:1021100024B135B1369A3699FECF84B195B1820F8C
:10212000931F819391934F5F483061F7089578949E
:102130001F920F920FB60F9211248F938091450634
:102140008F5F809345068F910F900FBE0F901F9069
:10215000189578941F920F920FB60F9211242F9317
:102160003F934F935F936F937F938F939F93AF931F
:10217000BF93EF93FF93F89487B78F7B87BF7894D3
:1021800085EB95E00E94D00D8091870181FF2BC0E7
:102190008091480D882339F5EBE1FEE086A182307D
:1021A00011F583A1882311F081501CC021A1C79A89
:1021B00082A180FD09C02D7F84A195A196FD22609A
:1021C000880F991F95A384A381E028272BBB8BB38D
:1021D00081A3C79882A1815082A3882321F483E040
:1021E00086A385E083A3F89487B7806487BF78943B
:1021F000FF91EF91BF91AF919F918F917F916F91DF
:102200005F914F913F912F910F900FBE0F901F90B4
:10221000189578941F920F920FB60F9211242F9356
:102220003F934F935F936F937F938F939F93AF935E
:10223000BF93EF93FF932091800030918100F89439
:1022400080917D008F7D80937D00789480914B06F6
:1022500090914C06A901481B590B56954795309310
:102260004C0620934B06CA01815A9F408F5D9E42C7
:1022700020F481E0809334062FC020913406822F11
:102280008150883048F5CA01815293408757954064
:1022900008F584E68093A005E22FF0E0EE0FFF1F23
:1022A000EE5DF94F4C5D554080918201865F90E074
:1022B000BC01469FC001479F900D569F900D112471
:1022C0006AE070E00E94987E718360832F5F2093A4
:1022D000340602C010923406F89480917D0080622A
:1022E00080937D007894FF91EF91BF91AF919F9182
:1022F0008F917F916F915F914F913F912F910F90AF
:102300000FBE0F901F901895982F8E3310F480E019
:10231000089580E0953408F481E008959C0175E00B
:10232000359527957A95E1F7280F391FAC01452F90
:10233000550F550B4595240F351F880F892F881F82
:10234000990B281B390BC9010895982F83588B3F8F
:1023500010F4892F08959E57E92FFF27E7FDF09588
:10236000EE0FFF1FEF59FB4F808186171CF460832F
:10237000862F0895481714F44083842F08956CE93C
:1023800044E60E94A5110895982F8091BB0184FD19
:1023900002C080E0089580E0923009F481E0089561
:1023A00099E2890290011124359527953595279555
:1023B00087FD815C86FB880F880B80F9992787FD54
:1023C0009095281B390BC901089585EB95E00E9473
:1023D0007B7708951F93CF93DF93162FEA0188230D
:1023E00041F10E94590E282F882319F1CE018358FC
:1023F0009F4F8B3F910540F01C161D061CF0C3E853
:10240000DFEF02C0CDE7D0E0822F90E00197FC0122
:10241000EE0FFF1FEE0FFF1FE80FF91FE10FF11D79
:10242000EE0FFF1FE159FB4FC55FD140D183C08341
:1024300013C0CE0183589F4F8B3F910540F01C166F
:102440001D061CF0C3E8DFEF02C0CDE7D0E0E12FAE
:10245000F0E0E457FC4FC08386E00E947E61DF918C
:10246000CF911F91089578941F920F920FB60F92FB
:1024700011242F933F934F935F936F937F938F9389
:102480009F93AF93BF93EF93FF9381B7845681BF20
:1024900085EB95E00E9493770E94266F80910B0E4A
:1024A000826080930B0EE0E0F1E0808181508083B8
:1024B000882321F484E6808381E0818382818150B6
:1024C0008283882321F48AE0828381E08383809160
:1024D000B9018F70843011F40E94577DFF91EF9104
:1024E000BF91AF919F918F917F916F915F914F912C
:1024F0003F912F910F900FBE0F901F90189585EB75
:1025000095E00E948177882311F084E105C08091D5
:102510004606882321F081508093460608C08091AA
:10252000630090E09695879581708093470680912F
:10253000470680936E05811181E008951F93CF9324
:10254000DF9310E0C6E1D0E0CE010E94B96E110F1A
:10255000182B2197CE30D105B9F7812FDF91CF917C
:102560001F910895AF92BF92CF92DF92EF92FF92A8
:102570000F931F93CF93DF937C015B016A01022FBE
:102580001091AA05143651F0143441F08091E506FB
:10259000882399F0133611F0133479F4B19906C0F9
:1025A00080911E06E701C80FD11D02C0E7012196E8
:1025B00083E10E94D57985E01AC0153651F01534B3
:1025C00041F0882309F494C0123619F0123409F04E
:1025D0008FC0B19906C080911E06E701C81BD109C2
:1025E00002C0E701219784E10E94D57984E090E060
:1025F0000E94B96E882351F0CC27DD27CE19DF0960
:1026000085E00E94186F84E00E94186FA114B10445
:10261000E1F481E0C816D104C1F4103611F01E3285
:1026200091F41092E506C0E0D0E0E114F10411F459
:10263000C1E0D0E0812F0E94186F1E3211F4109279
:10264000AF0610E002C0C170D07080911606909164
:102650001706C81BD90B8091AF06813081F4B19960
:1026600007C09091A90584E19802C001112405C01A
:102670008091A905992787FD9095C80FD91FCC1681
:10268000DD0644F4812F0E94186F83E10E94D57902
:10269000E6010AC0CA15DB053CF4812F0E94186FC1
:1026A00084E10E94D579E501CE15DF05A9F0B19945
:1026B00003C08FEF80934D06209751F4812F0E9425
:1026C000096FF7FE02C083E101C084E10E94D57961
:1026D000802F83700E947E61CE01DF91CF911F9188
:1026E0000F91FF90EF90DF90CF90BF90AF90089543
:1026F000E7018CCF462F60E070E050E022E00E94BE
:10270000B2120895772767FD7095552747FD5095BC
:10271000992787FD90950E94B2120895462F60E098
:1027200021E00E948213089521E00E9482130895FF
:10273000462F60E022E00E948213089522E00E946A
:1027400082130895EF92FF920F931F938C017B01E8
:102750000E943C6E82E260E049EC51E024E00E947D
:10276000696A80E2B8010E94946A88E2B7010E9417
:10277000946A80E36CE272E00E94946A1F910F9168
:10278000FF90EF900895FF920F931F938C01F62E08
:102790000E943C6E88E1B8010E94946AFF2019F003
:1027A00040ED51E008C08CE168E348ED51E00E9443
:1027B000AF6A49EC51E086E160E024E00E94696A7A
:1027C0000E94556C1F910F91FF90089561E00E9447
:1027D000C31308950F931F93CF93DF93082FCAEA73
:1027E000D1E01AE0812F602F499124E00E948A698C
:1027F000155F1837B9F7DF91CF911F910F910895A9
:102800001F9386B380958E7710E090E081FF06C01D
:10281000812F0E940A63882319F106C01F5F1630BA
:10282000F9F095958795F1CF10936501812F0E945E
:10283000036481E00E947E610E943C6E86E160E05C
:1028400045E551E024E00E94696A88E10E94EA13AC
:102850000E94556C86B380958E77E1F71092490DF2
:102860001F9108950F93262F60E14AEE50E000E09B
:102870000E94556A0F910895EF92FF920F931F9354
:10288000082FF62E142FE22E442329F0463139F07A
:102890004A3E81F408C08A5F4FE452E007C08A5F75
:1028A0004FE251E003C08A5F4BE251E02E2D0E94BF
:1028B000696A12C047FD02C0242F05C041E20E9490
:1028C0008A69212F21952150802F8A5F6F2D4AEE32
:1028D00050E00E2D0E94556A1F910F91FF90EF90CE
:1028E0000895EF92FF920F931F93082FF62E142F47
:1028F000E22E46312CF08E5E4DE60E948A6915511B
:10290000802F86506F2D412F2E2D0E943C141F9139
:102910000F91FF90EF900895873038F4E82FF0E0A2
:10292000EE0FFF1FEA54F94F23C08C3060F1843161
:10293000B8F4A82FB0E0FD01EE0FFF1FE45FF94FE0
:102940000190F081E02D803140F4AA0FBB1FAE5AF8
:10295000BE4F8D919C91E81BF90BEE0FFF1F15C028
:10296000843250F4E82FF0E0EE0FFF1FE456F94FE9
:102970000190F081E02D09C08E3228F484520E942B
:102980006920FC0102C0E0E0F0E0CF010895FC0105
:102990008081882369F0843220F085520E94EC39CE
:1029A000089581500E948C1460E040E00E94F1790B
:1029B00008958F929F92AF92BF92CF92DF92EF9243
:1029C000FF920F931F93CF93DF93A82E942E88230B
:1029D00009F436C186E1A816E1F09AEEA91609F4C9
:1029E0002EC1E6E1EA150CF42AC18A2D87FD8195F6
:1029F0008A3088F490E00E960E94B96E1A142CF07A
:102A000060E0882309F01CC104C0682F882309F402
:102A100017C161E015C18A50E82EFF249701220FEB
:102A2000331F2E0D3F1DF901E050FC4F82818F7046
:102A300009F405C1F4E0F41788F48CE291E0E80EA3
:102A4000F91EF7018081682F70E061707070862F29
:102A50001A140CF4F5C061E06827F2C0F901E655DC
:102A6000FE4FEA5AFD4FB1908F018080F901EE5F71
:102A7000FB4FE081EF70F0E0E95AFD4FE491EE2367
:102A800051F48B2D81500E948C14EC01F80180814F
:102A90000E94D01111C0E23029F0C0E0D0E020E067
:102AA00030E00BC08B2D81500E948C14EC01F8019A
:102AB000808181500E948C149C01C701880F991F4E
:102AC0006C01CE0CDF1CF601EE5FFB4FE081EF7076
:102AD000E83009F45EC0E93070F4E330F9F0E43036
:102AE00038F4E13009F45FC0E23009F0B7C060C0EB
:102AF000E43061F51FC0EB3009F45AC0EC3038F413
:102B0000E93009F44BC0EA3009F0A8C04CC0EE30FF
:102B100008F45CC0EE3009F0A1C04FC040E0CE0127
:102B2000D7FF03C0909581959F4F281739070CF068
:102B30006DC056C040E0CE01D7FF03C0909581958F
:102B40009F4F821793070CF061C04AC0192D1F5F79
:102B50008B2D60E0412F0E94D914082F882D60E052
:102B6000412F0E94D914F601E050FC4FE281EF7032
:102B7000E53021F4002309F471C004C0E63029F4E3
:102B8000002371F5882361F569C040E0081741F51D
:102B90003DC040E0C217D307C9F522C040E0C217CC
:102BA000D307F1F433C040E02C173D077CF518C083
:102BB00040E0C217D30754F513C040E0FC01E251D6
:102BC000FA4F8081918199235CF420C0F701E45D84
:102BD000FE4F808190E081709070482F8823B1F083
:102BE000F701EE0FFF1FEE0DFF1DEE5FFB4F808123
:102BF00082958F7011F441E009C089300CF08F5F2D
:102C0000939460E0492D0E94D914482FF701EE0FEC
:102C1000FF1FEE0DFF1DEE5FFB4F80818F7090E078
:102C20000C9734F48CE291E0E80EF91EF701408332
:102C30001A1414F4642F04C061E0642701C060E03A
:102C4000862FDF91CF911F910F91FF90EF90DF9032
:102C5000CF90BF90AF909F908F90089540E0D6CFD7
:102C60001F93CF93DF9310E0CFE6D4E088858823CD
:102C700061F060E040E00E94D914882331F0812F98
:102C80008F5FDF91CF911F9108951F5F143011F472
:102C900080E0F7CF2A96EACF8091690160E040E0BA
:102CA0000E94D914882331F4809121069091220644
:102CB000892B81F081E080933B0E9091790D80917A
:102CC0005206891751F0909352068BE19EE00E94C4
:102CD000190F089510923B0EF0CF0895882399F0B4
:102CE000909180018AEF989F90011124220F331F49
:102CF00080912106909122068217930720F4309349
:102D000022062093210620912106309122062115CA
:102D1000310511F02150304080912306882361F065
:102D2000909188018AEF989FC0011124880F991F04
:102D30002817390708F49C013093220620932106B6
:102D40000E944C160895AF92BF92DF92EF92FF92CD
:102D50000F931F93CF93DF932091770D3091780DD0
:102D600080915106A22EA81AA09220062093510607
:102D70008CEE96E060E00E94E53880912006882382
:102D800009F4C5C28091A005882319F08150809371
:102D9000A00580E00E9499610E943C6E0E94476EEF
:102DA000E82E0FE0F02EF8221AEFB12EFB0C109156
:102DB000BC01143011F418E003C0133009F414E01E
:102DC00027E02F1508F4A3C08E2D807F803209F4F0
:102DD0009EC08F2D8695E0917C01F0E0EE0FFF1FE5
:102DE000EE0FFF1FE80FF11DEB5BFE4F049180918A
:102DF000980180FF03C083E0801B082F809170083A
:102E0000602F0E94590ED82E602F0E94830EBC01A5
:102E1000112369F49C0197FF04C022273327281B44
:102E2000390B3595279535952795122F1F5F023061
:102E300011F090E00CC08091BB0180FD02C090E0D9
:102E400002C012E091E080917E0180FD1195412F3A
:102E5000552747FD5095F0FE04C0EA01C60FD71F65
:102E600003C0EB01C41BD50B209729F05E018B2D0D
:102E7000872787FF11C0992379F4672B69F08D2D7F
:102E8000602F40E050E00E94EA118E2D0E94186FE2
:102E900086E10E94D57939C2CE0184589F4F893F7F
:102EA000910578F48D2D602FAE010E94EA11CE01BC
:102EB00087FD8195682F65956595772767FD7095E6
:102EC00020C01C161D061CF043E85FEF02C04DE752
:102ED00050E08D2D602F0E94EA11CE0183589F4F44
:102EE0008B3F910508F011C25E01A7FCA1944A2D09
:102EF000419547FD4D5F45954595642F772767FDC3
:102F00007095645C7F4F85E10E94DC79FEC1EE2004
:102F100021F0F0E4BF2EEB1471F480914D06B199CD
:102F2000EFC18F3F31F08F5F883C19F4EDEBEE2E4F
:102F30008FEF80934D06E4E1F6E0C091C206D09198
:102F4000C306808191818C1B9D0B60E270E00E9422
:102F5000987E9B016115710559F0848195818C1BC8
:102F60009D0B62E070E00E94987E9B01D183C0833C
:102F7000D583C48380917E0185FD04C08091E906DC
:102F8000882311F020E030E033832283C1EAD5E0CA
:102F900029818D81281B2F3F09F420E027FD2F5F19
:102FA00025952887822F880F9D81890F8D838E2DEF
:102FB000822B0E946E1660919401695FE091120667
:102FC000F0E0EE0FFF1FE85FF94F808191818D5A8D
:102FD0009F4309F050C080918B06882309F04BC0B5
:102FE00028852223C9F08E81992787FD9095332764
:102FF00027FD3095280F391FC90183589F4F8B3FFC
:10300000910540F0121613061CF023E83FEF02C0B2
:103010002DE730E02E83188690912604892F807E3C
:1030200051F1929596959770E92FF0E0E430F10513
:103030005CF4EE0FFF1FE454F94F208131812050E2
:103040003C4F60E078E00DC0EE0FFF1FE15AFB4FF0
:103050008081282F332727FD309523583F4F6AEF73
:1030600070E0C90143E0880F991F4A95E1F7821B80
:10307000930B0E94847E80919F05681719F0862F1C
:103080000E94080F8091840187FF3EC08091060650
:103090008823D1F1809107068823C1F180914F06E2
:1030A00087FD03C08F5F80934F0682E00E940C1063
:1030B000982F282F2F7781F080914F06281730F511
:1030C00010924F06EE2011F59923E92EEE1CEE2406
:1030D000EE1C82E6E80E1AC083E00E940C10982FC6
:1030E000282F2F7799F080914F06281778F41092A7
:1030F0004F06EE2059F49923E92EEE1CEE24EE1C27
:1031000085E68E19E82E02C01092070681E08093B2
:103110000606C1E6D4E06981662309F444C065303F
:1031200030F46150809170080E94830E2CC065308D
:1031300039F48091A705282F332727FD309524C027
:103140006A3048F4E62FF0E0EE0FFF1FE655F94F26
:10315000808191810AC0A62FB0E06D3048F4AA0F9B
:10316000BB1FA655B94F8D919C9168E070E008C0D7
:10317000AA0FBB1FA655B94F8D919C916AE070E0D4
:103180000E94987ECB019C01C90183589F4F8B3FC1
:10319000910540F0121613061CF023E83FEF02C021
:1031A0002DE730E02883229694E0CF36D90709F046
:1031B000B2CF80916B0590916C050097B9F060E0FB
:1031C0000E94C31396B390959E77809150068823F2
:1031D00039F0992349F510926C0510926B0524C0C3
:1031E000992311F181E0809350061EC01092500681
:1031F00010911306112311F41E2D05C01092130611
:1032000087E10E94D57984E180931E061093AA0578
:10321000E0911206F0E0EE0FFF1FE85FF94F01901A
:10322000F081E02D812F09950E94556C1091650069
:103230000E947F12882309F465C08091840185FD76
:1032400061C0812F8F7E809365008091790D8F7191
:10325000823009F052C087E00E943310FC012091B7
:10326000680180917E0186FF03C0C0EFD0E004C0FA
:10327000C0910401D0910501332727FD30952A5FC5
:103280003F4FCF0168E070E00E94987E269FC0010A
:10329000279F900D369F900D1124A4E0EE0FFF1F85
:1032A000AA95E1F78E0F9F1FBE010E94847E209198
:1032B0001F0630E02F5F3F4F260F371F35952795AC
:1032C00020931F0680914E06805F80934E068823D0
:1032D000A1F480916701281780F4223370F081E116
:1032E0006EE20E94E47980917E0183FF06C082E352
:1032F00090E090932206809321061092230607C047
:1033000080E017CE812F80619ECFEE2406CEDF9124
:10331000CF911F910F91FF90EF90DF90BF90AF90F2
:1033200008950F931F939C01162F80916D0588239C
:1033300029F030936C0520936B0533C0C90160E020
:103340000E94C313112311F081E202C08091660133
:103350000E941A6C82E167E10E94E47986B380954D
:103360008E77E1F71092490D01E086B380958E7754
:1033700039F086B380958E77E1F71092490D11C030
:1033800080910B0E833019F4A89510920B0E112327
:1033900019F000933B0E02C010923B0E0E944C1697
:1033A000E4CF1F910F91089560E00E949119089554
:1033B00080917B0182FD09C00E948165883C910556
:1033C00020F48DE591E00E94D419089580917B014D
:1033D00087FD06C0887321F48CE691E00E94D41921
:1033E00008958091ED05882331F08CE791E00E94EB
:1033F000D4191092ED0508959C01E0911206E43075
:1034000028F08FEA91E00E94D41908958FEB809301
:103410001306EF5FE0931206F0E0EE0FFF1FE85F88
:10342000F94F31832083089590911206992319F45E
:10343000882331F40CC0882319F4892F815001C0EE
:1034400080E0809312068EEB8093130608958CEB38
:1034500091E00E94D4190895EF92FF920F931F9369
:10346000CF93DF931091590480917B0181FD63C05C
:10347000812F8873883041F0803131F0803221F023
:10348000177C186010935904EE24E3940E949E1256
:10349000082FF82EF1268CEF91E066EE71E00E9485
:1034A000A213CF2DD0E0F0FE04C082E060E00E94C5
:1034B0003214C1FF04C087E161E00E943214C2FFF0
:1034C00004C08CE262E00E943214CE0188739070D6
:1034D000892B81F003FF03C081E463E009C004FF8E
:1034E00003C081E464E004C005FF04C081E465E03A
:1034F0000E943214C6FF04C086E566E00E943214C2
:10350000F7FE04C08BE667E00E9432140E94556CFF
:10351000EE2031F086B380958E77E1F71092490D59
:10352000011749F086B380958E7729F40E944C16D6
:10353000A895EE24ABCFDF91CF911F910F91FF9013
:10354000EF9008951F93CF93DF9380917B0180FDCF
:103550004AC080917C01817012E0181B0E947F108C
:10356000E12FF0E0EE0FFF1FE85CFE4F218132817A
:1035700080917E0180FF07C044275527421B530BD3
:10358000858D968D03C087859089A901481B590BAD
:10359000EA016096812F0E945910612FAE010E94AE
:1035A0001B0E882301F58AE192E06BE072E00E9435
:1035B000A2130E94556C86B380958E77E1F7109226
:1035C000490D0E947F100E944C16A895812F0E94E1
:1035D0005910612FAE010E941B0E882321F486B37F
:1035E00080958E7771F3DF91CF911F910895AF92FF
:1035F000BF92CF92DF92EF92FF920F931F93CF93E0
:10360000DF937C01A62EBB24F501EE0FFF1FE157CF
:10361000FA4FC080D180FC018181882309F474C0F5
:1036200005811681808181500E948C14EC01F70184
:103630002181253040F42330D0F4213051F0223064
:1036400009F055C00DC0253029F1263009F04FC0D2
:1036500046C080E090E00C171D070CF047C044C046
:1036600080E090E0C017D1070CF040C03DC097FF4C
:1036700003C0909581959F4F233031F4C0E0D0E096
:1036800008171907A4F528C0C0E0D0E080179107FB
:1036900074F522C0F70180818E33B0F08534A0F438
:1036A000CE01880F991F63E0CC0FDD1F6A95E1F70B
:1036B000C80FD91FC801880F991F43E0000F111FC1
:1036C0004A95E1F7080F191FCE01801B910B4F9609
:1036D000C0E0D0E0CF9758F4C1E0D0E008C080E06F
:1036E00090E0C017D10711F481E090E0EC01F70100
:1036F0008281882331F060E040E00E94D914882361
:1037000001F1CD2BC1F41DC0F7018281882361F046
:1037100060E040E00E94D914982F882381F480E073
:10372000CC24CA94DC2C11C0F7018381833030F0A3
:103730008481807619F090E081E007C090E080E01D
:1037400004C090E080E0CC24DD24182F192B809158
:10375000030181FD30C0F501E957FA4F1130B1F492
:103760008081882341F4F7018381882311F082301E
:1037700011F4CC24DD24F501E957FA4F81E0808370
:10378000F70183818130F9F410E01DC08081813020
:1037900069F4F7019381892F8150823038F4923097
:1037A00011F412E001C011E0CC24DD24F501E95749
:1037B000FA4F108208C0F501E957FA4F108310E064
:1037C000CC24CA94DC2CF701848187FF09C0808156
:1037D000853030F085520E944E20882309F465C060
:1037E000112309F462C0D7FE05C0F701838183303D
:1037F00028F45BC0C114D10409F045C0F7018481ED
:103800008076803219F4C7010E94C714F7018481C1
:10381000877081F0813041F4878190850197810F15
:10382000911D0E94E50E06C0F701878160E070E0FF
:103830000E94DC79F70184818076803419F4C70115
:103840000E94C714F7018481282F287181F0869582
:1038500086958695837090E0029714F48DE005C0FC
:10386000283111F08EE001C08FE00E94D579F70178
:103870008381833020F031E0C32ED12C16C0CC24BC
:10388000CA94DC2C12C01C141D047CF40894C11CC6
:10389000D11CF70183812AE0829FC0011124439744
:1038A000C816D90614F0CC24DD24AA0CBB1C8FE862
:1038B00095E0A80EB91EF501D182C082DF91CF91AB
:1038C0001F910F91FF90EF90DF90CF90BF90AF903E
:1038D00008951F93CF93DF93C3E2D5E010E0CE01AC
:1038E000612F0E94F71A29961F5F1830C1F7DF91E8
:1038F000CF911F9108957F928F929F92AF92BF9226
:10390000CF92DF92EF92FF920F931F93CF93DF93AB
:103910001092B00600914506F2B680914506081750
:10392000C9F7809126048F71A0E17A2E781A0E943F
:103930007F101EE517B90E94E40F0E94A31617B965
:10394000369A3699FECF24B135B12C5F3F4F409166
:10395000040150910501CA01F3E0880F991FFA95FF
:10396000E1F7841B950B280F391FE3E03695279567
:10397000EA95E1F7309305012093040180910B0E45
:10398000833019F4A89510920B0E4091450652B75A
:10399000809145064817C9F7302F20E08F2D90E021
:1039A000282B392B942F80E0452F50E0482B592BA2
:1039B000421B530B809108019091090184179507D0
:1039C00020F450930901409308018091030188235A
:1039D00009F453C18091490690914A06019690934B
:1039E0004A0680934906C72C81C0EC2CFF248FE047
:1039F0008C1530F0E701CC0FDD1FC95DDB4F05C032
:103A0000E701CC0FDD1FC557DB4F188112951695C6
:103A100017700981163048F40B3F38F0E02FF0E0C2
:103A2000EE0FFF1FEF58FD4F008188818F7109F461
:103A30005CC060E040E00E94D914D82E8091030160
:103A400081FD4DC0112311F0123061F4F701E159ED
:103A5000FA4F8081882331F4DD2021F0802F90E01F
:103A60000E94E50E812F8150823078F4F701E159F0
:103A7000FA4F8081813049F4DD2039F4123009F4A5
:103A80000F5F802F90E00E94E50E163060F0F70186
:103A9000E159FA4F8081882311F5DD2001F18981F8
:103AA0000E94EC391CC01330D0F0DD20C1F014307E
:103AB00019F46CE271E007C0153019F468E572E0A2
:103AC00002C066E970E08091490690914A060E9422
:103AD000847E892B21F4802F90E00E94E50EEFE692
:103AE000F5E0EE0EFF1EF701D082C394F7E1FC155E
:103AF00008F07BCF4CE2842E41E0942E30E0C32EC0
:103B000034E0D32E2EEEA22E25E0B22E00E010E0FF
:103B1000F801EE0FFF1FE00FF11FEE5FFB4FE0819A
:103B2000EF70F0E0E95AFD4FE491E33009F04BC04B
:103B3000F50180819181009779F4F601808187FDFC
:103B400006C08095FAE08F02E00111241DC0C82F45
:103B5000DD27C7FDD09518C097FF14C0EC01219652
:103B600099F4F601818187FD06C08F5FFAE08F022C
:103B7000E001112408C0C82FDD27C7FDD095C095EE
:103B8000D09502C0EC0121979801220F331F200F1E
:103B9000311FF901E050FC4F8281807F89F0F901EB
:103BA000EE5FFB4F808182958F7089300CF08F5FC4
:103BB00060E040E00E94D914882311F4CFEFDFEFDA
:103BC000F501D183C083F401F080F801EE0FFF1FEF
:103BD000E00FF11FE050FC4F82818F708C3099F420
:103BE000F601808160E040E00E94D914882319F03A
:103BF000FF24F39408C0F601818160E040E00E9458
:103C0000D9148111FF24F801EE0FFF1FE00FF11FFF
:103C1000E050FC4F82818F708D30D1F4F6018081AD
:103C200060E040E00E94D914882381F0F1FC10C0CC
:103C3000F601818160E040E00E94D914882319F4E4
:103C400072E0F72E05C063E0F62E02C0FDEFFF2202
:103C5000F401F1924F010F5F1F4F83E090E0C80E17
:103C6000D91EE2E0F0E0AE0EBF1E0C30110509F0E7
:103C70004FCF0E94691C109203018091010188239B
:103C800009F48EC0209148062F5E822F90E08F703D
:103C900090700C970CF0207F20934806C8E2D4E087
:103CA00000E010E0822F90E050E3E52EF12CE822B6
:103CB000F9224FE0842E912C8822992230E7A32EFE
:103CC000B12CA822B92220EFC22ED12CC822D92291
:103CD0005BC0F801EE0FFF1FE95DFB4FE0818E2F07
:103CE000807C8034B9F4E114F104A1F4EE0FEE0FFE
:103CF0008E2F8595859560E040E00E94D914882339
:103D000049F08091870180FD02C081E001C0888177
:103D10000E94D579F801EE0FFF1FE95DFB4FE081AE
:103D20008E2F807C803869F58E2F880F880F8595BF
:103D300085958731C4F08751813049F0813018F082
:103D40008230F9F408C0A114B104D9F408C0811478
:103D50009104B9F404C0F0E2CF16D10491F4888143
:103D60000E94EC390EC0E114F10459F460E040E027
:103D70000E94D914882329F08881805890E00E94FD
:103D8000E50E0F5F1F4F2296071508F4A2CF109281
:103D9000010180910706882319F08150809307065E
:103DA000DF91CF911F910F91FF90EF90DF90CF9017
:103DB000BF90AF909F908F907F9008950F931F9327
:103DC0002FEF2ABB1BBA91E897BB8EE788BB8EEF1B
:103DD00084BB95BB11BA22BB88E082B987EF83B957
:103DE000109261001092620084E1809364008BEF76
:103DF0008093650004B714BE80E487B985E886B96E
:103E000087E083BF8CE981BF82E085BD87B783648B
:103E100087BF1FBC8AE08EBD10928B0082E8809322
:103E20008A0080917D00806280937D0078948DEA85
:103E30009FE390930906809308060E94C26288233C
:103E400019F00E942E6C06C00E946E620E942E6CB9
:103E50000E94DB6310916501812F0E9403640E9420
:103E6000001481E0809323060E946E1610922306B0
:103E700080919401895F0E94080F03FD2BC08091FF
:103E80007E0184FD08C080918701882321F087E0AE
:103E90006CE10E94E4790E94D8190E947F1087E0AB
:103EA0000E9433106EE070E00E94847E60931F06D3
:103EB0000E94A21A0E942C1A0E94E6190E94F1196F
:103EC00086B380958E77E1F71092490D8091B40109
:103ED0000E94130F8091030182608093030110926E
:103EE00070088CEE96E060E00E94E5380E94EA7669
:103EF0002DE088E190E00FB6F894A89581BD0FBE43
:103F000021BD8EEE97E590930B0680930A06809173
:103F10006501181729F081E00E947E610E945E62AF
:103F200081E080936D058091B9018F70843011F428
:103F30000E94EC7D0E947B1CFDCFBF92CF92DF924E
:103F4000EF92FF920F931F93F82ED62EC42E27FDCB
:103F500003C0EBEAF5E002C0E0EBF5E01281B380CC
:103F6000B3E0EB2EE22281E08E1518F114306CF4F0
:103F700043E01402A00111244E5B5D4F8F2D6D2D87
:103F800023E00C2D0E942E6A14C01D5F8F2D6D2D15
:103F900048E653E0212F0C2D0E94556A103114F48D
:103FA0008AEFF80E8F2D8E5E6D2D45E22C2D0E942E
:103FB0008A6982E0E81621F0EE2041F4113031F4F4
:103FC0008F2D6D2D4B2D2C2D0E9471141F910F9153
:103FD000FF90EF90DF90CF90BF9008950F93382F10
:103FE000942F022F24FD02C084E202C00F7E8DE2D6
:103FF000992321F4832F43E552E010C09530B8F4A3
:1040000080911B0584FF0EC0492F50E0440F551FBF
:10401000440F551F4A565E4F0061832F24E00E94D3
:104020002E6A0EC09150832F43E351E006C08917DA
:1040300038F09550832F42EC52E0292F0E94556AA8
:104040000F91089541114C5E0E94EE1F08959C014E
:10405000220F331F280F391F9595879595958795C2
:10406000280F391F959587959595879595958795EF
:10407000280F391FC9010895429623E730E0A901AE
:10408000849F9001859F300D949F300D1124E6E0B0
:1040900035952795EA95E1F7C901089581E00895DE
:1040A000E82FF0E0E352FC4FE491772767FD70952D
:1040B00063587F4FEE5FE23050F4CB01880F991FB9
:1040C000F3E0660F771FFA95E1F7680F791FCB01D0
:1040D0000895E82FF0E0E352FC4FE491E03F49F10E
:1040E000ED3F6CF4FF27E7FDF095EE0FFF1FEB5857
:1040F000FB4F8081E82FFF27E7FDF0951CC0ED3FC7
:1041000099F0ED3FB4F0EF3F09F09CF4FF27E7FD95
:10411000F095B4E0EE0FFF1FBA95E1F7E155F94FC6
:104120000484F585E02D07C080911F06E82FF0E09C
:1041300002C0E0E0F0E0CF0108958091A9051816D3
:1041400014F481E005C0882311F08FEF01C080E0F6
:104150001092A9050895FB016115710511F480E025
:104160000895841708F4482FE40FF11D84910895F1
:10417000982F883068F090E008979C0143E0220F68
:10418000331F4A95E1F7280F391F28543C4F06C0CA
:1041900085E0989F9001112420573C4FC901089554
:1041A0008F929F92AF92BF92CF92DF92EF92FF9247
:1041B0000F931F934B015C01CC24DD24C601B50194
:1041C000A60195010E944C7E940140E050E00E94BF
:1041D0004C7E672F782F892F9927A60195010E9481
:1041E0004C7E7B018C016CE016950795F794E79463
:1041F0006A95D1F764E670E06819790980E090E08B
:104200000E944C7E6E5C7F4F8F4F9F4F6E0D7F1DC7
:10421000801F911F24E630E040E050E00E94AB7E1A
:10422000C9011F910F91FF90EF90DF90CF90BF9049
:10423000AF909F908F900895FF920F931F939C01D2
:10424000AB016115710531F1FF2497FF05C0FF2413
:10425000F394309521953F4F57FF10C000E014E0D4
:1042600066277727641B750BC801821B930B0E947E
:10427000D0209801281B390BC90104C0C901BA011B
:104280000E94D020FF2011F49C0104C02227332774
:10429000281B390BC9011F910F91FF900895282FFA
:1042A00080E0E82FF0E0E151F24F9491921729F06D
:1042B000992311F08F5FF5CF80E00895823410F0DC
:1042C00080E20895E82FF0E0E151F24F84910895E3
:1042D00090E0FC01EE0FFF1FEE0FFF1FE80FF91F2C
:1042E000E555FA4F2481DC0184E0AA0FBB1F8A95B3
:1042F000E1F7A157B94F0190F081E02D1F96FC9393
:10430000EE931E97222311F0E0E0F0E01D96FC935F
:10431000EE931C9716961C92169719961C921E9255
:10432000189715961C921E9214971B961C921E921B
:104330001A971D921C920895109216071092150755
:1043400080E00E946821089581E00E94682108951C
:10435000AF92BF92CF92DF92EF92FF920F931F9393
:10436000CF93DF935B016C0100E010E8C0E0D0E880
:10437000EE24FF249E0140E050E0CA01B9010E94F2
:104380004C7EA616B706C806D90610F4C027D1275A
:10439000169507950894E11CF11C80E1E816F104DC
:1043A00061F4CE01DF91CF911F910F91FF90EF90BB
:1043B000DF90CF90BF90AF900895C02BD12BDACF74
:1043C0000F93DF93CF9300D0CDB7DEB79A83898365
:1043D000062F862F0E94B820FC0129813A812050A7
:1043E0003C4F37FF02C0808112C080E0083008F0E7
:1043F00081E068E02030360784F0882319F4A4E0D7
:10440000B0E002C0A8E0B0E0AE0FBF1F8C919927CA
:1044100087FD9095582F442732C0882331F0432FD1
:10442000B9017070660F771F04C0432F4695B9011C
:104430007170842F90E0E80FF91F8181992787FD23
:1044400090959B0135952795829FA001839F500DE4
:10445000929F500D11242081332727FD309580E055
:1044600092E0861B970B95958795DC012A9FC001EA
:104470002B9F900D3A9F900D1124480F591FCA0190
:1044800069E170E00E94987ECB010F900F90CF9170
:10449000DF910F910895282F9091E406181614F0DB
:1044A00090E00DC0382F391B631714F4982F06C005
:1044B000862F865038171CF4922F9A5F961B909384
:1044C000E406892F08958091FA02882329F086E175
:1044D0009DE20E94FC1981E00895BC0188E00E94E1
:1044E000946A88E265E77EE00E94946A0895FF92EC
:1044F0000F931F93F82E062F142F662329F0842F75
:104500006FE00E949813182F8091BB0183FD02C0B9
:10451000412F03C0412F440F006280E66F2D50E011
:10452000202F0E94C36D812F1F910F91FF9008953E
:10453000EF92FF920F931F93182F7B01802F612F13
:104540000E94C36D812FB7010E94946A1F910F9141
:10455000FF90EF9008950F93942F222311F400E021
:1045600002C00091EB0649E950E1292F0E94556AEB
:104570000F910895942F905D20E0411121E0492F83
:104580000E948A690895EF92FF920F931F93082F5C
:10459000F62E142FE22E47FF07C0865041E20E94FC
:1045A0008A6986E0811B182F802F6F2D48E653E023
:1045B000212F0E2D0E94556A1F910F91FF90EF90B1
:1045C00008950F931F93082F142F86E6402F212F55
:1045D0000E94AB22112339F0802F60E041E022E0FD
:1045E0000E948213082F802F1F910F910895CF9260
:1045F000DF92EF92FF920F931F93C82E162FF42E87
:10460000042F0695E82EE01AD62ED01A8E2D6D2D89
:104610000E94606B100F8E2D612F4F2D0E945C6BDE
:10462000802F8C0D6D2D4F2D0E94606B8E2D6D2D6A
:104630004F2D0E945C6B1F910F91FF90EF90DF90C8
:10464000CF900895FF920F931F93182F062FF42EEB
:104650006CE247E10E94F722812F6BE243E00E9467
:10466000606B812F81506CE243E00E945C6B802F75
:1046700067E00E94777E180F8F2D69EF0E94777E8A
:10468000682F645D812F45E00E94F7221F910F91F2
:10469000FF900895EF92FF920F931F93CF93DF93B4
:1046A00002EB16E0F8018F018AE2608141810E94ED
:1046B000222386E5F801638142810E942223C6EB12
:1046C000D6E09AE3F92E88E3E82E88859985805014
:1046D0009C4F6DE570E00E94987E162F1F5F0E2D97
:1046E000011B8F2D602F412F0E94606B8F2D8F5FDC
:1046F000602F412F0E94606B8F2D8E5F602F412FA6
:104700000E94606B2296F5E0FF0E89E4F816E9F648
:10471000DF91CF911F910F91FF90EF900895DF925D
:10472000EF92FF920F931F93CF93DF93D82EF62E25
:10473000EA01122FE02E862F61EA70E10E94946A4E
:1047400082E46F2DAE01212F00E10E942E6AEE203F
:1047500009F43CC006E0D09EC00111248E5B6F2D91
:1047600046E02091E5060E94DA6AFA94109F8001E3
:1047700011240C5F80E46F2D402F29E00E94A76B6D
:104780008091E506882311F1CD0DD11D8881882304
:1047900011F00E944F2160E041E42E2D0E9482130F
:1047A000823410F0E0E205C0E82FF0E0E151F24F72
:1047B000E491888190E02E2F332727FD30958217D2
:1047C000930721F0E8838E2D0E947E61DF91CF91C7
:1047D0001F910F91FF90EF90DF900895CF93DF939B
:1047E000982FEB018F3B11F08E3B31F48091C30881
:1047F000815088831092C3088091C608882339F0BD
:104800008091C7088F778093C3081092C6082091C3
:10481000C308222321F1913849F41092E506288338
:104820001092C30881E80E94186F17C09136A9F052
:10483000913211F09E38A1F58091E506882319F098
:104840001092E5060AC0215028831092C308892FD0
:104850000E94186F87E10E94D57990E021C088817D
:10486000943621F48417D8F4895F19C0953621F461
:104870008730A8F0875013C0903611F09E3279F43B
:104880008F5F8093C30880688093C708892F0E9438
:10489000186F1092AA0510920C0790E080E08883B0
:1048A000892FDF91CF910895DF92EF92FF920F93BE
:1048B0001F93CF93DF93D62EE42EF22EEC0100E06F
:1048C00018E013C0FE0165917491812F0E94946AD3
:1048D0000D1540F4FE013E964591549185E4612FFB
:1048E0000E94AF6A0F5F2296185F0E1558F383E49B
:1048F00068E047E30E94606BFF20C9F06F2D70E015
:1049000087E08F1550F46750704033E0660F771FD3
:104910003A95E1F785E44BE307C023E0660F771F84
:104920002A95E1F780E042E420E00E94DA6ADF9114
:10493000CF911F910F91FF90EF90DF900895FF921C
:104940000F931F93CF93DF93182FF62EEA01022FB8
:104950004981453249F429852295269527704FE8EB
:104960005FE00E94556A11C00061202F0E94EE1F77
:1049700089818451803148F48F8186FF06C0812F60
:104980006F2D4DEA5FE00E94AF6ADF91CF911F91DA
:104990000F91FF9008958AE568E342E850E10E9494
:1049A000AF6A0895FF920F931F93182FF62E042FCE
:1049B00049E75DE00E94AF6A005D812F845F6F2D43
:1049C000402F0E942A6A1F910F91FF9008950F9324
:1049D000982FE42FF0E044E0EE0FFF1F4A95E1F737
:1049E000E157F94F8681823011F000E001C002E00A
:1049F000022B44855585892F202F0E94F86D0F9139
:104A00000895442319F44BE251E002C04FE251E013
:104A1000222311F02091EB060E94696A0895FF920B
:104A20000F931F93082F142FF22E86E6402F212F6D
:104A30000E940125112339F0802F60E041E02F2DE5
:104A40000E948213082F802F1F910F91FF900895CD
:104A5000FF920F931F93F82E162F022F862FBA0165
:104A60000E94946A8F2D612F402F22E00E940F2513
:104A70001F910F91FF9008951F9311E0912F981BA4
:104A8000892F0E942825181B812F1F910895AC01A2
:104A900080E060E021E00E94696A0895EF92FF9251
:104AA0000F931F93082FF62E142FE22E4DEC5FE08C
:104AB0000E94696A105D802F845F6F2D412F2E2D1B
:104AC0000E948A691F910F91FF90EF900895DF92E5
:104AD000EF92FF920F931F93982F142FF22ED02E48
:104AE0002E2D0E2D0370842F83588B3F88F04D5749
:104AF000892F82510E944E25002361F1812F90E081
:104B00006EE770E042E850E022E00E94B2120DC071
:104B1000552747FD5095892F0E94C36D0023D1F082
:104B2000812F6F2D4D2D0E949E13182F8091AA0565
:104B30008D3B81F4812F83588B3F10F41EE707C013
:104B4000E12FF0E0EE0FFF1FEB59FC4F108182E0E8
:104B50000E947E61812F1F910F91FF90EF90DF9057
:104B600008950F93982F342F022F443059F48091D9
:104B7000B9018F70813031F4892F46EB50E10E94EA
:104B8000696A06C0892F4FEA53E0232F0E94556AB5
:104B90000F9108958F929F92AF92BF92CF92DF9222
:104BA000EF92FF920F931F93CF93DF93B82E84E879
:104BB00098E00E94472589E18093C2088AE294E048
:104BC0009093C1088093C00890900C078B2D66E0ED
:104BD0000E944B22C82E18E0A0E18A2ECC2009F5B5
:104BE000BB2011F000E00FC00091EB06809126047D
:104BF0008F7160E10E9498138F7190912604907ECE
:104C0000982B90932604409126044F7150E0485F02
:104C10005F4F812F64E778E0202F0CE60E949822F6
:104C200041C1809126048F71A82CA81A2C2D30E048
:104C30002131310534F4E901CC0FDD1FCB5DDB4FB1
:104C400005C0E901CC0FDD1FC757DB4FDD24BC14C5
:104C500029F49D1419F40091EB0601C000E0809145
:104C6000E606882311F4FF2401C0F02EAC1408F4EA
:104C7000A9C0DD2019F580E0612F4C2D20E00E94B5
:104C80002220288122952695269523708EE1612F7A
:104C90004EE658E00E94556AFF2009F4FEC0888164
:104CA000829586958695837063E00E94981382951D
:104CB000880F880F807C98819F7330C0888191E035
:104CC000D91679F5807C803819F479E1E72E02C095
:104CD00066E1E62E2881220F220F259525952731A2
:104CE00044F027518AE2612F47E558E00E94556A57
:104CF00006C08AE2612F422F202F0E943C14FF2021
:104D000009F4CBC08881880F880F859585956AEE58
:104D10004E2D0E949E138F739881907C982B9883C0
:104D2000BCC0982F907C903491F4298127FF02C059
:104D300020E003C02F300CF02FE0298380E6612FA4
:104D400046EC57E00E94556A60E04FE034C090386E
:104D500039F5880F880F498189358CF047FF02C0EB
:104D600040E003C049300CF049E049834F5F80E6E2
:104D7000612F202F0E94B12560E049E01CC04F3612
:104D80000CF04FE64983552747FD509540585F4F3B
:104D900080E6612F202F0E94C36D60E84FE60BC0B4
:104DA0004981552747FD509580E6612F202F0E94AD
:104DB000C36D63E84DE7FF2009F46FC089810E944D
:104DC0009E136AC0DD2001F5812F64E578E00E9422
:104DD000946A86E1612F4C2D20E00E94AC6DFF208B
:104DE00059F088818F7160E045E10E949E138F71B8
:104DF0009881907E982B988348814F718EE1612F26
:104E0000202F0E943C1449C081E0D816D9F4FF201D
:104E100071F0888182958695877066E00E9498136C
:104E20008295880F807E98819F71982B9883288126
:104E30002295269527708CE3612F48E258E00E9466
:104E4000556A2BC0888182958695877090E049814C
:104E5000069764F0493008F049E049834F5F80E6E7
:104E6000612F202F0E94B12569E010C04B3F38F41C
:104E700086E6612F50E0202F0E94C36D06C0485F78
:104E800084E5612F202F0E944E256FEFFF2029F02F
:104E9000898190E00E947A138983D39493E0D91694
:104EA00009F0D5CEC394185F103409F097CEDF9186
:104EB000CF911F910F91FF90EF90DF90CF90BF9017
:104EC000AF909F908F9008950F931F93CF93DF9390
:104ED000982F062F142FC62FD0E0AE014F5F5F4FE3
:104EE00086E6692F212F0E94C36D112329F0CE0180
:104EF0006FEF0E947A13082F802FDF91CF911F91BF
:104F00000F9108956F927F928F929F92AF92BF926E
:104F1000CF92DF92EF92FF920F931F93CF93DF9385
:104F20004B013A01D090B00695E09D1518F420E0B1
:104F300030E0A6C0D394D092B006DA94A82EBB2459
:104F40008BE090E0A89EF001A99EF00DB89EF00DB8
:104F50001124E351FB4F8081882321F4EE24FF24A8
:104F6000870108C081500E948C147C010027F7FC47
:104F70000095102FD092B0068BE090E0A89E900193
:104F8000A99E300DB89E300D1124F901E351FB4F5D
:104F9000D680B8E0CB2ECD20D3FC0DC0F901E25174
:104FA000FB4F80819181AA2797FDA095BA2FE80E2B
:104FB000F91E0A1F1B1F8BE090E0A89EE001A99E2E
:104FC000D00DB89ED00D1124C655DE4FCA5BDC4F04
:104FD000299130E02F5F3F4F442737FD4095542FF4
:104FE000C801B7010E944C7E2881C754D34030E0ED
:104FF0002F5F3F4F442737FD4095542F0E94CD7EB1
:10500000C901DA019C01AD01CC2069F0FE01EC5B25
:10501000FC4F80819181AA2797FDA095BA2F280F78
:10502000391F4A1F5B1FD0FE07C050954095309531
:1050300021953F4F4F4F5F4F8114910471F08BE0EA
:1050400090E0A89EF001A99EF00DB89EF00D1124ED
:10505000EE50FB4F8081F40180836114710481F074
:105060008BE090E0A89EF001A99EF00DB89EF00D97
:105070001124ED50FB4F808186958370F30180836E
:10508000C901DF91CF911F910F91FF90EF90DF90B9
:10509000CF90BF90AF909F908F907F906F9008952A
:1050A0004F925F926F927F928F929F92AF92BF9238
:1050B000CF92DF92EF92FF920F931F93DF93CF93E4
:1050C00000D0CDB7DEB7B82EA62E742F522E432EA9
:1050D000102F80E28983E42FFF27E7FDF095E3524C
:1050E000FC4FF490CE2CDD2491E0692E712C6C20C5
:1050F0007D20E0FC02C00B2D2BC02F2D215F243022
:10510000C8F4332727FD30958BE090E0289FA0015D
:10511000299F500D389F500D1124FA01EC50FB4F80
:105120008081882339F0AF018B2D24E000E10E94BB
:105130002E6A07C07F5F8B2D6A2D472F20E00E94CB
:10514000B1250B2D085E12FF03C00C5F88EFA80E7F
:1051500088E0882E912C8C209D20C3FC1F7B81EF42
:10516000F816D4F184EF8F152CF48F2D8E5F8230DA
:1051700098F51BC08F2D815FBE016F5F7F4FAE0121
:105180004E5F5F4F0E9482272A81213011F4106206
:1051900003C0223009F41063E981F0E0EA55FF4EC4
:1051A000E491E983E7FE16C017C012FF0450672898
:1051B00009F0065F1770802F86506A2D452D542DFB
:1051C000212F012F0E94F86D83E3F80EF9822B2D19
:1051D00026500EC0582E492E892811F00B2D035C45
:1051E000802F6A2D452D542D212F0E94C36D2B2D0C
:1051F000C60186709070892B69F0C2FE04C0822FB0
:10520000865F1B7F02C0809145096A2D4981212F4D
:105210000E948A6989810F900F90CF91DF911F9131
:105220000F91FF90EF90DF90CF90BF90AF909F9045
:105230008F907F906F905F904F9008956F927F92C4
:105240008F929F92AF92BF92CF92DF92EF92FF9296
:105250000F931F93CF93DF93682E84EA97E00E9409
:1052600047258CE08093C2088BE294E09093C108BC
:105270008093C00890900C07862D66E00E944B2218
:10528000782EB8E0AB2E671411F0882402C080900D
:10529000EB0680E06A2D4CE40E942A6A88E08715BC
:1052A00010F041E301C048E3470D85E06A2D0E94FC
:1052B0002A6AE1E09E1619F4F82CEE2407C0F2E009
:1052C0009F1611F4E82C01C0EE24FF24C72CDD2426
:1052D000F601EE0FFF1FEC0DFD1DEE5FFB4F208171
:1052E0002F70992011F000E001C0082D8DE06A2D8B
:1052F0004EE257E00E94556AE601CC0FDD1FCC0D4F
:10530000DD1DFE01EE5FFB4F80818F700E94040E59
:10531000B82E882309F03FC0FE01E655FE4FEA5A39
:10532000FD4F4191DF01453214F14552E42FF0E089
:10533000E352FC4FE4918C91282F332727FD3095C1
:1053400023583F4FEE5FE23050F4C901880F991F98
:1053500053E0220F331F5A95E1F7280F391F84E6D7
:105360006A2D0E2D92E8E92E0E94502809C0408136
:10537000552747FD509583E66A2D2E2D0E94C36D5B
:10538000F601EE0FFF1FEC0DFD1DE050FC4F86E314
:105390006A2D408129C081E0B816A9F48E01065516
:1053A0001E4F0A5A1D4F86E36A2DF80141918F0165
:1053B0002F2D0E943C148DE46A2DF80140812E2D82
:1053C0000E943C1444C0C655DE4FF2E0BF1681F483
:1053D000C95ADD4F80E56A2D48812E2D0E94EE1FAF
:1053E000FE0186E36A2D42912F2D0E94EE1F2FC0F1
:1053F000CA5ADD4F088107FD02C02F2D03C000955A
:105400002F2D2062402F552747FD50954F5F5F4F4E
:105410008A2D60EA77E009E40E949822F601EE0FF7
:10542000FF1FEC0DFD1DEF5FFB4F408147FD02C0EC
:105430000E2D03C040950E2D0062552747FD509557
:105440004F5F5F4F8BE66A2D202F0E94C36DF601E0
:10545000EE0FFF1FEC0DFD1DEE5FFB4F40814295EF
:105460004F7049300CF04F5F83E0981611F020E048
:1054700001C0282D88E66A2D0E943C148091E60622
:10548000882309F4AEC0882009F4ABC0E1E09E1681
:1054900061F19E1648F0F2E09F1609F44BC083E0DC
:1054A000981609F09EC088C0E601CC0FDD1FCC0D18
:1054B000DD1D8E010E5F1B4FF80180818F706EE045
:1054C0000E9498138F70F8019081907F982B9083A1
:1054D0000E94040EB81609F484C0FE01E655FE4F82
:1054E000EA5AFD4F119210827CC0F1E0BF1651F0D4
:1054F000BF1680F082E0B81669F0E3E0BE1609F04E
:1055000070C010C08601000F111F0C0D1D1D005032
:105510001C4F30C08601000F111F0C0D1D1D0050C7
:105520001C4F34C08601000F111F0C0D1D1D0050B3
:105530001C4F3BC0F1E0BF16B1F0BF1640F082E057
:10554000B816E9F0E3E0BE1609F04BC027C08601AB
:10555000000F111F0C0D1D1D0F5F1B4FF8018081E7
:1055600063E84DE726C08601000F111F0C0D1D1DBD
:105570000F5F1B4FF80180816AEE46E11AC0860179
:10558000000F111F0C0D1D1D0F5F1B4FF8018081B7
:105590006EE20E949813F801808323C08601000FF9
:1055A000111F0C0D1D1D0F5F1B4FF80180816EEC4C
:1055B00043E60E949E13EFCF8601000F111F0C0DD2
:1055C0001D1D0E5F1B4FF801808182958F706FE06B
:1055D0000E9498138295807FF80190819F70982B8C
:1055E00090837394F8E0AF0E80E4A81609F04BCED8
:1055F000DF91CF911F910F91FF90EF90DF90CF90AF
:10560000BF90AF909F908F907F906F900895CF92B2
:10561000DF92EF92FF920F931F9303E0C02EC60E0E
:105620009AE5899FC00111241AE0D12ED80EF62EDA
:1056300010E211C0EF2CE3948E2D60E040E00E9458
:10564000D914082F8D2D612F4AEE50E02F2D0E9486
:10565000556A185FFE2CFC1468F31F910F91FF90A0
:10566000EF90DF90CF9008951F93182F90E0880F50
:10567000991FFC0143E0EE0FFF1F4A95E1F7E81B7D
:10568000F90BE05AFC4F808160E040E00E94D914A1
:105690008823C1F0812F90E0880F991FFC0123E03F
:1056A000EE0FFF1F2A95E1F7E81BF90BEF59FC4FAE
:1056B000808160E040E00E94D914882311F082E0EC
:1056C00001C081E01F9108950F931F93CF93DF9343
:1056D000182F062F0E940B0EEC01112339F4002322
:1056E00071F48881823098F181501FC0113290F599
:1056F000103219F4002329F02DC0002311F01F5F90
:1057000001C01150812F0E940B0EFC018881282FAF
:1057100021502031F8F490819131E0F4981759F03C
:10572000002329F0803198F48F5F888310C088238C
:1057300071F028830CC0DF01FE012AE004C09C91B7
:1057400080818D9391932150D0F71093DA0882E0F5
:105750000E947E61DF91CF911F910F910895DF929A
:10576000EF92FF920F931F93CF93DF93D82E7B017D
:105770000E94342B182F8D2D0E94C411882311F004
:1057800000E005C000E01E141F040CF001E0C12F72
:10579000D0E08D2D90E0880F991FFC01B3E0EE0F53
:1057A000FF1FBA95E1F7E81BF90BCE01880F991F8F
:1057B000880F991FE80FF91FE655FE4FE00FF11D06
:1057C000E655FE4F10818D2D0E94C4118823B9F03B
:1057D000812F0E94BF11282FC70180509C4F62E08B
:1057E00070E00E94987ECB01332727FD3095B901E8
:1057F0000E941C217C01EE0CFF1C00E00BC0812FDD
:105800000E94BF11682F772767FD7095C7010E941E
:105810001C217C01CC0FDD1FCC0FDD1F8D2D90E0F6
:10582000880F991F9C0163E0220F331F6A95E1F7EF
:10583000281B390BC20FD31FC655DE4FC00FD11D19
:10584000C455DE4F88818C5960E044E60E94A51162
:10585000992787FD9095A92FB92F9701442737FDE8
:105860004095542FBC01CD010E944C7E24E630E0CF
:1058700040E050E00E94CD7EE9018D2D0E94C411D0
:10588000882311F0C050D440CE01DF91CF911F91F9
:105890000F91FF90EF90DF900895EF92FF920F939A
:1058A000CF93DF93082F84E39DE00E9447250636BF
:1058B00028F4043630F4013681F40AC00E3869F455
:1058C00007C08091D00891E089278093D00805C057
:1058D0001092D00880E00E94141A8091D00888238A
:1058E00009F442C0C6E0D1E0003641F48FEF88836E
:1058F00019821B821A8287E10E94D57988E06EEFB7
:105900007CE00E94946A4981469586E668E050E012
:105910000E94DA6D4881469586E660E150E00E947B
:10592000DA6D49818881481B469586E668E150E03A
:105930000E94DA6D2A813B8189E190E0289FA001D5
:10594000299F500D389F500D112456954795569517
:10595000479586E660E220E30E94C36D88E36BEE24
:105960007CE00E94946A3BC09FE8E92E96E0F92E05
:10597000F7017F0180E064ED7CE00E94946A409131
:105980001507509116078AE268E020E000E00E94C7
:10599000F86DF701448155818EE468E020E00E94B3
:1059A000F86DF701408551858AE260E120E00E94B0
:1059B000F86DF7014285538584E0569547958A95A1
:1059C000E1F78EE460E120E00E94F86D409113075A
:1059D000509114078EE460E020E00E94F86DDF91A2
:1059E000CF910F91FF90EF9008951F93182F809102
:1059F0000D0E80FD03C065EA7DE002C067EB7DE02F
:105A000088E10E94946A113629F410920D0E80E00C
:105A10000E94141A8091D70881508093D708882358
:105A200019F481E00E94D5791F910895813651F4CF
:105A300081E60E94186F81E00E94141A8AED99E5B0
:105A40000E94FC1980E16CE87EE00E94946A08954F
:105A50003F924F925F926F927F928F929F92AF92FE
:105A6000BF92CF92DF92EF92FF920F931F93CF934B
:105A7000DF9303E117E0F8018F0186818F5F868352
:105A8000ABEA8A2EA5E09A2EAA24BB24552453946F
:105A9000F2E04F2EE3E03E2EE50174E0CC0FDD1F77
:105AA0007A95E1F7C157D94F6A2CAA2019F4809151
:105AB000190502C080911A058823B9F0853174F068
:105AC000855160E040E00E94D914982F8F8198178B
:105AD00061F09F83992309F09DC107C060E040E019
