:1000000012C01FC01EC01DC01CC01BC01AC019C01A
:1000100018C017C016C015C014C013C012C011C03C
:1000200010C00FC00EC011241FBECFEDCDBF10E019
:10003000A0E6B0E001C01D92A136B107E1F7A0D063
:1000400010C1DECFC598C298C0989698C59A88E826
:1000500093E124E630E0F9013197F1F70197D9F700
:10006000A895C29A88E893E124E630E0F901319737
:10007000F1F70197D9F7A895C09A88E893E124E6AB
:1000800030E0F9013197F1F70197D9F7A895969AE1
:1000900088E893E124E630E0F9013197F1F7019720
:1000A000D9F7A895C598C298C09896980895C59A0A
:1000B000C29AC09A969A88E893E124E630E0F90162
:1000C0003197F1F70197D9F7A895969888E893E1C9
:1000D00024E630E0F9013197F1F70197D9F7A895B7
:1000E000C09888E893E124E630E0F9013197F1F710
:1000F0000197D9F7A895C29888E893E124E630E003
:10010000F9013197F1F70197D9F7A895C5980895A6
:1001100080916000882331F4C39A949A81E080939F
:1001200060000895813029F4C3989498109260007B
:100130000895823041F4C498959884DFC39A949AC4
:1001400081E080936000089580916000882331F4FD
:10015000C49A959A82E0809360000895823029F4D1
:10016000C4989598109260000895813041F4C39826
:1001700094989DDFC49A959A82E0809360000895D8
:100180000F931F93CF93DF931ABA8DE387BB88E752
:1001900081BB83E08BBB82E088BB84E082BBA895F7
:1001A00088E181BD8DE081BD94989598C598C298ED
:1001B000C0989698C498C39810926000C4E6D0E0A6
:1001C00000E21EE4B19916C0BFDF09C0C59A88EEEF
:1001D00093E0FE013197F1F70197D9F7A895B19B0C
:1001E000F5CFC59888EE93E0FE013197F1F70197BE
:1001F000D9F732C0C9990FC0A7DF09C0C29A88EEEB
:1002000093E0FE013197F1F70197D9F7A895C99BC3
:10021000F5CFC29821C0C8990FC07ADF09C0C09A33
:1002200088EE93E0FE013197F1F70197D9F7A89591
:10023000C89BF5CFC09810C082990EC069DF09C075
:10024000969A88EE93E0FE013197F1F70197D9F77E
:10025000A895829BF5CF9698C8010197F1F7A895CC
:06026000B1CFF894FFCFBE
:00000001FF
