:100000008DC0A6C0A5C0A4C090CFA2C0A1C0A0C0F2
:100010009FC068CF9DC09CC09BC09AC099C098C02B
:1000200097C096C095C000000800100017001F0080
:1000300027002F0037003F0046004E0056005E00AC
:1000400066006D0075007D0085008D0094009C00A9
:10005000A400AC00B400BC00C300CB00D300DB00A4
:10006000E300EA00F200FA0002010A01110119019D
:100070002101290131013901400148015001580194
:10008000600167016F0177017F01870140B911AD00
:100090005D62B911AD5D601D04AD1DB71D603E0010
:1000A0000004E2AE60820004BBE2AD62AEBB97B773
:1000B0003039B7591039513710940440379C141D0A
:1000C0005087B7399D11501911B9971D50AD3D1D7D
:1000D0009B375039B71919AD30BB1DED60AD11B963
:1000E00097B7194094949CD450CF00AD3D3D50CF6C
:1000F00000BD8FDE609D981D1D9C94509D989E11A3
:10010000585082BF9D3EBB50313DAD3D1DB3979DC4
:100110001D39378731B31D39BD9D390011241FBEEC
:10012000CFE5D4E0DEBFCDBF10E0A0E6B0E0ECE963
:10013000FFE102C005900D92A23CB107D9F711E092
:10014000A2ECB0E001C01D92A836B107E1F7D8C813
:1001500057CF1EBC1FBC809176008BBD809177006D
:100160008ABDB9980895B99A1EBC80E48FBD0895E0
:10017000F8948FEF81BB87B38C6387BB84B38760B0
:1001800084BBAD9A81E083BFE4DF15BE1BBE80E86F
:1001900088B981E489BF78940895E199FECF9FBB27
:1001A0008EBBE09A8DB3992708951F93CF93DF9369
:1001B000EC01162FF2DF811749F0E199FECFF89498
:1001C000DFBBCEBB1DBBE29AE19A7894DF91CF9161
:1001D0001F910895EF92FF920F931F93CF933EE0EC
:1001E000E32E31E0F32EC0E700E710E0C801D5DFD1
:1001F000F70181937F01CF5F0F5F1F4FC03AB0F3CC
:1002000022EDE22E20E0F22E00E110E0CFE0C80166
:10021000C4DFF70181937F01C1500F5F1F4FC7FFFC
:10022000F6CF9BECE92E90E0F92E00E410E0C6E05A
:10023000C801B3DFF70181937F01C1500F5F1F4FEA
:10024000C7FFF6CF8091CE00809364018AE090E0F2
:10025000A4DF8093F10087E090E09FDF80933F016F
:1002600086E090E09ADF8A3A89F486E7E82E80E01B
:10027000F82E02E010E0C3E0C8018FDFF7018193A0
:100280007F01C1500F5F1F4FC7FFF6CF8BE090E09B
:1002900084DF893088F4809382008CE090E07DDFF9
:1002A000809381008DE090E078DF809340018EE0C4
:1002B00090E073DF8093FB0088E090E06EDF833393
:1002C00038F48093080189E090E067DF8093E300D1
:1002D0008FE090E062DF80935901809182008093EB
:1002E0008300CF911F910F91FF90EF900895A398F5
:1002F000A498AB98AC980895F89484B390910301B6
:10030000892B84BB00000000909584B3892384BBB3
:1003100080E18A95F1F793B378948EE38A95F1F7AB
:10032000892F99270895EF92FF920F931F93CF93F0
:10033000DF937C01C0E0D0E0DADF11E007E0DCDF32
:10034000992783FDC12B84FDD12B110F015007FF8D
:10035000F6CF85B39091FC00892B85BB84B3892BA4
:1003600084BBF701C083D183DF91CF911F910F919F
:10037000FF90EF900895F89484B390910301892B36
:1003800084BB84E08A95F1F7909584B3892384BB7C
:1003900078948CE48A95F1F708951F93CF93C82F32
:1003A000A6DF17E0C0FF02C0E6DF0EC0F89484B3FA
:1003B00090910301892B84BB80E58A95F1F7909594
:1003C00084B3892384BB7894C695115017FFEACF74
:1003D00085B39091FC00892B85BB84B3892B84BBAA
:1003E000CF911F91089583DF88E180930301A39A41
:1003F000A49A80EE91E00197F1F7F894A398A4985D
:1004000080E58A95F1F783B37894282F332723FF6B
:1004100006C080910301877F80930301AA9824FF7F
:1004200005C0809103018F7E809303012091030119
:10043000222319F420936501089584EA91E001973D
:10044000F1F783B3992783FD04C0277F209303012D
:10045000AA9884FD05C0809103018F7E80930301DB
:1004600090910301992319F4909365010895809167
:10047000FC0089238093FC0095B3982B95BB94B323
:10048000982B94BB0895A82FBB27FD01EB50FF4F7D
:1004900080819927382F2227FD01E850FF4F808166
:1004A0009927282B392BAA0FBB1FA05ABE4FC90171
:1004B00053E0880F991F5A95E1F7820F931F820F1F
:1004C000931F44E0959587954A95E1F78D939C930A
:1004D000089580916501882339F48F5F80936501C9
:1004E00081508093FC001EC08130B9F48F5F8093EF
:1004F00065018CEC52DF84EB50DFF9DEFDDE982FD6
:1005000090958091030198239093FC0085B3892BEB
:1005100085BB84B3892B84BB0895823029F48F5F17
:100520008093650160DF0895833059F48F5F809375
:1005300065018CEC32DF84E430DF88E780930901C9
:100540000895843041F480910901883FDCF585E00D
:10055000809365010895853011F3863041F48F5FF3
:10056000809365018CEC19DF8EEB17DF08958730DF
:1005700049F51092650188EF90E0D5DE85EF90E0B7
:10058000D2DE80E080DF81E07EDF80916601853011
:10059000C9F0909164018AE0989FA0011124809194
:1005A000D1009A01281B3109C901209160013091C5
:1005B00061018217930714F0AA9A0895241735074A
:1005C0000CF0AA98089598E087FF02C0C59A01C070
:1005D000C598880FC39AC3989150B1F7089591E1D7
:1005E00090930D01C49A80EF81BB8FE082BB8DE0B8
:1005F0008A95F1F7809902C090E00BC0819902C002
:1006000094E007C0829902C098E003C0839937C084
:100610009CE08091FE008F5F8093FE008332C9F4DE
:1006200090930D0190917800992321F480917900A5
:10063000882379F09BBD809179008ABD94DD89E0A3
:100640008EBD8091F30080618093F30087E08093FA
:100650000B019091FE0080910001981761F41092B7
:10066000FE008091FF008F5F8093FF00833019F4BC
:100670008DE28093000189E18093020107C010920E
:10068000FE001092FF0088EC8093000112BA8FEFF9
:1006900081BB0895FC0180910D01882359F481E00C
:1006A00090E0062E02C0880F991F0A94E2F720817D
:1006B000282B208380910D01843061F481E090E04B
:1006C00002C0880F991F6A95E2F7982F9095808154
:1006D000892380830895FC0190910D01992339F4B9
:1006E0008081861718F48F5F808301C0908380918A
:1006F0000D01843039F48081882319F08150808382
:100700000895608308959C018091FE00882321F460
:100710003093E6002093E50080910D018C3019F4B0
:100720006093660104C0883011F44093660181E152
:1007300080930D01089580910D01882341F48091EB
:1007400066018A3D68F48F5F809366010895843066
:1007500039F480916601833D18F0815080936601E1
:10076000089583E0809374001092E200089520E0E1
:100770002093F7002093FA002093C8002093C9002B
:1007800037E28031930724F0805197422F5FF8CFF2
:1007900020935A0120E033E0883E930724F0885EDE
:1007A00093402F5FF8CF2093F70020E08436910527
:1007B00024F0845690402F5FF9CF2093FA0020E078
:1007C0008A3091051CF00A972F5FFACF2093C8005A
:1007D0008093C90008959C01FC018491982F9F701B
:1007E00061E0A92FBB2782958F70482F5527A4174A
:1007F000B50764F4A951BF4FF901E60FF11D8491CB
:100800008C939F5F6F5FA92FBB27F1CF08951F9334
:10081000182F862F9927ABDF27EE30E0210F311DEF
:100820008091C800A6E9B0E0FD01E80FF11D8081CC
:10083000F90180838091C900A80FB11D8C9190E4CB
:10084000892781831F9108951F93182F862F992739
:100850008EDF87EE90E0810F911D2091C800A6E900
:10086000B0E0FD01E20FF11D2081FC012083209109
:10087000C900A20FB11D2C9121831F91089527EE6D
:1008800030E0280F311D8091C800A6E9B0E0FD01DD
:10089000E80FF11D8081F90181838091C900A80FC3
:1008A000B11D8C9190E4892782830895E82FFF275A
:1008B000E951FF4F80818B3B09F410820895CF935B
:1008C000C82F60917D00C0DF8C2FF0DF8091F30096
:1008D00080FF06C0EC2FFF27E951FF4F84E08283A1
:1008E00060917C008C2F8D5FAFDFCF910895809158
:1008F0007E00282F3327220F331FC901835F9E4FAD
:10090000FC0184918093EB00225F3E4FF9018491BA
:100910008093EC00089560917D0080E078DF80E0B6
:10092000C5DF60917C0082E08FDF08950F931F93F5
:100930008C01FC01608182E06ADF01501040F80107
:10094000608184E081DF1F910F9108950F931F93C1
:100950008C01FC01628180E05ADF80E0A7DFC801E2
:100960000196E4DF1F910F91089580917F008F5FC2
:10097000682F80E04CDF80E099DF809180008F5FFE
:10098000682F82E044DF82E091DFB1DF0895EF92CB
:10099000FF920F931F93CF93E82FF62EE22EC0E025
:1009A0001C2F0C2F80910301842349F4E62FFF278D
:1009B000E951FF4F84E08083818382835FC0FF27FA
:1009C000EE0FFF1FE05AFE4F8081918197FF04C018
:1009D000909581959F4F11E0CADE80915901E09179
:1009E000F700882361F4EE2329F0FF27EA56FF4F32
:1009F000C08102C01111C4E08091FA0008C080914A
:100A0000FA00EE2351F0FF27EA56FF4FC081E82F8E
:100A1000FF27EA56FF4F00810DC0882349F0E82FD9
:100A2000FF27EA56FF4F0081112321F0C4E002C0E6
:100A3000111104E0AF2DBB27A951BF4FCC93FD018D
:100A400001838091C800E82FFF27EA56FF4F90816D
:100A5000FD0192832091C900E22FFF27EA56FF4F44
:100A60008081FD018383EE2019F080E4982705C082
:100A7000263020F080E49827FD019283CF911F91CA
:100A80000F91FF90EF9008951F93182F282F48E0A3
:100A900060E0862F7CDF212F40E163E081E077DF9B
:100AA0001F91089587E28093EB0089E38093EC0027
:100AB0000895982F80910301892319F484E0982FD9
:100AC00009C08091FC00892319F097E387EB02C0ED
:100AD0009CE984E9E62FFF27E951FF4F908381834A
:100AE00008959091E200292F9F5F983008F090E0E0
:100AF000E92FFF27EE0FFF1FEE52FF4F8181882362
:100B000031F4921789F781E08093740008959093EF
:100B1000E200E92FFF27EE0FFF1FEE52FF4F81810A
:100B20008093740080818093C6000895E7EEF0E022
:100B300088E01192815087FFFCCF90916601992344
:100B400029F01092C60083E080937400992309F085
:100B500053C08091C600882319F4892FB0DE40C0AD
:100B6000813021F48BE790E0F1DE3AC0823019F455
:100B7000D2DEBDDE35C0833011F4F7DE31C0843003
:100B800039F421E048E0622F892F01DF8EED08C0A3
:100B9000853061F421E040E1622F822FF8DE8FEC96
:100BA0008093E70087E28093EC001AC0863019F446
:100BB000892F6ADF15C0873041F4292F48E061E0B2
:100BC000892FE5DE6FDF8EED09C0883049F4292FCB
:100BD00040E161E0862FDBDE65DF8FEC8093E7008C
:100BE0008091F300992781FF82C280FD80C28091AD
:100BF000EC0090E4892727C0943639F480E05FDE6A
:100C00008091F30081FF73C238C1973019F482EDEF
:100C100090E004C0993021F48CEC90E0DCDD089584
:100C2000983009F480C1973D19F486EC90E0F6CF36
:100C3000933061F421E048E0622F80E0A8DE8EED81
:100C40008093E70087E28093EC000895892F845019
:100C50008330C0F48DEA8093E7008DE38093E80051
:100C60008DE58093E90080916401992780DD82E021
:100C700006DE8091C800882311F48093EA009A99D7
:100C80004CC14DC19B3049F48EE98093E70084E06C
:100C90008093E800909182000AC09E3091F487E929
:100CA0008093E70084E08093E80090918100E92F31
:100CB000FF27EA56FF4F80818093E90090938300DD
:100CC0000895892F8F50823060F46091400180E058
:100CD000BBDD8CE98093E9008093EA006091FB0022
:100CE00036C0923D19F480EC90E098CF892F855161
:100CF000823018F480E0E3DD0895892F8751823037
:100D0000E8F480917F008F5F682F80E09DDD809107
:100D1000E80090E489278093E80080917E0099277D
:100D200026DD8EE98093E9008091C900E82FFF2736
:100D3000EA56FF4F81818093EA000895993151F47A
:100D400083EE90E048DD809180008F5F682F84E023
:100D50007BDD08959A3119F48BE790E068C0892F04
:100D60008B51823020F584EB90E035DD8091E300FB
:100D700080FF02C088E001C084E08093E8008BEF30
:100D80008093E90080910801E82FFF27EE0FFF1FF5
:100D9000EA5DFF4F85919491EADC8091FA00E82F9B
:100DA000FF27EA56FF4F80818093EA0061C1892FB7
:100DB0008F51823010F580913E01282F3327F901A1
:100DC000EA56FF4FE081E093E700883020F080E4AE
:100DD000E827E093E700F901EE0FFF1FE20FF31F92
:100DE000E25FFE4F828187FF03C09CE984ED02C071
:100DF0009BEB85E79093E9009ECF892F815282304B
:100E000050F490913E0183E0989FC0011124815FCE
:100E10009E4F8CDD0895892F8D52833050F4909130
:100E20003E0183E0989FC0011124875D9E4F8EDDB7
:100E30000895892F8352883020F58EED8093E70046
:100E400080910501282F3327F901EA56FF4F818150
:100E50008093E80080913E019927FC01EE0FFF1F6F
:100E6000E80FF91FE25FFE4F8281992702C0959536
:100E700087952A95E2F780FF02C08CE95CCF88E075
:100E80005ACF983D19F48CED90E0C8CE943351F4CC
:100E900080917A00882319F48BEF90E0BFCE84EF25
:100EA00090E0BCCE892F8553823030F5E0917A00F6
:100EB000EE2351F48AE08093FD00809375008091C9
:100EC000F30080688093F300FF27EE0FFF1FEA58BE
:100ED000FF4F808199274BDC80E0D1DC80917A0044
:100EE000E82FFF27EE0FFF1FEA58FF4F8181992758
:100EF0003EDC83E0C4DC08959A3D19F487E091E07C
:100F00008DCE933D19F48BEB90E088CE973449F465
:100F100086EB90E060DC999B02C082E894CE8BEB7C
:100F200092CE943D19F486E990E078CE9035D1F4D4
:100F300080910501E82FFF27833050F4EA56FF4FD8
:100F4000818190E489278093E7008BEA90E066CE68
:100F5000EA56FF4F818190E489278093E70081E979
:100F600090E05CCE892F8155833000F5E09105013A
:100F7000E33008F0BCC0FF27E553FF4F608180E0FD
:100F800046DCE0910501E23010F4EF5F01C0E0E0E3
:100F9000FF27E553FF4F608182E056DC8091050119
:100FA000E82FFF27E553FF4F6381D1CE943569F4D5
:100FB0008CE890E010DC6091D10084E045DC809109
:100FC000EB0090E489278093EB0090916601963DB9
:100FD00019F48EEE90E022CE9B34C9F480EB90E0C1
:100FE000FADB80913F01882321F42DE992E887E321
:100FF00009C0813021F427E390E184E903C02BEBA1
:101000009DE987EB2093EA009093EB001CCE9C3483
:1010100031F488ED90E0DFDB6091F10098CE953DF2
:1010200019F488EE90E0FACD892F8B55833088F53E
:101030008091E2009927FC01EA56FF4F218120931D
:10104000E70024E52093E800DC01A80FB91FAE52A9
:10105000BF4F8C91E82FFF27EA56FF4F8081809386
:10106000E90084E08093EA00FD01818199277FDB1C
:101070008091C800E82FFF27EA56FF4F80818093B8
:10108000EB008091C900E82FFF27EA56FF4F8081CF
:10109000DACD993D19F481E091E0C0CD9F3651F44D
:1010A00080915901882319F484EA90E0B7CD8DE945
:1010B00090E0B4CD903769F48EED8093E70061E065
:1010C00088E0F7DC8FEC8093EA0064E080E1F1DCFB
:1010D0000895963961F480913E01E82FFF27EA5682
:1010E000FF4F80818093E7008DE790E01FDC08953B
:1010F0001092670183E080930A0181E08093FD00F4
:101100008BE380937500809302018091F3008F7BC5
:1011100080688093F3000895CF9380910A01181698
:10112000F4F080916701E82FFF27E05AFF4FC0815C
:10113000C0FF02C018D801C00CD890916701E92FF8
:10114000FF27EC59FF4F808180930A01CEBD892F84
:101150008F5F80936701843011F410926701CF9103
:101160000895E82FFF27E553FF4F90917D00808180
:10117000981719F483818093640108958091C200C7
:1011800090910401891709F4BAC09093C20020918C
:10119000F300903410F0216001C02E7F2093F30003
:1011A000E9E0F1E093E0808181508193915097FFD5
:1011B000FACF9091F30094FF08C080910B0187FF54
:1011C00004C09F7E9093F300C4D78091C300909198
:1011D0007B008917E1F09093C300809174008150E7
:1011E00080937400882309F47CDC90910201915073
:1011F00090930201992331F480916601843010F0BC
:101200009093660180917500815080937500809164
:1012100075008823F9F48091FD002091F300882364
:10122000B1F421FF17C080915B01982F8F5F8093ED
:101230005B018091F100981711F42D7F09C058DFF0
:1012400086E98093660181E08093FD0015C02064EB
:101250002093F3002091F300822F992784FD0CC086
:1012600086FF0AC02F732093F300A89872D78FEFE0
:10127000809375001092FD008091F30087FF0AC0F3
:1012800080913F01882311F447DF04C0813009F0C9
:1012900043DFA89A8091F30085FDA1D98091660172
:1012A000843068F19091C4009F5F9093C400809156
:1012B0008300482F5527FA01EC57FF4F808198177C
:1012C000F0F01092C4002091F3008091010123FFFF
:1012D0000DC08F5F80930101992787FD909584173A
:1012E00095076CF0277F2093F3000895823024F057
:1012F000815080930101089528602093F3000895A0
:10130000CFE5D4E0DEBFCDBFF89464D715BC88E04C
:1013100082BD81E085BD2CD78091F200882309F43D
:1013200029C110920601C2982091E40024FF1BC03D
:1013300080915C0190915D01A0915E01B0915F018F
:101340000197A109B10980935C0190935D01A0937D
:101350005E01B0935F010097A105B10521F4A99842
:101360002F7E2093E40080917B008F5F80937B0031
:101370008C3309F0FDC010927B0080917C008F5F60
:1013800080937C008C3309F084C08091E3009091BD
:10139000080180FF91959093060110927C00809146
:1013A0007D008F5F80937D00883129F510927D004C
:1013B00090917E009F5F90937E0080917F008F5F71
:1013C00080937F00973010F010927E002091800073
:1013D000E22FFF27E859FF4F90917F0080819817F7
:1013E00050F010927F00822F8F5F809380008C30AE
:1013F00010F01092800090917D008091400198172C
:1014000021F480918100809383008091FB009817E4
:1014100021F4809182008093830080E0A2DE81E04D
:10142000A0DE82E09EDE9D9907C0909183008091AE
:101430008200981709F4C29A80918000823071F47A
:1014400080917F00883128F180917E00863009F5F7
:1014500080917D008230E9F483E016C08930C9F4C0
:1014600080917F008831A8F080917E00863089F4D9
:1014700080917D00833069F48091C500882339F420
:1014800081E08093C50082E080937D0002C01092CD
:10149000C500FF2409E211E0CEE0D1E08A8187FF98
:1014A0005FC0992700907E0002C0959587950A94A9
:1014B000E2F780FF55C0998180917D00981709F06F
:1014C0004FC0988180917C00981709F049C087E04F
:1014D0008F1590F0F0923E018091F100882329F061
:1014E0008091F30082608093F30010925B0100DE34
:1014F00086E98093660134C0F80182819927AA2782
:10150000BB27BC01CD0120E13EE040E050E027D503
:101510009B01AC01F80191818CE3989FC0011124DB
:10152000AA2797FDA095BA2F280F391F4A1F5B1FC6
:101530008081280F311D411D511D20935C01309386
:101540005D0140935E0150935F0121153105410516
:10155000510531F08091E40080618093E400A99A04
:10156000F39423960D5F1F4FFFE0FF1508F096CF11
:101570001092F20083B399272091F300EC01C0721E
:10158000D07085FD89C425FF09C02D7D2093F3000F
:10159000EFD582E080937400809302018091C700B0
:1015A0008E3108F471C41092C700809107018F5FDB
:1015B00080930701863008F043C411D8D093E60029
:1015C000C093E5008091FD008823F1F08FEF9FEF3D
:1015D0009093E6008093E50020910D012131A1F068
:1015E000809166018453833078F09091F300906489
:1015F000892F8F778093F3002C3019F49D77909387
:10160000F30010926601D9C380916601882391F49A
:1016100080910D018C3011F487E030C3883011F4D3
:1016200084E62CC3843009F4F3C0882309F0C5C3D1
:1016300098D84AC2873019F44FE168E0BBC38830BC
:1016400019F443E069E0B6C3893011F442ED1DC3DB
:10165000843681F480910D01843011F0882339F4AF
:101660008091F3008D7F8093F3001092660140E03B
:1016700067E004C0833029F444E060E080E090E05B
:101680009BC3843039F463E684E691E024D845E0D6
:1016900060E07BC1853061F480910D01882311F4F5
:1016A000AA9A03C0843009F4AA9843E060E0F2C02B
:1016B0008F3139F46FE08EE391E00DD840E260E0C5
:1016C000FFC0803261F480913E0193E0899FC001A8
:1016D000112467E0805F9E4FDDD741E20DC081326B
:1016E00079F480913E0193E0899FC001112467E164
:1016F000815F9E4FF0D742E26FE180E690E05CC3ED
:10170000823289F490913E0183E0989FC0011124B8
:101710006BE3825F9E4FDFD780913E01883008F4F3
:10172000A2C04DE2A1C0833209F050C080E290E037
:101730009093E6008093E50030910D013323B9F4D6
:1017400080913E019927FC01EE0FFF1FE80FF91F62
:10175000E25FFE4F81E090E00090050102C0880F3B
:10176000991F0A94E2F72281282B228322C0343069
:10177000C9F480913E019927FC01EE0FFF1FE80F8D
:10178000F91FE25FFE4F81E090E00090050102C08A
:10179000880F991F0A94E2F7982F909582818923E8
:1017A000828307C0383029F4809105018F5F8093D0
:1017B000050180910501873029F4109205018AE224
:1017C000809366013C3009F0F8C222C08A3211F5DC
:1017D00090913E0183E0989FC0011124182F105969
:1017E000C0E0D0E002E080913E019927FC01EE0FBD
:1017F000FF1FE80FF91FEC0FFD1FE25FFE4F608136
:10180000812F9927D2D41F5F0150219607FFEBCF7C
:101810008FE134C28D3269F480913E0193E0899F5B
:10182000C001112467E1855D9E4F55D74EE26FE1FF
:1018300055C08E3261F480913E0193E0899FC001D2
:1018400011246BE3865D9E4F46D74FE255CF8F3212
:1018500079F480913E0193E0899FC00111246BE3EC
:10186000875D9E4F38D743E26FE188E190E0A4C2E4
:10187000833D19F460D747E408C2873471F480913E
:101880000D01882311F4A99A03C0843009F4A998A2
:1018900044ED642F88E090E08FC2843D19F44BD76B
:1018A00040E5F3C1803579F463E085E091E013D73A
:1018B00080910501833011F444E501C041E564EDF8
:1018C00080E091E079C2813561F48091050199272A
:1018D00067E185539F4FFFD642E565E580E891E0DB
:1018E0006BC2823579F480910501823010F48F5FEC
:1018F00001C080E0992767E185539F4FECD643E50F
:1019000065E5FBCE8335B9F480910501992763E63F
:1019100082539F4FE0D645E5642F88E190E0F3D6EF
:1019200080916601853509F048C2809105018F5F7D
:101930008093050142C2843531F463E681ED90E085
:10194000CAD645E5ADC0853599F41BECE12E10E013
:10195000F12EC0E4D0E016E0F70181917F01682FFD
:10196000CE0123D41150219617FFF6CF80E586C112
:10197000823D19F4E0D645E188C1853149F46BE335
:101980008CE790E0A8D646E169E080E390E014C2DD
:10199000863131F467E18DE790E09DD647E112C0D2
:1019A000873149F466E08EE790E095D648E160E043
:1019B00080E290E001C2883139F46EE18FE790E077
:1019C0008AD649E160E08ACF893131F46BE080E862
:1019D00090E081D64AE114C08A31A1F480910D01D2
:1019E000843069F480917B00803228F080917C0003
:1019F0008F5F80937C0010927B00109204014BE17A
:101A000060E033CF8B3149F460E083EE90E042D662
:101A10004CE160E080E890E0CFC18C31C1F462E33A
:101A200088E091E058D643ED60E088E790E06BD61F
:101A300080916601833D09F0C0C16091080188E092
:101A400090E0B3D36091E30089E090E034C1853D3C
:101A500021F487D670D64BE518C18B3539F467E091
:101A600082EE90E038D64CE565ED2ACF8C3561F4F6
:101A70008091E2009927880F991F68E08E529F4F4E
:101A80002AD64DE56BE563C08D3561F48091E200A7
:101A90009927880F991F63E68D529F4F1CD64EE5FC
:101AA000642FE3CE8E3591F4C2EDEC2EC0E0FC2E17
:101AB000C0E1D0E01FE0F70161917F01CE0175D355
:101AC0001150219617FFF7CF8BE5D8C0863D19F44A
:101AD00032D64BE4DAC08B3439F462E08FE391E024
:101AE000FAD54CE466EDB0C08C34E9F48091F30093
:101AF0008D7F8093F3006EE181EF90E0ECD546EDB1
:101B0000642F88E190E0FFD580916601863D09F061
:101B100054C160913F0187E090E047D36091F100AC
:101B20008AE090E0C8C0873D19F405D64BE0ADC00F
:101B30008B3081F468E082E890E0CDD5809182001E
:101B4000882319F481E0809382004EE067ED80E401
:101B500090E032C18E30F9F468E081E890E0BBD5C6
:101B600080918100882319F481E0809381004FE007
:101B700067ED80E490E0C7D5809166018F3009F071
:101B80001CC1609182008BE090E00FD360918100D6
:101B90008CE090E090C08F3039F467E180E491E010
:101BA0009AD540E167ED9ACE8031C1F467E18BEFC1
:101BB00090E091D547ED642F88E190E0A4D5809125
:101BC0006601873D09F0F9C0609140018DE090E029
:101BD000ECD26091FB008EE090E06DC0883D19F47E
:101BE000AAD544E352C0843391F461E08AE790E0DF
:101BF00072D545E368ED88EF91E085D583E0809369
:101C00000A018091F30080648093F300D6C085338D
:101C100071F480917A009927880F991F6FEF8A5885
:101C20009F4F59D546E367E380EC91E0C5C086330A
:101C300071F480917A009927880F991F6FEF895866
:101C40009F4F49D545E367E388E390E0B5C087330C
:101C5000C1F46AEA86E090E0A8D2B6E7EB2EB0E0E5
:101C6000FB2EC2E0D0E013E0F70161917F01CE01CD
:101C70009CD21150219617FFF7CF84E38093660121
:101C80009CC0893D21F457D54FE660E093C08F3664
:101C9000A1F461E089E591E01ED540E769ED80E0BF
:101CA00091E031D580916601803709F086C060915E
:101CB00059018FE090E079D280C0803719F549ED65
:101CC000642F80E090E01FD580916601893D09F086
:101CD00074C089D38CEC61D38EE45FD385E05DD38F
:101CE00085E05BD38FE759D37ED38CEC56D388E461
:101CF00054D385B39091FC00892B85BB84B3892B89
:101D000084BB5BC08A3D09F058C080910D018830CA
:101D100009F04DC01092C60010E7C0E7D0E060E0C7
:101D2000CE0143D21F5F2196103AC8F3C0E1D0E044
:101D30001FE060E0CE0139D21150219617FFF9CF94
:101D4000C2E0D0E013E064E0CE012FD21150219622
:101D500017FFF9CFC0E4D0E016E060E0CE0125D255
:101D60001150219617FFF9CF65E08BE090E01DD26E
:101D700062E08CE090E019D287E180934001682F07
:101D80008DE090E012D286E08093FB00682F8EE019
:101D900090E00BD260E087E090E007D267E08AE055
:101DA00090E003D260E08FE090E0FFD113D2C3D483
:101DB00040E0642F8FEF9FEFA6D420E031E0E09168
:101DC00083008091E5009091E600009771F000900B
:101DD000070102C0369527950A94E2F782239323E0
:101DE000892B51F0E091010107C08091F300877FBA
:101DF0008093F300E0930101FF27E357FF4F8081B9
:101E00008093F400C49A81E090E00090070102C042
:101E1000880F991F0A94E2F78095D5D3C498C49A85
:101E2000C49880910701873019F4C39AC39804C0FD
:101E3000883011F480E0C7D388B3877C88BB24C086
:101E4000C49A12BA89E18093C7008FEFBCD3809106
:101E500066018823A9F090917D008091FB0098177E
:101E600018F08091820002C08091810080938300ED
:101E700080914001981720F0809181008093830029
:101E800055D68FEF8093070179D98091C7008530AF
:101E900008F042CA1ED340CA25FD0AC02062209322
:101EA000F30080E489BF12BAC49A8FEF8CD3AA984A
:101EB0009091FD00992321F48091F30084FF0DC0DF
:101EC0005DD980910D01813109F426CA8091F3001A
:101ED00080648F778093F3001FCA80EB85BF88955D
:101EE00095BF1ACA1F920F920FB60F9211248F93AB
:101EF0009F93EF93FF938091C7008F5F8093C700FC
:101F00009091F400891741F480910701E82FFF2791
:101F1000E951FF4F808182BBFF91EF919F918F919B
:101F20000F900FBE0F901F9018951F920F920FB633
:101F30000F9211248F93809104018F5F809304018D
:101F4000803839F4809106018093040181E0809308
:101F5000F2008F910F900FBE0F901F901895629F07
:101F6000D001739FF001829FE00DF11D649FE00D91
:101F7000F11D929FF00D839FF00D749FF00D659FF2
:101F8000F00D9927729FB00DE11DF91F639FB00DF1
:0C1F9000E11DF91FBD01CF0111240895CF
:101F9C0009080908140A144B1F1C1F1E1F1E1F1FA3
:101FAC001E1F1E1F013B040004000000000C00005B
:101FBC00000307050A0908080705040403231D1B71
:101FCC001915120E0905BB823EAE87ADBDA2BFAF7F
:101FDC00B79D399E3D35B997951CAD1937119B8F1F
:101FEC001DB39433A320028008100104989C143173
:021FFC002700BC
:00000001FF
