:1000000012C01FC01EC01DC01CC01BC01AC019C01A
:1000100018C017C016C015C014C013C012C011C03C
:1000200010C00FC00EC011241FBECFEDCDBF10E019
:10003000A0E6B0E001C01D92A336B107E1F79DD064
:1000400082C2DECFC598C298C0989698C59A82EEB3
:1000500094E024E630E0F9013197F1F70197D9F700
:10006000C29A82EE94E024E630E0F9013197F1F78C
:100070000197D9F7C09A82EE94E024E630E0F901C6
:100080003197F1F70197D9F7969A82EE94E024E63A
:1000900030E0F9013197F1F70197D9F7C598C29887
:1000A000C09896980895C59AC29AC09A969A82EE78
:1000B00094E024E630E0F9013197F1F70197D9F7A0
:1000C000969882EE94E024E630E0F9013197F1F75A
:1000D0000197D9F7C09882EE94E024E630E0F90168
:1000E0003197F1F70197D9F7C29882EE94E024E6B0
:1000F00030E0F9013197F1F70197D9F7C5980895E4
:1001000010926200939895989498C398C498C59A51
:10011000969882E090E060E008D208951F9380E016
:1001200090E0FBD1182F811111E01093610081E064
:1001300090E0F3D180936000833010F01092600063
:1001400081E08093620080916000813019F4959A7B
:10015000C49A04C0823011F4949AC39A1111939AEC
:10016000C598112311F0969A01C0969882B382E047
:1001700090E061E0DAD11F910895CF92DF92FF9273
:100180000F931F93CF93DF931ABA8DE387BB88E752
:1001900081BB83E08BBB82E088BB84E082BB80E0D4
:1001A00090E0BBD1182F811111E01093610081E024
:1001B00090E0B3D180936000833010F01092600023
:1001C00082E090E0AAD1811181E08093620093984F
:1001D00094989598C598C298C0989698C498C398D2
:1001E000882379F080916000813019F4959AC49A3F
:1001F00004C0823011F4949AC39A112311F0939A97
:10020000969AC4E6D0E092E0F92E00E312EF80E285
:10021000C82E8EE4D82EB19921C080916200882327
:1002200011F06EDF11C080916100882321F480916C
:100230006000882349F072DF07C088EE93E0FE017A
:100240003197F1F70197D9F7B19BF7CF88EE93E09B
:10025000FE013197F1F70197D9F749C1C99976C0E5
:1002600080916200882381F481E080936000809314
:10027000620081E090E061E058D182E090E060911E
:10028000620053D14BDF58C0809160008130D9F4B7
:1002900010926000C498959881E090E060E045D1AC
:1002A00080916100882331F41092620082E090E036
:1002B00060E03BD180916200882311F4C59A01C0AF
:1002C000C59888B339C08230E9F49498C39820E087
:1002D000C59AC29AC09A969AC49AC8010197F1F732
:1002E000C598C298C0989698C498C8010197F1F72C
:1002F0002F5F243069F7959A81E0809360008093A6
:10030000620008C0959A81E080936000809362004B
:10031000C59888B381E090E061E007D182E090E089
:100320006091620002D1C49A07C088EE93E0FE019A
:100330003197F1F70197D9F7C99BF7CF88EE93E092
:10034000FE013197F1F70197D9F7D1C0C89976C06E
:1003500080916200882381F4F092600081E08093B4
:10036000620081E090E062E0E0D082E090E06091A5
:100370006200DBD0D3DE58C0809160008230D9F4B7
:10038000C39894981092600081E090E060E0CDD036
:1003900080916100882331F41092620082E090E045
:1003A00060E0C3D080916200882311F4C59A01C037
:1003B000C59888B339C08130E9F49598C49820E095
:1003C000C59AC29AC09A969AC39AC8010197F1F742
:1003D000C598C298C0989698C398C8010197F1F73C
:1003E0002F5F243069F7949AF092600081E0809347
:1003F000620008C0949AF092600081E080936200ED
:10040000C59888B381E090E062E08FD082E090E010
:10041000609162008AD0C39A07C088EE93E0FE0123
:100420003197F1F70197D9F7C89BF7CF88EE93E0A2
:10043000FE013197F1F70197D9F759C0829957C05A
:1004400090916100992379F480916200882339F4B6
:1004500081E08093620082E090E061E066D081E01C
:100460008093610018C0913051F48091620088231C
:1004700031F49093620082E090E061E00BC0109252
:10048000610080916000882331F41092620082E064
:1004900090E060E04AD060916100662311F0939A89
:1004A00001C0939882B380E090E03FD080916200D9
:1004B000882311F4C59A01C0C59888B38091610062
:1004C000882311F0969A01C0969882B307C088EEEF
:1004D00093E0FE013197F1F70197D9F7829BF7CFAF
:1004E00088EE93E0FE013197F1F70197D9F79091EB
:1004F0006200992311F4C59A01C0C59888B3809110
:100500006100882321F0992311F0969A01C09698F2
:1005100082B3C6010197F1F77ECEE199FECF1FBAF3
:100520008EBBE09A99278DB30895262FE199FECFCF
:100530001CBA1FBA8EBB2DBB0FB6F894E29AE19A93
:0A0540000FBE01960895F894FFCF56
:00000001FF
