:1000000010C028C027C026C025C024C023C022C0DD
:1000100021C020C01FC01EC01DC033C01BC01AC0DD
:1000200019C011241FBECFEDCDBF10E0A0E6B0E097
:10003000E0E6F2E002C005900D92A436B107D9F7D0
:1000400010E0A4E6B0E001C01D92AE36B107E1F7C2
:100050004FD004C1D5CF80EF8ABB84E087BB88E056
:100060008BBB83E088BB82E087B98FE886B980E1EB
:1000700083B911B881EA8FBD8CE08EBD87E083BF64
:1000800008951F920F920FB60F9211242F938F9302
:100090009F93809168009091690025B1820F911D16
:1000A0009093690080936800809167008F5F8093D0
:1000B000670080916700803498F01092670080910B
:1000C00068009091690026E0969587952A95E1F75A
:1000D00090936D0080936C001092690010926800FC
:1000E0009F918F912F910F900FBE0F901F90189599
:1000F000CF93DF93B0DF34D080E036D07894369A57
:10010000C8E0D7E0A895B19907C080916C009091A4
:100110006D002AD0DF9A1FC0B09908C080916C0092
:1001200090916D00969587951FD015C080E01CD0EA
:1001300080916A0090916B00019690936B00809380
:100140006A008C52914038F010926B0010926A0055
:100150008BB380588BBBCE010197F1F7369AD2CF83
:100160001BBC1ABCDC980895982FDC988A3018F4D0
:100170008FB58F7502C08FB5806A8FBD892F90E0D3
:100180009BBD8ABD0895089581E0809366001BBCE5
:100190001ABC08959B01281B390BCB016AE070E063
:1001A00024D0FC01C90137FF04C088279927821B8E
:1001B000930B039744F0C90164E170E016D0E80F97
:1001C000F91FDF9A01C0DF98CF016AE070E01FD00D
:1001D000CB016F3F710521F01CF08FEF90E0089587
:1001E00077FF02C080E090E008955527002480FF4B
:1001F00002C0060E571F660F771F6115710521F0AB
:1002000096958795009799F7952F802D089597FBE0
:10021000092E07260AD077FD04D00CD006D0002086
:100220001AF4709561957F4F0895F6F79095819532
:100230009F4F0895AA1BBB1B51E107C0AA1FBB1FFC
:10024000A617B70710F0A61BB70B881F991F5A9562
:10025000A9F780959095BC01CD010895F894FFCF42
:040260000F001E006D
:00000001FF
