:020000040800F2
:10000000C00800206D0400086904000869040008A5
:100010006904000869040008690400080000000081
:10002000000000000000000000000000690400085B
:10003000690400080000000069040008A507000822
:1000400069040008690400086904000869040008DC
:1000500069040008690400086904000869040008CC
:1000600069040008690400086904000869040008BC
:1000700069040008690400086904000869040008AC
:100080006904000869040008690400080000000011
:1000900000000000000000000000000069040008EB
:1000A000690400086904000869040008690400087C
:1000B00069040008690400080000000069040008E1
:1000C0006904000800000000000000006904000846
:1000D0000000000069040008690400080000000036
:1000E00069040008690400086904000800000000B1
:1000F0000000000000000000000000000000000000
:1001000000000000000000000000000000000000EF
:1001100000000000000000006904000869040008F5
:100120005FF808F110B5054C237833B9044B13B1CF
:100130000448AFF300800123237010BD6804002041
:1001400000000000E81B000808B5064B1BB106487C
:100150000649AFF300800648036813B1054B03B1AD
:10016000984708BD00000000E81B00086C04002050
:1001700064040020000000000023C25C0AB10133C7
:10018000FBE71846704710B50446FFF7F5FF00225D
:10019000431E9A4206DAA15CE05CA054E1540132AD
:1001A000013BF6E710BD70B5002280EAE074A4EBD5
:1001B000E0740A2694FBF6F506FB154430348C54A3
:1001C000531C2C460DB11A46F3E700281C4602DAF0
:1001D000931C2D220A550022CA540846BDE87040DF
:1001E000FFF7D1BF30B50022835C0BB10132FBE7D2
:1001F000CC5C8518EC540133002CF9D130BD0000E3
:10020000224A038890429BB212D002F500629042CB
:100210000ED0B0F1804F0BD0A2F59832904207D0AB
:1002200002F58062904203D002F58062904203D1D1
:100230004A8823F070031343154A904208D002F510
:100240008062904204D023F44073CA889BB2134367
:1002500003808B8883850B8803850C4B98420FD0D5
:1002600003F5006398420BD003F54063984207D032
:1002700003F58063984203D003F58063984201D16F
:100280000B7A038601238382704700BF002C014054
:1002900000100040038C30B523F010031B041B0C2E
:1002A0000384038C8288048B0D8824F4E6442404A0
:1002B000240C23F0200344EA05241B040D891B0CA5
:1002C00043EA05134D8892B243EA0513124DA4B2D6
:1002D000A8429BB203D005F50065A84215D14D890F
:1002E00023F080039BB243EA05134FF6BF751D4010
:1002F0008B8822F4406245EA03138D899BB242EA5F
:100300008502CD8942EA850292B28280CA8804833E
:100310000287038430BD00BF002C0140038819B15F
:100320009BB243F0010303E023F001031B041B0C09
:1003300003807047038819B19BB243F0800303E048
:1003400023F080031B041B0C03807047038B23F4F2
:1003500000631B041B0C43EA01218BB2038370472B
:10036000034BD86800F0010080F00100704700BF27
:10037000002002400A4B10B51A691C4642F00202E6
:100380001A6158611A6942F040021A61FFF7E8FFEA
:100390000028FBD0236923F00203236110BD00BFB6
:1003A00000200240034B044A5A6002F188325A602E
:1003B000704700BF0020024023016745024B1A69C5
:1003C00042F080021A6170470020024038B50E4B9F
:1003D00004461A690D4642F001021A61FFF7C0FF98
:1003E0000028FBD0ABB22380FFF7BAFF0028FBD078
:1003F0002D0C6580FFF7B4FF0028FBD0024B1A6973
:1004000022F001021A6138BD0020024000687047E6
:100410002DE9F041064617468846FFF7C3FF3046F0
:10042000FFF7A8FFFFF7CAFFFFF7BCFF7F083446BE
:100430000025ABB2BB4208D2C6EB08031A1952889A
:10044000195B204642EA014102E020464FF0FF31AD
:100450000135FFF7BBFFB5F5807F04F10404E8D157
:10046000BDE8F041FFF7AABFFEE7000008B5002392
:100470000C4A0D499818884204D20C495958995091
:100480000433F5E70A480B494FF000028842B8BF31
:1004900040F8042BFFF6FAAF00F00EF8BDE8084074
:1004A00000F080BC0000002068040020E81B000869
:1004B00068040020C0040020314B82B01A6842F06A
:1004C00001021A6059682F4A0A405A601A6822F0DD
:1004D000847222F480321A601A6822F480221A6030
:1004E0005A6822F4FE025A604FF41F029A600022FA
:1004F000DA62009201921A6842F480321A601A6835
:1005000002F400320192009A01320092019A1AB963
:10051000009AB2F5A06FF2D11A6812F4003218BF37
:1005200001220192019A012A05D0174B4FF0006277
:100530009A6002B070475A685A605A685A605A689E
:100540005A605A6822F47C125A605A6842F498122F
:100550005A601A6842F080721A601968084A890164
:10056000FBD5516821F003015160516841F002014F
:1005700051605A6802F00C02082AFAD1D5E700BF90
:10058000001002400000FFF800ED00E0CB78F0B56D
:10059000DA0648BF8A78098803F00F0548BF15437B
:1005A00011F0FF0F1DD0046800220127974007EAD1
:1005B0000106BE4211D197004FF00F0C0CFA07FC58
:1005C00005FA07F724EA0C04282B44EA070401D1B2
:1005D000466102E0482B08BF06610132082AE4D1D7
:1005E0000460FF291FD94468002202F10806012790
:1005F000B74007EA0106BE4211D197004FF00F0C39
:100600000CFA07FC05FA07F724EA0C04282B44EA45
:10061000070401D1466102E0482B08BF06610132A0
:10062000082AE2D14460F0BD836819420CBF002063
:1006300001207047806880B2704701617047416156
:100640007047C1607047000037B50A4D102302247F
:100650008DF807302846032301A98DF80630ADF840
:100660000440FFF793FF28462146FFF7E8FF03B059
:1006700030BD00BF0008014038B51348FFF7C6FE83
:10068000124C000C20801048FFF7C0FE608010481C
:10069000FFF7BCFE000CA0800D48FFF7B7FEE0801E
:1006A0000C4C2046FFF7B2FE0B4D0C4B2544000CC2
:1006B00058532046FFF7AAFE094B04345853094B00
:1006C0009C42EED138BD00BF00FC0108A20400200E
:1006D00004FC01080CFC010800000020F403FEF7F4
:1006E000F603FEF720FC010810B500238AB01A4675
:1006F000194690B2042804D80E481C5A01A81C526E
:100700000DE0052804D14FF6FF70ADF80E0006E0AD
:10071000094C481C34F8114001A95C5281B20132E5
:10072000112A03F10203E4D1044801A9FFF770FE86
:100730000AB010BDA20400200000002000FC010847
:10074000034B18801A8892B2002AFBD1704700BF71
:100750008404002030B5044685B010B9FFF774FF5B
:100760001CE0182302258DF803300D480323694649
:100770008DF80230ADF80050FFF708FF00234FF06E
:10078000804001A9ADF80630ADF80450ADF808403E
:10079000ADF80A308DF80C30FFF732FD05B030BDF2
:1007A0000008014010B52B4C63889BB233B16388BD
:1007B000013B9BB263800BB9FFF746FFA288254B34
:1007C00092B232B19A88013A92B29A800AB9012261
:1007D0009A71A3680133A3601F4B1A8892B21AB1B1
:1007E0001A88013A92B21A8022881A4B92B21AB130
:1007F0001A88013A92B21A80A289164B12B94FF4A4
:10080000C87200E0013A9A81A08920B1502802D034
:10081000B0F5A07F03D1C0F3870000F03BFCA27BC2
:100820000C4BAAB1DA7B0132D2B20D2A01D8DA73AD
:1008300010BD0A4C0022E08ADA73FFF78BFFE38ACF
:10084000643B9BB2B3F57A7F38BF41F28833E382D1
:1008500010BD00BF840400209C0400200000002084
:100860002DE9F04F002485B0A246484A484DDFF8F4
:10087000288135F82460042CCCBF17464746102346
:100880004FF00109384603A98DE80C008DF80F30B0
:100890004FEA840BADF80C608DF80E90FFF776FEF2
:1008A000009A5D44032CC8BF9046AD884FF0280BDA
:1008B000404603A9ADF80C508DF80FB08DF80E909E
:1008C000FFF764FE31463846FFF7B7FE0220FFF718
:1008D00037FF29464046FFF7A7FE019B024603A9C2
:1008E000404600928DF80F30ADF80C508DF80E9008
:1008F000FFF74CFE384603A9ADF80C608DF80FB039
:100900008DF80E90FFF742FE29464046FFF795FE10
:100910000220FFF715FF38463146FFF785FE4845B0
:10092000009A04D0B2EB09035842584100E002207B
:10093000184BADF80C60E35A144E174F4FF00409F2
:10094000834218BF4FF0010A4FF001084C45CCBF5D
:100950003046384603A98DF80F908DF80E80FFF7CA
:1009600015FE032CD4BF3846304603A90234ADF837
:100970000C508DF80F908DF80E80FFF707FE082CB5
:100980007FF473AF504605B0BDE8F08F000C014016
:100990005C1B0008A2040020000801402DE9F04F74
:1009A000002485B0DFF834A1494DDFF82C81494F90
:1009B00035F82460042CCCBFD146C1460023102258
:1009C000E3534FF0010BA300484603A98DF80F2015
:1009D000ADF80C608DF80EB00193FFF7D7FD019BC9
:1009E000032CC8BFD0461D44AD882823404603A928
:1009F0008DF80F308DF80EB0ADF80C50FFF7C6FD36
:100A000031464846FFF719FE0220FFF799FE40469F
:100A10002946FFF709FEDFF8C4A0DFF8BC8058457F
:100A200008BFE053032CCCBFD146C1461023042C91
:100A3000C8BFD0464FF0010B484603A98DF80F30D0
:100A4000ADF80C508DF80EB0FFF7A0FD28234046FE
:100A500003A98DF80F30ADF80C608DF80EB0FFF7DC
:100A600095FD48462946FFF7E8FD0220FFF768FE9E
:100A700031464046FFF7D8FD584504BF02233B539B
:100A8000ADF80C60144F154E4FF004094C45CCBF27
:100A9000304638464FF0010803A98DF80F908DF8C5
:100AA0000E80FFF773FD032CD4BF3846304603A9F0
:100AB0000234ADF80C508DF80F908DF80E80FFF7D2
:100AC00065FD082C7FF46EAF05B0BDE8F08F00BF68
:100AD0005C1B0008A204002000080140000C01403B
:100AE0002DE9F84F04462E4888461546FFF7A2FD2B
:100AF00000210746072000F091FA4FF2244300BF7F
:100B0000013BFCD140F271266E431D46EBB24345DA
:100B10003FD204F0040303F0FF0B23B120484FF44D
:100B20008061FFF78AFD14F0010A03D01C480421FC
:100B3000FFF783FD04F0020303F0FF0923B1184817
:100B40004FF40061FFF779FD0023B34202D000BFEC
:100B50000133FAE7BBF1000F04D011484FF4806174
:100B6000FFF76DFDBAF1000F03D00D480421FFF728
:100B700066FDB9F1000F04D009484FF40061FFF79A
:100B80005EFD0023B34202D000BF0133FAE7013516
:100B9000BCE739460248BDE8F84FFFF752BD00BF39
:100BA000000C014070B518B3124C237C0A2B1CD8E2
:100BB00011495A1C21F81300104BD5B2188825741E
:100BC000A842184611D152000023C5186E88CD5A8C
:100BD000AE420AD102339342F7D1094800F096FEA3
:100BE000064A00231376237401E04FF47A63A3804E
:100BF00070BD00BF84040020AA0400200000002073
:100C0000981B000808B501200421FA22FFF768FFAD
:100C1000FFF7C4FEFFF768FD02200421FA22FFF768
:100C20005FFF002008BD000038B50E4C0E4821883B
:100C300000F0A7FE2388142B84BF142323800023F5
:100C400022885D1CDBB2934207D2064A013332F898
:100C5000130000F08BFE2B46F2E70A20BDE8384077
:100C600000F074BE00000020A41B000810B5084866
:100C700000F04CFE0024074B185B023400F076FEB7
:100C8000082CF8D1BDE810400A2000F05FBE00BF7C
:100C9000AE1B0008A204002038B50720012100F097
:100CA000BDF901240125AC4204F1FF320DDB4FF404
:100CB000FA60FFF74FFD104B64224FF49670013538
:100CC0005A80EDB2FFF73CFDEDE70C4B33F81230E4
:100CD00053B140F2DC50FFF73DFD074B64224FF467
:100CE000FA705A80FFF72CFD40F2DC500134FFF718
:100CF00027FD052CD6D138BD84040020A204002095
:100D0000074A30B500231180DCB28C4206D230F89D
:100D1000135002EB430465800133F5E730BD00BF9B
:100D20000000002038B51B4D4FF49673AA680446A6
:100D3000B2FBF3F103FB1123962B8CBF01210021A1
:100D4000022000F06BF9697C09290AD840F2AA2335
:100D50009C4217D1022904D80F4800F0D7FD01208A
:100D600007E00E48FFF7CCFFFFF7BEFCFFF75CFF84
:100D70000220FA220521FFF7B3FE094A00236B7413
:100D8000137638BD2CB1034B4A1C5A74034B23F81D
:100D9000114038BD84040020BB1B0008AA040020B9
:100DA000000000202DE9F34100F0C8F9944C00F058
:100DB00073FD4FF4FA60FFF7CDFC64206080FFF70D
:100DC000BFFC90480421FFF72FFC8F4F054630BB36
:100DD000C82640F2DC50FFF7BDFC30466680FFF7C6
:100DE000AFFC40F2DC50FFF7B5FC30466680FFF701
:100DF000A7FC40F2DC50FFF7ADFC844A844B10683E
:100E000051681D805D809D80DD806B4603C3684610
:100E100004216680FFF774FFFFF766FC3D76FFF75D
:100E20002BFCFFF701FFFFF721FF94F80680744DBC
:100E3000B8F1010F0ED100264FF4FA602E74FFF7BF
:100E400089FCC823404603214FF4C8726B80FFF72A
:100E500047FEAE7100F0C2FB054628B14FF4FA60C0
:100E6000FFF778FC322363806A480221FFF7DCFB3E
:100E700010B90420032109E062480121FFF7D4FBE7
:100E800010B90420014601E00420002100F0C6F85A
:100E90003E7EDFF87481002E7FD10120314600F0C4
:100EA000BDF80220012100F0B9F840F28A239D42EA
:100EB00013D040F2AA239D4254D0B5F5AA7F6BD13E
:100EC0004FF47A70FFF746FC64236380FFF79AFEC5
:100ED000FFF7E2FEFFF7CAFE5EE0FFF7C1FC054642
:100EE00030B30221012000F099F8C8254FF47A6050
:100EF000FFF730FC28466580FFF722FC41F2040032
:100F0000FFF728FC28466580FFF71AFC41F26800CD
:100F1000FFF720FC28466580FFF712FC41F2CC0069
:100F2000FFF718FC01203146658000F077F833E0C8
:100F300001260220294688F8186000F06FF8032186
:100F4000304600F06BF8C8264FF47A70FFF702FCC9
:100F500030466680FFF7F4FB40F6C410FFF7FAFB5B
:100F600066801AE00323FA220220052188F818304F
:100F7000FFF7B6FD3146012000F050F8642540F23D
:100F8000DC50FFF7E7FB28466580FFF7D9FB40F20E
:100F9000DC50FFF7DFFB658035463B7E032B02D13B
:100FA0002846FFF7BFFE3B7E012B08D11A484FF4BD
:100FB0000051FFF739FB10B1134B02221A763B7E2A
:100FC000013B012B14D80220002100F027F80E4B22
:100FD00001201B7E022B14BF0146032100F01EF8E6
:100FE000FFF73EFC08B102233B762846FFF7DAFD07
:100FF0003B7E022B0CBF01230023A37315E700BF28
:101000008404002000080140000000207C1B000830
:10101000A2040020000C014000100140F8B50C466D
:1010200000F0020700F0040600F0010589B927B1BD
:1010300016484FF40061FFF702FB26B113484FF446
:101040008061FFF7FCFABDB110480421FFF7F7FA01
:1010500012E0012910D127B10C484FF40061FFF7CD
:10106000ECFA26B109484FF48061FFF7E6FA1DB1AA
:1010700006480421FFF7E1FA0FB1054B1C700EB1D1
:10108000034B5C700DB1024B9C70F8BD000C01402D
:101090009804002010B5C8B9264C2378012B04D938
:1010A00025484FF40061FFF7CAFA6378012B04D991
:1010B00021484FF48061FFF7C2FAA378012B37D99A
:1010C000BDE810401C480421FFF7B9BA142819D113
:1010D000184C2378032B04D117484FF40061FFF715
:1010E000ACFA6378032B04D113484FF48061FFF707
:1010F000A4FAA378032B1BD1BDE810400E480421AD
:10110000FFF79BBA502813D10A4C2378042B04D143
:1011100009484FF40061FFF790FA6378042B04D17B
:1011200005484FF48061FFF788FAA378042BE2E7C3
:1011300010BD00BF98040020000C01402DE9F043D1
:101140001C2089B0012100F09BF94FF4804001215F
:1011500000F096F90120014600F09EF901200146B9
:1011600000F08EF94FF4803000F0EAF800F0B4F9A6
:10117000002840F0BD806D4B41F63F725A606C4ACA
:10118000F02182F823100026072201249E602827E0
:101190001A60694667480225ADF800408DF8037073
:1011A0008DF80240FFF7F2F9694663484FF04809AD
:1011B000ADF800508DF803708DF80240FFF7E6F9A6
:1011C000042369465B48ADF800308DF803908DF834
:1011D0000240FFF7DBF9382369465648ADF8003086
:1011E0008DF803708DF80240FFF7D0F918238DF8C1
:1011F0000330694603234F484FF010088DF8023042
:10120000ADF80050FFF7C2F9C02369464948ADF870
:1012100000308DF803808DF80240FFF7B7F969467A
:101220004548ADF800408DF803808DF80240FFF787
:10123000ADF969464048ADF800508DF803708DF85F
:101240000240FFF7A3F940F6044369463A48ADF877
:1012500000308DF803808DF80240FFF797F94FF4C6
:10126000005369463548ADF800308DF803908DF88D
:101270000240FFF78BF921462F48FFF7E0F92D4890
:101280008021FFF7DCF92B484021FFF7D8F901A9AD
:101290004FF08040ADF80660ADF80450ADF808603E
:1012A000ADF80A608DF80C60FEF7AAFF3023ADF8A8
:1012B00010300DEB080180234FF08040ADF8163060
:1012C000ADF81240ADF81850FEF7E4FF4FF0804043
:1012D0000821FFF73BF821464FF08040FFF72AF83E
:1012E0004FF080402146FFF719F809B0BDE8F083C0
:1012F000002000F063F8002000F074F8002000F0F7
:1013000067F80020014600F037F8012000F03EF8B1
:10131000392000F0CDF80028FAD0022000F03CF887
:1013200000F044F80828FBD125E700BF10E000E0FA
:1013300000ED00E000080140000C014000100140F9
:101340000C4BB0F5803F1A6822F480321A601A689C
:1013500022F480221A6003D0B0F5802F04D07047A9
:101360001A6842F4803202E01A6842F4A0221A603D
:10137000704700BF00100240034B5A6822F47412F9
:10138000114308435860704700100240014B186039
:10139000704700BF60004242034B5A6822F00302CC
:1013A00010435860704700BF00100240024B58685D
:1013B00000F00C00704700BF00100240034B5A6859
:1013C00022F0F00210435860704700BF0010024046
:1013D000034B5A6822F4E06210435860704700BF24
:1013E00000100240034B5A6822F4605242EAC000E7
:1013F00058607047001002401D4B10B55A6802F04B
:101400000C02042A01D0082A01D01A4A11E05A68B5
:101410005968C2F38342C90302F1020201D416499A
:1014200006E0D96A134C01F00F010131B4FBF1F170
:101430004A4302605968114AC1F30311545C0168C0
:10144000E14041605C68C4F30224145D21FA04F4B5
:1014500084605C68C4F3C224145DE140C1605B68D1
:10146000C3F381331A44137CB1FBF3F1016110BD66
:101470000010024000127A0000093D001A0000200E
:10148000044B9A6909B1104301E022EA0000986117
:10149000704700BF00100240044BDA6909B11043E5
:1014A00001E022EA0000D861704700BF001002404E
:1014B0004309012B074A01D1136803E0022B0CBF3B
:1014C000136A536A00F01F0023FA00F000F00100D5
:1014D000704700BF0010024007B500230193312080
:1014E000FFF7E6FF019B01330193019BB3F5A06F6A
:1014F00001D00028F3D03120FFF7DAFF003018BF09
:10150000012003B05DF804FB038ACA889BB223F470
:101510004053134330B503820D4682890989AB8855
:1015200092B20B43698922F4B0520B4322F00C02B1
:1015300013439BB28381838AAA899BB223F44073AD
:1015400087B013430446838201A8FFF755FF17496C
:10155000049A039B8C4208BF1346A289192112B238
:101560005943002A2A684FF06403B4BF5200920026
:10157000B1FBF2F1B1FBF3F21201100903FB101100
:10158000A08900B2002806DAC9003231B1FBF3F3BA
:1015900003F0070305E009013231B1FBF3F303F077
:1015A0000F031A4392B2228107B030BD00380140C8
:1015B000838919B19BB243F4005303E023F4005331
:1015C0001B041B0C83817047C1F3080181807047A5
:1015D000038819420CBF0020012070472DE9F34712
:1015E000AA4F3B889BB20BB100204CE1A84D0124CF
:1015F00038264FF01008284601A9ADF804608DF890
:1016000007808DF80640FEF7C1FF31462846FFF7F8
:1016100016F82046FFF794F8ADF8046004260DEBA9
:10162000060128468DF807608DF80640FEF7AEFFEC
:101630000DEB06019748ADF804408DF807808DF852
:101640000640FEF7A3FFC0230DEB06012846ADF8C8
:1016500004308DF807608DF80640FEF797FF2146AD
:101660008C48FEF7EAFF2046FFF76AF8AB68884827
:1016700013F0200FAB680CBF00264FF40076D9069C
:10168000AB6844BF46F48076B6B201211A0748BF62
:1016900046F08006FEF7D3FF01200124FFF750F843
:1016A0004FF038084FF0100A794801A98DF806402C
:1016B000ADF804808DF807A0FEF768FF4146744836
:1016C000FEF7BDFF2046FFF73BF8ADF804804FF072
:1016D00004080DEB08016E488DF806408DF8078070
:1016E000FEF754FF0DEB08016A48ADF804408DF891
:1016F00006404FF080098DF80780FEF747FF0DEB9D
:10170000080163488DF80640ADF804908DF807A0F5
:10171000FEF73CFF40230DEB08015D48ADF80430B7
:101720008DF806408DF80780FEF730FF494658488F
:10173000FEF783FF2046FFF703F8AB6880219B0686
:10174000AB685ABF26F04006B6B246F04006DC064B
:10175000AB685ABF26F02006B6B246F0200618073E
:1017600058BF26F010064A484CBF46F01006B6B2E5
:10177000FEF765FF01200124FEF7E2FF4FF0380875
:101780004FF01009424801A98DF80640ADF80480D9
:101790008DF80790FEF7FAFE41463D48FEF74FFFF1
:1017A0002046FEF7CDFFADF804804FF004080DEBA6
:1017B000080137488DF806408DF80780FEF7E6FEF1
:1017C0000DEB08013348ADF804408DF806408DF864
:1017D0000780FEF7DBFE80230DEB08012C488DF817
:1017E0000640ADF804308DF80780FEF7CFFE4FF0CD
:1017F0004008274801A98DF80640ADF804808DF80F
:101800000790FEF7C3FE41462148FEF716FF20462B
:10181000FEF796FFAB681E489906AB685ABF26F0E4
:101820000804A4B246F00804DA06AB685ABF24F0F4
:101830000404A4B244F004041B0758BF24F00204BB
:101840004FF040014CBF44F00204A4B2FEF7F7FE93
:1018500078880E4B20B94CB18C221A805C8012E043
:101860004FF6FF72904201D104B95C8078884FF640
:10187000FD73421E92B29A423FF6B6AE034B4FF64C
:10188000FF725A80204302B0BDE8F0879C0400201C
:1018900000080140000C014010B544F2010086B080
:1018A0000121FFF7EDFDC023ADF8043018238DF8BA
:1018B000073001A9032312488DF80630FEF766FEB3
:1018C0004FF4E13302930F4C0023ADF80C30ADF828
:1018D0000E30ADF81030ADF8143008230DEB0301D5
:1018E0002046ADF81230FFF70FFE20460121FFF72A
:1018F0005FFE054B5A6842F004025A6006B010BD04
:10190000000C0140003801400000014010B50446C1
:1019100014F8013B5BB10C488021FFF759FE002809
:10192000F9D0094814F8011CFFF74EFEF0E706480D
:101930008021FFF74DFE0028F9D003480D21BDE8B6
:101940001040FFF741BE00BF0038014010B504460B
:1019500005488021FFF73CFE0028F9D021460248C7
:10196000BDE81040FFF730BE0038014000B58FB031
:1019700001A9FEF718FC01A8FFF7C8FF0FB05DF83A
:1019800004FB30B593B0322205460C4605A8002171
:1019900000F012F805A82946FEF724FC2046694607
:1019A000FEF701FC05A86946FEF71CFC05A8FFF739
:1019B000ADFF13B030BD0000F0B4840743D0541E17
:1019C000002A3ED0CDB2034603E0621E002C38D080
:1019D000144603F8015B9A07F7D1032C2AD9CDB23C
:1019E00045EA05250F2C45EA054515D9A4F1100750
:1019F0003F0903F1100606EB07161A4615605560FD
:101A00009560D5601032B242F8D104F00F0401376E
:101A1000032C03EB07130DD91E462246043A032A72
:101A200046F8045BFAD8221F22F003020432134462
:101A300004F003042CB1C9B21C4403F8011BA342F7
:101A4000FBD1F0BC704714460346C6E7024B13B106
:101A5000024800F005B87047000000006D1A000849
:101A6000014600200246034600F018B838B5094D7B
:101A7000094C641BA41018BF05EB840505D0013C7C
:101A800055F8043D9847002CF9D1BDE8384000F0E6
:101A90005FB800BF6004002064040020F0B5274C4C
:101AA00085B026680746D6F84841002C40D06568C6
:101AB0001F2D1EDD224818B94FF0FF3005B0F0BDD4
:101AC0004FF4C870039102920193AFF30080039921
:101AD0000446029A019B0028EED0D6F84851002017
:101AE000256060600546C6F84841C4F88801C4F81E
:101AF0008C013FB96B1C00200235636044F825104F
:101B000005B0F0BD0126AE4004EB8500C0F888208A
:101B1000D4F88821022F42EA0602C4F88821C0F8CE
:101B20000831E7D1D4F88C311E43C4F88C61E1E769
:101B300006F5A674C6F84841B9E700BFE41B0008E3
:101B400000000000F8B500BFF8BC08BC9E46704716
:101B5000F8B500BFF8BC08BC9E46704700100000F6
:101B60000008000000040000000200000001000066
:101B70000080000000400000002000000200020081
:101B80000200020049444C454C4F434B414C524DDE
:101B900053764364000000002320556E6C6F636B26
:101BA000656421002320434F44453A20230023202D
:101BB00053454E534F52533A20230023204E45574E
:101BC00020434F44453A20746F6F2073686F7274DE
:101BD000212054727920616761696E2E0000000037
:081BE00043000000300000206A
:101BE8000500200020002000200020000000000048
:101BF800000000000000881301000000000001023E
:101C08000304010203040607080902040608000089
:101C1800000000001C03002084030020EC030020C7
:101C280000000000000000000000000000000000AC
:101C3800000000000000000000000000000000009C
:101C480000000000E01B0008000000000000000089
:101C5800000000000000000000000000000000007C
:101C6800000000000000000000000000000000006C
:101C7800000000000000000000000000000000005C
:101C8800000000000000000000000000000000004C
:101C9800000000000000000000000000000000003C
:101CA800000000000000000000000000000000002C
:101CB800000000000000000001000000000000001B
:101CC8000E33CDAB34126DE6ECDE05000B000000E0
:101CD80000000000000000000000000000000000FC
:101CE80000000000000000000000000000000000EC
:101CF80000000000000000000000000000000000DC
:101D080000000000000000000000000000000000CB
:1020380000000000000000004D1A000849010008D7
:08204800250100080000000062
:0400000508000000EF
:00000001FF
