:1000000012C02CC02BC02AC029C028C027C026C0BF
:1000100025C024C023C022C021C020C01FC01EC0D4
:100020001DC01CC01BC011241FBECFE5D4E0DEBF25
:10003000CDBF10E0A0E6B0E0E2E0FCE102C0059038
:100040000D92A436B107D9F710E0A4E6B0E001C0E4
:100050001D92AD3BB107E1F7C9D7D1CDD1CF92B356
:10006000282F22952F70907F292B22BB31E0932FD0
:100070009A95F1F7959A23E0922F9A95F1F7959832
:1000800092B38F70907F982B92BB3A95F1F7959A27
:100090002A95F1F7959884E18A95F1F782B3807FEC
:1000A00082BB0895959A83E08A95F1F79598089513
:1000B0008DE0ADDC8AE0ABDC08951F93182F949897
:1000C000CEDF103811F0103C09F4F2DF1F910895D3
:1000D00081E0F3DF82EE94E00197F1F7E9DF089524
:1000E00081B38F6381BB8CE49DE10197F1F782B30B
:1000F000807E836082BB959A93E0892F8A95F1F781
:100100009598E2EEF4E03197F1F7959A892F8A9568
:10011000F1F795982AEF30E0F9013197F1F7959AC8
:10012000892F8A95F1F79598F9013197F1F782B304
:10013000807E826082BBF9013197F1F7959A9A959A
:10014000F1F79598C9010197F1F788E2B6DF8CE0E5
:10015000B4DF86E0B2DFBCDF08951F93182F949AB6
:100160007EDF113E61F0123E18F4112331F00BC016
:10017000143E39F0143F39F408C083E205C084EE20
:1001800003C085EB01C0812F42DC1F910895CF93FE
:10019000DF93EC01CE0106DD882329F0803819F0C9
:1001A000DCDF2196F7CFDF91CF910895CF93DF93D6
:1001B000EC0102C0D2DF219688818823D9F7DF9134
:1001C000CF910895806487B920E030E040E0369A0E
:1001D0003699FECF84B195B1280F391F4F5F443156
:1001E000B1F7C90164E170E051DCCB010895482FFB
:1001F000440F662359F028B381E090E0042E02C03A
:10020000880F991F0A94E2F7282B28BB87B321E0B7
:1002100030E002C0220F331F4A95E2F7822B87BBE2
:1002200084EC99E00197F1F787B32095822387BB8F
:10023000662319F088B3282328BB08952F923F9294
:100240004F925F926F927F928F929F92AF92BF92E6
:10025000CF92DF92EF92FF920F931F93DF93CF9392
:10026000CDB7DEB72A970FB6F894DEBF0FBECDBF6D
:10027000782E662EA42EA895262F30E038872F835F
:10028000220F331F3E832D8321E030E0C9010D8012
:1002900002C0880F991F0A94E2F7D82E87BB18BABC
:1002A000472D50E05C834B830B8002C0220F331F2D
:1002B0000A94E2F7522F58605A8354BB298325BB16
:1002C00082EE94E00197F1F78A2D60E090DF862DB1
:1002D00079DF2C0188EC4816510430F08A2D61E05A
:1002E00086DF862D6FDF2C0194E14916510408F456
:1002F000A2C087B39A2D990F02E010E002C0000F50
:10030000111F9A95E2F7802B87BB38E8832E33E1E3
:10031000932EC4010197F1F7862D54DF7C0188B339
:10032000082B08BBC4010197F1F7862D4BDFA4E62B
:10033000B0E0EA0EFB1EE816F90688F515BA21E0D2
:1003400030E0C9010F8002C0880F991F0A94E2F7BC
:10035000886084BB97B38B81880F02C0220F331F44
:100360008A95E2F7922B97BB88B3282B28BBC40150
:100370000197F1F78A2D26DF8152934020F083E028
:100380008093680004C083E08093680085E08093D8
:100390006700A0926400709283006092A20015BA78
:1003A00001E010E0C8010F8002C0880F991F0A9475
:1003B000E2F7886084BB97B38B81880F02C0000F7F
:1003C000111F8A95E2F7802F902B97BB98B3892B4A
:1003D00088BB28E8822E23E1922EC4010197F1F711
:1003E000872DF0DE7C0108BBC4010197F1F7872D52
:1003F000E9DE8C599F4F8E159F05E8F4E981E5BB36
:10040000FA81F4BBC4010197F1F78A2DDBDE883C49
:10041000910528F483E08093680084E004C083E0C1
:100420008093680086E080936700A09264006092E9
:1004300083007092A200D7BA18BA2A8124BB3981EE
:1004400035BB92EE892E94E0992EC4010197F1F705
:1004500048EC4416510408F0CBC1EA2CEE0C27B34B
:1004600001E010E0C8010E2C02C0880F991F0A9409
:10047000E2F7382E282B27BB84EF91E00197F1F7A4
:10048000862DA0DE8D5B924008F48EC0D7BA87B36C
:10049000E3940E2C02C0000F111F0A94E2F7EA94B5
:1004A000802B87BB84EC99E00197F1F7862D8ADEDB
:1004B0008C018A2D87DE9C0190916800892F8250E3
:1004C000823018F481E080936500E0916500F0E0EF
:1004D000EE0FFF1FDF01A456BF4F0D931C93E4578F
:1004E000FF4F31832083953009F45EC0293C3105EC
:1004F00030F082E080936800809367004FC084E111
:100500004816510408F04AC083E08093680082E0F6
:100510008093670081E090E00F8002C0880F991FF0
:100520000A94E2F7082F17B38A2D806487B91092D6
:100530009A0010929900109264001FC0A8958A2D0D
:1005400061E055DE83B38023E9F317BA369A369912
:10055000FECF84B195B12091990030919A0021503D
:100560003C4F281B390B30939A002093990017BBFE
:10057000809164008F5F80936400809164008D306F
:10058000E8F22091990030919A00C901880F991FD3
:10059000820F931F90939A0080939900A092640019
:1005A000609283007092A20015BA8B81880F21E0BF
:1005B00030E0D90102C0AA0FBB1F8A95E2F7BA87C3
:1005C000A9878985832987BB88BB49010F8002C021
:1005D000880C991C0A94E2F7882D886084BB04EC8F
:1005E00019E0C8010197F1F7872DECDD845F914098
:1005F00008F0FAC080916500813009F4E2C2E98513
:10060000E8BBC8010197F1F7F985F7BBB2EECB2E35
:10061000B4E0DB2EC6010197F1F7872DD3DD8C0105
:1006200018BAC6010197F1F7298528BBC6010197C1
:10063000F1F7872DC7DD045F114008F049C08558E8
:10064000934008F445C085E08093680017BA18BA53
:1006500085BAC6010197F1F7598557BBC6010197C5
:10066000F1F7872DAFDDC39708F0B8C087B3382AFC
:1006700037BAC6010197F1F78A2DA4DD883C9105B0
:1006800008F4ACC0872D9EDD8639910508F4A6C01C
:10069000898587BBC6010197F1F7872D93DD8639E0
:1006A000910508F49BC0998598BBC6010197F1F7A5
:1006B00018BAC6010197F1F7872D84DDC39708F0BA
:1006C0008DC084E08093680081E08093650086C0DF
:1006D00027B3E39481E090E002C0880F991FEA9469
:1006E000E2F7282B27BB28B3822B88BB84ED90E34D
:1006F0000197F1F7872D66DD8C018A2D63DDAC0152
:10070000809168008250823018F481E08093650007
:10071000E0916500F0E0EE0FFF1FDF01A456BF4F30
:100720008FEF93E09C01201B310B2D933C93E457FA
:10073000FF4F841B950B91838083445F514038F4B5
:1007400082E08093680081E08093670047C0B4E155
:100750004B16510408F042C083E08093680081E0AA
:100760008093670017B38A2D806487B910929A002E
:10077000109299001092640020C0A8958A2D60E024
:1007800036DD83B3E9818E23E1F717BA18BA369ABA
:100790003699FECF84B195B12091990030919A009D
:1007A000280F391F30939A002093990017BB18BB6C
:1007B000809164008F5F80936400809164008D302D
:1007C000E0F22091990030919A00C901880F991F99
:1007D000820F931F90939A0080939900A0926400D7
:1007E000709283006092A20088E084BB15BAE5C0D5
:1007F0000B811C81000F111F62E0E62EF12C002EF0
:1008000002C0EE0CFF1C0A94E2F781E090E09C012C
:1008100002C0220F331F0A95E2F7890115BA0F8033
:1008200002C0880F991F0A94E2F7886084BB8A2D62
:1008300061E0DDDCC4010197F1F7872DC3DC6C01B9
:10084000862DC0DCC81AD90AE7BAE8BAC4010197F4
:10085000F1F7872DB7DC1C01862DB4DC2C0107BB1A
:1008600008BB8A2D60E0C3DCC4010197F1F7872D36
:10087000A9DC5C01862DA6DCA81AB90AE7BAE8BA99
:10088000C4010197F1F7872D9DDC8C01862D9ADC40
:10089000AC14BD0420F441018418950804C048013B
:1008A000881A990A6501C6014F978759934008F045
:1008B00084C080916800882311F0863019F481E0AB
:1008C0008093680020916600E22FF0E0EE0FFF1F9A
:1008D000EE0FFF1FDF01AD55BF4F7C9211966C925A
:1008E000EB55FF4F86E390E0AC01C49EC001C59E6E
:1008F000900DD49E900D11246BE070E0C7D87183E9
:100900006083122F1F5F1093660036E0880C991CDD
:100910003A95E1F7C60165E070E0B8D86B0170E088
:1009200047C0E72FF0E0EE0FFF1FEE0FFF1FED5562
:10093000FF4F80818615D9F581818715C1F58C140B
:100940009D04A8F5672F412F50E04150504029C029
:10095000F5013196AA0CBB1CAA0CBB1C95012D55A8
:100960003F4FEE0FFF1FEE0FFF1F03EA402E00E088
:10097000502E4E0E5F1ED2018C91D9018C93D20164
:1009800011968C91D90111968C9325EA30E0A20E34
:10099000B31EE20FF31F80819181D5018D939C934B
:1009A0006F5FA62EBB24A416B50694F212507F5F8B
:1009B000711708F4B6CF109366002B813C81220F8B
:1009C000331F32E0E32EF12C6701022E02C0CC0C63
:1009D000DD1C0A94E2F701E010E0F80102C0EE0F1E
:1009E000FF1F2A95E2F715BAC8010F8002C0880FD1
:1009F000991F0A94E2F7886084BBE7BBE8BB862DA9
:100A0000E1DB5C01872DDEDB4C018A189B08C7BA4D
:100A1000C8BA862DD7DB6C01872DD4DB2C014C188E
:100A20005D080D8002C0EE0CFF1C0A94E2F70D80F9
:100A300002C0000F111F0A94E2F7FA81F4BB29816A
:100A400025BB18BA07BB872DBDDB850101501C4FA4
:100A5000081B190BE7BA872DB5DBF601E150FC4FF7
:100A6000E81BF90BC401801B910B8458934030F4B0
:100A7000C2018E1B9F0B459708F0A3C0C20125E061
:100A8000880F991F2A95E1F76FE170E0FFD768158D
:100A9000790508F096C080916800823018F08630A1
:100AA00009F08FC06091BB00663009F06CC0809186
:100AB000BC00861509F067C080916F00871509F0AA
:100AC00062C040919400509195009401220F331F11
:100AD000280D391D220F331F285A3D4FCA01880F98
:100AE000991F880F991F840F951F8C509E4F2817B0
:100AF000390708F443C09A01220F331F240F351F12
:100B0000220F331F285A3D4FC401880F991F880FA9
:100B1000991F880D991D8C509E4F2817390770F129
:100B200040919600509197009201220F331F240D9F
:100B3000351D220F331F285A3D4FCA01880F991FB8
:100B4000880F991F840F951F8C509E4F28173907C7
:100B5000A8F09A01220F331F240F351F220F331FD5
:100B6000285A3D4FC201880F991F880F991F840D85
:100B7000951D8C509E4F2817390718F41092BB0012
:100B800020C06093680090929500809294005092EB
:100B90009700409296008FEF93E09C01201B310B51
:100BA0003093800020937F008E1B9F0B90938200D8
:100BB000809381007092BC0060926F0086E0809309
:100BC000BB0088E084BB15BA17BA18BA2A960FB6CC
:100BD000F894DEBF0FBECDBFCF91DF911F910F9173
:100BE000FF90EF90DF90CF90BF90AF909F908F904D
:100BF0007F906F905F904F903F902F900895EF926D
:100C0000FF921F93CF93DF93EC01162F633088F48C
:100C1000613039F480E690E0C9DA80E39EDA8881B9
:100C200006C080E690E0C2DA888197DA898195DA99
:100C30001CC010926500E42EFF2413C090E00296C1
:100C40008E159F0511F48EE288DA80916500FE0111
:100C5000E80FF11D808181DA809165008F5F8093BC
:100C6000650080916500811748F3DF91CF911F9156
:100C7000FF90EF9008959F92AF92BF92CF92DF9234
:100C8000EF92FF920F931F93CF93DF93B82EA62E70
:100C900080916800873009F491C1CB2CDD24C60116
:100CA000880F991F42E050E0082E02C0440F551FE4
:100CB0000A94E2F74093780021E030E0B90102C0E5
:100CC000660F771F8A95E2F7962E60936A0015BA31
:100CD00018BA17BA0A2C02C0220F331F0A94E2F77F
:100CE00068E0E62EE22AE4BA47BB02EE14E0C8014F
:100CF0000197F1F78B2D66DA90938500809384003D
:100D00008B2D61E074DA8B2D5DDA909389008093EE
:100D10008800C8010197F1F78B2D54DA9093870072
:100D200080938600A89520918400309185002F5FE4
:100D30003F4F2817390740F0809188009091890033
:100D40002817390708F03AC180916A0087BBC0E0D4
:100D5000D0E0FF2407C0A895219621F4F3947EE10A
:100D6000F71649F08B2D2EDA8C018A2D2BDA0A9694
:100D70008017910780F380916A0088BB82EE94E02F
:100D80000197F1F78B2D1EDA9093890080938800EC
:100D900080E29EE40197F1F78B2D14DA9C01909389
:100DA0008B0080938A00809188009091890003963F
:100DB0002817390728F483E02235380708F4FEC0E5
:100DC00080916600882341F0275B334028F08091B2
:100DD0006800833009F0F2C018BAC0E0D0E0FF2408
:100DE00007C0A895219621F4F3947EE1F71649F007
:100DF0008B2DE8D98C018A2DE5D90A9680179107A9
:100E000080F38FE084BB80916A0088BB81E090E032
:100E100002C0880F991FCA94E2F7982F80936A0046
:100E2000E4EFF1E03197F1F7E4BAC0E0D0E0DD247F
:100E300008C0A895219629F4D3948EE1D81609F418
:100E40004AC083B38923A9F3CD2CDD2009F043C028
:100E5000CF3FD10511F008F03EC0E4BA18BAFF2424
:100E6000C0E0D0E007C0A895219621F4F3946EE18C
:100E7000F61649F08B2DA6D98C018A2DA3D90A9696
:100E80008017910780F38FE084BB15BA80917800BA
:100E900087BB88BB84EF91E00197F1F780916800F0
:100EA000833059F480916A0080958770886084BB94
:100EB00090916A00C0E0D0E00AC0E4BAF9CFA895EA
:100EC000219629F4C3947EE1C71609F488C083B340
:100ED0008923A9F384C08AE090E06CD67C0100E00D
:100EE00010E088EE93E0A0E0B0E080936B00909378
:100EF0006C00A0936D00B0936E00CD2C13C0C53074
:100F0000D10508F45BC07C0100E010E081E090E0D6
:100F1000A0E0B0E080936B0090936C00A0936D0014
:100F2000B0936E006C2D70E080E090E0CB017727ED
:100F300066279E0140E050E0620F731F841F951FDB
:100F4000A801970184D524E630E040E050E0B2D516
:100F500060916B0070916C0080916D0090916E00BB
:100F600076D560936B0070936C0080936D009093C6
:100F70006E0087E080936800B0929B00A0926900A9
:100F800097BA18BAC0E0D0E0FF2407C0A895219610
:100F900021F4F3948EE1F81649F08B2D13D98C01CE
:100FA0008A2D10D90A968017910780F38FE084BBB1
:100FB00087E085BB84EC99E00197F1F788E084BB7A
:100FC00015BA17BA18BADF91CF911F910F91FF9000
:100FD000EF90DF90CF90BF90AF909F90089588E002
:100FE00090E0E8D5CC2009F48ACF8DCF2F923F92A4
:100FF0004F925F926F927F928F929F92AF92BF9229
:10100000CF92DF92EF92FF920F931F93CF93DF93D4
:1010100080E481BB80EC82BB83E886B961D886E03E
:1010200090E0C8D5EC0184E090E0C4D52C0180E0CC
:1010300090E0B8D5482F50E09A012C70307035956B
:101040002795359527952093A0008370809398006D
:101050004073507094E0559547959A95E1F7409309
:10106000A10088E10FB6F89481BD11BC0FBE04B693
:1010700003FE0DC08CE491E08AD880E395E729E176
:1010800030E0F9013197F1F70197D9F759C080E4C1
:1010900014D885E591E07BD880E80FD8BE0180E0C8
:1010A00090E024E630E040E050E0D1D45B016C01F8
:1010B00080E7282E80E0382E32018824992404C04D
:1010C00090939D0080939C002FE088E190E00FB604
:1010D000F894A89581BD0FBE21BD109268001092B2
:1010E000BB0010926600109265001092670010928B
:1010F0009B0010926900ECD788E084BBD9D785E8C3
:1011000061D885E85FD890939D0080939C008A58B1
:10111000924088F58EE190E03AD880919C009091C1
:101120009D008855924010F580E390E030D880E132
:1011300097E229E130E0F9013197F1F70197D9F70A
:1011400012BA80E090E0DF91CF911F910F91FF9054
:10115000EF90DF90CF90BF90AF909F908F907F9057
:101160006F905F904F903F902F90089588E290E0AD
:101170000ED880ECA2D78CE090E009D880E061E046
:1011800042E05CD880E062E041E058D881E060E075
:1011900042E054D881E062E040E050D882E061E073
:1011A00040E04CD882E060E041E048D8809168009F
:1011B000882321F0863011F0813051F52091A10073
:1011C000222331F118BA85E187BB84EC99E00197BD
:1011D000F1F717BA213051F48091A0006091980086
:1011E0004ADD809198006091A00011C082E060E02B
:1011F00042DD82E061E03FDD81E062E03CDD81E0F4
:1012000060E039DD80E062E036DD80E061E033DD22
:101210005FD780916800813009F0C4C0809166007A
:10122000813019F58CE690E0B2D780E491E0AFD739
:101230008091A3008F5C91D785EB90E0A8D7809137
:10124000A4008F5C8AD780EC38D785E391E09FD7E4
:101250008091A5009091A60060E770E04AE050E020
:101260004BD4A4D78DE391E094C3823009F052C0EF
:101270003091A3002091A7003217E1F484E790E0B9
:1012800086D786E491E083D780EC17D780E491E09D
:101290007ED78091A3008F5C60D786EA90E077D7F5
:1012A0008091A4008F5C59D78BEA90E070D7809131
:1012B000A8003AC28091A4009091A8008917E1F497
:1012C00084E790E064D789E491E061D780ECF5D6BB
:1012D00089EB90E05CD78091A4008F5C3ED786E0DC
:1012E00091E055D78091A3008F5C37D78BE091E0D8
:1012F0004ED78091A70018C2821709F03CC39317FC
:1013000009F039C383E890E042D780ECD6D68CE868
:1013100090E03FC3833009F02EC380936400809334
:1013200083009091A3008091A700981721F08091ED
:10133000AB00981711F4909364009091A7008091EE
:10134000AB00981711F4909364009091A4008091E1
:10135000A800981721F08091AC00981711F4909391
:1013600083009091A8008091AC00981711F490939D
:10137000830080916400833008F0FDC28091830077
:10138000833008F0F8C283E890E001D780EC95D66E
:101390008AE990E0FCD6809164008F5CDED685EB14
:1013A00090E0BFC1823009F0F3C0809165008823CE
:1013B00081F480919C0090919D0090939F00809378
:1013C0009E0080918C0090918D0090938F0080936F
:1013D0008E0020919C0030919D0080919E00909104
:1013E0009F0082179307A0F430939F0020939E00E4
:1013F00080918C0090918D0090938F0080938E004F
:10140000909183008091A200809383009093A2002A
:1014100080916700813019F48CE191E002C080E294
:1014200091E0B5D684E291E0B2D6809164008F5C01
:1014300094D688E291E0ABD6809183008F5C8DD604
:101440008CE291E0A4D68091A2008F5C86D680ECDD
:1014500034D6C601B501A40193012CD3CA01B90148
:1014600020919E0030919F0040E050E0F0D26093C8
:1014700090007093910080939200909393008091DC
:101480008E0090918F000B9730F48BE090E090935A
:101490008F0080938E0020918E0030918F0040E06D
:1014A00050E0609190007091910080919200909135
:1014B000930000D3209390003093910040939200CA
:1014C00050939300C90120939E0090939F0087E161
:1014D00091E05DD680919E0090919F0060E770E062
:1014E0004AE050E04BD362D687ECE7D580916600A6
:1014F000833010F080E001C080E22FD6109283008C
:101500003FC0A22FB0E0FD01EE0FFF1FEE0FFF1F47
:10151000ED55FF4F41813091A200431749F490816E
:1015200080916400981721F480916700813089F0E0
:10153000AA0FBB1FAA0FBB1FAD55BF4F8C918317BE
:10154000E1F4809164004817C1F480916700823013
:10155000A1F485E391E01BD6E0918300F0E0EE0F6B
:10156000FF1FEE0FFF1FEB55FF4F8081918160E75A
:1015700070E04AE050E0C0D2A5C02F5F2093830006
:101580002091830080916600281708F4BACF14C216
:10159000833009F09AC08091670080FF02C08EE41A
:1015A00001C080E5DAD590916700892F83508230A1
:1015B00018F48DEF90E008C09550923018F480E058
:1015C00091E005C08AEF90E0E2D585EF90E0DFD5AD
:1015D000809167008330D8F583E191E0D8D5809180
:1015E00064006091A20047DB80916B0090916C00D9
:1015F00090939D0080939C008330910528F0039781
:1016000090939D0080939C0080919C0090919D0000
:1016100069E770E04AE050E0B1D2E9E7F0E001901C
:101620000020E9F73197E957F040E0936A00E09332
:101630007800E53018F084E080936A0089E790E054
:1016400060916A0040917800DADA8EE686D580EC07
:1016500034D580E391E09BD5809164008F5C7DD58B
:10166000809183008F5C79D58091A2008F5C75D5C5
:1016700080916600882331F080916700833010F4F8
:1016800080E001C080E269D580916700833008F076
:1016900093C18091990090919A00E3E09695879587
:1016A000EA95E1F790939A008093990089E391E09D
:1016B0006ED58091990090919A0060E770E04AE0C1
:1016C00050E05CD273D58DE676C1853099F482EC1A
:1016D00090E05DD580ECF1D480EB90E058D580911E
:1016E00064008F5C3AD5809183008F5C36D5809101
:1016F000A2001AC08430D1F48CEB90E048D580EC85
:10170000DCD483E491E043D5809164008F5C25D5DF
:1017100086E091E03CD58091A2008F5C1ED58BE0E5
:1017200091E035D5809183008F5C45C1863009F00A
:10173000CDC08AED90E02BD58091BC008F5C0DD59B
:101740008DE20BD580916F008F5C07D580ECB5D40E
:10175000209194003091950082E02130380738F0D4
:101760002050324030939D0020939C0008C080E0C0
:1017700092E0821B930B90939D0080939C0020919C
:1017800096003091970082E02130380738F02050E1
:10179000324030939F0020939E0008C080E092E08A
:1017A000821B930B90939F0080939E0020919C003E
:1017B00030919D0080919E0090919F008217930729
:1017C000A8F4809181009091820090938000809392
:1017D0007F00809196009091970090939500809360
:1017E0009400D0939700C093960004C05092970045
:1017F000409296008091940090919500892B31F44D
:1018000081E090E09093950080939400E0909400A4
:10181000F090950000E010E0209196003091970044
:1018200040E050E0C801B70112D120917F00309113
:10183000800040E050E02E193F09400B510B3AD197
:10184000CA012093900030939100409392009093AE
:101850009300B90140E750E02AE030E06CD180917C
:101860009600909197008C179D0759F5F101019012
:101870000020E9F73197E057F040E093BC00109268
:101880006F0016C0F0E0E059FF4F808166D42091D0
:101890006F0030E08091BC0090E002972817390774
:1018A00011F48EE25AD480916F008F5F80936F00A5
:1018B000E0916F008091BC00E81720F38BE64DD4D7
:1018C00003C080E790E072D484EF75C0873009F0E0
:1018D00052C087EE90E05BD480919B008F5C3DD43A
:1018E0008DE23BD4809169008F5C37D480ECE5D3E6
:1018F0008EE68093780060916B0070916C0080910F
:101900006D0090916E00603A26E8720721E0820730
:1019100020E0920780F028EE33E040E050E0CAD0AB
:1019200020936B0030936C0040936D0050936E00D9
:1019300084EE8093780060916B0070916C008091D0
:101940006D0090916E0040E750E02AE030E0F3D067
:10195000F10101900020E9F73197E057F040E09362
:101960006A0080E790E06E2F4E2F49D98091780071
:10197000F4D386E420C080916600882361F489E373
:1019800090E005D480EC99D38AE490E000D487E518
:1019900090E0FDD311C087E590E0F9D382E690E0B6
:1019A000F6D380EC8AD38CEC90E0F1D38091660082
:1019B000805DD3D380E0D1D3879BFECF80E593ECCD
:1019C0000197F1F710929D0010929C0080E090E04A
:1019D0004AEF50E00AC09C012F5F3F4F879B70CBBE
:1019E000A895CA010197F1F7C90127E28031920752
:1019F00090F390939D0080939C00969888E10FB699
:101A0000F89481BD11BC0FBE8799FECF5DCB2F939B
:101A10005FB72F932AE08095089410F4AB9A02C028
:101A2000AB98000008D007D086952A95B1F72F9182
:101A30005FBF2F9108955F935FB75F9300005EE3F0
:101A40005A95F1F700005F915FBF5F910895629F23
:101A5000D001739FF001829FE00DF11D649FE00DA6
:101A6000F11D929FF00D839FF00D749FF00D659F07
:101A7000F00D9927729FB00DE11DF91F639FB00D06
:101A8000E11DF91FBD01CF0111240895AA1BBB1B45
:101A900051E107C0AA1FBB1FA617B70710F0A61B6E
:101AA000B70B881F991F5A95A9F780959095BC018F
:101AB000CD010895A1E21A2EAA1BBB1BFD010DC08A
:101AC000AA1FBB1FEE1FFF1FA217B307E407F507EE
:101AD00020F0A21BB30BE40BF50B661F771F881FCA
:101AE000991F1A9469F760957095809590959B0160
:101AF000AC01BD01CF010895FB019F01E894423084
:101B0000BCF04532ACF44A3029F497FB1EF49095B2
:101B100081959F4F642F7727B9DF805D8A330CF062
:101B2000895D8193CB010097A9F716F45DE251938B
:101B30001082C90144C0FA01CF93FF93EF93223082
:101B4000C4F02532B4F4C22F2C2F33274427552755
:101B5000FF93EF93AFDFEF91FF91605D6A330CF07D
:101B6000695D6193B901CA01605070408040904046
:101B700059F710828F919F91CF9121C0FB019F0156
:101B800042306CF045325CF4642F77277FDF805D54
:101B90008A330CF0895D8193CB010097A9F71082FD
:101BA000C9010DC0E199FECF9FBB8EBBE09A99277A
:101BB0008DB30895A8E1B0E042E050E012C0DC012E
:101BC000FC01672F71917723E1F7329704C07C9174
:101BD0006D9370836291AE17BF07C8F30895DC015F
:101BE000CB01FC01E199FECF06C0FFBBEEBBE09A42
:101BF00031960DB20D9241505040B8F70895F894C7
:021C0000FFCF14
:041C0200302E000080
:00000001FF
