:100000000C942A001895000018950000189500001F
:10001000189500001895000018950000189500002C
:10002000189500001895000018950000189500001C
:10003000189500001895000018950000189500000C
:1000400018950000189500001895000018950000FC
:10005000189500008FE58DBFC0E4E8E34E2E88E0E0
:100060008EBFD8E0F8E05F2EEEEFF7E0A0E6B0E05C
:10007000A89584B7082E877F84BF88E1992781BD22
:1000800091BD88278D933197E9F766248FEF8ABB5E
:1000900086E990E08A939A930E942F022296A4E622
:1000A000B0E00D931C93A4E6B0E00D911C910634D2
:1000B00050E0150710F00C945F000C94480084E0A9
:1000C00090E08A939A930E942F022296A6E6B0E0CF
:1000D0000C9380ED97E08A939A930E942F022296C8
:1000E000A7E6B0E00D931C93A7E6B0E00D911C913C
:1000F000043650E0150710F00C9480000C94690051
:1001000000916600003011F00C94A40080E0809310
:10011000610000916100043018F011F00C94A2000D
:100120000E943E010E941801A4E6B0E08D919C91CE
:100130000E948C02A1E6B0E08C918F5F8C9310F44A
:100140000C9489000C940801013011F00C94C60045
:1001500085E08093610000916100093018F011F092
:100160000C94C4000E943E010E941801A4E6B0E075
:100170008D919C910E948C02A1E6B0E08C918F5FE2
:100180008C9310F40C94AB000C940801023011F025
:100190000C94E8008AE080936100009161000E30C9
:1001A00018F011F00C94E6000E943E010E94180124
:1001B000A4E6B0E08D919C910E948C02A1E6B0E093
:1001C0008C918F5F8C9310F40C94CD000C940801EB
:1001D000033011F00C9408018FE0809361000091CE
:1001E0006100033118F011F00C9408010E943E01E7
:1001F0000E941801A4E6B0E08D919C910E948C02AF
:10020000A1E6B0E08C918F5F8C9310F40C94EF001A
:10021000A9E6B0E0E4E9F5E00E94AD020E94180111
:10022000A7E6B0E08D919C910E948C020C9448004E
:10023000D29AD09AD898A9E6B0E0149690E28E911E
:10024000983018F4392F992702C038E09850881F49
:10025000DA9808F4DA9A00000000D89A000000004A
:10026000D898000000003A9591F7992341F784E06F
:10027000E5E0F0E0ABE30E94BF0208950091610069
:10028000003011F00C944C01A9E6B0E0E8E9F5E08B
:100290000E94AD020C942E02013011F00C94580112
:1002A000A9E6B0E0ECE9F5E00E94AD020C942E0264
:1002B000023011F00C946401A9E6B0E0E0EAF5E048
:1002C0000E94AD020C942E02033011F00C947001C8
:1002D000A9E6B0E0E4EAF5E00E94AD020C942E023B
:1002E000043011F00C947C01A9E6B0E0E8EAF5E0F6
:1002F0000E94AD020C942E02053011F00C9488017E
:10030000A9E6B0E0ECEAF5E00E94AD020C942E0202
:10031000063011F00C949401A9E6B0E0E0EBF5E0B2
:100320000E94AD020C942E02073011F00C94A00133
:10033000A9E6B0E0E4EBF5E00E94AD020C942E02D9
:10034000083011F00C94AC01A9E6B0E0E8EBF5E060
:100350000E94AD020C942E02093011F00C94B801E9
:10036000A9E6B0E0ECEBF5E00E94AD020C942E02A1
:100370000A3011F00C94C401A9E6B0E0E0ECF5E01D
:100380000E94AD020C942E020B3011F00C94D0019F
:10039000A9E6B0E0E4ECF5E00E94AD020C942E0278
:1003A0000C3011F00C94DC01A9E6B0E0E8ECF5E0CB
:1003B0000E94AD020C942E020D3011F00C94E80155
:1003C000A9E6B0E0ECECF5E00E94AD020C942E0240
:1003D0000E3011F00C94F401A9E6B0E0E0EDF5E088
:1003E0000E94AD020C942E020F3011F00C9400020A
:1003F000A9E6B0E0E4EDF5E00E94AD020C942E0217
:10040000003111F00C940C02A9E6B0E0E8EDF5E043
:100410000E94AD020C942E02013111F00C941802CE
:10042000A9E6B0E0ECEDF5E00E94AD020C942E02DE
:10043000023111F00C942402A9E6B0E0E0EEF5E000
:100440000E94AD020C942E02033111F00C942E0286
:10045000A9E6B0E0E4EEF5E00E94AD020895409117
:100460006D0050916E000DE815E30E94430249E1D2
:1004700056E3040F151F00936D0010936E00498121
:1004800058810C94690209D00E949B0200FC10D094
:10049000089503D01ED001F8F9CF0024E89457FF47
:1004A00002C009D0689400F80BD010F80124089518
:1004B00002D009D00895509540954F5F5F4F089541
:1004C000E89417FF0895009510950F5F1F4F6894EB
:1004D0000895352F242FE894452B11F4689408953E
:1004E000512F402F0027112780E1440F551F001F77
:1004F000111F021B130B416018F4020F131F4E7FD4
:100500008A9599F708953197F1F70895689462F8FC
:100510000895E89462F80895EF93FF93EE27E82B8F
:10052000E92B31F0E8E8F3E13197F1F70197D1F7E2
:10053000FF91EF9108950F92B801469F8001479F68
:10054000100D569F100D0F900895C89531960020FC
:10055000089591E005C092E003C094E001C098E0E6
:10056000F4DF0D929A95E1F7089591E0882321F048
:100570008894991F8A95E9F7892F90950895BB274C
:100580000E94B5029C9198279C933197F1F7982788
:100590009C9308950000803F0100004B0300004B36
:1005A0000700004B0F00004B1F00004B80008048ED
:1005B000C0008048E0008048E0018048E0038048B7
:1005C000004000460060004600700046007800468B
:1005D000007C00460080804300808143008083438C
:0805E0000080874300808F4377
:00000001FF
