:100000000C942A001895000018950000189500001F
:10001000189500001895000018950000189500002C
:100020001895000018950000189500000C940E0417
:10003000189500001895000018950000189500000C
:1000400018950000189500001895000018950000FC
:10005000189500008FE58DBFC0E4E8E34E2E88E0E0
:100060008EBFD8E0F8E05F2EA89584B7082E877F72
:1000700084BF88E1992781BD91BDEEEFF7E0A0E64E
:10008000B0E088278D933197E9F766248FEF8ABB1C
:100090008FEF87BB8FEF84BB8FEF81BB8FE08BBB74
:1000A00080E088BB80E085BB80E082BB81E083BFCD
:1000B00089B7816089BF789481E083BF882783BF37
:1000C00081E080936000009160000A3018F011F028
:1000D0000C9474000E94F400A0E6B0E08C918F5F55
:1000E0008C9310F40C94630081E080936000009185
:1000F00060000F3018F011F00C9488000E94050188
:10010000A0E6B0E08C918F5F8C9310F40C94770094
:1001100081E08093600000916000043118F011F0DC
:100120000C949C000E944601A0E6B0E08C918F5F89
:100130008C9310F40C948B0081E083BF81E080935A
:10014000610000916100083C18F011F00C94B200BD
:100150000E946701A1E6B0E08C918F5F8C9310F450
:100160000C94A10081E080936100009161000C3348
:1001700018F011F00C94C6000E94DD01A1E6B0E079
:100180008C918F5F8C9310F40C94B50081E0809378
:100190006100009161000C3318F011F00C94DA004A
:1001A0000E945B02A1E6B0E08C918F5F8C9310F40B
:1001B0000C94C90081E080936100009161000C33D0
:1001C00018F011F00C94EE000E94E102A1E6B0E0FC
:1001D0008C918F5F8C9310F40C94DD00882783BF83
:1001E0000C945E00F894FFCFD898DA98DB98D998F1
:1001F00080E293E00E94A204D89ADA9ADB9AD99A14
:1002000080E293E00E94A2040895D898DA98DB98DF
:10021000D99880E991E00E94A204D898DA98DB98F6
:10022000D99A80E991E00E94A204D898DA98DB9AE2
:10023000D99A80E991E00E94A204D898DA9ADB9AD0
:10024000D99A80E991E00E94A204D89ADA9ADB9ABE
:10025000D99A80E991E00E94A204D89ADA9ADB9AAE
:10026000D99880E991E00E94A204D89ADA9ADB98A2
:10027000D99880E991E00E94A204D89ADA98DB9894
:10028000D99880E991E00E94A2040895D89ADA9A58
:10029000DB98D99880E991E00E94A204D898DA9A74
:1002A000DB9AD99880E991E00E94A204D898DA9864
:1002B000DB9AD99A80E991E00E94A204D89ADA9850
:1002C000DB98D99A80E991E00E94A204089581E028
:1002D00080936000009160000F3F18F011F00C94C3
:1002E000A101A0E6B0E08C91A2E6B0E08D93882752
:1002F0008C93A0E6B0E08C91A4E6B0E08D938827C3
:100300008C93A0E6B0E08C91A6E6B0E08D938827B0
:100310008C93A0E6B0E08C91A8E6B0E08D9388279E
:100320008C93EF93FF93E0EFF1E00E949904FF912B
:10033000EF91A0E6B0E08C918F5F8C9310F40C9459
:100340006A018FEF809360004091600001E0041724
:1003500018F011F00C94DC01A0E6B0E08C91A2E65C
:10036000B0E08D9388278C93A0E6B0E08C91A4E652
:10037000B0E08D9388278C93A0E6B0E08C91A6E640
:10038000B0E08D9388278C93A0E6B0E08C91A8E62E
:10039000B0E08D9388278C93EF93FF93E0EFF1E02B
:1003A0000E949904FF91EF918091600081508093A9
:1003B000600010F00C94A401089581E08093600027
:1003C000009160000F3F18F011F00C941702A0E6A6
:1003D000B0E08C91A2E6B0E08D9388278C93A0E6E4
:1003E000B0E08C91A4E6B0E08D9388278C93A0E6D2
:1003F000B0E08C91A6E6B0E08D9388278C93A0E6C0
:10040000B0E08C91A8E6B0E08D9388278C93EF93B1
:10041000FF93ECE9FFE00E949904FF91EF91A0E6C1
:10042000B0E08C918F5F8C9310F40C94E00184E029
:1004300090E00E94A2048FEF8093600040916000E2
:1004400001E0041718F011F00C945602A0E6B0E099
:100450008C91A2E6B0E08D9388278C93A0E6B0E063
:100460008C91A4E6B0E08D9388278C93A0E6B0E051
:100470008C91A6E6B0E08D9388278C93A0E6B0E03F
:100480008C91A8E6B0E08D9388278C93EF93FF932F
:10049000ECE9FFE00E949904FF91EF9180916000E8
:1004A00081508093600010F00C941E028CE090E06C
:1004B0000E94A204089581E0809360000091600092
:1004C0000F3F18F011F00C949D02A0E6B0E08C9163
:1004D000A2E6B0E08D9388278C930FEF10E0A0E6A2
:1004E000B0E04D915527041B150BA4E6B0E00D9329
:1004F0001C93A0E6B0E08C91A6E6B0E08D9388272F
:100500008C930FEF10E0A0E6B0E04D915527041B4F
:10051000150BA8E6B0E00D931C93EF93FF93E4EE68
:10052000F3E00E949904FF91EF91A0E6B0E08C9176
:100530008F5F8C9310F40C945E028FEF80936000B9
:100540004091600001E0041718F011F00C94E002F3
:10055000A0E6B0E08C91A2E6B0E08D9388278C9362
:100560000FEF10E0A0E6B0E04D915527041B150BEE
:10057000A4E6B0E00D931C93A0E6B0E08C91A6E653
:10058000B0E08D9388278C930FEF10E0A0E6B0E0E9
:100590004D915527041B150BA8E6B0E00D931C9355
:1005A000EF93FF93E4EEF3E00E949904FF91EF9143
:1005B0008091600081508093600010F00C94A00244
:1005C00008958FEF90E0A2E6B0E08D939C938FEFBB
:1005D00090E0A4E6B0E08D939C938FEF90E0A6E6C8
:1005E000B0E08D939C938FEF90E0A8E6B0E08D9300
:1005F0009C938FEF809360004091600001E00417AE
:1006000018F011F00C941C03A0E6B0E08C91A2E667
:10061000B0E08D9388278C93EF93FF93ECE9FFE094
:100620000E949904FF91EF91809160008150809326
:10063000600010F00C94FC0281E080936000009157
:1006400060000F3F18F011F00C943E03A0E6B0E0FC
:100650008C91A2E6B0E08D9388278C93EF93FF9363
:10066000ECE9FFE00E949904FF91EF91A0E6B0E071
:100670008C918F5F8C9310F40C941F038FEF8093F9
:1006800060004091600001E0041718F011F00C9434
:100690006103A0E6B0E08C91A4E6B0E08D938827DA
:1006A0008C93EF93FF93ECE9FFE00E949904FF9194
:1006B000EF918091600081508093600010F00C9465
:1006C000410381E080936000009160000F3F18F0CB
:1006D00011F00C948303A0E6B0E08C91A4E6B0E0A6
:1006E0008D9388278C93EF93FF93ECE9FFE00E94B2
:1006F0009904FF91EF91A0E6B0E08C918F5F8C930D
:1007000010F40C9464038FEF8093600040916000BC
:1007100001E0041718F011F00C94A603A0E6B0E075
:100720008C91A6E6B0E08D9388278C93EF93FF938E
:10073000ECE9FFE00E949904FF91EF918091600045
:1007400081508093600010F00C94860381E08093C8
:100750006000009160000F3F18F011F00C94C80386
:10076000A0E6B0E08C91A6E6B0E08D9388278C934C
:10077000EF93FF93ECE9FFE00E949904FF91EF9162
:10078000A0E6B0E08C918F5F8C9310F40C94A903D9
:100790008FEF809360004091600001E0041718F033
:1007A00011F00C94EB03A0E6B0E08C91A8E6B0E069
:1007B0008D9388278C93EF93FF93ECE9FFE00E94E1
:1007C0009904FF91EF9180916000815080936000C7
:1007D00010F00C94CB0381E08093600000916000E6
:1007E0000F3F18F011F00C940D04A0E6B0E08C91CE
:1007F000A8E6B0E08D9388278C93EF93FF93ECE904
:10080000FFE00E949904FF91EF91A0E6B0E08C9187
:100810008F5F8C9310F40C94EE0308950F921F9247
:100820002F923F924F925F927F92AF92BF920F931F
:100830001F932F933F934F935F936F937F938F9368
:100840009F93AF93BF93CF93DF93EF93FF938FB7B4
:100850008F93AAE6B0E08C918F5F8C9300916A0031
:100860000F3F11F00C94390480E080936A008FE010
:100870008BBBA2E6B0E04D915C91AAE6B0E00D9191
:100880001127041715071CF011F00C9449040C945F
:100890004A04D898A4E6B0E04D915C91AAE6B0E095
:1008A0000D911127041715071CF011F00C945A0430
:1008B0000C945B04D998A6E6B0E04D915C91AAE651
:1008C000B0E00D911127041715071CF011F00C94DE
:1008D0006B040C946C04DB98A8E6B0E04D915C913D
:1008E000AAE6B0E00D911127041715071CF011F0CE
:1008F0000C947C040C947D04DA988F918FBFFF9147
:10090000EF91DF91CF91BF91AF919F918F917F91A7
:100910006F915F914F913F912F911F910F91BF90D8
:10092000AF907F905F904F903F902F901F900F90CF
:1009300018953197F1F70895689462F80895E8944E
:1009400062F80895EF93FF93EE27E82BE92B31F03F
:10095000E8E8F3E13197F1F70197D1F7FF91EF91D3
:020960000895F8
:00000001FF
