:020000040000FA
:1000000020308400443010200730C500FA30C4008E
:10001000A0308400A63015204D2F04068001840AEC
:100020000406031D0D2864000034F0002120800028
:10003000840A04087006031D162800348312031373
:10004000C400C51B2C28451B342845088A004408D9
:10005000C40A0319C50A820083134518831744088C
:10006000C40A840000080800FE348D34FB340734D1
:10007000073405340534053407340734FB348D3434
:10008000FE34F734E334C134003400340034003437
:10009000003400340034C134E334F7347F34B834EE
:1000A000DF34E034E034A034A034A034E034E03471
:1000B000DF34B8347F34003400340034003400348A
:1000C00000340034003400340034F8348C34FE340E
:1000D0000034003400340034003400340034003480
:1000E00000340034C134E334F734003400340034D5
:1000F00000340034003400340034003400341F3441
:1001000038347F3400340134033407340734053481
:100110000534053407340734FB348D34FE34F034B1
:10012000E834DC343E34363436343634363436341F
:100130003E341D340B3407347F34B834DF34E034BC
:10014000E034A034A034A034E034E034C03480344F
:1001500000340034013403340734073405340534E3
:10016000053407340734FB348D34FE34003408344E
:100170001C343E34363436343634363436343E3439
:10018000DD34EB34F73400348034C034E034E03410
:10019000A034A034A034E034E034DF34B8347F3409
:1001A000FE348C34F834003400340034003400342D
:1001B00000340034F8348C34FE3407340B341D34EE
:1001C0003E34363436343634363436343E34DD3428
:1001D000EB34F7340034003400340034003400349D
:1001E00000340034003400341F3438347F34FE349B
:1001F0008D34FB34073407340534053405340734B3
:10020000073403340134003407340B341D343E34D6
:10021000363436343634363436343E34DC34E8342E
:10022000F03400348034C034E034E034A034A034FE
:10023000A034E034E034DF34B8347F34FE348D341D
:10024000FB340734073405340534053407340734E8
:10025000033401340034F734EB34DD343E343634C7
:1002600036343634363436343E34DC34E834F03424
:100270007F34B834DF34E034E034A034A034A03428
:10028000E034E034DF34B8347F34003401340334F4
:100290000734073405340534053407340734FB3498
:1002A0008D34FE3400340034003400340034003423
:1002B0000034003400340034C134E334F734003403
:1002C000003400340034003400340034003400348E
:1002D00000341F3438347F34FE348D34FB3407341B
:1002E000073405340534053407340734FB348D34C2
:1002F000FE34F734EB34DD343E34363436343634C1
:10030000363436343E34DD34EB34F7347F34B834AD
:10031000DF34E034E034A034A034A034E034E034FE
:10032000DF34B8347F34FE348D34FB340734073483
:1003300005340534053407340734FB348D34FE347A
:1003400007340B341D343E343634363436343634C8
:1003500036343E34DD34EB34F73400348034C0348A
:10036000E034E034A034A034A034E034E034DF34AE
:10037000B8347F34003400340034003400340034A6
:1003800000340034003400340034003400340034CD
:1003900008341C343E34363436343634363436344D
:1003A0003E341C340834003400340034003400344B
:1003B000003400340034003400340034003400349D
:1003C000003400340034003400340034003400348D
:1003D000003400340034003400340034003400347D
:1003E000003400340034003400340034003400346D
:1003F000003400340034003400340034003400345D
:10040000003400340034003400340034003400344C
:100410000034FE34CD347B348734853485348734DE
:100420007B34CD34FE3400340034003401340234E3
:100430000334033402340234033403340234013409
:10044000003400340034003400340034003400340C
:100450000034003400340034003400340034FE34FE
:100460008D34FB3407340734053405340534073440
:100470000734033401340034F734E334C134003436
:1004800000340034003400340034003400340034CC
:1004900000347F34B834DF34E034E034A034A034A6
:1004A000A034E034E034C03480340034003400340C
:1004B000003400340034003400340034003400349C
:1004C000003400340034003400340034003400348C
:1004D000003400340034003400340034003400347C
:1004E0000034003400347834B434CC34CC34B434F4
:1004F00078340034003400340034FF3FFF3FFF3FC6
:10050000FF3FFF3FFF3FFF3FFF3FFF3FFF3FFF3FFB
:10051000FF3FFF3FFF3FFF3FFF3FFF3FFF3FFF3FEB
:10052000FF3FFF3FFF3FFF3FFF3FFF3FFF3FFF3FDB
:10053000FF3FFF3FFF3FFF3FFF3FFF3FFF3FFF3FCB
:100940008301C100061285118B25851508000A3028
:100950008301BD00BD033D0FAA2C08008301BF0029
:10096000061685118B25851508000A308301BD0008
:10097000BD033D0FB82C08008301C0003F080739B4
:100980004038A02440087F398038A02C83013508E6
:100990000319B603B503350A0319360A031908000B
:1009A000C62C8301B6002730F200F3013608F000B0
:1009B000F10128257408A6007508A70008008B011E
:1009C0008312031385018601831685010630860094
:1009D000073083129F00831681178312080083015A
:1009E000BF010030BC243030B8000330B900003003
:1009F000AE24B8080319B903B80339083804031939
:100A00000800F72C831603130512831205127730A2
:100A1000BB00BB033B0F092D831605164A3083121A
:100A2000BB00BB033B0F112D0800831603130610F8
:100A3000831206107730BB00BB033B0F1C2D8316BF
:100A400006144A308312BB00BB033B0F242D080061
:100A5000F401F5010310F30CF20C031C362D7008A1
:100A6000F40771080318710AF5070310F00DF10D72
:100A700072087304031900342A2D8301B500BF00E6
:100A80000030BC24B601B7013708A03E84008313B0
:100A90000008AE24B70A06303702031C442DB60AFC
:100AA0001130360203180800432D8301BB00BC013E
:100AB0006A2D83160512831205123B0C031C622D4E
:100AC0000516632D051203100313BB0CBC0AA724E3
:100AD0008316051683123C08083A03190800592D9D
:100AE0008301BB00BC01852D8316061083120610FE
:100AF0003B0C031C7D2D06147E2D061003100313E2
:100B0000BB0CBC0AB5248316061483123C08083AB1
:100B100003190800742D8301C2000830C300A72DFB
:100B2000C30305114208F0004308F100F10A9A2DB1
:100B30000310F00CF10B982D7008F000700C031CE2
:100B4000A32D8615A42D8611831203130515C30842
:100B500003190800902D8301A301A401A501B52D5F
:100B6000A50A9C30B607031CB70300303702643077
:100B700003193602031CC22DB02DA40AF630B607A5
:100B8000031CB703003037020A300319360203187A
:100B9000BD2D3608A30008008301BB01BC01E72D71
:100BA0008316051283120512831605160030831270
:100BB000051A0130F0003C08F100F10AE12D0310A4
:100BC000F00DF10BDF2D7008BB04BC0AA7243C0814
:100BD000083A031DD02D3B0808008301BB01BC016E
:100BE000082E831606108312061083160614003092
:100BF000831206180130F0003C08F100F10A022EC1
:100C00000310F00DF10B002E7008BB04BC0AB524D4
:100C10003C08083A031DF12D3B0808008301061625
:100C200085154630B5001030B600C6248612463011
:100C3000B5001030B600C62486166030B5005130BD
:100C4000B600C6242130A0240930A0247F308316AA
:100C50009B001C141A08A0241630A0240630A024DF
:100C60002030A0240C30A024EF240830A0240C3025
:100C7000A02C8301B900380B3F2EBB01412E05305B
:100C8000BB003B08033EBA003B08BC003A083C02EC
:100C9000031808003C08BF003908BC243608BD0012
:100CA0003708BE003708F1003608F0000D30F007B5
:100CB0000318F10A71083E02031D602E70083D0200
:100CC00003186F2E3E08003EC5003D08343E031851
:100CD000C50A1E20AE24BD0A0319BE0A522E0D30CD
:100CE000B6070318B70ABC0A462E1525CC30702566
:100CF000443070251525CC307025BE307025ED258B
:100D0000B800ED25B900BA01F100F001380870070C
:100D1000B90071080318710ABA0010303A020030A5
:100D200003193902031CA12E20140130F000F10137
:100D300039087002B9003A08031C3A0A7102BA0075
:100D4000A22E20100A30F200F3013908F0003A0810
:100D5000F10028257408B9007508BA00F1003908B7
:100D6000F0000430F2000310F10CF00CF20BB32E83
:100D70007008A1007108A20008000225CC3055259A
:100D8000443055250225CC305525BE305525CC257F
:100D9000B800CC25B900BA01F100F001380870079D
:100DA000B90071080318710ABA0010303A02003015
:100DB00003193902031CE92E20140130F000F1015F
:100DC00039087002B9003A08031C3A0A7102BA00E5
:100DD000EA2E20100A30F200F3013908F0003A0838
:100DE000F10028257408B9007508BA00F100390827
:100DF000F0000430F2000310F10CF00CF20BFB2EAB
:100E00007008A1007108A20008008301BF01BF0A99
:100E10001B30BC24B501350883169B001C141A082E
:100E2000AE24B50A2C303502031C0B2F0330BF0053
:100E30002530BC242C30B500350883169B001C14CB
:100E40001A08AE24B50A41303502031C1C2F0530A8
:100E5000BF001930BC244130B500350883169B0013
:100E60001C141A08AE24B50A78303502031C2D2F45
:100E7000B501BD267526FF30B600B7003608031948
:100E8000B703B603360A0319370A031D3E2FB50A06
:100E900007303502031C392FEF2CDF240E260527DF
:100EA00004303D252230B6000230B700B801B80A40
:100EB0002D303926D430B6000130B700B801B80A59
:100EC0004A303926FB30B6000130B700B801B80A05
:100ED000583039262230B6000230B700B8002D3025
:100EE0003926D430B6000130B7000230B8004A309D
:100EF0003926FB30B6000130B7000230B800583058
:100F000039263030B3007530B40033080319B40308
:100F1000B303330A0319340A031D852FBD2601309C
:100F2000A2273030B3007530B40033080319B4037E
:100F3000B303330A0319340A031D952F75260230B3
:100F4000A227812F8301B5002108B6002208B7002F
:100F5000AB252508D1242608AA002708AB002408C1
:100F6000D1242608AC002708AD002308D124260888
:100F7000AE002708AF00201CCD2FA508031DC92FE8
:100F8000AD30A8000130A9008630AA000130AB00C6
:100F9000CD2F8630A8000130A9002018DA2FAD30FF
:100FA000A8000130A900A508031DDA2FAD30AA0062
:100FB0000130AB002808B6002908B7003508B80092
:100FC000003039262A08B6002B08B7003508B800CB
:100FD0000E3039262C08B6002D08B7003508B800A9
:100FE0001C3039262E08B6002F08B7003508B80087
:100FF0003830392E49342A3414342A3449340034F0
:104200007F0002000C0002007F0000007E00110011
:10421000110011007E0000007F00410041002200DB
:104220001C0000007F0049004900490041000000D7
:104230000000000000007F000900090009000100E3
:1042400000003E004100410041003E0000007F00B0
:1042500009001900290046004600490049004900AC
:104260003100000041007F0041000000010001001A
:104270007F000100010000007F0049004900490063
:1042800041007F00400040004000400000007E00F0
:104290001100110011007E0000007F00490049005C
:1042A0004900360000007F00080014002200410091
:1042B0000000000041007F004100000000000100FC
:1042C00001007F00010001000000600060000000AC
:1042D00000007F0009001900290046003F0040004F
:1042E000400040003F00000000000000000000000F
:1042F000FF00FF00FF00FF00FF00FF00FF00BE0007
:02400E00503F21
:08400000FF3FFF3FFF3FFF3FC0
:00000001FF
