:02000000C62810
:10000800A000030EA10083012D0882075F29252A7D
:10001800210E8300A00E200E090082073F3406340B
:100028005B344F3466346D347D3407347F34673441
:100038008207013402340434083482070334033459
:10004800033403349434A534C634D734E834F9344B
:100058008207013401348434843484349534A634DA
:10006800B734C834D9348207AA3437341134053444
:100078002908A90A820764340534A83402344A34AA
:100088000134A03400342908A90A82077334503493
:100098005C347C3473343E3438346D343E345C34F0
:1000A800383478345E3404345C345E34713450341B
:1000B80079346F3400343934543478340034393472
:1000C8007734733439345C340434383400346D3460
:1000D80006343D34543478346D34393400346D3456
:1000E80079345034153404345E34043421345234B1
:1000F8005834003439340F340034003473345034F5
:1001080054340034043450344F347F3473342A3434
:10011800153400346D3478343F347334003400348B
:1001280000346D34003400346D343F3400346D34A1
:100138003F343F3400340034ED343F3406345B340C
:100148003F343F345B3466343F343F3466347F3465
:100158003F343F3467347D343F343F3436088207B8
:10016800262B6A2A762B732B302CFA2BCB2AFD2AC6
:100178009C2AB62CDA2D122EE329332AC429A02969
:100188006C29A22B83163F30850000308600B030E2
:10019800870088308100831204309200D001501407
:1001A800CC0122214C21E830B3000330B4003030B8
:1001B800B50014218B1336083F2148250A30A524A1
:1001C800071AF428871EE12848250A30A524071AAB
:1001D8000129871AE828B6031130B61BB600DE28B5
:1001E80048250A30A524871A0129071AF428B60ACF
:1001F8003608123A0319B601DE2814210421B22860
:100208008316051485140516051587170717851510
:10021800851606309F0083120800231D080023114D
:10022800BB01BC013608C425BC0A3A08C425BC0A6F
:100238003908C425BC0A3808C4250800BB01BC011C
:10024800B625B6003608EE3E0318B601BC0AB62538
:10025800BA003A08FC3E0318BA01BC0AB625B90030
:10026800F13E0318B901BC0AB625B8003808FC3EAF
:100278000318B8010800A9000310A90DA90D47200B
:10028800C8004720C9004720CA004720CB00080003
:1002980026306C230030C800CA175821582158212D
:1002A80036083F2158210800A40148250C30A52410
:1002B800A40B592908000B11231E672923120510C6
:1002C8002C0881000C28231605142B0881000C2803
:1002D800831605108230810083120030AD008B1622
:1002E8008B173508023E6C233508003CAB003508F7
:1002F800603C003CAC000A30A52448250A30A524FF
:100308004825B00B7F291930B0000530A5244825B1
:10031800071E9229871E9829B0018929871EDE2881
:10032800B50BB503B50A7529071EDE28B50A3508C9
:10033800603A0319B5037529831605108312B12194
:100348000530A40048250930A524A40BA62921239B
:10035800071AA329871AA329DE282630A400051422
:100368001430D100D10BB6290000000000000510A0
:100378001430D100D10BBE290000A40BB32908000A
:100388008316051083125530BD00D8213D18051479
:100398003D1C051048254130D100D10BD129871AC1
:1003A800C929071AC929DE283D083E07BE003F07AC
:1003B800BF000310BD0C0318BD17BD070800831646
:1003C80005108312DC30B0000530B1003008C000E1
:1003D8003108C100C201C301952565253230A4004A
:1003E80048250A30A524A40BF4293008BC0031089C
:1003F800BB0021231A22071E0F2A871E042AF2296E
:10040800071EDE280A30B0070318B10A3108093A76
:100418000319112AEA29871EDE28F630B007031CC3
:10042800B1033108023A0319062AEA29BB0ABC0AB1
:10043800051400000000BC0B1D2ABB0B1F2A051069
:1004480008000B113308B00734080318340FB1073C
:10045800B11F0510B11B0514B73081070C2883168E
:1004680005108830810083120130AD008B178B1680
:100478003308C0003408C100C201C30195256525B1
:100488003708A40048250A30A524A40B462AFB30C7
:10049800B7073708FB3E0318532A0630B700071E74
:1004A8005F2A871E592AB701442A071EDE28B30A85
:1004B8000319B40A3C2A871EDE28FF30B307031C41
:1004C800B403B41F3C2AB301B4013C2A8316063096
:1004D8009F0083123A08123E3F213A083720B000A5
:1004E8007C2A831605100000051483124817832AF6
:1004F8000514051A0510083005180130C800300821
:100508009B2402309B24071A8C2A871A752ADD2817
:10051800871A7C2A0A30A52467234825071EDD2868
:10052800871E8E2ABA0A3A08033C031CBA016E2AAF
:1005380083168713851106309F0083128713851150
:10054800C80105301120C90000301120CA00CB00B5
:10055800301F48178515BA22B00A301B4813851179
:10056800BA22071AB02A871AAC2ADE282030A4003B
:1005780048250E30C222A40BBC2A0800D100000076
:100588000000000000000000D10BC32A08008316F9
:10059800851183128515051023142123C001C1017B
:1005A800C201C30183160514831200000000000075
:1005B8000000000000000000000000000000000033
:1005C80000000000000000000518F22AC00FDF2A12
:1005D800C10FDF2AC20FDF2AC30FDF2A83160510D7
:1005E80083129525AF245723071AF72A871AD12A89
:1005F800DE2883168510831285102314212350309A
:10060800A524C001C101C201C30185140000051C55
:10061800162BC00AC00F0A2BC10F0A2BC20F0A2BB8
:10062800C30F0A2B8510952503306325CA17572356
:10063800071A1B2B871A022BDE28071087100711B1
:1006480087110800831687130713A83081000E301E
:100658009F0083128717071381309F00CD01FF3059
:100668008100071A3A2B871A3A2BDE2896233B0873
:10067800283C0318472B3B08B43C031C452B40304F
:10068800482B7630482B383065230B1D512B0B1126
:10069800FF308100B0017330C9005923B00AB00897
:1006A8000319C901352BA4015E2BA401A4175E2BE5
:1006B800A4012417482565240A30A524A40B5E2B21
:1006C8000800C800682BC801C901CA01CB0108008D
:1006D800C000C101C201C301952565250800831624
:1006E8008713772B83168E309F00831287178130EC
:1006F8009F0096230310BB0CBC0C3C08C0003B08B1
:10070800C100C201C30195256525C917C830A400D9
:1007180048250A30A524A40B8C2B071A7D2B871A91
:100728007D2BDE281F15000000001F19992B83164A
:100738001E088312BC001E08BB000800831687131E
:1007480083128713013090004525F523E223DB232C
:10075800E623DB23031DBF2B071AB52B871AB82BFB
:10076800DE28871AAC2BA82BC923C923C923C92380
:10077800C923071EBC2BC923DB23031DC52B071A5E
:10078800BF2BE623871AC52BA82BE6230C1CC92BE5
:1007980045250C10B0308E003C308F00E223E92351
:1007A8005E08FC3E031CC9170319CA170800600835
:1007B800A9000508E0002906013908002724952525
:1007C8006525080048250530A52CC40A031D080026
:1007D800C50A031D0800C60A031D0800C70A031D31
:1007E8000800C401C501C601C701080083168516A3
:1007F8008713051585150514A830810006309F005C
:10080800831287178101C401C501C601C7012724C6
:1008180095250330632548251C24071E162C871EA2
:10082800062C0B2C871EDE282724952507300E2C36
:100838000108C4000B1D08000B11C50F0800C60FE6
:100848000800C70A08004408C0004508C100460857
:10085800C2004708C30008008316851687170515C8
:1008680085110514A730810006309F0083120511F9
:10087800C001C101C201C30195256525071A482C8D
:10088800871EDE28033063254C2475245624402C0B
:1008980085128101C001C101C201C30183168516F9
:1008A8008312080085128316851283120108C1007D
:1008B800C001C003851685120108410603195D2C85
:1008C80008004D0E0339483E8400CD1B8017CE0A20
:1008D8000319CF0ACF1E732C4D1B8013080000008C
:1008E8000800EE30B000A730B100000000008924F5
:1008F800482565249024B00B792CB10B7B2C08304B
:10090800B0009024B00B852C08001030A900A90B6A
:100918008B2C0000000008000B1D972C0B11C20A3D
:100928000319C30A08000000000000000800D200F4
:10093800D3005308D1004825D10B9F2CD20B9D2CF6
:100948000800D300D200D100D10BA82CD20BA72CC1
:10095800D30BA62C0800792524082C20CD000F39AC
:10096800A4006B2D83160511851085108312851040
:1009780007118711BF308600E3242830A400000047
:100988000A25A40BC32C0F30A40013251225122509
:1009980009250925092509250925092509250925DF
:1009A800092509250000A40BC92C1130A4000A252B
:1009B8000000A40BDB2CFF24871AC02CDE2806308D
:1009C800A4000511312505152E303825A40BE52C7A
:1009D8000630A40005112E30382505153325A40B43
:1009E800EE2C0630A4000511312505152E303825CA
:1009F800A40BF72C0800372505112B2534250515E0
:100A08003C255930382500000800372505112B25CD
:100A1800342505155D3038250000080037250511F7
:100A28002B2534250515292529251330A900000073
:100A38000000000000000000000085140000851080
:100A4800A90B1B2D05303825080000000000000008
:100A5800000000000000000000000000000000008E
:100A68000000000000000800A900A90B392D0800AB
:100A7800DD0A071087105D1C07145D188714000035
:100A88000800F03087050800F03087054C08483E1C
:100A9800840000085005FF3A86004C081C20870493
:100AA8000310D00D03185E2D0000000000000000A8
:100AB800000008005014CC0A4C19CC010800A4000E
:100AC8006B2D792524082120CD000F39A400742529
:100AD800C8007425C9007425CA007425CB00080015
:100AE8002408A4038425112008000930A400240840
:100AF800DE008425003A031D0800A40B7B2D0800A6
:100B0800A9000301A91B08000310A90C2908A90DB5
:100B1800543E84000008A7002918A70E27080F399B
:100B280008002030DC00D401D501D601D701D80156
:100B3800543084000530DB00333080078019F039E9
:100B4800801B0F398002840ADB0BA02DC00DC10D5C
:100B5800C20DC30DD40DD50DD60DD70DD80DDC0B98
:100B68009C2D0800831203173C088D003B088F005A
:100B780083168C130C1483120C08031383120800B9
:100B8800831203178C003C088D003B088F008316E6
:100B98008C130C1555308D00AA308D008C14000074
:100BA80000008C18D52D83120313080045258316E1
:100BB800051483123808A9000310A90D3C20AE00C3
:100BC8003C20AF00163038073F214825871E072EE6
:100BD800071AE92D871EDE2846264130A8001A305C
:100BE800A50028084D26A80A2B309B24A50BF52D17
:100BF8000D304D2664309B240A304D26DC309B2472
:100C0800071EE92DDA2D45252830A524071EDE28E4
:100C1800871E072EB80A38112315DA2D3908013E28
:100C28006C233930C8007630C90083160514831246
:100C38004825871E3B2E071A1C2E46262D30AE004F
:100C4800AF01390890384D263C304D2628304D26C6
:100C580014309B24071E2C2E390890384D263C3022
:100C68004D2600304D261121FA309B24122E643077
:100C78009B24071EDE28871E3B2E2315B90A0F303A
:100C8800B905122EA310051CA31483160510831290
:100C98000800A401A415A7005F2669262718642662
:100CA800271C5F26A70CA40B512E692664266926EB
:100CB800692669260800A31C0510A3180514080056
:100CC800A31C0514A318051008002F08AA002E0855
:100CD800A900AA0AA90AA90B6F2EAA0B6F2E080051
:02400E00323F3F
:00000001FF
