:100000000C94370E0C94520E0C94520E0C94520E0B
:100010000C94520E0C94520E0C94520E0C94520EE0
:100020000C94520E0C94520E0C94306A0C94520E96
:100030000C94520E0C94520E0C94E1680C94520ED7
:100040000C94476A0C94520E0C94520E0C94520E5F
:100050000C94520E0C94520E0C94520E0C94520EA0
:100060000C94520E0C94ED6A0C94520E0C94520E99
:100070000C94520E0C94520E0C94520E0C94520E80
:100080000C94520E0C94520E0C94520E00FF8D7371
:1000900012DE13FE529202001010101010101010F9
:1000A00010000000FF292939E9292F20000000FC59
:1000B00002027884848400007884848478007884C0
:1000C00084847800FC8080800202FC00F84B48F9B0
:1000D00001F84A498800414000F800484848F800C3
:1000E000784848C803794140F8017A4A49F800C87D
:1000F00049497800F84848C800784848C800F84896
:1001000048F800784848F800F94948C803027A835B
:1001100000837A02FB4848480803F84ACA4A330079
:10012000324A4A4B800008F80B00F20A0A0BF0032F
:10013000FA126280FB0202838002027A8300837AD1
:100140000203F8027A4243F80302020300000001AE
:10015000020100000302020202000300000102008B
:100160000202020201000203020001020202010077
:100170000300000103000001010000000102010072
:100180000000030000000003000000000000000069
:1001900000000080404020101008080404040404FB
:1001A0000202FE02020404040404080810102040A5
:1001B0004080000000000000000000C02018040380
:1001C000000000000000000000000000000000FF30
:1001D00000000000C02020C000C02020C0006063DC
:1001E000041820C0000070F8772020202020202054
:1001F000202020202020202020202020FF24243CFC
:1002000020242929272027282827202020202020B3
:1002100027F87000001F20C0000000000000000050
:10022000000000000000000000FF000000000000CF
:100230000000000000000000000000C0201F0000BF
:1002400000000000000106081010204040808000DF
:10025000000000000000FF0000000000000080809F
:1002600040402010100806010000000000000000BF
:10027000000000000000000000000000010101017A
:10028000010202030202010101010100000000005D
:10029000000000000000000000000000000000005E
:1002A00000804040201010080804040404040207E1
:1002B000FF070204040404040808101020404080D2
:1002C000000000000000000000C02018040300002F
:1002D00000000000000000000000000000FF00001F
:1002E0000000C02020C000C02020C00060630418AF
:1002F00020C0000070F8772020202020202020201F
:1003000020202020202020202020FF24243C2024E6
:10031000292927202728282720202020202027F8C7
:100320007000001F20C0000000000000000000005E
:1003300000000000000000FF0000000000000000BE
:10034000000000000000000000C0201F00000000AE
:1003500000000001060810102040408080000000CE
:1003600000000000FF00000000000000808040400E
:10037000201010080601000000000000000000002E
:100380000000000000000000000001010101010266
:100390000707070201010101010000000000000041
:1003A00000000000000000000000000000000080CD
:1003B0004040201010080804040404040202020251
:1003C0000204040404847C1C1C10204040800000B3
:1003D00000000000000000C02018040300447E401C
:1003E000004462524C003C42423C000303008060E7
:1003F000180601000000000000000003041820C0DF
:10040000000070F8772020202020202020202020AD
:10041000202020202030282424DA0611F8000010A3
:1004200088483000F00808F0000C0C0007F80000C5
:10043000001F20C000000010F800001088483000A5
:10044000F00808F0000C0C030D31C100010101019E
:1004500000000101000000C0201F0000000000009B
:1004600000010608111121404181810100000101B4
:100470000000000000000000030CF0E0E04020104D
:10048000100806010000000000000000000000004D
:100490000000000000000000010101010102020251
:1004A0000202010101010100000000000000000043
:1004B000000000000000000000000000008040403C
:1004C00020101008080404040404020202020204BA
:1004D00004040404080810102040408000000000BC
:1004E0000000000000C0383C1C13202040408080E9
:1004F000000000447E40004462524C003C42423CBA
:10050000000303808040402020131C3C38C00000C2
:1005100000F80700000000000000000000010202D7
:10052000040408081010F010907808040402020176
:100530000000000000000000000007F80000001F9D
:1005400020C0447E40004462524C003C42423C0089
:10055000030300FF01447E40004462524C003C42D1
:10056000423C000303C0201F000000000000000107
:1005700006081010204040808000000000000000AD
:10058000FF000000000000008080404020101008A4
:100590000601000000000000000000000000000054
:1005A000000000000000010101010102070707022D
:1005B0000101010101000000000000000000000036
:1005C0000000000030484848506060606060605043
:1005D0004854523E2151A9A5958F854931212120AA
:1005E0003028241C102854524A66626464684844C7
:1005F0005251513F7F41414141414141414141417E
:100600007F7F7F7F7F7F7F7F7F7F7F7F7F7F7F7FFA
:100610007F7F7F7F7F7F7F7F4141414141414141DA
:100620004141417F454C450041494C0050495400EF
:100630005357415348204D49580053554220545276
:10064000494D000000000080C0E0F078383C1E0EEC
:100650000F070707FFFFFF070707060E0E1E3C38B0
:1006600078F0E0C080000000000000000000000002
:100670000080C0E0F078383C1E0E0F070707FFFF30
:10068000FF070707060E0E1E3C3878F0E0C080001A
:100690000000000000F8FEFF8F8380808080808053
:1006A0008080C0E0FF7FFFE0C0808080808080800D
:1006B0008080838FFFFEF80000000000000000F83B
:1006C000FEFF8F838080808080808080C0E0FF7FFD
:1006D000FFE0C0808080808080808080838FFFFEEC
:1006E000F8000000001FFFFFC3830303030303039D
:1006F0000303070FFEFCFE0F0703030303030303BB
:10070000030383C3FFFF1F00000000000000001F61
:10071000FFFFC3830303030303030303070FFEFC6D
:10072000FE0F0703030303030303030383C3FFFF56
:100730001F00000000000003070F1E3C3878F0E0A7
:10074000E0C0C0C0FFFFFFC0C0C0C0E0E0F078382C
:100750003C1E0F0703000000000000000000000026
:100760000003070F1E3C3878F0E0E0C0C0C0FFFF78
:10077000FFC0C0C0C0E0E0F078383C1E0F070300A7
:100780000000000000000000000000000000000069
:10079000010101010101010101010000000000004F
:1007A0000000000000000000000000000000000049
:1007B0000000000000000000000001010101010133
:1007C0000101010100000000000000000000000025
:1007D00000000038383838B8F8F8F8F87838383881
:1007E000383800F8F8F8F8F80800000000E0F8F8E9
:1007F000F8F83800F0F8F8F8F83838383838F8F8F9
:10080000F8F8F0E000C0F8F8F8F8F8F8E080000038
:10081000C0F8F8F8F8780000E0F8F8F8F878008008
:10082000C0E0F0F0F87878B8B8B8B8B8B8B8B8B8E8
:100830001800183878F8F8F0E080C0E0F0F8F878A0
:10084000381800000000707F7F7F7F0F00000000DD
:1008500000001F3F7F7F7F71707070707C7F3F3F13
:100860001F07407E7F7F7F1F0707071F3F7F7F7F18
:10087000736341007C7F7F7F7F03010F1F7F7F7C3D
:100880007F7F7F7F0F00407C7F7F7F7F0F00001F77
:100890003F7F7F7F7970767777777F7F7F7F7F035A
:1008A0000000000000417F7F7F7F3F0301000000C8
:1008B0000000000000000000000000000000000038
:1008C0000000000000000000000000000000000028
:1008D0000000000000000000000000000000000018
:1008E0000000000000FE22221C001C22221C000E20
:1008F000300C300E00182C2A2A003E04020000247E
:100900002A2A12009EA0A07E00242A2A1200021F7A
:10091000222200182C2A2A003E023E023C00242AF1
:100920002A1200434F5059004D4F44554C00545922
:100930005045004E414D45004D4F4445004D4F44FC
:100940004534004D4F444533004D4F444532004D32
:100950004F44453100535449434B005B434F50597A
:100960002020202020205D005B535449434B20531E
:100970004554205D005B4D4F444555415420202097
:100980005D005B545950452053454C45205D005B4C
:100990004D4F4445204E414D455D005B4D4F444514
:1009A0002053454C455D0053595354454D20534504
:1009B0005454494E4700414456414E434520534507
:1009C0005454494E470042415349432053455454DF
:1009D000494E470053595354454D205345545449AB
:1009E0004E47004D454E5500474C49440041435247
:1009F0004F0048454C4900545950450050434D0064
:100A000050504D004D4F44554C41540048454C49C1
:100A1000340048454C49332D320048454C49332D6C
:100A2000310048454C49320048454C493100484561
:100A30004C4900474C49443200474C494431004737
:100A40004C4944005B50524F3C3132333E5D005BB9
:100A500044454C41592020205D005B53544E545472
:100A600052494D5D005B4759524F53454E535D000F
:100A70005B54494D45522020205D005B4449535052
:100A80004C4159205D005B545241494E4552205D16
:100A9000005B484F562D504954205D005B484F562F
:100AA0002D544852205D0046554E43205345545422
:100AB000494E47203C322F323E005B4641494C2094
:100AC0005341465D005B5245564F2F4356205D0013
:100AD0005B5452494D202020205D005B442F522062
:100AE000455850205D005B53574153484146525D85
:100AF000005B54485220484F4C445D005B452E50EB
:100B00004F494E54205D005B5355425452494D208D
:100B10005D005B5049542F435620205D005B5448D4
:100B2000522F435620205D005B5245564552534597
:100B3000205D0046554E432053455454494E4720AE
:100B40003C312F323E005B54485244454C41595D84
:100B5000005B41494C5641544F525D005B50524F2F
:100B6000472E4D49585D005B5448524E4545444C14
:100B70005D005B534E4F50524F4C4C5D005B454CFB
:100B800045564F4E20205D005B562D5441494C2068
:100B9000205D005B454C4556464C41505D005B4135
:100BA00049524252414B455D005B41494C444946E4
:100BB00046205D005B464C41505452494D5D004615
:100BC000554E432053455454494E47203C322F3212
:100BD0003E005B444953504C4159205D005B5449F1
:100BE0004D45522020205D005B4641494C20534139
:100BF000465D005B49444C45444F574E5D005B5495
:100C000052494D202020205D005B442F5220455842
:100C100050205D005B464C415045524F4E5D005B9D
:100C200054485220484F4C445D005B452E504F497C
:100C30004E54205D005B5355425452494D205D0097
:100C40005B545241494E4552205D005B524556452A
:100C5000525345205D0046554E4320534554544958
:100C60004E47203C312F323E005B454C45564F4E9F
:100C700020205D005B464C415045524F4E205D00A8
:100C80005B545241494E455220205D005B4449531C
:100C9000504C415920205D005B53504545444F4620
:100CA00053205D005B53544152544F4653205D0026
:100CB0005B41494C45464C4150205D005B464C41F0
:100CC0005041494C45205D005B42555454455246C5
:100CD0004C595D0046554E432053455454494E47A8
:100CE000203C322F323E005B50524F472E4D495828
:100CF0005D005B562D5441494C20205D005B454C06
:100D00004556464C41505D005B41494C20444946A4
:100D1000465D005B464C41505452494D5D005B546A
:100D2000494D45522020205D005B4641494C2053EF
:100D300041465D005B5452494D202020205D005B00
:100D4000442F5220455850205D005B452E504F499E
:100D50004E54205D005B5355425452494D205D0076
:100D60005B52455645525345205D0046554E432043
:100D700053455454494E47203C312F323E005B418D
:100D800055582D434820205D005452494D00475985
:100D90005200464C500041524200415558005049C3
:100DA0005400474541005255440054485200454CB8
:100DB000450041494C0052455645525345000000FC
:100DC0000000000000000000808080808080808023
:100DD0008080808080808080808080808080800093
:100DE0000000000000000000000000000000008083
:100DF00040300C0202FE00081414122A2A29292766
:100E0000202023242424141414141414120A0A0A6B
:100E10000A0A0A0904040405050505050505050572
:100E2000050505050505050406050505050700F882
:100E3000008080C0C0C0E0E0F0F0202020205048BA
:100E4000484444444444444848483020202020201A
:100E500060404040404040404080808080808080B2
:100E60008060180404FC001F010204070F1F1F1FED
:100E70001F1F10101018141212111111111112123B
:100E800012141414180808080808080808080808A4
:100E900008080808080808080C0A0A0A0A070001D6
:100EA00001010101010101018141412121515189CA
:100EB000898D7D050705090909111121212121418C
:100EC000414141414141414141414040404040E078
:100ED00050285818F0E0000000000000000006074D
:100EE0000A4A9292929292F29190909090F0988801
:100EF0008404020202010101010101010101010159
:100F00000101010101010101010303030100FF01CE
:100F100001010101010101F1F9FDFD0101010101E1
:100F20000101010101FDFDF9F101010101010101D1
:100F30000101010101FFFF000000000000000003AB
:100F4000070F1F3F7EFCFCFCFCFCFC7E3F1F0F07D5
:100F500003000000000000000000000000FFFF0090
:100F600000000E0E0E0E0E0E0404040404FBFBFB28
:100F7000FBFBFB040E111515151515151515111F85
:100F80000E00000000FFFF808080808080808080D5
:100F90008080808080BFBFBFBFBFBF8080808080D7
:100FA00080808080808080808080808080FFFF01C2
:100FB0000101018101010101F18989C9C989898979
:100FC000EBFFFFEB898989C9C98989F10101010119
:100FD0008101010101FFFF00000000F0F90E2683EE
:100FE0004141212143478D28080C0A09288D474398
:100FF0002121414183260EF9F000000000FFFF008F
:10100000000000FFFF804619202046462020194698
:1010100000E323E00619202046462020194680FFE1
:10102000FF00000000FFFF808080809FBFB3A1A56C
:10103000E5E1E1E1E1E1A1A1A1A1A1A1A1A1ADE1D0
:10104000EDE1EDE1EDA1B3BF9F80808080FFFFFF68
:10105000FFFFFFFFFFFFFFFFFFFFFFFFFFFFFFFFA0
:10106000FFFFFFFFFFFFFFFFFFFFFFFFFFFFFFFF90
:10107000FFFFFFFFFFFFFFFFFF0000000000000079
:101080000000FE081008FE00FE9292928200FE0808
:101090001020FE007E8080807E00000000000000A6
:1010A0000000FFFFFFFFFFFFFFFFFFFFFFFFFFFF4E
:1010B000FFFFFFFFFFFFFFFFFFFFFFFFFFFFFFFF40
:1010C000FFFFFFFFFFFFFFFFFFFFFFFFFFFF030328
:1010D00003030303030303030303030303030303E0
:1010E00003030303030303030303030303030303D0
:1010F00003030303030303030302020202020202C7
:1011000002020202020202020202020202020202BF
:1011100002020202020202020202020202020202AF
:101120000202030303030303030303030303030391
:10113000030303030303030303030303030303037F
:1011400003030303030303030303030303034D4FD9
:1011500044452038004D4F44452037004D4F44450D
:101160002036004D4F44452035004D4F4445203436
:10117000004D4F44452033004D4F44452032004D33
:101180004F444520310041435400494E48004F46EA
:1011900046004F4E00494432004E4F520049443100
:1011A000004D4F44454C00535700444E5241544566
:1011B00000534C415645004D415354455200505246
:1011C0004F47204D4958330050524F47204D495802
:1011D000320050524F47204D49583100455034009D
:1011E00045503300455032004550310045503000E5
:1011F00041434300535441005448524F4E454544E7
:101200004C45005249474854444E005249474854BF
:101210005550004C454654444E004C45465455509C
:101220000053544E54205452494D004449524500F5
:101230005255444400534E41502D524F4C4C0046A1
:101240004C4150205452494D00454C453200454CCC
:10125000453100454C45564F4E004D495837004DDD
:10126000495836004D495835004D495834004D49CC
:101270005833004D495832004D4958310050524FB3
:10128000470052554432005255443100454C4532D6
:1012900000454C453100565441494C0045503400FE
:1012A0004550330045503200455031004550300024
:1012B0004D4958364355525645004D495833204301
:1012C0005552004D49583720435552004D49583624
:1012D0002043555200435552564500535700534C36
:1012E000415645004D4153544552004D4958370031
:1012F0004D495836004D495835004D495834004D38
:10130000495833004D495832004D4958310049443D
:101310004C45444F574E0052415445444E00454CB5
:101320004556464C415000454C453200454C4531F0
:101330000041494C340041494C330041494C56412D
:10134000544F520041494C4449464600464C5032A5
:1013500000464C503100464C415045524F4E0046DD
:101360004C503200464C5031005350454544204FBC
:10137000465300464C503200464C503100535441C5
:101380005254204F46530052415445444E00414967
:101390004C45464C415000464C415041494C45005B
:1013A00050524553455400454C452D44454C4159F8
:1013B00000425554544552464C59005448524F44EB
:1013C000454C4159004D4F44454C00454C455F4408
:1013D000454C4159004149524252414B45005255FA
:1013E0004444003C4944323E003C4944313E003CC8
:1013F0004E4F523E00534543004D494E0054494D17
:101400004552004F544845522057494E47204D49B8
:101410005820224F4E22004558503A00442F523A4D
:1014200000434800535700434839004348380043BD
:1014300048370043483600434835004E554C4C0071
:10144000484F562050495400484F56205448524F58
:1014500000504954205452494D00474541520054D0
:1014600048524F20484F4C4400494E480041435495
:10147000004F464653455400555052415445005282
:1014800041544500464C41500041494C4500454CB3
:1014900045560041494C320041494C3100535441BA
:1014A000544500F803F303E303E703C703CF038FB7
:1014B000039F03FF007F003F003F031F030F0387CD
:1014C00003C303FC00F300E700CF00CC039C033C04
:1014D000033303F003E003830307031C0398038C27
:1014E000033803C70073006700E300F8007C001FA7
:1014F000000F00CC00C30063003300300318030C5E
:101500000303033C007800F000E000C000C003804B
:10151000030003600070003000380018001C000C4D
:10152000000700415643004E4F5200504C45415376
:101530004520574149542E2E2E2E00504F494E54CF
:10154000003C484F4C443E0053544154453A20001F
:10155000524154453A202000280029002800290043
:101560004241543A0054494D453A00464D2D5050A1
:101570004D00464D2D50434D0034003200310033B4
:1015800000340033003100320031003200340033C7
:1015900000310033003400320053595354454D207C
:1015A00053455454494E47005B41444A20434F4EF3
:1015B00054524153545D005448524F2052455645B1
:1015C0005253453F0041444A20434F4E54524153E9
:1015D000540053595354454D2053455454494E4794
:1015E0000046554E432053455454494E47004D4103
:1015F0004E55414C004C4E4541523C003E00535725
:10160000203C4F4E3E005357203C4F46463E005331
:1016100057203C4F4E3E005357203C4F46463E001D
:101620005357203C4F4E3E005357203C4F46463EBA
:10163000005357203C4F4E3E005357203C4F4646E8
:101640003E005357203C4F4E3E005357203C4F46E0
:10165000463E005357203C4F4E3E005357203C4FD0
:1016600046463E00285357204F4E29002853572006
:101670004F46462900442F5226455850004F4E00F1
:101680004F46460043414E4E275420555345204176
:10169000542048454C4931005448524F204355523C
:1016A000564500504954434820435552564500285A
:1016B0000029003A00524556004E4F5200452E5028
:1016C0004F494E5400250025003A00204C3A002096
:1016D000523A0055503A00444E3A004F4E3A004FAD
:1016E000463A00250025005245564F204355525694
:1016F00045004641494C2053414600462F530025A2
:10170000004E4F52005448524F20484F4C44005313
:10171000544154453A00484F4420504F533A002515
:10172000005448524F204355543C4F4E3E005448BD
:10173000524F204355543C4F46463E004449535077
:101740004C4159004155582D434800484F562054AC
:10175000485200484F562050495400545241494E77
:1017600045520053544154453A004F4E004F4646AF
:10177000004F4646004E4F52004759524F205345A6
:101780004E53005354440047590050524F473C3188
:1017900032333E0054554E45004D4F44454C205386
:1017A000454C00464D2D50504D00464D2D50434D5B
:1017B000004E414D4545444954004E414D455B0066
:1017C0005D0050554C534520504F534954494F4E9E
:1017D0000050554C534520434F4445004D4F445510
:1017E0004C4154494F4E00434F50590048454C49D5
:1017F000004143524F00474C4944002D2D2D3E00DF
:10180000414C4C00524553544F52452E2E2E2E0023
:101810004F4E004F4646004F4E004F4646004F4E3B
:10182000004F4646004F4E004F4646004E4F520076
:1018300049443100494432004F4E004F4646004F64
:101840004E004F464600454550524F4D204552529E
:101850004F522100535749544348204552524F524A
:101860002100010204081020408000000000000058
:10187000005E00000008060806287E287E28042A4C
:101880007E2A104626186462344A56205000000012
:1018900008060000182442000042241814083E08DC
:1018A0001408083E08080000583800000808080816
:1018B00000006060000060180600003C4A523C00D6
:1018C00000447E40004462524C00424A4A34003890
:1018D000247E20002E4A4A32003C4A4A30000272DE
:1018E0000A0600344A4A34000C52523C00006C6C28
:1018F00000000054340000000814220014141414D2
:1019000000002214080004520A043C5A5A623C00A7
:101910007C12127C007E4A4A34003C424224007E03
:1019200042423C007E4A4A42007E0A0A02003C5281
:101930005234007E10107E00427E42000020404063
:101940003E007E182442007E4040407E0418047E03
:10195000007E08107E003C42423C007E12120C00C9
:101960003C52225C007E1A2A4400244A522402027D
:101970007E0202003E40403E1E2040201E7E201877
:10198000207E422418244202047804020062524A53
:101990004600007E424200061860000042427E007F
:1019A000080402040840404040400000181800307D
:1019B000484A2A7C3E504848300038444444304825
:1019C00048503E385454540800107C1212000854F9
:1019D0005438007E10087000007A00002040403A21
:1019E00000007C10284400007C4040780478047893
:1019F000007804047800384444380078242418001F
:101A000018242478007C1008040048545424083C0E
:101A10004848003C40203C401C2040201C3C4030BA
:101A2000403C006C10106C004C50503C0064544C16
:101A300044001038444400007E0000004444381044
:101A40005F5F5F434343435F5F5F7D7D7D616161B6
:101A5000617D7D7D000000000000000000000000AE
:101A60000000004C0031003200330048004C0031CF
:101A7000003200330048000601005455524E4947D9
:101A80005920000164640000646400006464000084
:101A90000000000000000000010101010000000042
:101AA0000000000000FF646464646464646464644F
:101AB0006464646464640000000000000000633B30
:101AC0000000009CCE003264000200000000000014
:101AD0000000000000000000000000000000000006
:101AE00000000000000000000000000000000000F6
:101AF00000000000000000000000000000000000E6
:101B000000000000000000000000000000000000D5
:101B100000000000000000000000000000000000C5
:101B200000000000000000000000000000000000B5
:101B30000000000000000000000000000000009C09
:101B4000CE003264000200009CCE0032640002002D
:101B5000009CCE0032640002000000000000000083
:101B60000000000000000000000000000000000075
:101B700000000101005455524E49475920000164AC
:101B80006400006464000064640000000000000061
:101B90000000000101010100000000000000000041
:101BA000FF6464646464646464646464646464645A
:101BB000640000000000000000633B0000009CCEB9
:101BC000003264000200000000000000000000007D
:101BD00000000000000064642D3C3C000000000098
:101BE000009CCE003264000200009CCE00326400F3
:101BF0000200009CCE003264000200009CCE003245
:101C000064000200009CCE0032640002000000006C
:101C100000000000020000000000000000020000C0
:101C20000000000000000200009CCE0032640002B0
:101C300000009CCE003264000200000000000000A2
:101C40000000000000000000000000000000000094
:101C50000000000000000000000000000000000084
:101C6000000000000000000000000000000011243F
:101C70001FBECFEFD0E1DEBFCDBF15E0A0E0B1E0E9
:101C8000E6E2FBEF02C005900D92A436B107D9F74A
:101C90001CE0A4E6B5E001C01D92AA3FB107E1F740
:101CA0000C9400650C940000382FFA0190812223D7
:101CB00039F496175CF49F5F90830E94CE73089569
:101CC000391724F4915090830E94CE73089508959B
:101CD000FC01808191818150924024F080E092E06B
:101CE000808391838081918180509E4F24F480E095
:101CF0009EEF8083918308950895CF93DF93262FDD
:101D0000EA0165E070E00E94237D822F992787FD1C
:101D10009095680F791F6536710514F064E670E0E0
:101D20008FEF6C39780714F46CE97FEFCB01AA27A9
:101D300097FDA095BA2F29E0880F991FAA1FBB1FF6
:101D40002A95D1F7BC01CD0124E630E040E050E017
:101D50000E94367D88819981820F931F88839983A1
:101D6000DF91CF9108951F93CF93DF93582F142FB6
:101D7000E90188819981181619060CF4652FAA27A4
:101D800097FDA095BA2F262F332727FD3095432F97
:101D9000532FBC01CD010E94F77CDC01CB01BC01BB
:101DA000CD0123E530E040E050E00E94F77CDC010B
:101DB000CB01BC01CD0120E137E240E050E00E94C0
:101DC000367DDA01C901212F332727FD3095829F07
:101DD000A001839F500D929F500D11244883598379
:101DE000DF91CF911F910895E0916402F091650217
:101DF000E357FF4F9081ED58F040992319F4EF57C6
:101E0000FF4F0CC0913019F4EC57FF4F07C09230D0
:101E100019F4E957FF4F02C0E657FF4FE80FF11DD5
:101E20008081992787FD90950895EF92FF920F93F7
:101E30001F93CF93F62ECA0136E0E32EE60E61E142
:101E400070E00E94237D262F67FF1BC02195C0E014
:101E5000022F112707FD1095101611065CF580E67C
:101E600090E08C1B91092E2D3327AC016F2D772725
:101E70000E94CF6CCF5F8C2F9927801791077CF33E
:101E800019C0C0E0062F112707FD10951016110686
:101E90008CF48C2F9927805A9F4F2E2D3327AC011D
:101EA0006F2D77270E94CF6CCF5F8C2F99278017DB
:101EB00091077CF3CF911F910F91FF90EF900895C0
:101EC000E0915F02F09160023197F0936002E0933D
:101ED0005F0280818093C1050E94CE730E94ED79DC
:101EE0000895DF92EF92FF920F931F93CF93DF93AA
:101EF000CDB7DEB72A970FB6F894DEBF0FBECDBFC1
:101F0000D82EF62E122F2223D9F4842F859585956D
:101F100085958595E82FFF27E7FDF095EF70F07028
:101F2000E859FD4F80818983E42FFF27E7FDF09575
:101F3000EF70F070E859FD4F80818A832B8306C0D3
:101F4000BE016F5F7F4F842F0E94266B20E001301F
:101F500009F4202FAE014F5F5F4F123011F44F5F35
:101F60005F4F61E0E62E0FEF6F2D8D2D0E94C96D42
:101F70002A960FB6F894DEBF0FBECDBFDF91CF918A
:101F80001F910F91FF90EF90DF900895DF92EF92F5
:101F9000FF920F931F93CF93F62E142FD22EC82F9C
:101FA00087FF0CC0E1E0EE2E00E0202F43E255E178
:101FB000612F8F2D0E94C96DC1950CC0181654F465
:101FC00071E0E72E00E0202F47E255E1612F8F2DD1
:101FD0000E94C96D00E08091C1058D1509F401E0F2
:101FE00021E04C2F612F8F2D8E5E0E94710FCF91BB
:101FF0001F910F91FF90EF90DF900895DF92EF9285
:10200000FF920F931F93D82E162F7A01852F9927B1
:1020100087FD9A9500E0202F482F8D2D0E94710F8B
:10202000202F4E2D612F8D2D845F0E94710F1F91E7
:102030000F91FF90EF90DF900895CF93DF93EC0125
:10204000DB01FA01888199810190F081E02DE81788
:10205000F90724F49C012E1B3F0B03C09F01281B92
:10206000390B8D919C911197E817F9071CF48E1B81
:102070009F0B04C0AF01481B590BCA01E883F983C9
:10208000821793071CF02D933C9302C08D939C9371
:10209000DF91CF910895EF920F930E94956EA1E08A
:1020A000EA2E00E0202F4BE255E160E28AE00E9438
:1020B000C96D0E94D77A0F91EF900895EF920F9318
:1020C000863031F4EE2401E128E38EE29EE00EC07A
:1020D0008750823030F4EE2401E128E38EEB9DE05E
:1020E00005C0EE2401E128E38EE99EE00E943A6CEF
:1020F0000F91EF900895CF92DF92EF920F936C01C2
:102100000E94956EEE240E2D2E2DA6016E2D8E2D85
:102110000E94C96D96E08902C001112428E030E0D8
:10212000AC01B90180E090E00E94CF6C0F91EF907C
:10213000DF90CF9008957F928F929F92AF92BF923F
:10214000CF92DF92EF92FF920F931F93CF93DF9383
:10215000B82E762E842EC901E8019E2CFC2C1A2D57
:10216000AA240E947B10133091F08091590A863086
:1021700020F40990D881C02D0CC0863021F40A804B
:10218000DB81C02D06C00C80DD81C02D02C01A2D60
:1021900002C0112321F51F15E0F521E0C22ED12C3C
:1021A0001F2D20E081E0981639F48091C105992710
:1021B000C816D90609F4292D872D8A0D91E0E92E3C
:1021C00000E049915991682F8B2D0E94C96DA80C90
:1021D00011500894C11CD11C112319F71AC010E02A
:1021E0001F15B8F4143028F000E4B02E143009F4B0
:1021F000AA24872D8A0DB1E0EB2E00E0202F499113
:102200005991682F8B2D0E94C96DA80C1E0D1F15AA
:1022100048F3DF91CF911F910F91FF90EF90DF90E6
:10222000CF90BF90AF909F908F907F900895853210
:1022300069F48091C105813019F48091C20501C013
:1022400081508093C1050E94CE730895863279F43F
:102250009091C1058091C205981721F481E0809387
:10226000C10503C09F5F9093C1050E94CE7308957E
:1022700008958823B9F1262F332727FD3095CA0109
:1022800065E070E00E94237D260F371F442737FD4D
:102290004095542F253631054105510524F024E69B
:1022A00030E040E050E02C398FEF38078FEF4807DF
:1022B0008FEF580724F42CE93FEF4FEF5FEFCA018F
:1022C000B90128EA30E040E050E00E94F77CDC01F0
:1022D000CB01BC01CD0124E630E040E050E00E949B
:1022E000367D04C020E030E040E050E080916E0593
:1022F000882311F0823021F420E030E040E050E00B
:10230000C90108953F924F925F926F927F928F9290
:102310009F92AF92BF92CF92DF92EF92FF920F9374
:102320001F93CF93DF93CDB7DEB72F970FB6F894F7
:10233000DEBF0FBECDBF5C013B01F42E4901302E44
:102340002E010894411C511C85E0E0E0F5E0D2012B
:1023500001900D928A95E1F78091C105C82EDD2488
:102360000894C108D108842F0E941711B3E0FB160E
:1023700019F0E3E1FE1671F4F601EA0DFB1D808110
:10238000992787FD90958436910524F401968083E2
:102390000E94CE73F4E0FF1619F024E1F21679F4EE
:1023A000F601EA0DFB1D8081992787FD9095AFEF1F
:1023B0008D399A0724F0019780830E94CE73EE2412
:1023C000840120E030E0A901B301C5010E949E6EA6
:1023D00000E010E0F801EA0DFB1D8081992787FDE0
:1023E000909566E0662E712C6C0E7D1EAA2797FDD7
:1023F000A095BA2FA301BC01CD010E94626B20E021
:1024000048010894811C911C8091C1059927881668
:10241000990609F421E053E0000F111F5A95E1F7E6
:10242000802F8A5E41E0E42E0FEFA301682F8AE13E
:102430000E94C96D84010530110564F200E0202F6F
:102440004BE355E16DE0802F0E94C96D332009F107
:102450008091590A8630E8F4B9E1AB16BBE0BB06BF
:1024600021F4202F41E455E110C080916E05E82F42
:10247000FF27E7FDF095EE0FFF1FEC52FB4F31E019
:10248000E32E00E0202F408151816DE088E20E9420
:10249000C96DE1E1FE1671F48091020A813051F4B8
:1024A000AC0CBD1CC40CD51CD6018C91F5018083ED
:1024B0000E94CE732F960FB6F894DEBF0FBECDBF2D
:1024C000DF91CF911F910F91FF90EF90DF90CF9010
:1024D000BF90AF909F908F907F906F905F904F9044
:1024E0003F900895CF92DF92EF920F931F93CF9377
:1024F000DF93182F6B01C42FA1E0EA2E00E0202FFC
:1025000048E455E164E18AE00E94C96D202F40E56E
:1025100055E16EE18AE00E94C96D8091C1058E157A
:1025200089F4CC2319F04DE654E102C049E654E1A8
:10253000F1E0EF2E00E02E2D64E18AE30E94C96DE8
:102540002E2D11C0CC2319F04DE654E102C049E60E
:1025500054E1E1E0EE2E00E0202F64E18AE30E94E6
:10256000C96D0E2D2E2D412F6EE18AE30E94710F51
:10257000C60165E070E00E94237D812F992787FDC9
:102580009095680F791F653671051CF0C4E6D0E0A0
:1025900008C08FEF6C3978071CF4CCE9DFEF01C07D
:1025A000EB0100E021E04C2F6EE188E50E94710F05
:1025B00071E0E72E202F48E555E16EE182E50E94AB
:1025C000C96D202F4AE555E16EE180E70E94C96D93
:1025D0008C2F992787FD9095DF91CF911F910F91B7
:1025E000EF90DF90CF900895FF920F931F93CF93BA
:1025F000DF93CDB7DEB721970FB6F894DEBF0FBEDD
:10260000CDBF8983162F042FF22E633011F0633172
:1026100041F420E0AE014F5F5F4F602F8F2D0E948D
:10262000540E143011F0143141F421E0AE014F5F2B
:102630005F4F602F8F2D0E94540E8981992787FD4F
:10264000909521960FB6F894DEBF0FBECDBFDF91F7
:10265000CF911F910F91FF9008958F929F92AF920B
:10266000BF92CF92DF92EF92FF920F931F93CF937F
:10267000DF93CDB7DEB768970FB6F894DEBF0FBE15
:10268000CDBF6C014B01042F87E0A5E0B5E0FE0152
:102690003B96982F0D9001929A95E1F7ACE0B5E04A
:1026A000FE0172960D9001928A95E1F7842F0E94A7
:1026B00017118091C105E82FFF277401EE0EFF1E50
:1026C0000894E108F108033011F0033159F4EC0FDC
:1026D000FD1FD7019C918189981724F49F5F9C93DB
:1026E0000E94CE73043011F0043171F48091C10561
:1026F000FE01E80FF11DD7019C918285891724F412
:1027000091509C930E94CE73C6010E947B1010E0F2
:102710008091C205882309F1E12FFF27E7FDF0959D
:10272000EE0FFF1FEE54FC4F89E01802C001112488
:1027300041E0E42E00E0202F40815181682F80E2AB
:102740000E94C96D1E0D212F332727FD30958091E2
:10275000C205992728173907FCF28091590A86305B
:10276000B8F4F4018181E82FFF27E7FDF095EE0F23
:10277000FF1FE458FC4FA080B180F4018281E82F54
:10278000FF27E7FDF095EE0FFF1FE458FC4F2AC02E
:10279000F40121819281863099F4E22FFF27E7FD31
:1027A000F095EE0FFF1FE45AFC4FA080B180E92F97
:1027B000FF27E7FDF095EE0FFF1FE45AFC4F12C014
:1027C000E22FFF27E7FDF095EE0FFF1FE459FC4FC6
:1027D000A080B180E92FFF27E7FDF095EE0FFF1FE6
:1027E000E459FC4FC080D18020E08091C105813048
:1027F00009F4282FD4018C91E82FFF27E7FDF095ED
:10280000EE0FFF1FE456FC4F31E0E32E00E0408165
:102810005181602F88E50E94C96D202F8091C105EC
:10282000823009F42E2D91E0E92E00E0A50169E047
:1028300088E50E94C96D202F8091C105833009F47D
:102840002E2D81E0E82E00E0A60162E188E50E94DD
:10285000C96D03E0E02EF12CE80CF91CAA24BB247E
:1028600014E0C12ED12C12E000E08091C10599271F
:102870008C159D0509F401E08A2D855E21E0F701A4
:1028800041917F01682F82E50E94710F11500894D9
:10289000C11CD11C89E090E0A80EB91E17FFE4CF3F
:1028A00020E08091C105873009F421E0F4018681A0
:1028B000E82FFF27E7FDF095EE0FFF1FE056FC4FD6
:1028C000B1E0EB2E00E04081518166E388E50E9493
:1028D000C96D68960FB6F894DEBF0FBECDBFDF910D
:1028E000CF911F910F91FF90EF90DF90CF90BF900D
:1028F000AF909F908F9008958091590A863070F024
:1029000080919805863329F486E08093C10588E399
:1029100006C087E08093C10589E301C082E480930B
:10292000980581E08093C10585E08093C2050895F4
:102930005F926F927F928F929F92AF92BF92CF924F
:10294000DF92EF92FF920F931F93CF93DF93CDB758
:10295000DEB72A970FB6F894DEBF0FBECDBF6C016D
:102960003B01542EFF24F4160CF068C0AA24BB24AB
:10297000450181E0F81609F453C08A2D8C5E71E0A0
:10298000E72E00E0202F4CE555E1682F80E50E94FE
:10299000C96DC30165E070E00E94237D9B01FF20AB
:1029A00019F092E0F91641F4F6018081992787FD2C
:1029B0009095280F391F08C0F6018081992787FD5F
:1029C0009095861B970B9C012536310514F024E663
:1029D00030E0FFEF2C393F0714F42CE93FEFBE0144
:1029E0006F5F7F4F822F0E94266BC40163E0880FC8
:1029F000991F6A95E1F7182F1C5E51E0E52E0FEF45
:102A000020E0AE014F5F5F4F612F86E50E94C96DE8
:102A100000E0202F4EE555E1612F80E70E94C96D4F
:102A20000894C11CD11CF3940894811C911C88E06B
:102A300090E0A80EB91EF5140CF49BCF2A960FB6A1
:102A4000F894DEBF0FBECDBFDF91CF911F910F91E4
:102A5000FF90EF90DF90CF90BF90AF909F908F90BE
:102A60007F906F905F900895089508956F927F9280
:102A70009F92AF92BF92CF92DF92EF92FF920F930D
:102A80001F93CF93DF93CDB7DEB764970FB6F8945B
:102A9000DEBF0FBECDBF0E94956E80919905882341
:102AA00019F481E08093990587E00E94DC7A0E9406
:102AB0003D73AA2797FDA095BA2FBC01CD010E94B6
:102AC0003A7CDC01CB012DEC3CEC44E551E4BC014B
:102AD000CD010E94A97CDC01CB0120E030E04AE777
:102AE00054E4BC01CD010E94D77B5B016C01609373
:102AF0008F0570939005809391059093920520E047
:102B000030E040E251E40E94477C9BE0692E712C4A
:102B10006C0E7D1E18160CF069C020E030E040E21B
:102B200051E4C601B5010E94D77BDC01CB01BC0199
:102B3000CD010E941D7CDC01CB01982EE82FFF27E0
:102B4000E7FDF095EC5BFA4F80818B878AE0292DB9
:102B50002802C0011124AA2797FDA095BA2FBC0115
:102B6000CD010E943A7CDC01CB019C01AD01C60184
:102B7000B5010E948C7B7B018C010E941D7CDC01D5
:102B8000CB01982EE82FFF27E7FDF095EC5BFA4F7D
:102B900080818C878EE28D87892D992787FD90957E
:102BA000A92FB92FBC01CD010E943A7CDC01CB01D9
:102BB0009C01AD01C801B7010E948C7B20E030E090
:102BC00040E251E40E94A97CDC01CB01BC01CD01B3
:102BD0000E941D7CDC01CB01E82FFF27E7FDF0956B
:102BE000EC5BFA4F80818E871F863EC0C601B5011F
:102BF0000E941D7CDC01CB01982EE82FFF27E7FD0A
:102C0000F095EC5BFA4F80818B87892D992787FDA2
:102C10009095A92FB92FBC01CD010E943A7CDC010F
:102C2000CB019C01AD01C601B5010E948C7B7B01EB
:102C30008C018EE28C8720E030E040E251E4C80154
:102C4000B7010E94A97CDC01CB01BC01CD010E942F
:102C50001D7CDC01CB01E82FFF27E7FDF095EC5B45
:102C6000FA4F80818D871E8611E0E12E0FEF20E064
:102C7000A301622F88E10E94C96D00E0202F40E689
:102C800055E1602F802F0E94C96D202F45E655E148
:102C9000602F80E40E94C96DBE016F5F7F4F8091FD
:102CA000A00A0E94266B8AE38D83B3018091A10A5A
:102CB0000E94266B8D858E838E858F8308870FEF0C
:102CC0002885AE014D5F5F4F622F8EE50E94C96D72
:102CD0008091650A8E1531F4E82E00E0202F4BE636
:102CE00055E106C0B1E0EB2E00E0202F42E755E1B0
:102CF00062E287E00E94C96D80919905E82FFF2765
:102D0000EE0FFF1FE657FC4FA1E0EA2E00E0202F58
:102D1000408151816AE287E00E94C96D0FEF20E097
:102D20004CE55AE062E387E00E94C96DEE2408E1B9
:102D300020E74AE068E083ED97E00E943A6C8091DA
:102D4000590A863039F401E128E346E261E48EE273
:102D50009EE012C08750823040F4EE2401E128E367
:102D600046E261E48EEB9DE007C0EE2401E128E33A
:102D700046E261E48EE99EE00E943A6C2EE330E088
:102D800041E050E06AE070E0CA010E94CF6C2EE39F
:102D900030E044E050E06AE070E0CA010E94CF6C8D
:102DA0002AE030E044E050E0B90181E090E00E9488
:102DB000CF6C2EE330E044E050E0B90181E090E0D8
:102DC0000E94CF6C2EE330E04BE750E06AE070E009
:102DD000CA010E94CF6C2EE330E04EE750E06AE07B
:102DE00070E0CA010E94CF6C2AE030E04EE750E06C
:102DF000B9018BE790E00E94CF6C2EE330E04EE704
:102E000050E0B9018BE790E00E94CF6C2BE330E0FB
:102E1000A901B90187E090E00E94CF6C2EE330E079
:102E20004BE350E0B90187E090E00E94CF6C2EE3C5
:102E300030E047E050E06BE370E0CA010E94CF6CE5
:102E40002EE330E04BE350E0BA01CA010E94CF6CA0
:102E50002BE330E048E750E0B90184E490E00E94C1
:102E6000CF6C2EE330E048E750E0B90184E490E015
:102E70000E94CF6C2EE330E044E450E06BE370E05E
:102E8000CA010E94CF6C2EE330E048E750E06BE3CC
:102E900070E0CA010E94CF6C80916C0565E00E94D1
:102EA000167D982E882309F524E230E041E050E0B9
:102EB000B90180E090E00E94CF6C24E230E045E070
:102EC00050E0B90184E090E00E94CF6C23E230E052
:102ED00044E050E0B90181E090E00E94CF6C25E22F
:102EE00030E044E050E0B9012DC024E230E045E09C
:102EF00050E0B90180E090E00E94CF6C092D1127CD
:102F000007FD109584E290E0801B910B9C0145E049
:102F100050E0BC0180E090E00E94CF6C83E290E042
:102F2000801B910B9C0144E050E0BC0181E090E0EB
:102F30000E94CF6C85E290E0801B910B9C0144E0E5
:102F400050E0BC0181E090E00E94CF6C80916B0565
:102F500065E00E94167D982E882309F524E230E072
:102F60004BE750E0B9018AE790E00E94CF6C24E281
:102F700030E04FE750E0B9018EE790E00E94CF6C5F
:102F800023E230E04DE750E0B9018BE790E00E948A
:102F9000CF6C25E230E04DE750E0B9012DC024E2CE
:102FA00030E04FE750E0B9018AE790E00E94CF6C33
:102FB000092D112707FD109584E290E0801B910BED
:102FC0009C014FE750E0BC018AE790E00E94CF6C83
:102FD00083E290E0801B910B9C014EE750E0BC0126
:102FE0008BE790E00E94CF6C85E290E0801B910B14
:102FF0009C014EE750E0BC018BE790E00E94CF6C53
:1030000080916A0565E00E94167D982E882319F547
:103010002BE330E041E250E06AE370E0CA010E9435
:10302000CF6C2FE330E041E250E06EE370E0CA0184
:103030000E94CF6C2EE330E040E250E06BE370E0A2
:10304000CA010E94CF6C2EE330E042E250E06BE315
:1030500070E0CA0126C02FE330E041E250E06AE3AD
:1030600070E0CA010E94CF6C092D112707FD109551
:10307000C80181962FE330E0AC016AE370E00E9462
:10308000CF6CC80180962EE330E0AC016BE370E0BA
:103090000E94CF6CC80182962EE330E0AC016BE356
:1030A00070E00E94CF6C80916D0565E00E94167DF6
:1030B000982E882319F52BE330E04EE550E06AE3C3
:1030C00070E0CA010E94CF6C2FE330E04EE550E083
:1030D0006EE370E0CA010E94CF6C2EE330E04DE554
:1030E00050E06BE370E0CA010E94CF6C2EE330E049
:1030F0004FE550E06BE370E0CA0129C02FE330E0F8
:103100004EE550E06AE370E0CA010E94CF6C092DE1
:10311000112707FD1095C801825A9F4F2FE330E019
:10312000AC016AE370E00E94CF6CC801835A9F4FE4
:103130002EE330E0AC016BE370E00E94CF6CC8017D
:10314000815A9F4F2EE330E0AC016BE370E00E94A8
:10315000CF6C64960FB6F894DEBF0FBECDBFDF9183
:10316000CF911F910F91FF90EF90DF90CF90BF9084
:10317000AF909F907F906F9008951092C1058CE062
:103180008093C20580E00E9436150895AF92CF92D9
:10319000EF920F931F93182F0E941711812F8152C6
:1031A000823010F50E94CE731132C9F48091C105AE
:1031B00080935A0A80916102E82FFF27EE0FFF1FCC
:1031C000EE5AFA4F8081918141E050E06AE57AE061
:1031D000840F951F0E9478790E94741AA3C00E94E0
:1031E000341A0E94600F9EC073E0A72EC090C205E3
:1031F00061E0E62E02E912E025E539E04AE062E10D
:1032000080E00E949B10EE2408E220E549E160E3A3
:1032100083E496E00E943A6C8091C1059927823040
:10322000910549F1833091051CF4019741F07AC072
:1032300083309105E1F1049709F455C073C051E062
:10324000E52E00E0202F49E755E165E28BE20E9480
:10325000C96D202F4BE755E161E181E40E94C96D02
:10326000202F4DE755E165E287E50E94C96D202FCB
:103270004FE755E153C041E0E42E00E0202F41E844
:1032800055E165E28BE20E94C96D202F43E855E1CC
:1032900061E181E40E94C96D202F45E855E165E2B6
:1032A00087E50E94C96D202F47E855E137C031E01E
:1032B000E32E00E0202F49E855E165E28BE20E9411
:1032C000C96D202F4BE855E161E181E40E94C96D91
:1032D000202F4DE855E165E287E50E94C96D202F5A
:1032E0004FE855E11BC021E0E22E00E0202F41E92C
:1032F00055E165E28BE20E94C96D202F43E955E15B
:1033000061E181E40E94C96D202F45E955E165E244
:1033100087E50E94C96D202F47E955E161E189E603
:103320000E94C96D1F910F91EF90CF90AF900895BB
:1033300083E08093980580915A0A8093C10584E0C8
:103340008093C20580E00E94C6180895EF920F9303
:10335000CF93DF93082F0E941711023289F40E9445
:103360005E1BE0915F02F09160023197F093600282
:10337000E0935F0280818093C1050E94CE736FC08D
:103380000132B1F5E0915F02F09160028091C105D8
:10339000808380915F029091600201969093600219
:1033A00080935F028091C105813019F40E94A23E92
:1033B0001DC0823019F40E94833F18C0833019F475
:1033C0000E940A4013C0843019F40E941C410EC0B0
:1033D000853019F40E94981909C0863019F40E94AA
:1033E000E34204C0873011F40E94CB1A0E94CE73CE
:1033F00089E995E10E947B108091C105873029F110
:1034000040E050E020E0EA0121968091C105992733
:10341000C817D90709F421E0FA01E40FF51FE656B1
:10342000FD4FB3E0440F551FBA95E1F7842F825F3B
:10343000A1E0EA2E00E042815381682F80E20E94E1
:10344000C96DAE012697F4F20AC0E1E0EE2E00E06D
:103450002E2D48EA55E16EE080E20E94C96DDF91B1
:10346000CF910F91EF90089582E08093980581E0CD
:103470008093C10587E08093C20580E00E94A61971
:103480000895EF920F93CF93C82F0E94956E01E09D
:10349000E02E00E0202F47EB55E16CE088E10E9430
:1034A000C96D8C2F8152E816D8F000935B0AC132A7
:1034B00011F4E0925B0A80916102E82FFF27EE0F82
:1034C000FF1FEE5AFA4F8081918141E050E06BE599
:1034D0007AE002960E9478790E94341A0E94600F66
:1034E000CF910F91EF90089583E48093980580E049
:1034F0000E94411A0895EF920F93CF93C82F0E9414
:10350000956E81E0E82E00E0202F45EC55E16CE05F
:1035100088E10E94C96DC43231F48091C1058B30BD
:1035200068F0815007C0C33249F48091C1058F33E0
:1035300028F48F5F8093C1050E94CE738091C105EE
:103540008B50843318F08CE18093C1058091C205C3
:103550009091C105891719F0892F0E94A47A809152
:10356000C1058093C20500E021E0482F6EE1802F65
:103570000E94710FC152C23050F46091C10580E0C9
:1035800090E00E946F7B0E94341A0E94600FCF91DE
:103590000F91EF90089584E48093980580E090E087
:1035A0000E945A7B8093C1058093C20580E00E94EF
:1035B0007B1A0895EF920F93CF93082F0E94171153
:1035C000013211F5E0915F02F09160028091C10536
:1035D000808380915F0290916002019690936002D7
:1035E00080935F028091C105813021F40E94341ADA
:1035F0000E94CE738091C105823009F05BC00E94A9
:10360000891C0E94CE7356C0023251F41092980564
:103610008AE49AE09093600280935F020E94CE73E6
:103620000E94956EEE2400E120E84E2D6E2D8EE472
:1036300090E10E943A6CC091C105C13091F4EC2E2A
:1036400000E228E24EE060E18EEA9FE00E943A6CE0
:1036500000E0202F42ED55E162E384E10E94C96D54
:1036600009C0EE2400E228E24EE060E18EEA9FE02D
:103670000E943A6C8091C105823099F491E0E92E64
:1036800000E228E24EE068E48EE09FE00E943A6C9F
:1036900000E0202F41EE55E162E380E20E94C96D17
:1036A00009C0EE2400E228E24EE068E48EE09FE0EC
:1036B0000E943A6CCF910F91EF90089581E0809332
:1036C00098058093C10582E08093C20580E00E9446
:1036D000DA1A0895CF92DF92EF920F931F93CF9350
:1036E000DF93182F0E9417110E94956E8091C105DB
:1036F0009091590A8D3008F05EC0963029F4C0E1EF
:10370000CC2EC3E0DC2E0CC09750923028F4BCE3E2
:10371000CB2EB3E0DB2E04C0ACEDCA2EA2E0DA2E35
:10372000EE240E2D2E2DF601408151816E2D8E2D11
:103730000E94C96DC82FDD27C7FDD095CE01880F27
:10374000991F880F991F8C0F9D1F8C0F9D1F2AE0BA
:1037500030E0AC01B90180E090E00E94CF6CC1E0A4
:10376000D0E0C730D1051CF06C2F665001C06C2F23
:1037700082E090E0C80ED91E20E08091C105992713
:103780008C179D0709F421E0660F660F660F6D5FC9
:10379000C730D10514F480E001C080E4E1E0EE2EF2
:1037A00000E0F601408151810E94C96D2196CD3023
:1037B000D105BCF261C0963029F476EFC72E72E0D5
:1037C000D72E0BC0973029F46AE2C62E63E0D62EBE
:1037D00004C05AECC52E52E0D52EEE240E2D2E2D0F
:1037E000F601408151816E2D8E2D0E94C96DC82F2A
:1037F000DD27C7FDD095CE01880F991F880F991F2F
:103800008C0F9D1F8C0F9D1F2AE030E0AC01B90189
:1038100080E090E00E94CF6CCDE0D0E08091C205C6
:1038200099278C179D0744F1C331D1051CF06C2FEB
:10383000635102C06C2F6D5082E090E0C80ED91E1B
:1038400020E08091C10599278C179D0709F421E09C
:10385000660F660F660F655FC331D10514F480E013
:1038600001C080E431E0E32E00E0F60140815181A7
:103870000E94C96D2196D2CF123279F40E945E1B4C
:10388000E0915F02F09160023197F0936002E09363
:103890005F0280818093C10532C0113291F5E091C1
:1038A0005F02F09160028091C105808380915F0288
:1038B0009091600201969093600280935F028091E4
:1038C000590A863049F48091C105E82FFF27EE0F91
:1038D000FF1FEC54FE4F0FC0E091C105873031F45B
:1038E000FF27EE0FFF1FE657FE4F05C0FF27EE0F25
:1038F000FF1FEA51FE4F0190F081E02D09950E94D3
:10390000CE73DF91CF911F910F91EF90DF90CF9009
:10391000089581E08093C1058091590A863011F4A1
:1039200088E107C0873021F0883011F482E101C0BE
:1039300084E18093C2058CE08093980580E00E942A
:103940006A1B08952F923F924F925F926F927F92DF
:103950008F929F92AF92BF92CF92DF92EF92FF929F
:103960000F931F93CF93DF93CDB7DEB763970FB657
:10397000F894DEBF0FBECDBF6B874C875D872901F2
:103980000E871701CF86A88A898A5901FC01819187
:1039900091913F010E947B1010E08091C205882325
:1039A000D1F0F88821E0E22E00E0202FF3014191D0
:1039B00051913F016F2D8F850E94C96D1E0DF8A595
:1039C000FF0E212F332727FD30958091C2059927BF
:1039D000281739073CF38B850E941711EC85FD856C
:1039E0001081111111E020E08091C105813009F4AE
:1039F000282FE12FFF27E7FDF095EE0FFF1FE4567C
:103A0000FC4F8F853989830F91E0E92E00E04081DA
:103A1000518168898A5F0E94C96D8091590A8630F8
:103A200008F45EC08B858152E81608F459C00E94E4
:103A3000CE730E94891CE0915F02F0916002319781
:103A4000F0936002E0935F0280818093C1058B85D3
:103A5000813209F042C080916102E82FFF27EE0F0A
:103A6000FF1FEE5AFA4F00811181809164029091FC
:103A70006502825A9F4F49E350E0BC01C801825A57
:103A80009F4F0E94787980916402909165028A53D9
:103A90009F4F4BE050E0BC01C8018A539F4F0E94EA
:103AA000787980916402909165028D519F4F48E131
:103AB00050E0BC01C8018D519F4F0E9478798091E0
:103AC000640290916502895B9F4F43E050E0BC0126
:103AD000C801895B9F4F0E9478790E94ED799AC155
:103AE0004114510409F496C19E8519160CF0E9C0E1
:103AF0001A8A1B8A4101CC24DD24192F88E0682E04
:103B0000712C620C731CBE016F5F7F4FF2018081CC
:103B10000E94266BF4014081413009F042C0F3015C
:103B20008081918197FD24C050E08091C105282FAC
:103B30003327C60102962817390709F4542F089431
:103B4000C11CD11CF8A58F2F992787FD9095C89E81
:103B50009001C99E300DD89E300D1124C9010894E2
:103B6000C108D1083889830FE42E0FEF252F3DC0FF
:103B70000894C11CD11CE8A58E2F992787FD90952C
:103B8000C89E9001C99E300DD89E300D1124C901E8
:103B90000894C108D1083889830FE42E0FEF20E084
:103BA00024C040E08091C105282F3327C60102962A
:103BB0002817390709F441E00894C11CD11CE8A575
:103BC0008E2F992787FD9095C89E9001C99E300D34
:103BD000D89E300D1124C9010894C108D108388934
:103BE000830F01E0E02E0FEF242FAE014F5F5F4FF8
:103BF000682F8F859989890F0E94C96D0894411C8F
:103C0000511CF4010081013009F048C0BE016F5F12
:103C10007F4FF20180810E94266BF30180819181A8
:103C200097FF27C040E08091C105282F3327C601A8
:103C300002962817390709F4402F0894C11CD11C9B
:103C4000F8A58F2F992787FD9095C89E9001C99E52
:103C5000300DD89E300D1124C9010894C108D10837
:103C60003889830F9F85E9899E0FE02E0FEF242F5F
:103C70000AC08889FA898F0F865F9F852989920FEC
:103C8000E02E0FEF20E0AE014F5F5F4F682F892FCE
:103C9000885E0E94C96D0894411C511C1150089403
:103CA000C11CD11C82E090E0680E791E0894811C32
:103CB000911CEA89FB893A96EA8BFB8B112309F068
:103CC00022CF12E08091C105992783309105CCF075
:103CD0009C010894A11CB11CE12FFF27E7FDF09582
:103CE000E20DF31D32978081813019F40894A11CF4
:103CF000B11C1F5F812F992787FD9095821793072D
:103D000044F3FB85F131F1F48091020A813009F02E
:103D100081C08091C105A82FBB27F101EA0FFB1FCD
:103D200032978081813061F4AA0FBB1FA20DB31DB1
:103D3000FD018481958197FF03C00894A11CB11CEB
:103D4000F50146C0FB85F33011F0F33179F5909120
:103D5000C105913059F4EC85FD858081882311F4EB
:103D6000908322C0EC85FD8510821EC0A92FBB2741
:103D7000F101EA0FFB1F32978081813061F4AA0FB5
:103D8000BB1FA20DB31DFD018481958197FF03C068
:103D90000894A11CB11CF501808184363CF48F5F2E
:103DA0008083F9A5FF2311F40E94CE732B85243064
:103DB00011F0243179F59091C105913059F4EC85D9
:103DC000FD858081882311F4908322C0EC85FD85D8
:103DD00010821EC0A92FBB27F101EA0FFB1F3297EB
:103DE0008081813061F4AA0FBB1FA20DB31DFD01BC
:103DF0008481958197FF03C00894A11CB11CF50133
:103E000080818D393CF081508083F9A5FF2311F426
:103E10000E94CE7363960FB6F894DEBF0FBECDBF7F
:103E2000DF91CF911F910F91FF90EF90DF90CF9096
:103E3000BF90AF909F908F907F906F905F904F90CA
:103E40003F902F9008958F92AF92CF92EF92FF9272
:103E50000F931F93CF93DF93CDB7DEB7A2970FB623
:103E6000F894DEBF0FBECDBF182F1B861C861D86A3
:103E70001E86682F8091C105873071F4113159F089
:103E8000812F992787FD90958F70907083309105D1
:103E900011F0049709F460E020916402309165020A
:103EA000A901425A5F4F1F9288E08F93B6E38B2E91
:103EB000A9E0AA2EF6E0CF2EEBE0EE2EF12CEC0ED0
:103EC000FD1E05E0215A3F4F8EEB94E00E94A21C9C
:103ED000E0916402F0916502ED59FF4F80810F90EF
:103EE0000F9087FF03C010820E94D873E091640294
:103EF000F0916502EC59FF4F00818091C1050023CC
:103F000059F4202F873009F421E071E0E72E4EEEBE
:103F100055E169E380E42BC020E0873009F421E01B
:103F200061E0E62E00E045EF55E169E380E40E94A0
:103F3000C96D8091C105873009F40E2DE0916402AE
:103F4000F0916502EC59FF4F21E0408169E384E67E
:103F50000E94710F20E08091C105873009F421E0B3
:103F600051E0E52E00E04CEF55E169E38CE70E945B
:103F7000C96D8091C105873059F51131B9F480912F
:103F8000020A813099F4E0916402F0916502EC59E3
:103F9000FF4F80918D0590918E0580509E4F6AE075
:103FA00070E00E94237D60830E94CE731352123012
:103FB00078F4E0916402F0916502EC59FF4F808142
:103FC000882311F0108202C081E080830E94CE73AA
:103FD00060916E05662339F441E0E42E062F262F0A
:103FE0004EEF55E107C031E0E32E00E0202F46E020
:103FF00056E1602F80E40E94C96DA2960FB6F89436
:10400000DEBF0FBECDBFDF91CF911F910F91FF900B
:10401000EF90CF90AF908F90089581E08093C1058D
:1040200087E08093C20580E00E94231F87E280938F
:10403000980508958F92AF92CF92EF92FF920F93CF
:10404000CF93DF93CDB7DEB768970FB6F894DEBF96
:104050000FBECDBF982F19821A821B821C8220911D
:10406000640230916502A9014D515F4F1F928AE0B1
:104070008F9360E3862E8DE0A82E00E1C02E7E0196
:104080000894E11CF11C01E02C513F4F692F88EB93
:1040900094E00E94A21CE0916402F0916502EC5150
:1040A000FF4F80810F900F9087FF03C010820E9406
:1040B000D87368960FB6F894DEBF0FBECDBFDF9100
:1040C000CF910F91FF90EF90CF90AF908F90089588
:1040D00081E08093C10582E08093C20580E00E9468
:1040E0001A208CE38093980508958F92AF92CF9217
:1040F000EF92FF920F931F93CF93DF93CDB7DEB76D
:10410000A2970FB6F894DEBF0FBECDBF182F1B8647
:104110001C861D861E861F86188A198A1A8A813176
:1041200011F58091020A8130F1F4E0916402F0917E
:104130006502E551FF4F80918D0590918E0580506D
:104140009E4F6AE070E00E94237D6083E0916402EC
:10415000F0916502E551FF4F8081853614F084E6C9
:1041600080830E94CE73812F992787FD90958F7051
:1041700090700397029710F0113129F48091C105D6
:10418000873009F410E02091640230916502A901A2
:104190004B515F4F1F9288E08F9300E4802EB9E06F
:1041A000AB2EA0E1CA2EFBE0EF2EF12CEC0EFD1E93
:1041B00005E02A513F4F612F88EA94E00E94A21C3B
:1041C000E0916402F0916502E651FF4F80810F900B
:1041D0000F9087FF03C010820E94D873E0916402A1
:1041E000F0916502E551FF4FBE016F5F7F4F808107
:1041F0000E94266B20E08091C105873009F421E000
:10420000E1E0EE2E0FEFAE014F5F5F4F68E380E518
:104210000E94C96D60916905662331F000E0202F8E
:104220004FE056E1602F06C071E0E72E062F262FE3
:1042300047E156E180E40E94C96DA2960FB6F8945A
:10424000DEBF0FBECDBFDF91CF911F910F91FF90C9
:10425000EF90CF90AF908F90089581E08093C1054B
:1042600087E08093C2058DE38093980580E00E94EB
:10427000752008958F92AF92CF92EF92FF920F9395
:10428000CF93DF93CDB7DEB768970FB6F894DEBF54
:104290000FBECDBF982F19821A821B822091640213
:1042A00030916502A90144515F4F1F9288E08F93BE
:1042B00070E4872E64E1A62E80E1C82E7E0108946A
:1042C000E11CF11C02E023513F4F692F88E994E083
:1042D0000E94A21C0F900F9068960FB6F894DEBF54
:1042E0000FBECDBFDF91CF910F91FF90EF90CF9098
:1042F000AF908F90089581E08093C10583E0809313
:10430000C2058FE38093980580E00E943A210895CA
:104310008F92AF92CF92EF92FF920F931F93CF9312
:10432000DF93CDB7DEB7A2970FB6F894DEBF0FBE0E
:10433000CDBF682F1B861C861D861E861F86188A89
:104340008091590A883011F415E001C013E02091E2
:10435000640230916502A90141515F4F1F9288E0CC
:104360008F9300E2802EBCE0AB2EA0E1CA2EFBE0D2
:10437000EF2EF12CEC0EFD1E012F20513F4F8AE84D
:1043800094E00E94A21C8091640290916502412FEA
:10439000609167057091680580519F4F0E94981445
:1043A0000F900F9080916E05813019F440E256E134
:1043B00002C048E256E1E1E0EE2E00E0202F602F3F
:1043C00080E40E94C96DA2960FB6F894DEBF0FBEBE
:1043D000CDBFDF91CF911F910F91FF90EF90CF90C4
:1043E000AF908F90089581E08093C1058091590A24
:1043F000883011F486E001C084E08093C20580E437
:104400008093980580E00E94882108958F92AF9252
:10441000CF92EF92FF920F931F93CF93DF93CDB77D
:10442000DEB768970FB6F894DEBF0FBECDBF682F1A
:1044300019821A821B821C821D821E828091590A57
:10444000883011F415E001C013E02091640230912E
:104450006502A9014B505F4F1F9288E08F93F0E2F5
:104460008F2EECE0AE2E70E1C72E7E010894E11C89
:10447000F11C012F2A503F4F8CE794E00E94A21CB0
:104480008091640290916502412F60916505709161
:1044900066058A509F4F0E94981480916E050F9078
:1044A0000F90823039F491E0E92E00E0202F41E3B3
:1044B00056E106C081E0E82E00E0202F49E356E1F6
:1044C000622F80E40E94C96D68960FB6F894DEBF33
:1044D0000FBECDBFDF91CF911F910F91FF90EF9055
:1044E000CF90AF908F90089581E08093C105809127
:1044F000590A883011F486E001C084E08093C20537
:1045000081E48093980580E00E94062208958F92AE
:10451000AF92CF92EF92FF920F93CF93DF93CDB7ED
:10452000DEB768970FB6F894DEBF0FBECDBF982FE9
:1045300019821A821B821C822091640230916502CA
:10454000A9014F585F4F1F928AE08F9360E3862E38
:104550008DE0A82E00E1C02E7E010894E11CF11C24
:1045600002E02E583F4F692F84E594E00E94A21C80
:104570000F900F9060916405662341F0B1E0EB2E3F
:1045800000E0202F42E456E1602F06C0A1E0EA2EB1
:10459000062F262F4AE456E180E40E94C96D6896F2
:1045A0000FB6F894DEBF0FBECDBFDF91CF910F9154
:1045B000FF90EF90CF90AF908F90089581E080931F
:1045C000C10583E08093C20580E00E9487228AE2D1
:1045D0008093980508958F92AF92CF92EF92FF92B9
:1045E0000F93CF93DF93CDB7DEB768970FB6F894EC
:1045F000DEBF0FBECDBF982F19821A821B821C828C
:104600002091640230916502A90140575F4F1F92CB
:104610008AE08F93A0E38A2EFDE0AF2EE0E1CE2E5C
:104620007E010894E11CF11C01E02F563F4F692FD9
:104630008EE494E00E94A21C0F900F906091690597
:10464000662339F0E02E00E0202F43E556E1602F8D
:1046500006C071E0E72E062F262F4BE556E180E4D9
:104660000E94C96D68960FB6F894DEBF0FBECDBF2D
:10467000DF91CF910F91FF90EF90CF90AF908F90FF
:10468000089581E08093C10582E08093C20580E0B7
:104690000E94EB228FE28093980508958F92AF924B
:1046A000CF92EF92FF920F93CF93DF93CDB7DEB708
:1046B00068970FB6F894DEBF0FBECDBF982F198252
:1046C0001A822091640230916502A90142575F4F1E
:1046D0001F928AE08F9380E3882E0DE0A02EB0E138
:1046E000CB2E7E010894E11CF11C01E021573F4FC5
:1046F000692F84EF93E00E94A21C0F900F906896A0
:104700000FB6F894DEBF0FBECDBFDF91CF910F91F2
:10471000FF90EF90CF90AF908F90089581E08093BD
:10472000C10582E08093C20580E00E944E238EE2A4
:104730008093980508958F92AF92CF92EF92FF9257
:104740000F931F93CF93DF93CDB7DEB768970FB664
:10475000F894DEBF0FBECDBF182F19821A821B82BC
:104760001C821E821F82E0916402F0916502E35771
:10477000FF4F8081ED58F040882321F49F012F578F
:104780003F4F0FC0813021F49F012C573F4F09C08C
:10479000823021F49F0129573F4F03C09F012657C4
:1047A0003F4F612F8091C105853029F4812F8552BB
:1047B000823008F060E0E058FF4F1F928AE08F934C
:1047C00050E3852E4DE0A42E90E1C92E7E01089481
:1047D000E11CF11C03E0AF0188EE93E00E94A21CF3
:1047E0008091C1050F900F90853009F04BC0812F4B
:1047F00081528230F0F41132C1F480916102E82FCD
:10480000FF27EE0FFF1FEE5AFA4F20813181809172
:1048100064029091650280589F4F4EE050E0BC01C9
:10482000C90180589F4F0E9478790E94891C0E947C
:10483000600F1332B1F40E94CE73E0916402F091E4
:104840006502E357FF4F80818F5F8083E0916402B0
:10485000F0916502E357FF4F808184309CF0108215
:1048600011C0143279F40E94CE73E0916402F09189
:104870006502E357FF4F8081882311F483E001C074
:10488000815080838091C105E0916402F0916502BE
:10489000853079F4E357FF4F8081E82FFF27E7FD4C
:1048A000F095EE0FFF1FEA52FC4FEE240E2D21E093
:1048B0000EC0E357FF4F8081E82FFF27E7FDF095FB
:1048C000EE0FFF1FEA52FC4FEE240E2D2E2D4081DD
:1048D000518165E380E40E94C96D80919A05813021
:1048E00031F4EE240E2D2E2D44E656E105C0EE24C3
:1048F0000E2D2E2D4CE656E1622F80E40E94C96DEC
:1049000068960FB6F894DEBF0FBECDBFDF91CF9192
:104910001F910F91FF90EF90CF90AF908F900895DF
:1049200081E08093C10585E08093C20580E00E940C
:104930009B238DE28093980508958F929F92AF926A
:10494000CF92DF92EF92FF920F931F93CF93DF935B
:10495000CDB7DEB725970FB6F894DEBF0FBECDBF3B
:10496000F82E0E9417118F2D8152823008F073C0EB
:1049700081E2F81609F06AC080916102E82FFF27F2
:10498000EE0FFF1FEE5AFA4F0081118141E050E017
:1049900066E67AE0C8010D960E94787941E050E021
:1049A00067E67AE0C8010E960E94787941E050E00F
:1049B00068E67AE0C8010F960E94787941E050E0FD
:1049C00069E67AE0C80140960E94787941E050E0BB
:1049D0006AE67AE0C80141960E94787941E050E0A9
:1049E0006BE67AE0C80142960E94787941E050E097
:1049F0006CE67AE0C80143960E94787941E050E085
:104A00006DE67AE0C80144960E94787941E050E072
:104A10006EE67AE0C80145960E94787941E050E060
:104A20006FE67AE0C80146960E94787941E050E04E
:104A300060E77AE0C80147960E94787941E050E04B
:104A400061E77AE0C80148960E9478790E94891C43
:104A50000E94600F4EC2A3E0AA2EF4E0CF2EEE24F7
:104A600002EE14E025E736E14AE06FE08E2D0E9469
:104A70009B108EE78983EA820FEF2E2DAE014F5FE8
:104A80005F4F6E2D8DE40E94C96D8FE78983EA82A6
:104A90002E2DAE014F5F5F4F6E2D8BE70E94C96DCB
:104AA00080E88983EA822E2DAE014F5F5F4F68E375
:104AB0008DE40E94C96D81E88983EA822E2DAE01C2
:104AC0004F5F5F4F68E38BE70E94C96D8091C1051E
:104AD00099278230910569F1833091051CF4019783
:104AE00029F0D2C0039709F479C0CEC093E0F9163B
:104AF00019F0E3E1FE1661F48091490A8F5F80931B
:104B0000490A84301CF081E08093490A0E94CE73E8
:104B1000F4E0FF1621F084E1F81609F0B5C08091A9
:104B2000490A813011F483E001C081508093490A21
:104B3000A9C08091490A992787FD909582309105F7
:104B4000B9F0833091051CF4019721F02CC0039734
:104B5000E9F029C080919505882329F0E6E68E2E9C
:104B6000EAE09E2E20C077E6872E7AE0972E1BC0C3
:104B700080919405882329F06AE6862E6AE0962EB5
:104B800012C05BE6852E5AE0952E0DC080919305EC
:104B9000882329F04EE6842E4AE0942E04C03FE696
:104BA000832E3AE0932E93E0F91619F0E3E1FE1616
:104BB00041F4F4018081843621F08F5F80830E946C
:104BC000CE73F4E0FF1621F084E1F81609F05CC022
:104BD000F4018081882309F457C052C08091490AAA
:104BE000992787FD909582309105B9F08330910522
:104BF0001CF4019721F02CC00397E9F029C08091A3
:104C00009505882329F028E6822E2AE0922E20C0DE
:104C100099E6892E9AE0992E1BC0809194058823ED
:104C200029F08CE6882E8AE0982E12C00DE6802EA0
:104C30000AE0902E0DC080919305882329F010E79B
:104C4000812E1AE0912E04C0B1E78B2EBAE09B2E84
:104C5000F3E0FF1619F083E1F81641F4F4018081C6
:104C6000843621F08F5F80830E94CE73F4E0FF16BC
:104C700019F084E1F81641F4F40180818C3921F0B7
:104C8000815080830E94CE738091490A813059F40B
:104C900010919505A6E6CA2EAAE0DA2E80918B0522
:104CA00090918C0517C0823059F410919405FAE662
:104CB000CF2EFAE0DF2E8091890590918A050AC0F7
:104CC00010919305EEE6CE2EEAE0DE2E8091870568
:104CD0009091880564E170E00E94237DCB018A59A0
:104CE0009F4F27E330E0AC0167E070E00E94CF6C9B
:104CF000F1E1FF16E9F48091020A8130C9F4809154
:104D0000C105823051F4112321F084E6F60180833D
:104D10000DC084E6F601818309C0833039F4112384
:104D200019F0F601128202C0F60113830E94CE73BD
:104D300020E08091C105813009F4282F8091490A33
:104D4000E82FFF27E7FDF095EE0FFF1FE453FB4F21
:104D500071E0E72E00E04081518169E18DE10E9420
:104D6000C96D8091C105823009F40E2D112319F00F
:104D7000F601408102C0F601418121E063E287E152
:104D80000E94710F82E090E0C80ED91E00E0809171
:104D9000C105833009F401E0112319F0F6014081C7
:104DA00002C0F601418121E06DE287E10E94710FAE
:104DB000F6018081882311F0112331F4F6018181FD
:104DC0008823A9F0112399F4112359F0F601608189
:104DD0008EEF9FEFC80ED91EF60180810E945E7192
:104DE00067C0F601618182910E945E7166C01123E5
:104DF00081F18EEF9FEFC80ED91EF60180819927B1
:104E000087FD9095A92FB92FBC01CD010E943A7C56
:104E1000DC01CB0123E333E343E850E4BC01CD01E3
:104E20000E94D77BDC01CB01BC01CD010E941D7C1F
:104E3000DC01CB01BC0180E290E0861B970B605E39
:104E40007F4F9C014EE750E08EE490E00E94CF6CD3
:104E50002FC00894C108D108F6018081992787FDE9
:104E60009095A92FB92FBC01CD010E943A7CDC019D
:104E7000CB0123E333E343E850E4BC01CD010E94BE
:104E8000D77BDC01CB01BC01CD010E941D7CDC0184
:104E9000CB01BC0180E290E0861B970B605E7F4FE8
:104EA0009C014EE750E08EE490E00E94CF6C05C07C
:104EB000112319F04DE756E102C040E856E161E0E8
:104EC000E62E00E0202F6FE089E10E94C96D27E304
:104ED00030E046E650E067E070E0CA010E94CF6C27
:104EE00020E230E04FE750E0B9018DE490E00E940D
:104EF000CF6C25960FB6F894DEBF0FBECDBFDF9105
:104F0000CF911F910F91FF90EF90DF90CF90AF90D6
:104F10009F908F90089581E08093C10583E08093F6
:104F2000C2058093490A8DE08093980580E00E9435
:104F30009D2408958F929F92AF92CF92DF92EF922D
:104F4000FF920F931F93CF93DF93CDB7DEB72597D3
:104F50000FB6F894DEBF0FBECDBFE82E0E9417112A
:104F60008E2D81528230C8F481E2E81689F4809156
:104F70006102E82FFF27EE0FFF1FEE5AFA4F8081E4
:104F8000918148E050E062E77AE049960E947879A2
:104F90000E94891C0E94600F67C091E1E91669F4C4
:104FA0008091020A813049F48091C105E82FFF27E2
:104FB000EF58F54F10820E94CE738091C105082FE3
:104FC00011270F58154F28E848E76E2DD8018C910E
:104FD0000E94F412F8018083E1E0AE2E78E0C72E43
:104FE000EE2406E513E02AE336E04AE06EE08E2D7B
:104FF0000E949B1062E7862E6AE0962E1E2DEE24FC
:10500000FF24670153E0A52E00E08091C105282F01
:105010003327E12FFF27CF01880F991F880F991F92
:105020008C0D9D1D01962817390709F401E08E2D7E
:10503000825FB6E0EE0FFF1FBA95E1F721E0D401E1
:105040004D914D01682F8E2F885E0E94710FAA949A
:105050000894C11CD11CEAE0F0E0EE0EFF1EA7FE92
:10506000D3CF1F5F123058F225960FB6F894DEBFEB
:105070000FBECDBFDF91CF911F910F91FF90EF90A9
:10508000DF90CF90AF909F908F90089581E08093B4
:10509000C10588E08093C2058EE08093980580E08A
:1050A0000E949A270895AF92CF92EF92FF920F93AA
:1050B0001F93CF93DF93CDB7DEB725970FB6F89444
:1050C000DEBF0FBECDBFF82E1091590A113019F571
:1050D0000E94956EE12E00E0202F44E856E160E248
:1050E00086E00E94C96D0E94D77A8AEF8093AA0554
:1050F0008091AA058030E1F70E94891CE0915F024F
:10510000F09160023197F0936002E0935F0280813A
:105110008093C10597C081528230D0F481E2F816A5
:1051200091F480916102E82FFF27EE0FFF1FEE5AE6
:10513000FA4F8081918143E050E06FEB7AE08A5929
:105140009F4F0E9478790E94891C0E94600F7AC04C
:105150008F2D0E94171181E1F81671F48091020AD7
:10516000813051F48091C105E82FFF27E254F54FBB
:105170008CE380830E94CE73F3E0AF2EC090C20513
:10518000EE2402E812E020E336E04AE06EE084E13B
:105190000E949B108091C10599278230910599F05A
:1051A000833091051CF4019721F020C00397A9F0EA
:1051B0001DC02CE944E66F2D8091BF0A0E94F412B5
:1051C0008093BF0A13C02CE944E66F2D8091C00A7A
:1051D0000E94F4128093C00A09C02CE944E66F2DA6
:1051E0008091C10A0E94F4128093C10A00E080916C
:1051F000C105813009F4082F21E04091BF0A6EE01B
:105200008CE20E94710F00E08091C105823009F4A8
:1052100001E021E04091C00A68E18CE20E94710F38
:105220008091590A8350833068F400E08091C10571
:10523000833009F401E021E04091C10A62E28CE28E
:105240000E94710F25960FB6F894DEBF0FBECDBF3A
:10525000DF91CF911F910F91FF90EF90CF90AF9082
:10526000089581E08093C1058091590A835083306D
:1052700010F483E001C082E08093C2058FE0809348
:10528000980580E00E94532808950F931F93CF93B1
:10529000DF93182F8152823060F5113229F5809109
:1052A0006102E82FFF27EE0FFF1FEE5AFA4F008131
:1052B000118149E050E065EA7AE0C801845B9F4FC4
:1052C0000E94787949E050E068EC7AE0C8018159A1
:1052D0009F4F0E94787949E050E061ED7AE0C80183
:1052E00088589F4F0E9478790E94891C0E94600F05
:1052F00041C08091590A8630B8F480916E05992793
:1053000087FD90958130910549F0823091051CF41C
:10531000892B51F00BC0029721F008C0C8ECDAE0ED
:1053200005C0C1EDDAE002C0C5EADAE040916705E8
:10533000509168056091C30A8091C20A0E94391198
:1053400001E09C01412F68E976E1CE010E948211C3
:1053500080918D0590918E0563E170E00E94237D20
:10536000CB018C599F4F26E330E0AC0162E070E046
:105370000E94CF6CDF91CF911F910F91089581E032
:105380008093C10585E08093C20580E180939805F4
:1053900080E00E94452908950F931F93CF93DF93D8
:1053A000182F80916102E82FFF27EE0FFF1FEE5AA2
:1053B000FA4F0190F081E02D80916905882351F02A
:1053C0008091A30A882331F0C9E1DBE0DF01A0541A
:1053D000BF4F24C080916E05282F332727FD3095BD
:1053E0002130310581F0223031051CF4232B29F0C6
:1053F00015C02230310569F011C0CAEDDAE0DF01D5
:10540000AF57BF4F0BC0C3EEDAE0DF01A657BF4F67
:1054100005C0CCEEDAE0DF01AD56BF4F812F8152DF
:10542000823068F4113231F449E050E0BE01CD0120
:105430000E9478790E94891C0E94600F24C04091CC
:105440006505509166056091C60A8091C50A0E9463
:10545000391101E09C01412F63EA76E1CE010E94FF
:10546000821180918D0590918E0563E170E00E941C
:10547000237DCB018C599F4F26E330E0AC0162E0E5
:1054800070E00E94CF6CDF91CF911F910F91089532
:1054900081E08093C10585E08093C20581E180931E
:1054A000980580E00E94CC290895AF92BF92CF92D8
:1054B000DF92EF92FF920F931F93CF93DF93CDB7BD
:1054C000DEB72A970FB6F894DEBF0FBECDBF182FF8
:1054D0000E941711812F81528230C0F4113289F459
:1054E00080916102E82FFF27EE0FFF1FEE5AFA4F5F
:1054F0008081918144E050E06AE77AE081960E94E1
:1055000078790E94891C0E94600FD1C08091C105EA
:10551000813029F42AE7C22E2AE0D22E12C082302E
:1055200029F49BE7C92E9AE0D92E0BC0833029F4C9
:105530008CE7C82E8AE0D82E04C00DE7C02E0AE002
:10554000D02E113149F48091020A8130C9F4F6015C
:1055500080830E94CE7314C0133011F0133131F4E4
:1055600020E0A60168E281E00E94540E143011F0A0
:10557000143131F421E0A60168E2822F0E94540E1A
:10558000AA24B4E0CB2EEA2C06E513E029E83DE09E
:105590004CE06DE084E10E949B10EE24FF24670143
:1055A0000894C11CD11CF2E0CF16D104A9F023E06D
:1055B000C216D1042CF431E0C316D10451F014C04A
:1055C00083E0C816D10459F0E4E0CE16D10451F0BE
:1055D0000BC0B0907A0A08C0B0907B0A05C0B090AA
:1055E0007C0A02C0B0907D0A00E08091C105992735
:1055F00001978E159F0509F401E08CE090E0E89E8C
:105600009001E99E300DF89E300D1124C901835F91
:1056100022E04B2D682F82E30E94710F32E0C31607
:10562000D104A9F083E0C816D1042CF4E1E0CE1631
:10563000D10451F014C0F3E0CF16D10459F024E0A6
:10564000C216D10451F00BC0B090430A08C0B0900C
:10565000CD0B05C0B090460A02C0B090540B8CE050
:1056600090E0E89EF001E99EF00DF89EF00D112407
:105670001E2F135FA1E0EA2E00E0202F4FEA56E133
:10568000612F84E40E94C96D2E2D4B2D612F8AE479
:105690000E94710F202F41EB56E1612F82E60E949C
:1056A000C96D7601F4E0CF16D1040CF478CF2A96B8
:1056B0000FB6F894DEBF0FBECDBFDF91CF911F9123
:1056C0000F91FF90EF90DF90CF90BF90AF90089533
:1056D00081E08093C10584E08093C20582E18093DC
:1056E000980580E00E94552A0895AF92CF92EF92DC
:1056F0000F931F93CF93DF93C82FAA24A8E0CA2E3D
:10570000F1E0EF2E06E513E026EB3DE04C2D6A2D8F
:1057100080E40E949B108C2F0E9417118C2F8352C3
:10572000E816D8F04091870A242F332727FD3095BB
:105730008091C105E82FFF27E15FFD4FE0818E2FAB
:10574000992728233923232B19F0E0954E2301C0F4
:105750004E2B4093870A0E94CE738C2F8152823049
:10576000C0F4C13289F480916102E82FFF27EE0F67
:10577000FF1FEE5AFA4F8081918141E050E067E8C7
:105780007AE08E960E9478790E94891C0E94600FB0
:1057900091C060E070E08091870A282F332727FDB1
:1057A0003095FB01E05FFD4F808199272823392345
:1057B000AB01E3E0440F551FEA95E1F7EB012196B9
:1057C000232B39F0EE2408E028E168E58CE096E030
:1057D00006C0EE2408E028E168E584EF95E00E9429
:1057E0003A6CBE012897BCF2E091C105E15080916E
:1057F000590A863030F4FF27EE0FFF1FE458FC4FA4
:105800000CC0FF27863029F4EE0FFF1FE45AFC4F2F
:1058100004C0EE0FFF1FE459FC4F4081518161E04D
:10582000E62E00E0202F67E1802F0E94C96D202F17
:1058300043EB56E167E188E10E94C96D402F8091FA
:10584000870A282F332727FD30958091C105E82F3F
:10585000FF27E15FFD4F8081992728233923232BE0
:1058600009F44E2D51E0E52E00E0242F45EB56E1E2
:1058700062E287E00E94C96D402F8091870A282F3D
:10588000332727FD30958091C105E82FFF27E15F81
:10589000FD4F8081992728233923232B09F04E2D92
:1058A00031E0E32E00E0242F49EB56E16CE287E083
:1058B0000E94C96DDF91CF911F910F91EF90CF9012
:1058C000AF90089581E08093C10588E08093C20580
:1058D00083E18093980580E00E94752B08958F9254
:1058E0009F92AF92BF92CF92DF92EF92FF920F936F
:1058F0001F93CF93DF93CDB7DEB72B970FB6F894F6
:10590000DEBF0FBECDBFF82E81528230D0F521E22E
:10591000F21691F580916102E82FFF27EE0FFF1F2D
:10592000EE5AFA4F40E9E42E4AE0F42E008111814C
:1059300038EFC32E3FEFD32ECE0CDF1C27E0822E94
:10594000912C41E050E0B601C8018F960E94787911
:1059500041E050E0B701C801C7960E9478790894E9
:10596000810891080894C11CD11C0F5F1F4F089437
:10597000E11CF11C97FEE5CF0E94891C0E94600F7C
:1059800022C28F2D0E94171183E0F81621F093E1B7
:10599000F91609F059C080918B0590918C0597FDFF
:1059A00005C08091C105813009F43EC02091C10538
:1059B000223039F48091890590918A0597FF34C08F
:1059C00009C0233039F480918D0590918E0597FFA1
:1059D0002BC009C0243039F4809187059091880547
:1059E00097FF22C009C0253039F480918505909138
:1059F000860597FF19C009C0263039F480918305C8
:105A00009091840597FF10C007C0273029F480913A
:105A100081059091820506C0283061F480917F0550
:105A200090918005992334F08091C1059927895779
:105A3000954F04C0822F99278157954F20E0AC01E4
:105A400068E7822F0E94540EE4E0FE1621F0F4E194
:105A5000FF1609F059C080918B0590918C0597FD38
:105A600005C08091C105813009F43EC02091C10577
:105A7000223039F48091890590918A0597FF34C0CE
:105A800009C0233039F480918D0590918E0597FFE0
:105A90002BC009C0243039F4809187059091880586
:105AA00097FF22C009C0253039F480918505909177
:105AB000860597FF19C009C0263039F48091830507
:105AC0009091840597FF10C007C0273029F480917A
:105AD00081059091820506C0283061F480917F0590
