:1000000019C018951895189518951895189518955C
:100010001895189518951895189518951895189578
:100020007FC01895189518951895189518951895D6
:10003000189518958FEF8DBFC0EEE8ED4E2E82E03B
:100040008EBFD2E0F2E05F2EEEEFF1E0A0E0B1E093
:10005000A89584B7082E877F84BF88E1992780936D
:1000600060009093600088278D933197E9F76624AC
:1000700080E084B988E387B98FEF8AB98EE185B9CA
:1000800080E488B980E08BB982E085BD80E084BDE2
:10009000789480916E00816080936E0081E08093FF
:1000A000070182E38093080181E08093090184E1E4
:1000B00080930A0181E0809302018091080180937E
:1000C0000C018091070180930B0180910A018093BC
:1000D0000E018091090180930D010027A3E2B0E099
:1000E0008C9184FB0EF401E040E0041709F014C089
:1000F00089E78BB980E0809301010091010105300F
:1001000010F009F008C098D1A1E0B1E08C918F5FA8
:100110008C9308F4F2CFE1CF51D0DFCFF894FFCF2A
:100120000F921F922F923F924F925F927F92AF92C7
:10013000BF920F931F932F933F934F935F936F93B0
:100140007F938F939F93AF93BF93CF93DF93EF935F
:10015000FF938FB78F93A3E0B1E08BD1A3E0B1E021
:100160000D911C91083057E0150714F009F001C0FB
:1001700009C0A5E0B1E07DD180E090E0A3E0B1E06E
:100180008D939C938F918FBFFF91EF91DF91CF91D2
:10019000BF91AF919F918F917F916F915F914F919F
:1001A0003F912F911F910F91BF90AF907F905F90E3
:1001B0004F903F902F901F900F9018950091020143
:1001C000003009F053C000910E01003081E009F0C9
:1001D00080E08F9300910D01003081E009F080E014
:1001E0009F918923882309F405C081E0809302014F
:1001F0002D9A95C000910E01003081E009F080E059
:100200008F9300910E010F3F81E009F080E09F91F4
:10021000892B882309F403C08BE380930E0180911E
:10022000080180930C018091070180930B010091DC
:1002300005014CE350D1A0E0B1E08C9300910501A1
:100240004CE349D1A1E0B1E00C9300910A01409147
:100250000001041BAEE0B1E00C9300910901409154
:100260000101041BADE0B1E00C932898009102015C
:10027000013009F053C000910C01003081E009F019
:1002800080E08F9300910B01003081E009F080E065
:100290009F918923882309F405C080E0809302019F
:1002A0002D983DC000910C01003081E009F080E004
:1002B0008F9300910C010F3F81E009F080E09F9146
:1002C000892B882309F403C08BE380930C010091F0
:1002D00005014CE300D1A0E0B1E08C930091050151
:1002E0004CE3F9D0A1E0B1E00C93009108014091FA
:1002F0000001041BACE0B1E00C93009107014091B8
:100300000101041BABE0B1E00C9380910A018093E2
:100310000E018091090180930D01289A16C080E09A
:1003200090E0A5E0B1E08D939C93809108018093CB
:100330000C018091070180930B0180910A01809349
:100340000E018091090180930D0101D008958091E3
:100350000B0180930001E2E6F4E0A0E0B1E08C91B3
:100360009927ABE2B0E0B4D05A9A80E080930101C3
:1003700063D000910C014AE0AED0A0E0B1E00C9354
:10038000E2E6F4E0A0E0B1E08C919927ABE2B0E0C6
:100390009FD081E0809301014FD000910C014AE091
:1003A0009AD0A0E0B1E08C93E2E6F4E0A0E0B1E006
:1003B0008C919927ABE2B0E08BD082E08093010171
:1003C0003BD080910D0180930001E2E6F4E0A0E0D3
:1003D000B1E08C919927ABE2B0E07AD05A9A83E0F1
:1003E0008093010129D000910E014AE074D0A0E071
:1003F000B1E00C93E2E6F4E0A0E0B1E08C91992743
:10040000ABE2B0E065D084E08093010115D00091AB
:100410000E014AE060D0A0E0B1E08C93E2E6F4E0A7
:10042000A0E0B1E08C919927ABE2B0E051D085E03B
:100430008093010101D00895ECE6F4E0A1E0B1E081
:100440008C919927A0E0B1E043D00091000146B122
:10045000042B08B982E090E01CD04398449845985A
:100460000895EB28B3BA78DADBA8FBFA1008301845
:100470002028ED91FC91EF5FFF4FFC93EE930895E0
:100480003197F1F70895689462F80895E89462F856
:100490000895EF93FF93EE27E82BE92B31F0E0ED81
:1004A000F7E03197F1F70197D1F7FF91EF910895B8
:1004B000C89531960020089591E005C092E003C0F0
:1004C00094E001C098E0F4DF0D929A95E1F7089569
:1004D000E80FF91FF1CFFF93881BF9E0001FFA9591
:1004E00011F4FF910895881F841B18F4840F8894D9
:0604F000F5CF0894F3CFE4
:00000001FF
