:1000000019C018951895189518951895189518955C
:100010001895189518951895189518951895189578
:10002000A1C01895189518951895189518951895B4
:10003000189518958FEF8DBFC0EEE8ED4E2E82E03B
:100040008EBFD2E0F2E05F2EEEEFF1E0A0E0B1E093
:10005000A89584B7082E877F84BF88E1992780936D
:1000600060009093600088278D933197E9F76624AC
:1000700080E284B98CE387B98FEF8AB98EE185B9C4
:1000800080E488B980E08BB982E085BD80E084BDE2
:10009000789480916E00816080936E0080E0809300
:1000A000070181E38093080184E08093090185E2E0
:1000B00080930A0181E08093020180E08093030134
:1000C0008091080180930C018091070180930B01BE
:1000D00080910A0180930E018091090180930D01A6
:1000E0000027A3E2B0E08C9184FB0EF401E040E035
:1000F000041709F014C089E78BB980E080930101EF
:1001000000910101053010F009F008C036D2A1E0DD
:10011000B1E08C918F5F8C9308F4F2CFE1CF002790
:10012000A3E2B0E08C9183FB0EF401E040E0041701
:1001300009F00EC0F894A3E0B1E08C918F5F8C932E
:1001400000910301073009F003C080E080930301B0
:1001500000910301003009F401C0FACF99D1C0CF5A
:10016000F894FFCF0F921F922F923F924F925F927F
:100170007F92AF92BF920F931F932F933F934F9312
:100180005F936F937F938F939F93AF93BF93CF931F
:10019000DF93EF93FF938FB78F93A5E0B1E00AD27F
:1001A00000910201003081E009F080E08F93A5E02A
:1001B000B1E00D911C91063F5FE0150780E014F05F
:1001C00009F081E09F918923882309F431C080E000
:1001D00090E0A5E0B1E08D939C9380910E01815059
:1001E00080930E01289A429800910E01003081E020
:1001F00009F080E08F9300910D01003081E009F05B
:1002000080E09F918923882309F405C081E08093D1
:1002100002012D9A56C000910E010F3F09F008C04F
:1002200080910D01815080930D018BE380930E012D
:1002300000910201013081E009F080E08F93A5E098
:10024000B1E00D911C91063F5FE0150780E014F0CE
:1002500009F081E09F918923882309F431C080E06F
:1002600090E0A5E0B1E08D939C9380910C018150CA
:1002700080930C012898429A00910C01003081E093
:1002800009F080E08F9300910B01003081E009F0CC
:1002900080E09F918923882309F405C080E0809342
:1002A00002012D980EC000910C010F3F09F008C00B
:1002B00080910B01815080930B018BE380930C01A3
:1002C00010C08091080180930C01809107018093F8
:1002D0000B0180910A0180930E01809109018093A6
:1002E0000D018F918FBFFF91EF91DF91CF91BF9162
:1002F000AF919F918F917F916F915F914F913F91BE
:100300002F911F910F91BF90AF907F905F904F9072
:100310003F902F901F900F90189578940895A3E028
:10032000B1E08C919927E8E9F1E0E80FF91F099411
:10033000AEC005C00EC01AC026C02FC03BC0809101
:1003400007018093000143D0809100018093070151
:100350009EC08AE080930101809108018093000192
:1003600063D0809100018093080191C081E0809367
:100370000101809108018093000156D08091000115
:100380008093080184C080910901809300011FD0EF
:1003900080910001809309017AC08AE08093010175
:1003A00080910A01809300013FD0809100018093E9
:1003B0000A016DC081E08093010180910A01809360
:1003C000000132D08091000180930A0160C00027B3
:1003D000A4E0B1E08C9187FB0EF401E041E004174A
:1003E00009F006C0A0E0B1E08C918F5F8C9305C04E
:1003F000809100018150809300010091000109303B
:1004000080E010F009F081E08F930091000100304E
:1004100081E008F080E09F91892B882309F403C0D4
:1004200080E08093000108950027A4E0B1E08C9162
:1004300087FB0EF401E041E0041709F009C00091C8
:10044000000140910101040FA0E0B1E00C9308C04D
:100450000091000140910101041BA0E0B1E00C9368
:1004600000910001003081E008F080E08F9300915E
:1004700000010B3380E010F009F081E09F91892B9F
:10048000882309F403C080E0809300010895089553
:1004900080910B0180930001E4EAF5E0A0E0B1E077
:1004A0008C919927ABE2B0E0B4D05A9A80E0809367
:1004B000010163D000910C014AE0AED0A0E0B1E0B0
:1004C0000C93E4EAF5E0A0E0B1E08C919927ABE26F
:1004D000B0E09FD081E0809301014FD000910C01EA
:1004E0004AE09AD0A0E0B1E08C93E4EAF5E0A0E025
:1004F000B1E08C919927ABE2B0E08BD082E08093A1
:1005000001013BD080910D0180930001E4EAF5E008
:10051000A0E0B1E08C919927ABE2B0E07AD05A9A92
:1005200083E08093010129D000910E014AE074D04C
:10053000A0E0B1E00C93E4EAF5E0A0E0B1E08C913A
:100540009927ABE2B0E065D084E08093010115D03B
:1005500000910E014AE060D0A0E0B1E08C93E4EAA3
:10056000F5E0A0E0B1E08C919927ABE2B0E051D08A
:1005700085E08093010101D00895EEEAF5E0A1E065
:10058000B1E08C919927A0E0B1E043D00091000147
:1005900046B1042B08B982E090E01CD043984498FF
:1005A00045980895EB28B3BA78DADBA8FBFA10086F
:1005B00030182028ED91FC91EF5FFF4FFC93EE93F4
:1005C00008953197F1F70895689462F80895E894D2
:1005D00062F80895EF93FF93EE27E82BE92B31F0B3
:1005E000E0EDF7E03197F1F70197D1F7FF91EF9147
:1005F0000895C89531960020089591E005C092E0D5
:1006000003C094E001C098E0F4DF0D929A95E1F701
:100610000895E80FF91FF1CFFF93881BF9E0001F41
:10062000FA9511F4FF910895881F841B18F4840F24
:080630008894F5CF0894F3CF84
:00000001FF
