:1000000019C018951895189518951895189518955C
:100010001895189518951895189518951895189578
:1000200021C1189518951895189518951895189533
:10003000189518958FEF8DBFC0EEE8ED4E2E82E03B
:100040008EBFD2E0F2E05F2EEEEFF1E0A0E0B1E093
:10005000A89584B7082E877F84BF88E1992780936D
:1000600060009093600088278D933197E9F76624AC
:1000700080E084B98DE387B98FEF8AB982ED85B9C5
:1000800080E488B980E08BB982E085BD80E084BDE2
:10009000789480916E00816080936E00E1E0F0E0E2
:1000A000A7E0B1E0EAD3E2E0F0E0A8E0B1E0E5D318
:1000B000E3E0F0E0A9E0B1E0E0D3E4E0F0E0AAE0C2
:1000C000B1E0DBD380E0809302018091080180934E
:1000D0000C018091070180930B0180910A018093AC
:1000E0000E018091090180930D010027A3E2B0E089
:1000F0008C9184FB0EF401E040E0041709F028C065
:1001000089E78BB94098882785BD80E080930101FD
:1001100000910101053010F009F00AC02ED3289A91
:10012000429AA1E0B1E08C918F5F8C9308F4F0CFFC
:100130000027A3E2B0E08C9184FB0EF401E041E0E3
:10014000041709F004C02898429882E085BDCDCFFD
:100150000027A3E2B0E08C9186FB0EF401E040E0C2
:10016000041709F01DC08091080180930C01809153
:10017000070180930B0180910A0180930E01809109
:10018000090180930D01A3E0B1E08C918F5F8C9306
:10019000882785BDF89406D340D182E085BD789448
:1001A0000027A3E2B0E08C9181FB0EF401E040E077
:1001B000041781E009F080E08F9300910201003084
:1001C00081E009F080E09F918923882309F417C01A
:1001D00081E080930201409A8091080180930C0194
:1001E0008091070180930B0180910A0180930E0199
:1001F0008091090180930D0188EC90E006D30027DF
:10020000A3E2B0E08C9187FB0EF401E040E004171C
:1002100081E009F080E08F9300910201013081E0DC
:1002200009F080E09F918923882309F417C080E0BA
:100230008093020140988091080180930C01809185
:10024000070180930B0180910A0180930E01809138
:10025000090180930D0188EC90E0D7D219D245CFE7
:10026000F894FFCF0F921F922F923F924F925F927E
:100270007F92AF92BF920F931F932F933F934F9311
:100280005F936F937F938F939F93AF93BF93CF931E
:10029000DF93EF93FF938FB78F93A5E0B1E0A5D2E3
:1002A00000910201003081E009F080E08F93A5E029
:1002B000B1E00D911C91063F5FE0150780E014F05E
:1002C00009F081E09F918923882309F431C080E0FF
:1002D00090E0A5E0B1E08D939C9380910E01815058
:1002E00080930E01289A429800910E01003081E01F
:1002F00009F080E08F9300910D01003081E009F05A
:1003000080E09F918923882309F405C081E08093D0
:100310000201409A56C000910E010F3F09F008C03B
:1003200080910D01815080930D018BE380930E012C
:1003300000910201013081E009F080E08F93A5E097
:10034000B1E00D911C91063F5FE0150780E014F0CD
:1003500009F081E09F918923882309F431C080E06E
:1003600090E0A5E0B1E08D939C9380910C018150C9
:1003700080930C012898429A00910C01003081E092
:1003800009F080E08F9300910B01003081E009F0CB
:1003900080E09F918923882309F405C080E0809341
:1003A000020140980EC000910C010F3F09F008C0F7
:1003B00080910B01815080930B018BE380930C01A2
:1003C00010C08091080180930C01809107018093F7
:1003D0000B0180910A0180930E01809109018093A5
:1003E0000D018F918FBFFF91EF91DF91CF91BF9161
:1003F000AF919F918F917F916F915F914F913F91BD
:100400002F911F910F91BF90AF907F905F904F9071
:100410003F902F901F900F9018950091030100308E
:1004200010F009F001C07AC00027A3E2B0E08C917F
:1004300086FB0EF401E040E0041709F042C0289862
:1004400042988AEF90E0E1D1289A429A84E690E0BF
:10045000DCD1A3E0B1E08C918F5F8C93289A429A13
:1004600000910301073009F02CC080E08093030164
:1004700080910C018093080180910B01809307010A
:1004800080910E0180930A0180910D0180930901F2
:10049000E1E0F0E0A7E0B1E07BE7DED1E2E0F0E010
:1004A000A8E0B1E07BE7D8D1E4E0F0E0AAE0B1E079
:1004B0007BE7D2D1E3E0F0E0A9E0B1E07BE7CCD18B
:1004C00071D1882785BD40980027A3E2B0E08C91C8
:1004D00081FB0EF401E040E0041709F009C08091AF
:1004E00004018068809304011AD088EC90E08DD1DB
:1004F0000027A3E2B0E08C9187FB0EF401E040E01E
:10050000041709F009C0809104018F7780930401DA
:1005100006D088EC90E079D1BBD07FCF0895A3E0DE
:10052000B1E08C919927E8E9F2E0E80FF91F09940E
:10053000AEC005C00EC01AC026C02FC03BC08091FF
:100540000B018093000143D08091000180930B0147
:100550009EC08AE08093010180910C01809300018C
:1005600063D08091000180930C0191C081E0809361
:10057000010180910C018093000156D0809100010F
:1005800080930C0184C080910D01809300011FD0E5
:100590008091000180930D017AC08AE0809301016F
:1005A00080910E01809300013FD0809100018093E3
:1005B0000E016DC081E08093010180910E01809356
:1005C000000132D08091000180930E0160C00027AD
:1005D000A4E0B1E08C9187FB0EF401E041E0041748
:1005E00009F006C0A0E0B1E08C918F5F8C9305C04C
:1005F0008091000181508093000100910001093039
:1006000080E010F009F081E08F930091000100304C
:1006100081E008F080E09F91892B882309F403C0D2
:1006200080E08093000108950027A4E0B1E08C9160
:1006300087FB0EF401E041E0041709F009C00091C6
:10064000000140910101040FA0E0B1E00C9308C04B
:100650000091000140910101041BA0E0B1E00C9366
:1006600000910001003081E008F080E08F9300915C
:1006700000010B3380E010F009F081E09F91892B9D
:10068000882309F403C080E0809300010895089551
:1006900080910B0180930001EAEDF7E0A0E0B1E06A
:1006A0008C919927ABE2B0E0CFD05A9A80E080934A
:1006B000010163D000910C014AE0E9D0A0E0B1E073
:1006C0000C93EAEDF7E0A0E0B1E08C919927ABE262
:1006D000B0E0BAD081E0809301014FD000910C01CD
:1006E0004AE0D5D0A0E0B1E08C93EAEDF7E0A0E0DD
:1006F000B1E08C919927ABE2B0E0A6D082E0809384
:1007000001013BD080910D0180930001EAEDF7E0FB
:10071000A0E0B1E08C919927ABE2B0E095D05A9A75
:1007200083E08093010129D000910E014AE0AFD00F
:10073000A0E0B1E00C93EAEDF7E0A0E0B1E08C912D
:100740009927ABE2B0E080D084E08093010115D01E
:1007500000910E014AE09BD0A0E0B1E08C93EAED5D
:10076000F7E0A0E0B1E08C919927ABE2B0E06CD06B
:1007700085E08093010101D00895E4EEF7E0A1E067
:10078000B1E08C919927A0E0B1E05ED0009100012A
:1007900046B1042B08B982E090E037D043984498E2
:1007A0004598089580E08093000100910001033096
:1007B00010F009F011C02898429884E690E025D006
:1007C000289A429A8EE690E020D0A0E0B1E08C9189
:1007D0008F5F8C9308F4E9CF0895EB28B3BA78DAE9
:1007E000DBA8FBFA100830182028ED91FC91EF5F90
:1007F000FF4FFC93EE9308953197F1F708956894B5
:1008000062F80895E89462F80895EF93FF93EE2755
:10081000E82BE92B31F0E0EDF7E03197F1F70197A4
:10082000D1F7FF91EF910895C89531960020089572
:1008300091E005C092E003C094E001C098E0F4DFCD
:100840000D929A95E1F70895E80FF91FF1CFF99904
:10085000FECFE1BD3196089591E001C092E07B3773
:1008600051F47FB7F894F3DF8D9180BDFA9AF99A2D
:100870009A95C9F77FBF7727089591E001C092E06C
:10088000E6DFF89A80B58D939A95D1F70895FF9396
:10089000881BF9E0001FFA9511F4FF910895881F55
:0E08A000841B18F4840F8894F5CF0894F3CFCE
:00000001FF
