:1000000012C027C4A7C31895189518951895189568
:1000100018958CC4189518951895189518951895D5
:100020001895189518958FE58DBFC0E4E8E34E2E1E
:1000300084E08EBFD4E0F4E05F2EEEEFF3E0A0E6C4
:10004000B0E0A89584B7082E877F84BF88E1992700
:1000500081BD91BD88278D933197E9F766248FEF95
:1000600087BB80E384BB81E281BB81E088BB80E405
:1000700085BB8EE182BBAFE6B0E00D911C9148EEEE
:1000800053E037D8AEE8B0E04D935C9380918E009A
:1000900080938D00EAE3F6E0ADE8B0E08C9199271B
:1000A000A3E6B0E022DA80D480E080936400A1D49B
:1000B000B1D4AFE6B0E00D911C9148EE53E019D8F1
:1000C000AEE8B0E00D931C93AEE8B0E00D911C914A
:1000D00044E650E00ED8AEE8B0E04D935C938091DA
:1000E0008E0080938D00E0E3F6E0ADE8B0E08C9107
:1000F0009927A3E6B0E0F9D957D481E08093640052
:1001000078D488D4AFE6B0E00D911C9144E650E07D
:10011000F0D7AEE8B0E00D931C93AEE8B0E00D91DF
:100120001C914AE050E0E5D7AEE8B0E04D935C9317
:1001300080918E0080938D00E0E3F6E0ADE8B0E0C2
:100140008C919927A3E6B0E0D0D92ED482E0809399
:1001500064004FD45FD4AFE6B0E00D911C914AE04B
:1001600050E0C7D7AEE8B0E00D931C9380918E00AD
:1001700080938D00E0E3F6E0ADE8B0E08C91992744
:10018000A3E6B0E0B2D910D483E08093640031D408
:1001900041D4A9E6B0E00D911C9144E650E0A9D706
:1001A000AEE8B0E04D935C9380918E0080938D001B
:1001B000E0E3F6E0ADE8B0E08C919927A3E6B0E08B
:1001C00094D9F2D385E08093640013D423D4A9E6B4
:1001D000B0E00D911C9144E650E08BD7AEE8B0E062
:1001E0000D931C93AEE8B0E00D911C914AE050E0F5
:1001F00080D7AEE8B0E04D935C9380918E00809301
:100200008D00EAE3F6E0ADE8B0E08C919927A3E633
:10021000B0E06BD9C9D386E080936400EAD3FAD307
:10022000A9E6B0E00D911C914AE050E062D7AEE83B
:10023000B0E00D931C9380918E0080938D00E0E3DD
:10024000F6E0ADE8B0E08C919927A3E6B0E04DD997
:10025000ABD387E080936400CCD3DCD308950091C6
:100260008700013009F004C082E080938D0026C031
:10027000023009F004C086E080938D001FC0033077
:1002800009F004C08EE080938D0018C0043009F09E
:1002900004C08EE180938D0011C0053009F004C0C8
:1002A0008EE380938D000AC0063009F004C08EEB07
:1002B00080938D0003C084E980938D0080918D0030
:1002C0008093630071D388E08093640092D3A2D3BB
:1002D00080E08093630000916000003009F006C068
:1002E000A3E6B0E08C918F5F8C9315C00091600005
:1002F000013009F006C0A3E6B0E08C91805F8C93DA
:100300000AC000916000023009F005C0A3E6B0E029
:100310008C918C5F8C930027A8E8B0E08C9186FBD1
:100320000EF401E041E0041709F005C0A3E6B0E0D7
:100330008C9180588C930027A8E8B0E08C9187FBC3
:100340000EF401E041E0041709F005C0A3E6B0E0B7
:100350008C91805E8C9328D389E08093640049D38C
:1003600059D30895ADE6B0E00D911C9148EE53E0ED
:10037000C0D6AEE8B0E04D935C9380918E00809340
:100380008D00EAE3F6E0ADE8B0E08C919927A3E6B2
:10039000B0E0ABD809D380E0809364002AD33AD38D
:1003A000ADE6B0E00D911C9148EE53E0A2D6AEE868
:1003B000B0E00D931C93AEE8B0E00D911C9144E6C3
:1003C00050E097D6AEE8B0E04D935C9380918E00FC
:1003D00080938D00E0E3F6E0ADE8B0E08C919927E2
:1003E000A3E6B0E082D8E0D281E08093640001D33C
:1003F00011D3ADE6B0E00D911C9144E650E079D602
:10040000AEE8B0E00D931C93AEE8B0E00D911C9106
:100410004AE050E06ED6AEE8B0E04D935C93809138
:100420008E0080938D00E0E3F6E0ADE8B0E08C91C3
:100430009927A3E6B0E059D8B7D282E08093640050
:10044000D8D2E8D2ADE6B0E00D911C914AE050E080
:1004500050D6AEE8B0E00D931C9380918E0080934F
:100460008D00E0E3F6E0ADE8B0E08C919927A3E6DB
:10047000B0E03BD899D283E080936400BAD2CAD26C
:1004800087E98093630090D284E080936400B1D2C6
:10049000C1D284E08093630087D285E080936400BA
:1004A000A8D2B8D284E0809363007ED286E08093A5
:1004B00064009FD2AFD284EF8093630075D287E04F
:1004C0008093640096D2A6D20895ABE6B0E00D9179
:1004D0001C9148EE53E00DD6AEE8B0E04D935C932E
:1004E00080918E0080938D00EAE3F6E0ADE8B0E005
:1004F0008C919927A3E6B0E0F8D756D280E080939C
:10050000640077D287D2ABE6B0E00D911C9148EE43
:1005100053E0EFD5AEE8B0E00D931C93AEE8B0E049
:100520000D911C9144E650E0E4D5AEE8B0E04D9367
:100530005C9380918E0080938D00E0E3F6E0ADE85F
:10054000B0E08C919927A3E6B0E0CFD72DD281E01F
:10055000809364004ED25ED2ABE6B0E00D911C9168
:1005600044E650E0C6D5AEE8B0E00D931C93AEE88B
:10057000B0E00D911C914AE050E0BBD5AEE8B0E090
:100580004D935C9380918E0080938D00E0E3F6E0C4
:10059000ADE8B0E08C919927A3E6B0E0A6D704D2ED
:1005A00082E08093640025D235D2ABE6B0E00D91B5
:1005B0001C914AE050E09DD5AEE8B0E00D931C934D
:1005C00080918E0080938D00E0E3F6E0ADE8B0E02E
:1005D0008C919927A3E6B0E088D7E6D183E0809399
:1005E000640007D217D287E980936300DDD184E0ED
:1005F00080936400FED10ED284E080936300D4D156
:1006000085E080936400F5D105D281E18093630099
:10061000CBD186E080936400ECD1FCD187E6809357
:100620006300C2D187E080936400E3D1F3D10895E1
:10063000D7116775B1F4F651F7F5DF196F7DB9FC85
:10064000FE59FFFD116151A1C18141E10121C09A13
:1006500081E08093610083E08093870080E090E0F8
:10066000A9E8B0E08D939C9380E090E0ABE8B0E027
:100670008D939C93959885B78C7F826085BF85B755
:10068000837F886085BF87E886B980E087B983E08B
:1006900083BFB99ABA9A83EA8FBD81E88EBDBB9AAF
:1006A00087E685BD83E083BF81E88EBD87E685BD93
:1006B000379A8BB780648BBF8BB780688BBF89B745
:1006C000816089BF7894BAD3809188008F7B8093B2
:1006D0008800809188008F77809388000027A0E3AE
:1006E000B0E08C9181FB0EF401E040E0041709F0CA
:1006F0001CC00027A0E3B0E08C9181FB0EF401E068
:1007000040E0041709F001C0F4CFA1E6B0E08C91FD
:100710008F5F8C9382E390E00FD5009161000330EE
:1007200009F003C080E08093610079D1E6EAF3E04C
:10073000EF93FF93E3EAF3E0A1E6B0E08C91992711
:10074000E80FF91F099497CC0DCEBFCE88DD76D384
:1007500027D3C4CF0F921F922F923F924F925F9256
:100760007F92AF92BF920F931F932F933F934F931C
:100770005F936F937F938F939F93AF93BF93CF9329
:10078000DF93EF93FF938FB78F93EF93FF93E4EE95
:10079000F3E0C9D4FF91EF910027A0E3B0E08C9182
:1007A00084FB0EF401E040E0041709F01AC0A8E44D
:1007B000B0E00D911C91043050E0150708F410C012
:1007C000A8E4B0E00D911C9144E050E0041B150B2F
:1007D000A0E1B0E08D919C919093490080934800F6
:1007E0001AC0A8E4B0E00D911C910B3F53E015072F
:1007F00010F009F010C0A8E4B0E00D911C9144E0A5
:1008000050E0040F151FA0E1B0E08D919C919093F2
:1008100049008093480080E88ABF8F918FBFFF9185
:10082000EF91DF91CF91BF91AF919F918F917F9188
:100830006F915F914F913F912F911F910F91BF90B9
:10084000AF907F905F904F903F902F901F900F90B0
:1008500018950F921F922F923F924F925F927F9224
:10086000AF92BF920F931F932F933F934F935F933A
:100870006F937F938F939F93AF93BF93CF93DF93A8
:10088000EF93FF938FB78F93A0E6B0E08C918F5FCB
:100890008C9300916000033009F003C080E08093E6
:1008A0006000A8E8B0E08C9187FB882780F98095EC
:1008B00080FBA8E8B0E08C9187F98C93A7E8B0E0C2
:1008C0008C918F5F8C9300918700073009F003C0F3
:1008D00081E080938700A8E8B0E08C9186FB8827B0
:1008E00080F9809580FBA8E8B0E08C9186F98C9324
:1008F00080E48ABF8F918FBFFF91EF91DF91CF91FD
:10090000BF91AF919F918F917F916F915F914F9127
:100910003F912F911F910F91BF90AF907F905F906B
:100920004F903F902F901F900F9018950F921F920D
:100930002F923F924F925F927F92AF92BF920F930E
:100940001F932F933F934F935F936F937F938F9357
:100950009F93AF93BF93CF93DF93EF93FF938FB7A3
:100960008F93EF93FF93ECE8F1E0DDD3FF91EF91EC
:100970008F918FBFFF91EF91DF91CF91BF91AF9199
:100980009F918F917F916F915F914F913F912F91A7
:100990001F910F91BF90AF907F905F904F903F90CD
:1009A0002F901F900F901895A49A889A9098A3E67C
:1009B000B0E0119698E08E91983018F4392F99276D
:1009C00002C038E09850881FAC9808F4AC9A000038
:1009D0000000909A000000009098000000003A95F6
:1009E00091F7992341F785E0E1E0F0E0A5E38AD5AE
:1009F0000895E4E4F6E0A4E6B0E08C919927A8E33A
:100A0000B0E073D5EF93FF93E4EEF3E08CD3FF9166
:100A1000EF910895C49AC59AC69AC79A0895ABE80B
:100A2000B0E03DD3ABE8B0E00D911C91053150E052
:100A3000150709F0FBC0E4E2F5E12CD5E3E7F0E0AF
:100A4000D1D396D4EDE0F0E0A3E7B0E065D5E8E2DD
:100A5000F5E120D5E3E7F0E0C5D3CAD4EDE0F0E05E
:100A6000A3E7B0E059D5E3E7F0E07ED3A9E6B0E034
:100A7000DD92EC92ECE2F5E10DD5EBE7F0E0B2D3DC
:100A800077D4EDE0F0E0ABE7B0E046D5E0E3F5E1A8
:100A900001D5EBE7F0E0A6D39CD4EDE0F0E0ABE7C6
:100AA000B0E03AD5EBE7F0E09DD3E4E3F5E1F2D432
:100AB000FAD408F007C080E090E0ADE6B0E08D9396
:100AC0009C9307C0EBE7F0E04FD3ADE6B0E0DD92DA
:100AD000EC92E8E3F5E1DED4E7E7F0E083D348D435
:100AE000EDE0F0E0A7E7B0E017D5ECE3F5E1D2D414
:100AF000E7E7F0E077D36DD4EDE0F0E0A7E7B0E012
:100B00000BD5E7E7F0E06ED3E4E3F5E1C3D4CBD453
:100B100008F007C080E090E0ABE6B0E08D939C93D6
:100B200007C0E7E7F0E020D3ABE6B0E0DD92EC925F
:100B3000E0E4F5E1AFD4EFE7F0E054D319D4EDE011
:100B4000F0E0AFE7B0E0E8D4E4E4F5E1A3D4EFE708
:100B5000F0E048D33ED4EDE0F0E0AFE7B0E0DCD425
:100B6000EFE7F0E03FD3E4E3F5E194D49CD408F060
:100B700007C080E090E0AFE6B0E08D939C9307C0A3
:100B8000EFE7F0E0F1D2AFE6B0E0DD92EC92E8E41E
:100B9000F5E180D4E3E8F0E025D3EAD3EDE0F0E03E
:100BA000A3E8B0E0B9D4ECE4F5E174D4E3E8F0E014
:100BB00019D30FD4EDE0F0E0A3E8B0E0ADD4E3E862
:100BC000F0E010D3E4E3F5E165D46DD408F007C09C
:100BD00080E090E0A1E7B0E08D939C9307C0E3E84C
:100BE000F0E0C2D2A1E7B0E0DD92EC9280E090E0CC
:100BF000ABE8B0E08D939C93A3E8B0E0E0E5F5E1CD
:100C00006CD4AFE7B0E0E0E5F5E167D4A7E7B0E08A
:100C1000E0E5F5E162D4ABE7B0E0E0E5F5E15DD415
:100C2000A3E7B0E0E0E5F5E158D4B9C007B1007F33
:100C3000076007B990D2AEE8B0E08D939C93E4E5ED
:100C4000F5E128D4EEE8F0E0D190E080FF24002721
:100C5000EDD238D3EDE0F0E0A5E6B0E05DD4E5E616
:100C6000F0E0C5D2E3E7F0E0BDD2C2D3EDE0F0E0C2
:100C7000A3E7B0E051D407B1007F016007B96BD2A0
:100C8000AEE8B0E08D939C93E4E5F5E103D4EEE8A3
:100C9000F0E0D190E080FF240027C8D213D3EDE02C
:100CA000F0E0A5E6B0E038D4E5E6F0E0A0D2EBE76E
:100CB000F0E098D29DD3EDE0F0E0ABE7B0E02CD4CB
:100CC00007B1007F026007B946D2AEE8B0E08D936D
:100CD0009C93E4E5F5E1DED3EEE8F0E0D190E0802E
:100CE000FF240027A3D2EED2EDE0F0E0A5E6B0E0CD
:100CF00013D4E5E6F0E07BD2E7E7F0E073D278D3F7
:100D0000EDE0F0E0A7E7B0E007D407B1007F0060B6
:100D100007B921D2AEE8B0E08D939C93E4E5F5E10C
:100D2000B9D3EEE8F0E0D190E080FF2400277ED236
:100D3000C9D2EDE0F0E0A5E6B0E0EED3E5E6F0E004
:100D400056D2EFE7F0E04ED253D3EDE0F0E0AFE75C
:100D5000B0E0E2D307B1007F066007B9FCD1AEE88E
:100D6000B0E08D939C93E4E5F5E194D3EEE8F0E0F8
:100D7000D190E080FF24002759D2A4D2EDE0F0E02A
:100D8000A5E6B0E0C9D3E5E6F0E031D2E3E8F0E073
:100D900029D22ED3EDE0F0E0A3E8B0E0BDD3089572
:100DA00080E090E0A0E9B0E08D939C93A49A889AAB
:100DB0009098A0E9B0E0129690E18E91983018F4E6
:100DC000392F992702C038E09850881FAC9808F452
:100DD000AC9A00000000909A00000000909800007B
:100DE00000003A9591F7992341F785E0E1E0F0E0C2
:100DF000A5E388D38FE087BB81EF88BB0027A6E3FC
:100E0000B0E08C9184FB0EF401E040E0041709F09F
:100E100003C082E0809387000027A6E3B0E08C91B6
:100E200087FB0EF401E040E0041709F003C084E002
:100E3000809387008FEF87BBEDDD0895A9E8B0E0D0
:100E40002ED1A9E8B0E00D911C91083E53E01507A2
:100E500009F024C107B1007F036007B97CD1AEE877
:100E6000B0E08D939C93AEE8B0E08D919C91A0E9A9
:100E7000B0E08D939C93AEE8B0E00D911C910030F2
:100E800050E0150781E008F480E08F93AEE8B0E011
:100E90000D911C91063D51E0150781E010F009F01D
:100EA00080E09F918923882309F403C080E083BDFB
:100EB000EFC0AEE8B0E00D911C91073D51E0150781
:100EC00081E008F480E08F93AEE8B0E00D911C91D2
:100ED000043E51E0150781E010F009F080E09F9199
:100EE0008923882309F403C08CE383BDD1C0AEE815
:100EF000B0E00D911C91053E51E0150781E008F42A
:100F000080E08F93AEE8B0E00D911C91033F51E07B
:100F1000150781E010F009F080E09F918923882374
:100F200009F403C084E683BDB3C0AEE8B0E00D9120
:100F30001C91043F51E0150781E008F480E08F9395
:100F4000AEE8B0E00D911C91073052E0150781E04A
:100F500010F009F080E09F918923882309F403C0F1
:100F600088E783BD95C0AEE8B0E00D911C910830D4
:100F700052E0150781E008F480E08F93AEE8B0E01E
:100F80000D911C910B3152E0150781E010F009F032
:100F900080E09F918923882309F403C086E983BDFB
:100FA00077C0AEE8B0E00D911C910C3152E015070E
:100FB00081E008F480E08F93AEE8B0E00D911C91E1
:100FC0000F3252E0150781E010F009F080E09F91A8
:100FD0008923882309F403C08AEA83BD59C0AEE897
:100FE000B0E00D911C91003352E0150781E008F448
:100FF00080E08F93AEE8B0E00D911C91033452E095
:10100000150781E010F009F080E09F918923882383
:1010100009F403C088EC83BD3BC0AEE8B0E00D919D
:101020001C91043452E0150781E008F480E08F93AE
:10103000AEE8B0E00D911C91063552E0150781E055
:1010400010F009F080E09F918923882309F403C000
:101050008CED83BD1DC0AEE8B0E00D911C9108354C
:1010600052E0150781E008F480E08F93AEE8B0E02D
:101070000D911C910F3F53E0150781E010F009F02E
:1010800080E09F918923882309F402C08FEF83BDFC
:1010900080E090E0A9E8B0E08D939C930895ED91F5
:1010A000FC91EF5FFF4FFC93EE93089500FC10D08E
:1010B000089503D01ED001F8F9CF0024E89457FF1B
:1010C00002C009D0689400F80BD010F801240895EC
:1010D00002D009D00895509540954F5F5F4F089515
:1010E000E89417FF0895009510950F5F1F4F6894BF
:1010F0000895352F242FE894452B11F46894089512
:10110000512F402F0027112780E1440F551F001F4A
:10111000111F021B130B416018F4020F131F4E7FA7
:101120008A9599F708953197F1F70895689462F8D0
:101130000895E89462F80895EF93FF93EE27E82B63
:10114000E92B31F0E0EDF7E03197F1F70197D1F7B6
:10115000FF91EF910895369A3699FECF369A3699D7
:10116000FECF84B195B108953DD0992711278F2DD9
:10117000880F80E8F82A802F881F08F41FEF41F0BD
:101180008F57082F07FD04C0003240F08FEF01C0D9
:101190008827982FD82EE82EF82E09C08FE1801BC3
:1011A000082FF694E794D79497950A95D1F71123D1
:1011B00051F09095D094E094F09481E0980F8827B6
:1011C000D81EE81EF81E0F2DFE2CED2CD92E0895EA
:1011D000D094E094F09491E0D90E9927E91EF91E7D
:1011E00010950895D190E190F19001910895219189
:1011F0003191419151910895102F90E8FF0C001FFB
:101200000927990FF7941078652F90E8440F551F20
:101210005927990F4795607800380895FF0C90E89A
:101220009027110F9795F794092F0895102FBD2C33
:10123000DE2CEF2CF02E11234AF4B094D094E094DD
:10124000F0949FEFB91AD90AE90AF90A0EE1FF20D2
:1012500039F4FE2CED2CDB2CBB240850C2F766C001
:1012600032F00A95BB0CDD1CEE1CFF1CF9CF01D03F
:10127000D5CFB7FE089590E8B91611F4D0FE0895C1
:101280009FEFD91AE90AF90A09F403950895502F36
:101290002D2D3E2D4F2D612F08952DEC3CEC4CEC67
:1012A0005DE366270FC09EDFF2DFDD24EE2490E8C9
:1012B000F92E0FE307C09BDF05C02227332740E24A
:1012C00051E46627552351F1002381F195DF71F137
:1012D0001627005850580894050B18F407FD03C052
:1012E00025C007FD23C0469537952795F694E794CA
:1012F000D79422D0FF202AF0DD0CEE1CFF1C0150F9
:1013000073F09D2D969548F0DD203AF4EE202AF4F6
:1013100091E0D90E9927E91EF91E80CF07C09FE7FB
:10132000092FF92A9FEFD92EE92E0895DD24EE2406
:10133000FF240027112708959F929924AA24BB24F3
:1013400088E1D216E306F40628F0D21AE30AF40A7A
:10135000089401C08894991CAA1CBB1CDD0CEE1CCF
:10136000FF1C8A9571F7D92CEA2CFB2C9F900895CD
:1013700043DFE1F25038D1F2162700585058089454
:10138000051F12F418F4CBCF08F0D0CF0AD0FF20FD
:101390002AF0BB0CDD1CEE1CFF1C40CF0F5FFBF1E5
:1013A0003DCF9F929924AA24BB24992788E1990CC8
:1013B000AA1CBB1CDD1CEE1CFF1C30F4920EA31EED
:1013C000B41ED91EE91EF91E8A9589F79F900895CB
:1013D0000EDF12DF503829F090E869270CC00AF0C0
:1013E00045D01CCF5FE322273327442701C0FFDE0F
:1013F00003DF5038B1F3003899F3902F951B8BF32E
:1014000012F434D0FACF983118F02227332744272A
:10141000983028F0232F342F44279850F9CF992360
:1014200029F04695379527959A95D9F7912F9627C4
:1014300042F014D0B0F6F794E794D7940F5F8BF690
:101440006ECF10D051F008F4C3DEFF2052F2DD0C55
:10145000EE1CFF1C0150CBF762CF68CFD20EE31E0B
:10146000F41E0895D21AE30AF40A0895DF92EF9267
:10147000FF920F931F93D22EE32EF42E052F162FDB
:101480006F915F914F913F912F910895C89531963B
:1014900000200895FBDF202DF9DF302DF7DF402DF0
:1014A000F5DF502D089507FB00680EF40F7757FB0A
:1014B00050680EF45F7707FD02C057FF05C0D216D3
:1014C000E306F406050708952D153E054F05500760
:1014D000089591E005C092E003C094E001C098E057
:1014E000D5DF0D929A95E1F70895E80FF91FF1CF36
:1014F00091E0882321F08894991F8A95E9F7892F34
:1015000090950895BB27F4DF9C9198279C93319781
:10151000F1F798279C93089594E081918D939A9583
:10152000E1F708959FCD8A3E2506A93F46940A40DB
:1015300025B54B420000803F40A407408E350A424B
:1015400036CD6B3F4CA63741687915416ADE38438A
:08155000000000000000A041B2
:00000001FF
