:020000040800F2
:10000000440C0020410900089D0900089D090008D2
:100010009D0900089D0900089D09000800000000D6
:100020000000000000000000000000009D09000822
:100030009D090008000000009D090008950A0008BD
:100040009D0900089D0900089D0900089D090008F8
:100050009D0900089D0900089D0900089D090008E8
:100060009D0900089D0900089D0900089D090008D8
:100070009D0900089D0900089D0900089D090008C8
:100080009D0900089D0900089D0900089D090008B8
:100090009D0900089D0900089D0900089D090008A8
:1000A0009D0900089D0900089D0900089D09000898
:1000B0009D090008850F00089D0900089D0900089A
:1000C0009D0900089D0900089D0900089D09000878
:1000D0009D0900089D0900089D0900089D09000868
:1000E0009D0900089D0900089D0900089D09000858
:1000F0009D0900089D0900089D0900089D09000848
:100100009D0900089D0900089D0900089D09000837
:100110009D0900089D0900089D0900089D09000827
:100120009D0900089D0900089D0900089D09000817
:100130009D0900089D0900089D0900089D09000807
:100140009D0900089D0900089D0900089D090008F7
:100150009D0900089D0900089D0900089D090008E7
:100160009D0900089D0900089D0900089D090008D7
:100170009D0900089D0900089D0900089D090008C7
:100180009D0900089D09000880B582B000AF0346B4
:10019000FB7100BF0748022101F02AFB0346002B38
:1001A000F8D0FB799BB20348194601F013FB0837DE
:1001B000BD4680BD0038004080B582B000AF214B05
:1001C00000221A60204B00221A604020FFF7DCFF5B
:1001D0008020FFF7D9FF00BF1C4B1B899BB203F0A7
:1001E0008003002BF8D1184B01221A600023FB7109
:1001F00016E00023BB710DE0FB79662202FB03F2DF
:10020000BB791344124AD35C1846FFF7BDFFBB7994
:100210000133BB71BB79652BEED9FB790133FB71DF
:10022000FB79072BE5D900BF0848802101F0E0FAEF
:100230000346012BF8D0034B01221A600837BD4654
:1002400080BD00BFA8824042B082404200380040DA
:100250004C00002080B483B000AF0023BB7114E0D9
:100260000023FB710BE0BB79662202FB03F2FB79F2
:1002700013440A4A0021D154FB790133FB71FB7905
:10028000652BF0D9BB790133BB71BB79072BE7D95B
:100290000C37BD465DF8047B704700BF4C00002062
:1002A00080B588B000AF0220012100F0CDFF4FF4EF
:1002B0008040012100F0E6FF3F480D21052201F0BA
:1002C000FFF83D480F21052201F0FAF84FF42043D2
:1002D000BB6102233B7703237B770023BB7701239A
:1002E000FB7707F118033448194601F025F8334825
:1002F00001F0D2F94FF48273FB804FF44043BB808E
:1003000000233B8100237B810023BB814FF40073DA
:10031000FB8108233B8200237B823B1D2748194633
:1003200001F0F4F92548012101F034FA4FF4A84313
:10033000BB6101233B770023BB770123FB770323BA
:100340007B7707F118031C48194600F0F5FF1C4B9A
:1003500000221A601B4B00221A601B4B00221A60FD
:10036000012000F0E3FB184B01221A60022000F08C
:10037000DDFB2120FFF708FF0820FFF705FFE02045
:10038000FFF702FF1620FFF7FFFE0620FFF7FCFE37
:100390002020FFF7F9FE0C20FFF7F6FE00BF074B09
:1003A0001B899BB203F08003002BF8D1044B012280
:1003B0001A602037BD4680BD00040240003800406E
:1003C000A8824042B0824042B882404280B485B0A8
:1003D00000AF13460246FA710A46BA717B71FB7987
:1003E000662B02D8BB79412B00D92DE0BB79DB0805
:1003F000DBB2662202FB03F2FB791344FB60BB799C
:1004000003F00703012202FA03F3FB727B79002B4E
:100410000BD0104AFB6813441A78FB7A1343DAB204
:100420000C49FB680B441A700EE00A4AFB6813443F
:100430001B78DAB2FB7ADB43DBB21340DBB2DAB211
:100440000449FB680B441A701437BD465DF8047B01
:10045000704700BF4C00002080B586B000AFF87137
:10046000B9717A713B717A79FB79D31ADBB23B743B
:100470003A79BB79D31ADBB2FB7397F91030002BB2
:1004800004DB3B7CFB740123FB7505E0FA797B7987
:10049000D31AFB74FF23FB7597F90F30002B04DB95
:1004A000FB7BBB740123BB7505E0BA793B79D31A9A
:1004B000BB74FF23BB75FB797B75BB793B75FA7CFD
:1004C000BB7C9A4235D3FB7C7B742EE097F90F30CE
:1004D000002B0DDDBB7C797DFA798A1A02FB03F2D1
:1004E000FB7C92FBF3F3DAB2BB7913443B750CE06F
:1004F000BB7C797DFA798A1A02FB03F2FB7C92FBC2
:10050000F3F3DBB2BA79D31A3B75797D3A7D97F86C
:100510002030084611461A46FFF758FFFA7D7B7DCA
:1005200013447B757B7C013B7B747B7C002BCDD1A2
:1005300034E0BB7C7B742EE097F90F30002B0DDD8F
:10054000FB7C397DBA798A1A02FB03F2BB7C92FBF1
:10055000F3F3DAB2FB7913447B750CE0FB7CB979D9
:100560003A7D8A1A02FB03F2BB7C92FBF3F3DAB208
:10057000FB7913447B75797D3A7D97F820300846E6
:1005800011461A46FFF722FFBA7D3B7D13443B75A7
:100590007B7C013B7B747B7C002BCDD179793A79D4
:1005A00097F82030084611461A46FFF70FFF183714
:1005B000BD4680BD90B585B002AFF871B9717A7152
:1005C0003B71F879B9797A79BB793C7E0094FFF771
:1005D00043FFF87939797A793B793C7E0094FFF7CB
:1005E0003BFFF879B979FA793B793C7E0094FFF7C3
:1005F00033FF7879B9797A793B793C7E0094FFF7BB
:100600002BFF0C37BD4690BD80B584B000AF78603D
:10061000F970BA707B7042F21073FB600523FB72B5
:1006200025E07A68FB68B2FBF3F3BB72FA7AFB78D9
:100630009A420AD8BB7A3033DAB2B87879783B7EFE
:1006400000F01EF8BB780633BB707B68FA68B3FB1A
:10065000F2F2F96801FB02F29B1A7B60FA68074B21
:10066000A3FB0213DB08FB60FB7A013BFB72FB7A06
:10067000002BD6D11037BD4680BD00BFCDCCCCCC31
:1006800080B584B000AFF871B9717A713B717B7934
:100690007E2B05D8414BFB607B79203B7B7104E0CE
:1006A0003F4BFB607B7940337B71BB79DB43DBB233
:1006B00003F007037B72BB79DB083B720023FB72FC
:1006C00065E07A7913465B0013445B001A46FB7AB7
:1006D0001344FA6813441B78BB723B79002B0ED08D
:1006E000BB7ADB43BB72BB79002B08D0BB79013BE3
:1006F000DBB2FA79104619460122FFF767FEBB7A92
:1007000003F07F03BB723B7A662202FB03F2FB79A4
:1007100013443A7A662101FB02F1FA790A4421492D
:100720008A5CD1B2B87A7A7AC2F1070200FA02F290
:10073000D2B20A43D2B2D1B21A4AD1547B7A062B32
:100740001BD83B7A0133662202FB03F2FB79134488
:100750003A7A0132662101FB02F1FA790A44114921
:100760008A5CD1B2B87A7A7A013240FA02F2D2B215
:100770000A43D2B2D1B20B4AD154FB790133FB7197
:10078000FB79662B00D905E0FB7A0133FB72FB7A1B
:10079000052B96D91037BD4680BD00BF74220008D6
:1007A000FC2300084C00002090B585B002AF024643
:1007B0000B46FA71BB71FB79002B0FD0FB79013B23
:1007C000D8B2BB79013BD9B2FB79013BDAB2BB7934
:1007D0000633DBB201240094FFF73EFE0C37BD4622
:1007E00090BD00BF80B582B000AF3A600246FA719A
:1007F0000A46BA717B717B79002B06D0FA79BB79F6
:1008000010461946FFF7D0FF0DE00CE03B681A7860
:10081000F879B9797B79FFF733FFFB790633FB7100
:100820003B6801333B603B681B78002BEED10837F7
:10083000BD4680BD80B584B000AF02460B46FA715C
:10084000BB803B4B3A4A928A92B222F4806292B2C7
:100850009A823748012101F003F900BF3448354935
:1008600001F06CF90346002BF8D0FB7930481946AB
:10087000002201F035F9642000F0F8F82C4B9B8A37
:100880009BB203F48063002B0DD02948012101F0B5
:1008900007F9274B264A928A92B222F4806292B2DA
:1008A0009A82012340E000BF2148234901F046F924
:1008B0000346002BF8D0BB88FB73BB881B0A9BB296
:1008C000BB731B48102101F029F900BF18481B49D0
:1008D00001F034F90346002BF8D0BB7B14481946CD
:1008E00001F01CF900BF1248144901F027F9034632
:1008F000002BF8D0FB7B0E48194601F00FF900BF22
:100900000B480E4901F01AF90346002BF8D00848AD
:10091000012101F0C5F8064B054A928A92B222F4F1
:10092000806292B29A82002318461037BD4680BD7D
:10093000005400400100030082000700840007000B
:1009400080B582B000AF104B7B60104B3B6007E07E
:100950003B681A1D3A607A68111D796012681A6046
:100960003A680B4B9A42F3D30A480B494FF0000206
:100970008842B8BF40F8042BFFF6FAAF00F0BAF98E
:100980000837BD4680BD00BFEC24000800000020F1
:1009900014000020140000204404002080B400AFA4
:1009A000FEE700BF80B483B000AF0346FB71084B85
:1009B00097F907205209F97901F01F01012000FA87
:1009C00001F143F822100C37BD465DF8047B7047F7
:1009D00000E100E080B483B000AF03463960FB71F2
:1009E00097F90730002B0BDA0D49FB7903F00F0361
:1009F000043B3A68D2B21201D2B20B441A7609E033
:100A0000084997F907303A68D2B21201D2B20B44C2
:100A100083F800230C37BD465DF8047B704700BFA8
:100A200000ED00E000E100E080B582B000AF78604A
:100A30007B68B3F1807F01D3012311E00A4B7A6810
:100A400022F07F42013A5A604FF0FF300F21FFF74A
:100A5000C1FF054B00229A60034B07221A60002356
:100A600018460837BD4680BD10E000E080B483B072
:100A700000AF78607B689AB2054B1A8000BF044BC8
:100A80001B88002BFBD10C37BD465DF8047B7047FB
:100A90003404002080B400AF114B1B88002B05D01C
:100AA0000F4B1B88013B9AB20D4B1A800D4B1B68F4
:100AB000002B04D00B4B1B685A1E0A4B1A600A4BC2
:100AC0001B685A1C084B1A60084B1B889BB20133E9
:100AD0009AB2064B1A80BD465DF8047B704700BF92
:100AE00034040020380400203C04002014000020BE
:100AF00080B483B000AF02460B46FA80BB80FA8810
:100B0000BB889A4204D3FA88BB88D31A9BB206E00A
:100B1000FA88BB88D31A9BB2A3F5AD539BB2184693
:100B20000C37BD465DF8047B704700BF80B483B0CE
:100B300000AF78607A6813469B0013445B001A4646
:100B4000054B1A6000BF044B1B68002BFBD10C3710
:100B5000BD465DF8047B70473804002080B590B036
:100B600000AF4FF47A70FFF75FFF07F138031846C4
:100B700000F070FC0120012100F066FB0220012141
:100B800000F062FB0820012100F05EFB0220012141
:100B900000F078FB4FF40010012100F073FB0123FB
:100BA00087F83C30002387F83E304FF42843BB637E
:100BB00007F138034948194600F0BEFB022387F8C5
:100BC0003430002387F83730022387F8353040234C
:100BD0003B6307F130034248194600F0ADFB404843
:100BE0000621022200F06CFC07F12403184601F0F4
:100BF0009DF8A023BB844EF66023BB620023BB8517
:100C00000023FB8407F124033648194601F024F839
:100C100000233B8302237B830123BB830023FB83CD
:100C200000233B8407F118032E48194601F0B8F859
:100C30002C480221012201F087F92A48012101F004
:100C40008FF81D233B7500237B750123BB750123A2
:100C5000FB7507F11403184600F0A0FF1D20FFF7F5
:100C6000A1FEC0233B63022387F83430022387F8B8
:100C70003530012387F83630012387F8373007F104
:100C800030031948194600F057FB17480621042283
:100C900000F016FC14480721042200F011FC134850
:100CA00000F0C2FD124B7B6000233B814BF6FF73CB
:100CB0007B817023BB814FF48063FB814FF48043C1
:100CC0003B823B1D0948194600F0E8FD0748012119
:100CD00000F0A6FE4037BD4680BD00BF000C0240BC
:100CE00000000240000400400004024000540040A4
:100CF000A086010080B584B002AF00F027FCFFF7AA
:100D00002DFFFFF7CDFA924B914A928A92B222F4CC
:100D1000806292B29A820323FB710123BB71082087
:100D20004FF40071FFF786FD0C204FF40071FFF7C0
:100D300081FD10204FF40071FFF77CFD14204FF46B
:100D40000071FFF777FD18204FF40071FFF772FD77
:100D5000FFF780FA7F4B1B780A2032217E4AFFF78B
:100D600041FD012300930020002164223F23FFF76F
:100D700021FC7A4B1B780133642202FB03F301222E
:100D800000921846052102220223FFF73DFC744B16
:100D90001B78DBB2002200921846062102220A23A9
:100DA000FFF732FC6F4B1B889BB200220092184663
:100DB000062102221223FFF727FC6B4801F044F8BA
:100DC0000346002200921846062102221A23FFF74A
:100DD0001BFC664B1B889BB2002200921846062122
:100DE00002222223FFF710FC614B5B889BB200229A
:100DF00000921846062121220223FFF705FC5C4BD6
:100E00009B889BB2002200921846062121220A23C9
:100E1000FFF7FAFB564BDB889BB200220092184684
:100E2000062121221223FFF7EFFB514B1B899BB2B6
:100E3000002200921846062121221A23FFF7E4FB24
:100E40004B4B5B899BB2002200921846062121225F
:100E50002223FFF7D9FB464B9B899BB200220092CD
:100E60001846062141220223FFF7CEFB404BDB89C7
:100E70009BB2002200921846062141220A23FFF766
:100E8000C3FB3B4B1B8A9BB20022009218460621F3
:100E900041221223FFF7B8FBFFF78EF9354800F027
:100EA000F3FA034683F400539BB23248194600F02C
:100EB000F9FA4FF4FA50FFF739FE284B1B7801334B
:100EC000DAB2264B1A70254B1A782B4BA3FB021370
:100ED00019090B469B000B449B00D31ADBB20A2B6B
:100EE00003D91C4B00221A7002E01A4B01221A701F
:100EF000BA79FB791344FB71FB79032B02D0FB79A0
:100F0000122B03D1BB795B42DBB2BB71174B1B8841
:100F10009AB21A4B1B689BB210461946FFF7E8FDC0
:100F20000346182B12D9114B1B889BB21A46134B40
:100F30001A60104800F0A8FA03461A46104B5340B6
:100F40009BB20C48194600F0ADFAE8E6E7E600BFB0
:100F50000054004042000020E42400084300002028
:100F60004404002000000020000400401400002081
:100F70002C000020000C0240CDCCCCCC4400002042
:100F80000080FFFF80B582B000AF5148022101F020
:100F90002BF80346012B40F097804D48022101F0C9
:100FA0004DF84B4800F050FF0346BB80494B1B886F
:100FB000BA8810461946FFF79BFD03467B80454BD8
:100FC0001B88BA889A420AD2434800F05DFA034669
:100FD00083F400539BB24048194600F063FA3D4B3E
:100FE000BA881A807B88B3F5FA6F39D93B4B012256
:100FF0001A70394800F048FA034683F400639BB244
:101000003548194600F04EFA354B1B78DBB20133F8
:10101000DAB2334B1A70324B1B78DBB2132B3FD949
:101020000023FB8015E0FA88F9882E4B33F8113045
:1010300099B22D4BA3FB01031B0999B22B4B23F84B
:101040001210FA88274B002123F81210FB88013375
:10105000FB80FB88092BE6D9214B00221A701FE088
:101060001E4B1B785A1CD1B21C4A11701A461946E5
:101070001C4B33F8113099B27B880B4499B2194B51
:1010800023F81210154B1B780A2B09D9134B002299
:101090001A70174B1B889BB201339AB2144B1A80FB
:1010A0000B484FF4007100F073FF0346012B0BD186
:1010B00007484FF4007100F087FF0D4B1B889BB26F
:1010C00001339AB20A4B1A800837BD4680BD00BF73
:1010D0000004004048000020000C02404A000020AC
:1010E0004404002018000020CDCCCCCC2C000020E3
:1010F0000000002080B489B000AF78600023BB619D
:1011000000237B610023FB6102233B610023FB6022
:101110000223BB60484B9B6803F00C03BB61BB69B7
:10112000042B07D0082B09D0002B3FD17B68434A02
:101130001A603FE07B68424A1A603BE03E4B5B68C6
:1011400003F480039B0DFB603B4B5B6803F03F03A4
:10115000BB60FB68002B0DD0394ABB68B2FBF3F2D1
:10116000354B596847F6C0730B409B0903FB02F3EC
:10117000FB610CE0314ABB68B2FBF3F22E4B5968BD
:1011800047F6C0730B409B0903FB02F3FB612A4B3C
:101190005B6803F440331B0C01335B003B61FA696D
:1011A0003B69B2FBF3F27B681A6003E07B68234A79
:1011B0001A6000BF204B9B6803F0F003BB61BB6962
:1011C0001B09BB611F4ABB6913441B78DBB27B61FF
:1011D0007B681A687B69DA407B685A60164B9B68AB
:1011E00003F4E053BB61BB699B0ABB61154ABB6951
:1011F00013441B78DBB27B617B685A687B69DA40F9
:101200007B689A600C4B9B6803F46043BB61BB69CD
:101210005B0BBB610B4ABB6913441B78DBB27B6180
:101220007B685A687B69DA407B68DA602437BD46A0
:101230005DF8047B704700BF003802400024F400D2
:1012400040787D010400002080B483B000AF786056
:101250000B46FB70FB78002B06D0094B084A116B3C
:101260007A680A431A6306E0054B054A116B7A68EF
:10127000D2430A401A630C37BD465DF8047B7047C1
:101280000038024080B483B000AF78600B46FB703A
:10129000FB78002B06D0094B084A116C7A680A4388
:1012A0001A6406E0054B054A116C7A68D2430A407D
:1012B0001A640C37BD465DF8047B70470038024065
:1012C00080B483B000AF78600B46FB70FB78002BD6
:1012D00006D0094B084A116A7A680A431A6206E086
:1012E000054B054A116A7A68D2430A401A620C37E4
:1012F000BD465DF8047B70470038024080B483B07F
:1013000000AF78600B46FB70FB78002B06D0094BD2
:10131000084A516A7A680A435A6206E0054B054A50
:10132000516A7A68D2430A405A620C37BD465DF86A
:10133000047B70470038024080B487B000AF78600B
:10134000396000237B6100233B610023FB600023A5
:101350007B6176E07B69012202FA03F33B613B6823
:101360001A683B691340FB60FA683B699A4265D191
:101370007B681A687B695B00032101FA03F3DB4396
:101380001A407B681A607B681A683B681B791946AB
:101390007B695B0001FA03F31A437B681A603B68C0
:1013A0001B79012B03D03B681B79022B2ED17B6864
:1013B0009A687B695B00032101FA03F3DB431A405F
:1013C0007B689A607B689A683B685B7919467B69A1
:1013D0005B0001FA03F31A437B689A607B685A68E2
:1013E0007B699BB2012101FA03F3DB431A407B685E
:1013F0005A607B685A683B689B7919467B699BB247
:1014000001FA03F39BB21A437B685A607B68DA687F
:101410007B699BB25B00032101FA03F3DB431A40B3
:101420007B68DA607B68DA683B68DB7919467B6940
:101430005B0001FA03F31A437B68DA607B690133CE
:101440007B617B690F2B85D91C37BD465DF8047B1A
:10145000704700BF80B483B000AF78607B684FF600
:10146000FF721A607B6800221A717B6800225A7131
:101470007B6800229A717B680022DA710C37BD46C6
:101480005DF8047B704700BF80B483B000AF786024
:101490007B685B699BB218460C37BD465DF8047BE0
:1014A000704700BF80B483B000AF78600B467B808C
:1014B0007A887B685A610C37BD465DF8047B7047BB
:1014C00080B485B000AF786013460A467A807B709E
:1014D0000023FB600023BB607A787B8803F007035E
:1014E0009B0002FA03F3FB607B88DB089BB21A4681
:1014F0007B88DB089BB219467B68083153F82110C2
:101500007B8803F007039B000F2000FA03F3DB4303
:1015100019407B68083243F822107B88DB089BB2B5
:101520001A467B68083253F82220FB681343BB60DD
:101530007B88DB089BB21A467B680832B96843F89F
:1015400022101437BD465DF8047B704780B500AFAC
:10155000114B114A126842F001021A600E4B002230
:101560009A600D4A0C4B1B6823F0847323F480337C
:101570001360094B094A5A60074B074A126822F464
:1015800080221A60044B0022DA6000F00BF8044B52
:101590004FF000629A6080BD003802401030002495
:1015A00000ED00E080B483B000AF00237B60002337
:1015B0003B60354B344A126842F480321A60324B39
:1015C0001B6803F400333B607B6801337B603B683E
:1015D000002B03D17B68B3F5A06FF0D12A4B1B68B9
:1015E00003F40033002B02D001233B6001E0002311
:1015F0003B603B68012B42D1234B234A126C42F0E3
:1016000080521A64214B214A126842F480421A60C7
:101610001D4B1D4A92689A601B4B1B4A926842F40C
:1016200000429A60184B184A926842F4A0529A609D
:10163000154B174A5A60144B134A126842F08072D5
:101640001A6000BF104B1B6803F00073002BF9D029
:10165000104B40F205621A600B4B0B4A926822F065
:1016600003029A60084B084A926842F002029A60AC
:1016700000BF054B9B6803F00C03082BF9D10C3716
:10168000BD465DF8047B70470038024000700040A2
:1016900008544007003C024080B582B000AF78603B
:1016A0007A68174B9A420AD14FF480500121FFF714
:1016B00025FE4FF480500021FFF720FE1CE07A68E1
:1016C000104B9A420AD14FF480400121FFF7F8FDF8
:1016D0004FF480400021FFF7F3FD0DE07A680A4BDC
:1016E0009A4209D14FF400400121FFF7E9FD4FF480
:1016F00000400021FFF7E4FD0837BD4680BD00BF74
:101700000030014000380040003C004080B485B00B
:1017100000AF786039600023FB817B681B88FB8108
:10172000FB8903F44153FB813B681A883B685B8863
:1017300013439AB23B689B8813439AB23B68DB8899
:1017400013439AB23B681B8913439AB23B685B8987
:1017500013439AB23B689B8913439AB23B68DB8977
:1017600013439AB2FB891343FB817B68FA891A8081
:101770007B689B8B9BB223F400639AB27B689A834D
:101780003B681A8A7B681A821437BD465DF8047B71
:10179000704700BF80B483B000AF78600B46FB7029
:1017A000FB78002B08D07B681B889BB243F040037A
:1017B0009AB27B681A8007E07B681B889BB223F093
:1017C00040039AB27B681A800C37BD465DF8047BF3
:1017D000704700BF80B483B000AF78600B467B8059
:1017E0007B687A889A810C37BD465DF8047B704728
:1017F00080B485B000AF78600B467B800023FB731C
:101800007B681B899AB27B8813409BB2002B02D065
:101810000123FB7301E00023FB73FB7B18461437A5
:10182000BD465DF8047B704780B582B000AF78603C
:101830007A68174B9A420AD14FF400100121FFF742
:101840003FFD4FF400100021FFF73AFD1CE07A68DD
:10185000104B9A420AD14FF480000121FFF730FD6E
:101860004FF480000021FFF72BFD0DE07A680A4B52
:101870009A4209D14FF400000121FFF721FD4FF4F6
:1018800000000021FFF71CFD0837BD4680BD00BFEA
:101890000054004000580040005C004080B58AB011
:1018A00000AF786039600023FB8400237B8404232D
:1018B000BB84574BFB617B689B88FB84FB8C23F0CC
:1018C0003F03FB8407F10C031846FFF713FC7B6909
:1018D000FB61FA694F4BA3FB02139B0C7B84FA8CD0
:1018E0007B8C1343FB847B68FA8C9A807B681B8813
:1018F0009BB223F001039AB27B681A800023FB8419
:101900003B681A68444B9A4215D83B681B685B00D9
:10191000FA69B2FBF3F3BB84BB8C032B01D804231D
:10192000BB84FA8CBB8C1343FB847B8C01339AB24F
:101930007B681A8440E03B68DA884BF6FF739A4272
:1019400009D13B681A6813465B001344FA69B2FB7D
:10195000F3F3BB840EE03B681A6813469B00134404
:101960009A001344FA69B2FBF3F3BB84BB8C43F4D3
:101970008043BB84BB8CC3F30B03002B03D1BB8C14
:1019800043F00103BB84BA8CFB8C13439BB26FEA18
:1019900043436FEA5343FB847B8C4FF4967202FB04
:1019A00003F31E4A82FB03129211DB17D31A9BB278
:1019B00001339AB27B681A847B68FA8C9A837B68BD
:1019C0001B889BB243F001039AB27B681A807B6844
:1019D0001B88FB84FB8C23F4816323F00203FB84CC
:1019E0003B689A883B685B8913439AB2FB8C13432C
:1019F000FB847B68FA8C1A803B689A893B681B8958
:101A000013439AB27B681A812837BD4680BD00BF58
:101A100000127A0083DE1B43A0860100D34D6210C2
:101A200080B483B000AF78600B46FB70FB78002B6E
:101A300008D07B681B889BB243F001039AB27B6895
:101A40001A8007E07B681B889BB223F001039AB2DF
:101A50007B681A800C37BD465DF8047B704700BF79
:101A600080B483B000AF78600B46FB70FB78002B2E
:101A700008D07B681B889BB243F480739AB27B6862
:101A80001A8007E07B681B889BB223F480739AB2AC
:101A90007B681A800C37BD465DF8047B704700BF39
:101AA00080B483B000AF78600B46FB70FB78002BEE
:101AB00008D07B681B889BB243F400739AB27B68A2
:101AC0001A8007E07B681B889BB223F400739AB2EC
:101AD0007B681A800C37BD465DF8047B704700BFF9
:101AE00080B483B000AF786013460A46FA70BB70CA
:101AF000BB78002B04D0FB7843F00103FB7003E0BC
:101B0000FB7823F00103FB70FB789AB27B681A82A2
:101B10000C37BD465DF8047B704700BF80B483B0CE
:101B200000AF78600B46FB70FB789AB27B681A8234
:101B30000C37BD465DF8047B704700BF80B487B0AA
:101B400000AF7860396000233B610023FB60002315
:101B5000BB600023FB757B689B8A9BB2FB607B6844
:101B60001B8B9BB2BB60BB681B04BB60FA68BB6885
:101B7000134323F07F433B613A693B681A403B685B
:101B80009A4202D10123FB7501E00023FB75FB7D26
:101B900018461C37BD465DF8047B704780B485B09D
:101BA00000AF78600023FB730023BB730F237B73AC
:101BB0007B68DB78002B37D0254BDB68DB4303F4F5
:101BC000E0631B0AFB73FB7BC3F10403BB737A7BEB
:101BD000FB7B42FA03F37B737B685B781A46BB7B23
:101BE00002FA03F3FB737B689A787B7B1340DAB2CB
:101BF000FB7B1343FB73FB7B1B01FB73154A7B6869
:101C00001B781344FA7B83F80023124B7A6812780E
:101C10005209D2B27968097801F01F01012000FA57
:101C200001F143F822100EE00A4B7A68127852094B
:101C3000D2B27968097801F01F01012000FA01F1A0
:101C4000203243F822101437BD465DF8047B7047FC
:101C500000ED00E000E100E080B485B000AF786006
:101C600039600023FB817B681B88FB817A68284BE5
:101C70009A4213D07A68274B9A420FD07B68B3F10F
:101C8000804F0BD07A68244B9A4207D07A68234B56
:101C90009A4203D07A68224B9A4208D1FB8923F0FA
:101CA0007003FB813B685A88FB891343FB817A6888
:101CB0001C4B9A420CD07A681B4B9A4208D0FB8985
:101CC00023F44073FB813B681A89FB891343FB8132
:101CD0007B68FA891A803B685A687B68DA623B68DD
:101CE0001A887B681A857A68094B9A4203D07A6809
:101CF000084B9A4204D13B689B7A1A467B681A8645
:101D00007B6801229A821437BD465DF8047B7047D8
:101D100000000140000401400004004000080040B1
:101D2000000C0040001000400014004080B483B05C
:101D300000AF78607B684FF0FF325A607B6800220A
:101D40001A807B6800221A817B6800225A807B6897
:101D500000229A720C37BD465DF8047B704700BFC5
:101D600080B483B000AF78600B46FB70FB78002B2B
:101D700008D07B681B889BB243F001039AB27B6852
:101D80001A8007E07B681B889BB223F001039AB29C
:101D90007B681A800C37BD465DF8047B704700BF36
:101DA00080B582B000AF786039603B681B88002B3B
:101DB0000FD13B6859883B689A883B681B897868D3
:101DC00000F04CF93B68DB887868194600F048F869
:101DD00036E03B681B88042B0FD13B6859883B6871
:101DE0009A883B681B89786800F074F93B68DB8847
:101DF0007868194600F050F822E03B681B88082BF1
:101E00000FD13B6859883B689A883B681B89786882
:101E100000F0A6F93B68DB887868194600F05AF8AC
:101E20000EE03B6859883B689A883B681B89786854
:101E300000F0D8F93B68DB887868194600F066F84E
:101E40000837BD4680BD00BF80B483B000AF786066
:101E50007B685B6B18460C37BD465DF8047B7047AA
:101E600080B483B000AF78600B467B807B681B8BAF
:101E70009BB223F00C039AB27B681A837B681B8B9E
:101E80009AB27B8813439AB27B681A830C37BD469B
:101E90005DF8047B704700BF80B483B000AF78600A
:101EA0000B467B807B681B8B9BB223F440639AB20A
:101EB0007B681A837B681B8B9AB27B881B029BB260
:101EC00013439AB27B681A830C37BD465DF8047BD6
:101ED000704700BF80B483B000AF78600B467B8052
:101EE0007B689B8B9BB223F00C039AB27B689A832E
:101EF0007B689B8B9AB27B8813439AB27B689A83E8
:101F00000C37BD465DF8047B704700BF80B483B0DA
:101F100000AF78600B467B807B689B8B9BB223F481
:101F200040639AB27B689A837B689B8B9AB27B886A
:101F30001B029BB213439AB27B689A830C37BD464F
:101F40005DF8047B704700BF80B483B000AF786059
:101F500013460A467A807B707B78002B08D07B681A
:101F60009B899AB27B8813439AB27B689A8109E075
:101F70007B689B899AB27B88DB439BB213409AB201
:101F80007B689A810C37BD465DF8047B704700BFC3
:101F900080B485B000AF78600B467B800023FB7374
:101FA0007B681B8A9AB27B8813409BB2002B02D0BD
:101FB0000123FB7301E00023FB73FB7B18461437FE
:101FC000BD465DF8047B704780B483B000AF786095
:101FD0000B467B807B88DB439AB27B681A820C3786
:101FE000BD465DF8047B704780B485B000AF786073
:101FF0000B467B800023FB730023BB8100237B8186
:102000007B681B8A9AB27B881340BB817B689B8963
:102010009AB27B8813407B81BB89002B05D07B89DA
:10202000002B02D00123FB7301E00023FB73FB7B39
:1020300018461437BD465DF8047B704780B483B002
:1020400000AF78600B467B807B88DB439AB27B686D
:102050001A820C37BD465DF8047B704780B487B0A8
:1020600000AFF86079813A81FB800023FB82002376
:10207000BB82FB681B8C9BB223F001039AB2FB6806
:102080001A84FB681B8BFB82FB681B8CBB82FB8A60
:1020900023F0F303FB82FB881B019AB23B891343B5
:1020A0009AB2FB8A1343FB82BB8A23F00A03BB82EA
:1020B0007A89BB8A13439BB243F00103BB82FB685E
:1020C000FA8A1A83FB68BA8A1A841C37BD465DF8FF
:1020D000047B704780B487B000AFF86079813A81A3
:1020E000FB800023FB820023BB8200237B82FB68F2
:1020F0001B8C9BB223F010039AB2FB681A84FB6816
:102100001B8BFB82FB681B8CBB827B891B017B8248
:10211000FB8A23F440731B051B0DFB82FB881B030A
:102120009AB2FB8A1343FB823B891B029AB2FB8A59
:102130001343FB82BB8A23F0A003BB827A8ABB8A4B
:1021400013439BB243F01003BB82FB68FA8A1A83E5
:10215000FB68BA8A1A841C37BD465DF8047B704759
:1021600080B487B000AFF86079813A81FB800023AA
:10217000FB820023BB8200237B82FB681B8C9BB20B
:1021800023F480739AB2FB681A84FB689B8BFB82F2
:10219000FB681B8CBB827B891B027B82FB8A23F042
:1021A000F303FB82FB881B019AB23B8913439AB26B
:1021B000FB8A1343FB82BB8A23F42063BB827A8AA7
:1021C000BB8A13439BB243F48073BB82FB68FA8AD9
:1021D0009A83FB68BA8A1A841C37BD465DF8047B73
:1021E000704700BF80B487B000AFF86079813A8152
:1021F000FB800023FB820023BB8200237B82FB68E1
:102200001B8C9BB223F480539AB2FB681A84FB6840
:102210009B8BFB82FB681B8CBB827B891B037B82B5
:10222000FB8A23F440731B051B0DFB823B891B02B9
:102230009AB2FB8A1343FB82FB881B039AB2FB8A88
:102240001343FB82BB8A23F400535B045B0CBB8209
:102250007A8ABB8A13439BB243F48053BB82FB68E8
:10226000FA8A9A83FB68BA8A1A841C37BD465DF8DD
:10227000047B7047000000000000002F00000000F9
:10228000000300030000143E143E140012257F29B1
:1022900012001309043211001A25357A00000003D8
:1022A000000000000000001E2100211E00000000B0
:1022B00014081400000008083E0808004030000020
:1022C0000000080808080000002000000000201896
:1022D000040300001E2525291E0020223F20200087
:1022E000322929292600122121251A001814123F0B
:1022F00010002725252519001E2525251800010178
:10230000390503001A2525251A00062929291E004A
:10231000001200000000C0B280808000000814227B
:10232000000014141414000000221408000002011C
:10233000290600000000000000003C0A090A3C00D9
:102340003F2525251A001E21212112003F2121129F
:102350000C003F25252521003F05050501001E2114
:1023600029291A003F0404043F0000213F210000F6
:102370001020211F01003F040A1120003F202020CF
:1023800020003F020C023F003F0204083F001E21D4
:1023900021211E003F09090906001E2129313E4066
:1023A0003F090919260012252529120001013F01C4
:1023B00001001F2020201F00031C201C03001F20E1
:1023C00018201F00310A040A3100030438040300F6
:1023D0003129252321000000003F2100030418209B
:1023E0000000213F00000000040201020400202040
:1023F0002020200000010200000000003C0A090A21
:102400003C003F25252911003F2525251A003F01C5
:1024100001010100603C223F60003F25252521008D
:10242000310A3F0A3100122121251A003F10080409
:102430003F003F1009043F003F040A112000201E06
:1024400001013F003F0204023F003F0404043F003B
:102450001E2121211E003F0101013F003F09090902
:1024600006001E212121120001013F010100132459
:1024700024241F001C123F121C00310A040A3100E0
:102480003F2020203F60070808083F003F203F20F2
:102490003F003F203F203F60013F242418003F249D
:1024A00038003F00003F24241800122125251E007B
:1024B0003F041E211E00261909093F004E4F4B49BB
:1024C0004120353131300000D1D2C0D0D2CEC2C08F
:1024D000CB000000D0D3D1D1CAC8C520C1D3CAC255
:0C24E000DB2100005945532100000000E2
:1024EC0001000100000000000102030401020304CA
:0424FC0006070809BE
:0400000508000000EF
:00000001FF
