:1000000019C033C032C031C030C02FC02EC02DC087
:100010002CC02BC02AC029C028C027C026C025C09C
:1000200024C023C022C021C020C01FC01EC01DC0CC
:100030001CC01BC011241FBECFEFD2E0DEBFCDBF5E
:1000400011E0A0E0B1E0ECEEFFE002C005900D92FF
:10005000A231B107D9F711E0A2E1B1E001C01D92D0
:10006000A035B107E1F7F2D3BFC7CACF8064809350
:100070007C0020E030E040E080917A008064809352
:100080007A0080917A0086FDFCCF80917800909173
:100090007900280F391F4F5F443171F7C90164E1BE
:1000A00070E06CD7CB010895482F440F662359F0B8
:1000B00025B181E090E0042E02C0880F991F0A94B8
:1000C000E2F7282B25B984B121E030E002C0220FED
:1000D000331F4A95E2F7822B84B984EC99E00197AB
:1000E000F1F784B12095822384B9662319F085B194
:1000F000282325B908952F923F924F925F927F92C5
:100100008F929F92AF92BF92CF92DF92EF92FF9227
:100110000F931F93CF93DF93982E762E842EA8955E
:10012000362E862F880FC1E0D0E09E0102C0220F3C
:10013000331F8A95E2F7122F24B915B8492C55249C
:10014000CE01092C02C0880F991F0A94E2F7282ECD
:1001500087B988B982EE94E00197F1F7842F60E0C7
:10016000A3DF872D83DF449740F0882D61E09CDF7B
:10017000872D7CDF449708F037C1E82CEE0C24B1C2
:10018000C1E0D0E0CE010E2C02C0880F991F0A9466
:10019000E2F7C82E282B24B984EF91E00197F1F7FC
:1001A000872D64DF8D5B924008F449C014B984B197
:1001B000E3940E2C02C0CC0FDD1F0A94E2F7EA9400
:1001C0008C2B84B984EC99E00197F1F7872D4EDFF1
:1001D000EC01882D4BDFAC0114B920911601822F60
:1001E0008250823018F481E080931301E091130172
:1001F000F0E0EE0FFF1FDF01AE5CBE4FCD93DC934E
:10020000E65DFE4F51834083493C510530F0253077
:1002100061F082E08093160106C0253031F083E062
:100220008093160182E0809315018091160185303C
:1002300031F080921201709221019092360118B82B
:10024000842D880F21E030E0E90102C0CC0FDD1FD2
:100250008A95E2F78C2D8C2B84B985B9290102C0CF
:10026000440C551C3A94E2F747B804EC19E0C80175
:100270000197F1F7892DFADE845F914008F0B1C053
:1002800080911301813009F412C23C2EC5B9C80116
:100290000197F1F7C4B9B2EEAB2EB4E0BB2EC501A5
:1002A0000197F1F7892DE2DE8C0115B8C5010197A0
:1002B000F1F7C5B9C5010197F1F7892DD7DE045FC4
:1002C000114008F046C08558934008F442C085E0CC
:1002D0008093160114B815B848B8C5010197F1F715
:1002E000C4B9C5010197F1F7892DC0DEC39708F0A5
:1002F00072C084B1C82AC4B8C5010197F1F7882D2E
:10030000B5DE883C910508F466C0892DAFDE8639DC
:10031000910508F460C0C4B9C5010197F1F7892DB2
:10032000A5DE8639910508F456C0C5B9C501019707
:10033000F1F715B8C5010197F1F7892D97DEC3973D
:1003400008F049C084E08093160181E08093130196
:1003500042C024B1E39481E090E002C0880F991F6D
:10036000EA94E2F7282B24B925B1822B85B984EDD4
:1003700090E30197F1F7892D79DEEC01882D76DE87
:10038000AC0135B834B8809116018250823018F42F
:1003900081E080931301E0911301F0E0EE0FFF1F65
:1003A000DF01AE5CBE4F8FEF93E09C012C1B3D0B39
:1003B0002D933C93E65DFE4F841B950B91838083C8
:1003C000445F514010F482E001C083E08093160145
:1003D00081E0809315018092120190922101709228
:1003E000360117B818B863C184B1982D990F02E08F
:1003F00010E002C0000F111F9A95E2F7802B84B91C
:10040000F8E8AF2EF3E1BF2EC5010197F1F7872D74
:100410002DDE7C0185B1082B05B9C5010197F1F7E7
:10042000872D24DE44E650E0E40EF51EE816F906BA
:1004300090F518B8CE01072C02C0880F991F0A94B6
:10044000E2F787B994B1892D880F02C0CC0FDD1F68
:100450008A95E2F78C2F9C2B94B995B1892B85B99D
:10046000C5010197F1F7882D01DE8152934020F0FC
:1004700083E08093160104C083E08093160185E039
:100480008093150181E08093130180921201909274
:1004900021017092360118B801E010E0C80102C0D5
:1004A000880F991F3A94E2F7C82E87B95201AA0C17
:1004B000BB1C84B10A2C02C0000F111F0A94E2F782
:1004C000902F802B84B985B1982B95B9C8E8D3E1DA
:1004D000CE010197F1F7892DC9DD7C0105B9CE0167
:1004E0000197F1F7892DC2DD8C599F4F8E159F051D
:1004F000F0F428B827B8CE010197F1F7882DB6DDC2
:10050000883C910528F483E08093160184E004C0C0
:1005100083E08093160186E08093150181E080934B
:10052000130180921201709221019092360102E033
:1005300010E00A2C02C0000F111F0A94E2F771E0CC
:10054000E72EF12C02C0EE0CFF1CAA94E2F718B8BB
:10055000C7B8882D61E0A8DD62EEC62E64E0D62E15
:10056000C6010197F1F7892D81DD5C01872D7EDDC4
:10057000A81AB90A04B905B9C6010197F1F7892D7E
:1005800075DD1C01872D72DD2C01E4B8E5B8882DDE
:1005900060E08ADDC6010197F1F7892D67DDEC0186
:1005A000872D64DDC81BD90B04B905B9C6010197B5
:1005B000F1F7892D5BDD8C01872D58DDCA15DB0530
:1005C00020F481010419150903C0081B190B5E01F1
:1005D000C5014F978759934008F069C08091160173
:1005E000882311F0863019F481E080931601209160
:1005F0001401E22FF0E0EE0FFF1FEE0FFF1FE95C8A
:10060000FE4F9082718286E390E0AC01A49EC0010F
:10061000A59E900DB49E900D11246BE070E0AED4B9
:10062000738362832F5F46E0000F111F4A95E1F745
:10063000C50165E070E0A2D4EB0160E034C0E62FB4
:10064000F0E0EE0FFF1FEE0FFF1FE95CFE4F808111
:10065000871541F58181891529F50C171D0710F5BE
:10066000362F422F50E04150504016C0EE0FFF1F72
:10067000EE0FFF1FDF01A95CBE4FE55CFE4F8081DE
:100680008C93818111968C9311978281938113961B
:100690009C938E9312973F5FE32FF0E0E417F507EA
:1006A0002CF322506F5F621750F22093140117B899
:1006B00018B814B815B8DF91CF911F910F91FF9022
:1006C000EF90DF90CF90BF90AF909F908F907F90F2
:1006D0005F904F903F902F9008950F931F93CF936B
:1006E000DF9380912101E82FF0E09F01220F331F5B
:1006F000A1E0B0E0AD0102C0440F551F2A95E2F71A
:100700009A0100911201602F70E0AB01440F551F58
:1007100082E090E002C0880F991F4A95E2F7982F77
:10072000922B90931701322F2093200194B9AD01A1
:100730000090360102C0440F551F0A94E2F7ED0104
:10074000002E02C0CC0FDD1F0A94E2F7BE01642B1D
:1007500067B980911601833009F048C08091150176
:100760008130F9F418B895B9CD0102C0880F991FEE
:10077000EA95E2F7982F80931701E4ECF9E03197BE
:10078000F1F747B9C0E0D0E010E006C0A895219687
:1007900019F41F5F183019F086B18923B9F735B9FC
:1007A00020C0823019F568B915B8CD0102C0880F94
:1007B000991FEA95E2F7982F80931701E4ECF9E08E
:1007C0003197F1F747B948B9C0E0D0E010E006C072
:1007D000A895219619F41F5F183019F086B1892366
:1007E000B9F334B9802F42DC9C0105C0C0E0D0E0F1
:1007F00020E030E010E014B815B817B818B8CD2BC9
:1008000011F41123F1F080911501823031F48FEF52
:1008100093E0AC01421B530B9A0187E290E0EC019C
:100820002C9FC0012D9F900D3C9F900D112403E043
:10083000969587950A95E1F768E171E04AE050E006
:100840005AD3DF91CF911F910F91089580E48AB917
:1008500080EC8BB983E880937A00D5D205B603FE8D
:100860000DC08CEE90E018D380E395E729E130E0ED
:10087000F9013197F1F70197D9F743C080E4B0D27D
:1008800085EF90E009D380E8ABD204C090933301A8
:10089000809332018FE028E130E00FB6F894A895FC
:1008A000209360000FBE809360001092160110929A
:1008B0004F011092140110921301109215019CD255
:1008C00085E8D4DB85E8D2DB909333018093320155
:1008D0008A589240F8F48EE090E0DED280913201A6
:1008E000909133018855924080F480E290E0D4D218
:1008F00080E197E229E130E0F9013197F1F70197C2
:10090000D9F71BB880E090E0089588E190E0C4D268
:1009100080EC66D280E090E0BFD280E061E042E00F
:10092000EADB80E062E041E0E6DB81E060E042E0BB
:10093000E2DB81E062E040E0DEDB82E061E040E0BB
:10094000DADB82E060E041E0D6DBC7DE55D28091A1
:100950001601813009F0C5C080911401813019F56C
:1009600081E590E099D286EE90E096D280913701B1
:100970008F5C39D280E091E083D2809138018F5C26
:1009800032D280EC2DD28BED90E086D2809139016D
:1009900090913A0168E171E04AE050E08DD270D266
:1009A00083EE90E0CCC1823009F052C03091370123
:1009B00020913B013217E1F489E590E06DD284E0AB
:1009C00091E05ED280EC0CD286EE90E065D2809110
:1009D00037018F5C08D283EB90E05ED280913801C2
:1009E0008F5C01D288EB90E057D280913C019AC194
:1009F0008091380190913C018917E1F489E590E0FC
:100A00004BD287E091E03CD280ECEAD18AE091E0E1
:100A100037D2809138018F5CE6D189EA90E03CD2F0
:100A2000809137018F5CDFD18EEA90E035D28091E2
:100A30003B0178C1821709F078C1931709F075C19D
:100A400086E690E029D280ECCBD18FE690E077C1AA
:100A5000833009F06AC18093120180932101909143
:100A6000370180913B01981721F080913F01981741
:100A700011F49093120190913B0180913F019817DE
:100A800011F4909312019091380180913C019817D4
:100A900021F080914001981711F4909321019091D9
:100AA0003C0180914001981711F4909321018091AD
:100AB0001201833008F039C180912101833008F0A0
:100AC00034C186E690E0E8D180EC8AD18CE790E0F2
:100AD000E3D1809112018F5C86D180E091E0D0D18A
:100AE0001FC1823009F0A5C080911301882381F4D1
:100AF00080913201909133019093350180933401BC
:100B000080912A0190912B0190932D0180932C01CB
:100B1000209132013091330180913401909135015F
:100B200082179307A0F4309335012093340180910C
:100B30002A0190912B0190932D0180932C0190918B
:100B4000210180913601809321019093360180919B
:100B50001501813019F482EC90E002C086EC90E03F
:100B60009BD18AEC90E098D1809112018F5C3BD1AF
:100B70008EEC90E091D1809121018F5C34D182ED97
:100B800090E08AD1809136018F5C2DD180EC28D104
:100B9000609134017091350180E090E023EB32E008
:100BA00040E050E0CCD160932E0170932F018093F0
:100BB00030019093310180912C0190912D010B9780
:100BC00030F48BE090E090932D0180932C012091E4
:100BD0002C0130912D0140E050E060912E01709188
:100BE0002F018091300190913101DCD120932E01B1
:100BF00030932F014093300150933101C90120936C
:100C00003401909335018DEB90E046D18091340111
:100C10009091350168E171E04AE050E06CD130D14B
:100C200087ECDED080911401833008F489C080E025
:100C30007AC0833009F047C08091150180FF02C05F
:100C40008EE401C080E5CFD090911501892F8350AB
:100C5000823018F480E990E008C09550923018F482
:100C600083E990E005C08DE890E016D188E890E037
:100C700013D180ECB5D086ED90E00ED180911201B9
:100C80008F5CB1D0809121018F5CADD08091360115
:100C90008F5CA9D080911401882331F080911501D7
:100CA000833010F480E001C080E29DD08091150176
:100CB000833008F045C08FED90E0EED088E191E000
:100CC000DFD08DE630C0853099F489E990E0E4D03A
:100CD00080EC86D08DE091E0D3D0809112018F5CC2
:100CE00082D0809121018F5C7ED0809136011AC024
:100CF0008430D9F483EA90E0CFD080EC71D089EED3
:100D000090E0CAD0809112018F5C6DD089EA90E0AA
:100D1000C3D0809136018F5C66D08EEA90E0BCD063
:100D2000809121018F5C5FD00BC086E290E0B4D04F
:100D300080EC56D087E390E0AFD081E490E0ACD077
:100D40004F9BFECF80E593EC0197F1F710923301B2
:100D50001092320180E090E04AEF50E00AC09C011E
:100D60002F5F3F4F4F9B92CDA895CA010197F1F796
:100D7000C90127E28031920790F390933301809369
:100D800032015E9888E10FB6F8948093600010926B
:100D900060000FBE4F99FECF7DCD9BB1282F2295CD
:100DA0002F70907F292B2BB931E0932F9A95F1F773
:100DB0005D9A23E0922F9A95F1F75D989BB18F7021
:100DC000907F982B9BB93A95F1F75D9A2A95F1F7A8
:100DD0005D9884E18A95F1F78BB1807F8BB9089596
:100DE0005C98DBDF08955C9AD8DF08955D9A83E014
:100DF0008A95F1F75D98089581E0F2DF82EE94E044
:100E00000197F1F708958AB18F638AB98CE49DE167
:100E10000197F1F78BB1807E83608BB95D9A93E087
:100E2000892F8A95F1F75D98E2EEF4E03197F1F7BA
:100E30005D9A892F8A95F1F75D982AEF30E0F901E4
:100E40003197F1F75D9A892F8A95F1F75D98F9014D
:100E50003197F1F78BB1807E82608BB9F9013197C0
:100E6000F1F75D9A9A95F1F75D98C9010197F1F74D
:100E700088E2B6DF8CE0B4DF86E0B2DFBDDF089544
:100E8000CF93DF93EC0102C0AEDF219688818823E7
:100E9000D9F7DF91CF910895CF93DF93EC01F999C2
:100EA000FECFC1BDF89A80B5882319F09CDF21964A
:100EB000F6CFDF91CF910895FB019F01E894423076
:100EC000BCF04532ACF44A3029F497FB1EF49095FF
:100ED00081959F4F642F772751D0805D8A330CF026
:100EE000895D8193CB010097A9F716F45DE25193D8
:100EF0001082C90114C0FB019F0142306CF04532E1
:100F00005CF4642F77273AD0805D8A330CF0895DDA
:100F10008193CB010097A9F71082C90100C0DC01C1
:100F2000FC01672F71917723E1F7329704C07C9120
:100F30006D9370836291AE17BF07C8F30895629FE7
:100F4000D001739FF001829FE00DF11D649FE00DC1
:100F5000F11D929FF00D839FF00D749FF00D659F22
:100F6000F00D9927729FB00DE11DF91F639FB00D21
:100F7000E11DF91FBD01CF0111240895AA1BBB1B60
:100F800051E107C0AA1FBB1FA617B70710F0A61B89
:100F9000B70B881F991F5A95A9F780959095BC01AA
:100FA000CD010895A1E21A2EAA1BBB1BFD010DC0A5
:100FB000AA1FBB1FEE1FFF1FA217B307E407F50709
:100FC00020F0A21BB30BE40BF50B661F771F881FE5
:100FD000991F1A9469F760957095809590959B017B
:0C0FE000AC01BD01CF010895F894FFCFD3
:100FEC003B4B3D004341004343004B3D0047414BCD
:020FFC003D00B6
:00000001FF
