:1000000070C029C489C088C087C086C085C084C02C
:1000100083C082C081C0F1C17FC07EC07DC07CC072
:100020007BC07AC079C078C077C076C075C074C014
:1000300073C072C005010904A1010901A1000931C1
:100040000930093409331500257F7508950481822C
:10005000C0C0040309040A034B0069006C0065007A
:1000600020036E00650052006500630076002000EA
:100070006A006F00790073007400690063006B0010
:100080002E036B0069006C00650040007200630085
:10009000670072006F007500700073002E0063002F
:1000A0006F006D003A00760030002E003100120122
:1000B000100100000008C016DB2700010102030147
:1000C000090222000101008032090400000103003E
:1000D0000000092101010001221E0007058103081B
:1000E000006411241FBECFEFD4E0DEBFCDBF11E00E
:1000F000A0E0B1E0EEECFAE002C005900D92A6316E
:10010000B107D9F711E0A6E1B1E001C01D92A53910
:10011000B107E1F728D0D9C473CF1F93182F8A30C5
:1001200011F48DE0FADF8091C00085FFFCCF1093C1
:10013000C60080E090E01F9108958091C00087FF85
:10014000FCCF8091C60008951092C5008CE080938A
:10015000C40088E18093C10080E091E09093920117
:1001600080939101089555985D9A399A419A4D9BD3
:1001700002C0E7D101C07AD180E090E00895DF931A
:10018000CF930F92CDB7DEB757985F9A84B1836053
:1001900084B92898299A84B18C6284B98CB5806519
:1001A0008CBD8DB589838EB589830F90CF91DF91FA
:1001B0000895982F2998E9E1F1E008C080818EBD6B
:1001C0000DB407FEFDCF8EB5819391509923B1F701
:1001D000299A80911901089529988EBD0DB407FEC2
:1001E000FDCF8EB580931901299A08958093190146
:1001F00082E0DFDF089580628093190160931A0125
:1002000082E0D7DF0895806280931901DB01EAE183
:10021000F1E0242F30E02E0F3F1F02C08D9181931B
:10022000E217F307D9F7842F8F5FC3DF0895809318
:100230001901862F8F5FBDDF089591E69093190114
:100240008F5FB7DF089520EA20931901DC01EAE10E
:10025000F1E0262F30E02E0F3F1F02C08D918193D9
:10026000E217F307D9F7862F8F5FA3DF089581EE9A
:10027000B3DF089582EEB0DF08958FEFADDF08950C
:100280000F931F934F9946C010E001E087E0D5DF40
:1002900080911E01853559F5809140018823E9F050
:1002A00020913A0130913B0180911F0190912001F2
:1002B00028173907E1F480911A0190911B01A09150
:1002C0001C01B0911D0180933C0190933D01A093CE
:1002D0003E01B0933F011F5F0AC080911F019091C2
:1002E000200190933B0180933A010093400187E005
:1002F00090E060E480DF8091190190E08E70907052
:100300000C9724F2112321F0409A16BC81E085BBA2
:10031000812F06C0A89B03C0409881E085BB80E088
:100320001F910F9108952BDF389A40981092400149
:1003300085B5856085BD9EDF8AE090E06EE071E066
:1003400045E061DF86E090E060E255DF81E190E02A
:1003500067E051DF82E090E061E04DDF85E090E012
:100360006EE149DF87E090E060E745DF80E090E004
:100370006FE041DF289A08951F93CF93DF93ACE39A
:10038000B1E040EF55E520E030E0CCE2D1E01FE302
:1003900064ED7EEFF901EE0FFF1FEF5BFE4FD1839F
:1003A000C0838D91819FC0011124E3E095958795CD
:1003B000EA95E1F784549D4FF901EE0FFF1FED5BC5
:1003C000FE4F91838083FB01E81BF90B4E0F5F1FEB
:1003D0002E5F3F4F28303105E9F68CE291E0909393
:1003E0005201809351014C5251405093540140931B
:1003F0005301DF91CF911F9108951F920F920FB675
:100400000F9211242F933F938F939F93EF93FF931A
:100410008BB190E489278BB9809116018F5F80930F
:100420001601809116018A3011F410921601E091A4
:100430001601F0E0EE0FFF1FEF5BFE4F20813181D0
:10044000C901880F991F820F931F969587959093E6
:10045000890080938800FF91EF919F918F913F9148
:100460002F910F900FBE0F901F9018951F93569AC3
:100470005E9859DF10923C0180E480933D018093A7
:100480003E0180933F0178DF8091810088608093F6
:1004900081002091410130914201C901880F991FCB
:1004A000820F931F9695879590938900809388007B
:1004B00080916F00826080936F00789480918100BA
:1004C00082608093810018C011E0DADE811111E0B2
:1004D000809116018930C9F71123B9F38091880002
:1004E000909189002091840030918500821B930BAC
:1004F0008C34910548F340DF10E0E7CFFC018081A8
:1005000080768032E1F48181813041F485E591E0AB
:10051000909374018093730184E00895823041F4D4
:1005200087E191E0909374018093730181E00895D5
:100530008A3029F483818093170180E0089580E058
:1005400008952ED054985C9824E031E048EB5BE0AD
:1005500003C0CA010197F1F721503040D1F7549AF6
:100560005C9A7894E0DE29D08091640184FF04C015
:1005700085E591E064E034D183DE8823A1F38091A6
:100580003C018093550180913D01809356018091FB
:100590003E018093570180913F0180935801E3CF42
:1005A000E9E6F0E0808182608083E89A8BE48093C2
:1005B00065018AE58093640108951F93CF93DF93CB
:1005C00090917501935097FDB0C020917201809178
:1005D00071018D3209F0A7C0983009F0A4C0CCE0B9
:1005E000D0E0C21BD109C758DE4F83EC809359017C
:1005F0008AE580931301109218018881807621F09A
:10060000CE017CDF282F86C09A81109262018981F9
:10061000882321F41092630122E076C0853019F41A
:100620009093760170C0863009F059C08B8181307B
:1006300041F48EEA90E0909374018093730122E17B
:100640004AC0823041F480EC90E090937401809332
:10065000730122E240C0833049F58A81882341F446
:1006600082E590E0909374018093730124E033C09D
:10067000813041F486E590E090937401809373019A
:100680002AE029C0823041F480E690E09093740122
:100690008093730120E21FC08330E1F480E890E092
:1006A00090937401809373012EE215C0813241F45E
:1006B00082ED90E0909374018093730129E00BC068
:1006C000823241F484E390E090937401809373014B
:1006D0002EE101C020E080E4809318011BC0883027
:1006E00021F421E088E791E011C0893019F490935A
:1006F000780109C08A3011F421E006C08B3019F46A
:100700008BE48093650120E082E691E09093740190
:10071000809373018F81882321F48E81821708F4DE
:10072000282F20931401109275018091130184FFEA
:1007300049C0809114018F3F09F444C0182F8930BB
:1007400008F018E0811B809314018091590198E80A
:10075000892780935901112341F120917301309130
:1007600074018091180186FF0DC0AAE5B1E080E018
:1007700090E0F901E80FF91FE491ED930196181745
:10078000C1F708C0912FD901EAE5F1E08D9181937D
:100790009150E1F71150812F90E01F5F0196820F79
:1007A000931F90937401809373018AE591E0612F08
:1007B0004ED0612F6C5F6C3019F08FEF8093140175
:1007C0006093130194E189B18C7031F49150D9F7A1
:1007D0001092760110927001DF91CF911F910895D0
:1007E0001F93DC01162F8091640184FF07C0809164
:1007F000650198E889278093650103C08AE58093A5
:100800006401912FE6E6F1E08D91819391501916E4
:10081000DCF386E691E0612F1AD01C5F109364012F
:100820001F910895A82FB92F80E090E041E050EA91
:10083000609530E009C02D9182279795879510F03B
:1008400084279527305EC8F36F5FA8F30895EADF29
:100850008D939D930895CF93CFB7CF93C3954B9B23
:10086000E9F74B9B09C04B9B07C04B9B05C04B9BBB
:1008700003C04B9B01C0A3C0DF93C0917201DD2771
:10088000C758DE4F4B9B02C0DF91EBCF2F930F93E6
:100890001F9309B12FEF03FB20F94F933F9319B139
:1008A0004FEF012703FB21F93BE031C04E7F012FC1
:1008B00019B1216028C0102F4D7F2260000009B1BE
:1008C00029C04B7F2460012F000019B12BC019B142
:1008D000477F28602AC04F7E09B120612CC04F7D20
:1008E00019B120622FC04F7B09B1206432C042276A
:1008F00009B149934FEF0000102713FB20F919B1FC
:100900001C70C9F1297F91F2012703FB21F909B17C
:10091000237F89F2315058F1102713FB22F919B1C6
:10092000277E79F2012703FB23F92F7C81F209B19D
:10093000102713FB24F92F7971F200C019B1012798
:1009400003FB25F92F7359F200C009B1102713FBDF
:1009500026F9223040F200C019B1012703FB27F924
:10096000243028F64F77206819B10000F9CF11E044
:100970001CBB002719C03B503195C31BD04011E070
:100980001CBB0881033CF9F00B34E9F020917001A5
:100990001981110F1213EDCF4A81441F093641F11D
:1009A0000D3211F0013E29F7009377013F914F91ED
:1009B0001F910F912F91DF91CCB3C0FD4FCFCF91FD
:1009C000CFBFCF91189520917701222379F3109111
:1009D0007501112369F534306AF130937501209364
:1009E0007101109172013BE0311B3093720122C002
:1009F000009175010130E4F40AE54F7049F430913B
:100A0000130134FD19C000931301C9E5D1E018C0EA
:100A10003091640134FD10C000936401C5E6D1E05B
:100A20000FC02795A8F45150A9F4220F0000F9CF68
:100A30004AE503C042ED01C0432FC4E1D0E032E0FB
:100A40001AB11C605B9A1AB90BB120E41CE05F93E9
:100A5000012756E00BB9279520F4515021F4220FBD
:100A6000F9CF012756E000003B5A0BB9D0F2279589
:100A700028F4515029F4220F0000F9CF012756E045
:100A800027950BB920F4515021F4220FF9CF0127FB
:100A900056E0299133230BB921F6037F109176019B
:100AA000110FC651D0400BB911F01093700111E035
:100AB0001CBB08601AB1137F402F437F5F9100C0B9
:0E0AC00000C00BB91AB94BB971CFF894FFCF33
:100ACE0000000002000000008D0000000000344312
:060ADE001010015AFF0098
:00000001FF
